{
	"ExportArrivalLogistics.sol": {
		"ExportArrivalLogistics": {
			"abi": [
				{
					"inputs": [
						{
							"internalType": "address",
							"name": "_farmerContractAddress",
							"type": "address"
						}
					],
					"stateMutability": "nonpayable",
					"type": "constructor"
				},
				{
					"anonymous": false,
					"inputs": [
						{
							"indexed": false,
							"internalType": "uint256",
							"name": "batchId",
							"type": "uint256"
						},
						{
							"indexed": false,
							"internalType": "string",
							"name": "transportType",
							"type": "string"
						},
						{
							"indexed": false,
							"internalType": "string",
							"name": "originPort",
							"type": "string"
						},
						{
							"indexed": false,
							"internalType": "string",
							"name": "departureDate",
							"type": "string"
						},
						{
							"indexed": false,
							"internalType": "string",
							"name": "arrivalDate",
							"type": "string"
						},
						{
							"indexed": false,
							"internalType": "string",
							"name": "arrivalLocation",
							"type": "string"
						},
						{
							"indexed": false,
							"internalType": "bool",
							"name": "delayed",
							"type": "bool"
						},
						{
							"indexed": false,
							"internalType": "address",
							"name": "exporter",
							"type": "address"
						}
					],
					"name": "ArrivalLogged",
					"type": "event"
				},
				{
					"inputs": [
						{
							"internalType": "uint256",
							"name": "",
							"type": "uint256"
						}
					],
					"name": "arrivals",
					"outputs": [
						{
							"internalType": "uint256",
							"name": "batchId",
							"type": "uint256"
						},
						{
							"internalType": "string",
							"name": "transportType",
							"type": "string"
						},
						{
							"internalType": "string",
							"name": "originPort",
							"type": "string"
						},
						{
							"internalType": "string",
							"name": "departureDate",
							"type": "string"
						},
						{
							"internalType": "string",
							"name": "arrivalDate",
							"type": "string"
						},
						{
							"internalType": "string",
							"name": "arrivalLocation",
							"type": "string"
						},
						{
							"internalType": "bool",
							"name": "delayed",
							"type": "bool"
						},
						{
							"internalType": "bool",
							"name": "logged",
							"type": "bool"
						}
					],
					"stateMutability": "view",
					"type": "function"
				},
				{
					"inputs": [],
					"name": "farmerContract",
					"outputs": [
						{
							"internalType": "contract IFarmersBatchRegistration",
							"name": "",
							"type": "address"
						}
					],
					"stateMutability": "view",
					"type": "function"
				},
				{
					"inputs": [
						{
							"internalType": "uint256",
							"name": "_batchId",
							"type": "uint256"
						}
					],
					"name": "getArrival",
					"outputs": [
						{
							"components": [
								{
									"internalType": "uint256",
									"name": "batchId",
									"type": "uint256"
								},
								{
									"internalType": "string",
									"name": "transportType",
									"type": "string"
								},
								{
									"internalType": "string",
									"name": "originPort",
									"type": "string"
								},
								{
									"internalType": "string",
									"name": "departureDate",
									"type": "string"
								},
								{
									"internalType": "string",
									"name": "arrivalDate",
									"type": "string"
								},
								{
									"internalType": "string",
									"name": "arrivalLocation",
									"type": "string"
								},
								{
									"internalType": "bool",
									"name": "delayed",
									"type": "bool"
								},
								{
									"internalType": "bool",
									"name": "logged",
									"type": "bool"
								}
							],
							"internalType": "struct ExportArrivalLogistics.Arrival",
							"name": "",
							"type": "tuple"
						}
					],
					"stateMutability": "view",
					"type": "function"
				},
				{
					"inputs": [
						{
							"internalType": "uint256",
							"name": "_batchId",
							"type": "uint256"
						},
						{
							"internalType": "string",
							"name": "_transportType",
							"type": "string"
						},
						{
							"internalType": "string",
							"name": "_originPort",
							"type": "string"
						},
						{
							"internalType": "string",
							"name": "_departureDate",
							"type": "string"
						},
						{
							"internalType": "string",
							"name": "_arrivalDate",
							"type": "string"
						},
						{
							"internalType": "string",
							"name": "_arrivalLocation",
							"type": "string"
						},
						{
							"internalType": "bool",
							"name": "_delayed",
							"type": "bool"
						}
					],
					"name": "logArrival",
					"outputs": [],
					"stateMutability": "nonpayable",
					"type": "function"
				},
				{
					"inputs": [],
					"name": "owner",
					"outputs": [
						{
							"internalType": "address",
							"name": "",
							"type": "address"
						}
					],
					"stateMutability": "view",
					"type": "function"
				}
			],
			"devdoc": {
				"kind": "dev",
				"methods": {},
				"version": 1
			},
			"evm": {
				"assembly": "    /* \"ExportArrivalLogistics.sol\":450:3227  contract ExportArrivalLogistics {... */\n  mstore(0x40, 0x80)\n    /* \"ExportArrivalLogistics.sol\":568:723  constructor(address _farmerContractAddress) {... */\n  callvalue\n  dup1\n  iszero\n  tag_1\n  jumpi\n  0x00\n  dup1\n  revert\ntag_1:\n  pop\n  mload(0x40)\n  sub(codesize, bytecodeSize)\n  dup1\n  bytecodeSize\n  dup4\n  codecopy\n  dup2\n  dup2\n  add\n  0x40\n  mstore\n  dup2\n  add\n  swap1\n  tag_2\n  swap2\n  swap1\n  tag_3\n  jump\t// in\ntag_2:\n    /* \"ExportArrivalLogistics.sol\":630:640  msg.sender */\n  caller\n    /* \"ExportArrivalLogistics.sol\":622:627  owner */\n  0x00\n  dup1\n    /* \"ExportArrivalLogistics.sol\":622:640  owner = msg.sender */\n  0x0100\n  exp\n  dup2\n  sload\n  dup2\n  0xffffffffffffffffffffffffffffffffffffffff\n  mul\n  not\n  and\n  swap1\n  dup4\n  0xffffffffffffffffffffffffffffffffffffffff\n  and\n  mul\n  or\n  swap1\n  sstore\n  pop\n    /* \"ExportArrivalLogistics.sol\":693:715  _farmerContractAddress */\n  dup1\n    /* \"ExportArrivalLogistics.sol\":650:664  farmerContract */\n  0x01\n  0x00\n    /* \"ExportArrivalLogistics.sol\":650:716  farmerContract = IFarmersBatchRegistration(_farmerContractAddress) */\n  0x0100\n  exp\n  dup2\n  sload\n  dup2\n  0xffffffffffffffffffffffffffffffffffffffff\n  mul\n  not\n  and\n  swap1\n  dup4\n  0xffffffffffffffffffffffffffffffffffffffff\n  and\n  mul\n  or\n  swap1\n  sstore\n  pop\n    /* \"ExportArrivalLogistics.sol\":568:723  constructor(address _farmerContractAddress) {... */\n  pop\n    /* \"ExportArrivalLogistics.sol\":450:3227  contract ExportArrivalLogistics {... */\n  jump(tag_6)\n    /* \"#utility.yul\":88:205   */\ntag_8:\n    /* \"#utility.yul\":197:198   */\n  0x00\n    /* \"#utility.yul\":194:195   */\n  dup1\n    /* \"#utility.yul\":187:199   */\n  revert\n    /* \"#utility.yul\":334:460   */\ntag_10:\n    /* \"#utility.yul\":371:378   */\n  0x00\n    /* \"#utility.yul\":411:453   */\n  0xffffffffffffffffffffffffffffffffffffffff\n    /* \"#utility.yul\":404:409   */\n  dup3\n    /* \"#utility.yul\":400:454   */\n  and\n    /* \"#utility.yul\":389:454   */\n  swap1\n  pop\n    /* \"#utility.yul\":334:460   */\n  swap2\n  swap1\n  pop\n  jump\t// out\n    /* \"#utility.yul\":466:562   */\ntag_11:\n    /* \"#utility.yul\":503:510   */\n  0x00\n    /* \"#utility.yul\":532:556   */\n  tag_20\n    /* \"#utility.yul\":550:555   */\n  dup3\n    /* \"#utility.yul\":532:556   */\n  tag_10\n  jump\t// in\ntag_20:\n    /* \"#utility.yul\":521:556   */\n  swap1\n  pop\n    /* \"#utility.yul\":466:562   */\n  swap2\n  swap1\n  pop\n  jump\t// out\n    /* \"#utility.yul\":568:690   */\ntag_12:\n    /* \"#utility.yul\":641:665   */\n  tag_22\n    /* \"#utility.yul\":659:664   */\n  dup2\n    /* \"#utility.yul\":641:665   */\n  tag_11\n  jump\t// in\ntag_22:\n    /* \"#utility.yul\":634:639   */\n  dup2\n    /* \"#utility.yul\":631:666   */\n  eq\n    /* \"#utility.yul\":621:684   */\n  tag_23\n  jumpi\n    /* \"#utility.yul\":680:681   */\n  0x00\n    /* \"#utility.yul\":677:678   */\n  dup1\n    /* \"#utility.yul\":670:682   */\n  revert\n    /* \"#utility.yul\":621:684   */\ntag_23:\n    /* \"#utility.yul\":568:690   */\n  pop\n  jump\t// out\n    /* \"#utility.yul\":696:839   */\ntag_13:\n    /* \"#utility.yul\":753:758   */\n  0x00\n    /* \"#utility.yul\":784:790   */\n  dup2\n    /* \"#utility.yul\":778:791   */\n  mload\n    /* \"#utility.yul\":769:791   */\n  swap1\n  pop\n    /* \"#utility.yul\":800:833   */\n  tag_25\n    /* \"#utility.yul\":827:832   */\n  dup2\n    /* \"#utility.yul\":800:833   */\n  tag_12\n  jump\t// in\ntag_25:\n    /* \"#utility.yul\":696:839   */\n  swap3\n  swap2\n  pop\n  pop\n  jump\t// out\n    /* \"#utility.yul\":845:1196   */\ntag_3:\n    /* \"#utility.yul\":915:921   */\n  0x00\n    /* \"#utility.yul\":964:966   */\n  0x20\n    /* \"#utility.yul\":952:961   */\n  dup3\n    /* \"#utility.yul\":943:950   */\n  dup5\n    /* \"#utility.yul\":939:962   */\n  sub\n    /* \"#utility.yul\":935:967   */\n  slt\n    /* \"#utility.yul\":932:1051   */\n  iszero\n  tag_27\n  jumpi\n    /* \"#utility.yul\":970:1049   */\n  tag_28\n  tag_8\n  jump\t// in\ntag_28:\n    /* \"#utility.yul\":932:1051   */\ntag_27:\n    /* \"#utility.yul\":1090:1091   */\n  0x00\n    /* \"#utility.yul\":1115:1179   */\n  tag_29\n    /* \"#utility.yul\":1171:1178   */\n  dup5\n    /* \"#utility.yul\":1162:1168   */\n  dup3\n    /* \"#utility.yul\":1151:1160   */\n  dup6\n    /* \"#utility.yul\":1147:1169   */\n  add\n    /* \"#utility.yul\":1115:1179   */\n  tag_13\n  jump\t// in\ntag_29:\n    /* \"#utility.yul\":1105:1179   */\n  swap2\n  pop\n    /* \"#utility.yul\":1061:1189   */\n  pop\n    /* \"#utility.yul\":845:1196   */\n  swap3\n  swap2\n  pop\n  pop\n  jump\t// out\n    /* \"ExportArrivalLogistics.sol\":450:3227  contract ExportArrivalLogistics {... */\ntag_6:\n  dataSize(sub_0)\n  dup1\n  dataOffset(sub_0)\n  0x00\n  codecopy\n  0x00\n  return\nstop\n\nsub_0: assembly {\n        /* \"ExportArrivalLogistics.sol\":450:3227  contract ExportArrivalLogistics {... */\n      mstore(0x40, 0x80)\n      callvalue\n      dup1\n      iszero\n      tag_1\n      jumpi\n      0x00\n      dup1\n      revert\n    tag_1:\n      pop\n      jumpi(tag_2, lt(calldatasize, 0x04))\n      shr(0xe0, calldataload(0x00))\n      dup1\n      0x42cd0723\n      eq\n      tag_3\n      jumpi\n      dup1\n      0x5ed7cac6\n      eq\n      tag_4\n      jumpi\n      dup1\n      0x7aa56e62\n      eq\n      tag_5\n      jumpi\n      dup1\n      0x8da5cb5b\n      eq\n      tag_6\n      jumpi\n      dup1\n      0x9c0b7d46\n      eq\n      tag_7\n      jumpi\n    tag_2:\n      0x00\n      dup1\n      revert\n        /* \"ExportArrivalLogistics.sol\":2684:2801  function getArrival(uint256 _batchId) public view returns (Arrival memory) {... */\n    tag_3:\n      tag_8\n      0x04\n      dup1\n      calldatasize\n      sub\n      dup2\n      add\n      swap1\n      tag_9\n      swap2\n      swap1\n      tag_10\n      jump\t// in\n    tag_9:\n      tag_11\n      jump\t// in\n    tag_8:\n      mload(0x40)\n      tag_12\n      swap2\n      swap1\n      tag_13\n      jump\t// in\n    tag_12:\n      mload(0x40)\n      dup1\n      swap2\n      sub\n      swap1\n      return\n        /* \"ExportArrivalLogistics.sol\":1588:2625  function logArrival(... */\n    tag_4:\n      tag_14\n      0x04\n      dup1\n      calldatasize\n      sub\n      dup2\n      add\n      swap1\n      tag_15\n      swap2\n      swap1\n      tag_16\n      jump\t// in\n    tag_15:\n      tag_17\n      jump\t// in\n    tag_14:\n      stop\n        /* \"ExportArrivalLogistics.sol\":1177:1220  mapping(uint256 => Arrival) public arrivals */\n    tag_5:\n      tag_18\n      0x04\n      dup1\n      calldatasize\n      sub\n      dup2\n      add\n      swap1\n      tag_19\n      swap2\n      swap1\n      tag_10\n      jump\t// in\n    tag_19:\n      tag_20\n      jump\t// in\n    tag_18:\n      mload(0x40)\n      tag_21\n      swap9\n      swap8\n      swap7\n      swap6\n      swap5\n      swap4\n      swap3\n      swap2\n      swap1\n      tag_22\n      jump\t// in\n    tag_21:\n      mload(0x40)\n      dup1\n      swap2\n      sub\n      swap1\n      return\n        /* \"ExportArrivalLogistics.sol\":488:508  address public owner */\n    tag_6:\n      tag_23\n      tag_24\n      jump\t// in\n    tag_23:\n      mload(0x40)\n      tag_25\n      swap2\n      swap1\n      tag_26\n      jump\t// in\n    tag_25:\n      mload(0x40)\n      dup1\n      swap2\n      sub\n      swap1\n      return\n        /* \"ExportArrivalLogistics.sol\":514:561  IFarmersBatchRegistration public farmerContract */\n    tag_7:\n      tag_27\n      tag_28\n      jump\t// in\n    tag_27:\n      mload(0x40)\n      tag_29\n      swap2\n      swap1\n      tag_30\n      jump\t// in\n    tag_29:\n      mload(0x40)\n      dup1\n      swap2\n      sub\n      swap1\n      return\n        /* \"ExportArrivalLogistics.sol\":2684:2801  function getArrival(uint256 _batchId) public view returns (Arrival memory) {... */\n    tag_11:\n        /* \"ExportArrivalLogistics.sol\":2743:2757  Arrival memory */\n      tag_31\n      tag_32\n      jump\t// in\n    tag_31:\n        /* \"ExportArrivalLogistics.sol\":2776:2784  arrivals */\n      0x02\n        /* \"ExportArrivalLogistics.sol\":2776:2794  arrivals[_batchId] */\n      0x00\n        /* \"ExportArrivalLogistics.sol\":2785:2793  _batchId */\n      dup4\n        /* \"ExportArrivalLogistics.sol\":2776:2794  arrivals[_batchId] */\n      dup2\n      mstore\n      0x20\n      add\n      swap1\n      dup2\n      mstore\n      0x20\n      add\n      0x00\n      keccak256\n        /* \"ExportArrivalLogistics.sol\":2769:2794  return arrivals[_batchId] */\n      mload(0x40)\n      dup1\n      0x0100\n      add\n      0x40\n      mstore\n      swap1\n      dup2\n      0x00\n      dup3\n      add\n      sload\n      dup2\n      mstore\n      0x20\n      add\n      0x01\n      dup3\n      add\n      dup1\n      sload\n      tag_34\n      swap1\n      tag_35\n      jump\t// in\n    tag_34:\n      dup1\n      0x1f\n      add\n      0x20\n      dup1\n      swap2\n      div\n      mul\n      0x20\n      add\n      mload(0x40)\n      swap1\n      dup2\n      add\n      0x40\n      mstore\n      dup1\n      swap3\n      swap2\n      swap1\n      dup2\n      dup2\n      mstore\n      0x20\n      add\n      dup3\n      dup1\n      sload\n      tag_36\n      swap1\n      tag_35\n      jump\t// in\n    tag_36:\n      dup1\n      iszero\n      tag_37\n      jumpi\n      dup1\n      0x1f\n      lt\n      tag_38\n      jumpi\n      0x0100\n      dup1\n      dup4\n      sload\n      div\n      mul\n      dup4\n      mstore\n      swap2\n      0x20\n      add\n      swap2\n      jump(tag_37)\n    tag_38:\n      dup3\n      add\n      swap2\n      swap1\n      0x00\n      mstore\n      keccak256(0x00, 0x20)\n      swap1\n    tag_39:\n      dup2\n      sload\n      dup2\n      mstore\n      swap1\n      0x01\n      add\n      swap1\n      0x20\n      add\n      dup1\n      dup4\n      gt\n      tag_39\n      jumpi\n      dup3\n      swap1\n      sub\n      0x1f\n      and\n      dup3\n      add\n      swap2\n    tag_37:\n      pop\n      pop\n      pop\n      pop\n      pop\n      dup2\n      mstore\n      0x20\n      add\n      0x02\n      dup3\n      add\n      dup1\n      sload\n      tag_40\n      swap1\n      tag_35\n      jump\t// in\n    tag_40:\n      dup1\n      0x1f\n      add\n      0x20\n      dup1\n      swap2\n      div\n      mul\n      0x20\n      add\n      mload(0x40)\n      swap1\n      dup2\n      add\n      0x40\n      mstore\n      dup1\n      swap3\n      swap2\n      swap1\n      dup2\n      dup2\n      mstore\n      0x20\n      add\n      dup3\n      dup1\n      sload\n      tag_41\n      swap1\n      tag_35\n      jump\t// in\n    tag_41:\n      dup1\n      iszero\n      tag_42\n      jumpi\n      dup1\n      0x1f\n      lt\n      tag_43\n      jumpi\n      0x0100\n      dup1\n      dup4\n      sload\n      div\n      mul\n      dup4\n      mstore\n      swap2\n      0x20\n      add\n      swap2\n      jump(tag_42)\n    tag_43:\n      dup3\n      add\n      swap2\n      swap1\n      0x00\n      mstore\n      keccak256(0x00, 0x20)\n      swap1\n    tag_44:\n      dup2\n      sload\n      dup2\n      mstore\n      swap1\n      0x01\n      add\n      swap1\n      0x20\n      add\n      dup1\n      dup4\n      gt\n      tag_44\n      jumpi\n      dup3\n      swap1\n      sub\n      0x1f\n      and\n      dup3\n      add\n      swap2\n    tag_42:\n      pop\n      pop\n      pop\n      pop\n      pop\n      dup2\n      mstore\n      0x20\n      add\n      0x03\n      dup3\n      add\n      dup1\n      sload\n      tag_45\n      swap1\n      tag_35\n      jump\t// in\n    tag_45:\n      dup1\n      0x1f\n      add\n      0x20\n      dup1\n      swap2\n      div\n      mul\n      0x20\n      add\n      mload(0x40)\n      swap1\n      dup2\n      add\n      0x40\n      mstore\n      dup1\n      swap3\n      swap2\n      swap1\n      dup2\n      dup2\n      mstore\n      0x20\n      add\n      dup3\n      dup1\n      sload\n      tag_46\n      swap1\n      tag_35\n      jump\t// in\n    tag_46:\n      dup1\n      iszero\n      tag_47\n      jumpi\n      dup1\n      0x1f\n      lt\n      tag_48\n      jumpi\n      0x0100\n      dup1\n      dup4\n      sload\n      div\n      mul\n      dup4\n      mstore\n      swap2\n      0x20\n      add\n      swap2\n      jump(tag_47)\n    tag_48:\n      dup3\n      add\n      swap2\n      swap1\n      0x00\n      mstore\n      keccak256(0x00, 0x20)\n      swap1\n    tag_49:\n      dup2\n      sload\n      dup2\n      mstore\n      swap1\n      0x01\n      add\n      swap1\n      0x20\n      add\n      dup1\n      dup4\n      gt\n      tag_49\n      jumpi\n      dup3\n      swap1\n      sub\n      0x1f\n      and\n      dup3\n      add\n      swap2\n    tag_47:\n      pop\n      pop\n      pop\n      pop\n      pop\n      dup2\n      mstore\n      0x20\n      add\n      0x04\n      dup3\n      add\n      dup1\n      sload\n      tag_50\n      swap1\n      tag_35\n      jump\t// in\n    tag_50:\n      dup1\n      0x1f\n      add\n      0x20\n      dup1\n      swap2\n      div\n      mul\n      0x20\n      add\n      mload(0x40)\n      swap1\n      dup2\n      add\n      0x40\n      mstore\n      dup1\n      swap3\n      swap2\n      swap1\n      dup2\n      dup2\n      mstore\n      0x20\n      add\n      dup3\n      dup1\n      sload\n      tag_51\n      swap1\n      tag_35\n      jump\t// in\n    tag_51:\n      dup1\n      iszero\n      tag_52\n      jumpi\n      dup1\n      0x1f\n      lt\n      tag_53\n      jumpi\n      0x0100\n      dup1\n      dup4\n      sload\n      div\n      mul\n      dup4\n      mstore\n      swap2\n      0x20\n      add\n      swap2\n      jump(tag_52)\n    tag_53:\n      dup3\n      add\n      swap2\n      swap1\n      0x00\n      mstore\n      keccak256(0x00, 0x20)\n      swap1\n    tag_54:\n      dup2\n      sload\n      dup2\n      mstore\n      swap1\n      0x01\n      add\n      swap1\n      0x20\n      add\n      dup1\n      dup4\n      gt\n      tag_54\n      jumpi\n      dup3\n      swap1\n      sub\n      0x1f\n      and\n      dup3\n      add\n      swap2\n    tag_52:\n      pop\n      pop\n      pop\n      pop\n      pop\n      dup2\n      mstore\n      0x20\n      add\n      0x05\n      dup3\n      add\n      dup1\n      sload\n      tag_55\n      swap1\n      tag_35\n      jump\t// in\n    tag_55:\n      dup1\n      0x1f\n      add\n      0x20\n      dup1\n      swap2\n      div\n      mul\n      0x20\n      add\n      mload(0x40)\n      swap1\n      dup2\n      add\n      0x40\n      mstore\n      dup1\n      swap3\n      swap2\n      swap1\n      dup2\n      dup2\n      mstore\n      0x20\n      add\n      dup3\n      dup1\n      sload\n      tag_56\n      swap1\n      tag_35\n      jump\t// in\n    tag_56:\n      dup1\n      iszero\n      tag_57\n      jumpi\n      dup1\n      0x1f\n      lt\n      tag_58\n      jumpi\n      0x0100\n      dup1\n      dup4\n      sload\n      div\n      mul\n      dup4\n      mstore\n      swap2\n      0x20\n      add\n      swap2\n      jump(tag_57)\n    tag_58:\n      dup3\n      add\n      swap2\n      swap1\n      0x00\n      mstore\n      keccak256(0x00, 0x20)\n      swap1\n    tag_59:\n      dup2\n      sload\n      dup2\n      mstore\n      swap1\n      0x01\n      add\n      swap1\n      0x20\n      add\n      dup1\n      dup4\n      gt\n      tag_59\n      jumpi\n      dup3\n      swap1\n      sub\n      0x1f\n      and\n      dup3\n      add\n      swap2\n    tag_57:\n      pop\n      pop\n      pop\n      pop\n      pop\n      dup2\n      mstore\n      0x20\n      add\n      0x06\n      dup3\n      add\n      0x00\n      swap1\n      sload\n      swap1\n      0x0100\n      exp\n      swap1\n      div\n      0xff\n      and\n      iszero\n      iszero\n      iszero\n      iszero\n      dup2\n      mstore\n      0x20\n      add\n      0x06\n      dup3\n      add\n      0x01\n      swap1\n      sload\n      swap1\n      0x0100\n      exp\n      swap1\n      div\n      0xff\n      and\n      iszero\n      iszero\n      iszero\n      iszero\n      dup2\n      mstore\n      pop\n      pop\n      swap1\n      pop\n        /* \"ExportArrivalLogistics.sol\":2684:2801  function getArrival(uint256 _batchId) public view returns (Arrival memory) {... */\n      swap2\n      swap1\n      pop\n      jump\t// out\n        /* \"ExportArrivalLogistics.sol\":1588:2625  function logArrival(... */\n    tag_17:\n        /* \"ExportArrivalLogistics.sol\":785:790  owner */\n      0x00\n      dup1\n      sload\n      swap1\n      0x0100\n      exp\n      swap1\n      div\n      0xffffffffffffffffffffffffffffffffffffffff\n      and\n        /* \"ExportArrivalLogistics.sol\":771:790  msg.sender == owner */\n      0xffffffffffffffffffffffffffffffffffffffff\n      and\n        /* \"ExportArrivalLogistics.sol\":771:781  msg.sender */\n      caller\n        /* \"ExportArrivalLogistics.sol\":771:790  msg.sender == owner */\n      0xffffffffffffffffffffffffffffffffffffffff\n      and\n      eq\n        /* \"ExportArrivalLogistics.sol\":763:833  require(msg.sender == owner, \"Only verified exporter can log arrival\") */\n      tag_61\n      jumpi\n      mload(0x40)\n      0x08c379a000000000000000000000000000000000000000000000000000000000\n      dup2\n      mstore\n      0x04\n      add\n      tag_62\n      swap1\n      tag_63\n      jump\t// in\n    tag_62:\n      mload(0x40)\n      dup1\n      swap2\n      sub\n      swap1\n      revert\n    tag_61:\n        /* \"ExportArrivalLogistics.sol\":1889:1897  arrivals */\n      0x02\n        /* \"ExportArrivalLogistics.sol\":1889:1907  arrivals[_batchId] */\n      0x00\n        /* \"ExportArrivalLogistics.sol\":1898:1906  _batchId */\n      dup9\n        /* \"ExportArrivalLogistics.sol\":1889:1907  arrivals[_batchId] */\n      dup2\n      mstore\n      0x20\n      add\n      swap1\n      dup2\n      mstore\n      0x20\n      add\n      0x00\n      keccak256\n        /* \"ExportArrivalLogistics.sol\":1889:1914  arrivals[_batchId].logged */\n      0x06\n      add\n      0x01\n      swap1\n      sload\n      swap1\n      0x0100\n      exp\n      swap1\n      div\n      0xff\n      and\n        /* \"ExportArrivalLogistics.sol\":1888:1914  !arrivals[_batchId].logged */\n      iszero\n        /* \"ExportArrivalLogistics.sol\":1880:1941  require(!arrivals[_batchId].logged, \"Arrival already logged\") */\n      tag_65\n      jumpi\n      mload(0x40)\n      0x08c379a000000000000000000000000000000000000000000000000000000000\n      dup2\n      mstore\n      0x04\n      add\n      tag_66\n      swap1\n      tag_67\n      jump\t// in\n    tag_66:\n      mload(0x40)\n      dup1\n      swap2\n      sub\n      swap1\n      revert\n    tag_65:\n        /* \"ExportArrivalLogistics.sol\":1959:1984  _isValidBatchId(_batchId) */\n      tag_68\n        /* \"ExportArrivalLogistics.sol\":1975:1983  _batchId */\n      dup8\n        /* \"ExportArrivalLogistics.sol\":1959:1974  _isValidBatchId */\n      tag_69\n        /* \"ExportArrivalLogistics.sol\":1959:1984  _isValidBatchId(_batchId) */\n      jump\t// in\n    tag_68:\n        /* \"ExportArrivalLogistics.sol\":1951:2026  require(_isValidBatchId(_batchId), \"Batch ID not found in farmer contract\") */\n      tag_70\n      jumpi\n      mload(0x40)\n      0x08c379a000000000000000000000000000000000000000000000000000000000\n      dup2\n      mstore\n      0x04\n      add\n      tag_71\n      swap1\n      tag_72\n      jump\t// in\n    tag_71:\n      mload(0x40)\n      dup1\n      swap2\n      sub\n      swap1\n      revert\n    tag_70:\n        /* \"ExportArrivalLogistics.sol\":2058:2374  Arrival({... */\n      mload(0x40)\n      dup1\n      0x0100\n      add\n      0x40\n      mstore\n      dup1\n        /* \"ExportArrivalLogistics.sol\":2089:2097  _batchId */\n      dup9\n        /* \"ExportArrivalLogistics.sol\":2058:2374  Arrival({... */\n      dup2\n      mstore\n      0x20\n      add\n        /* \"ExportArrivalLogistics.sol\":2126:2140  _transportType */\n      dup8\n        /* \"ExportArrivalLogistics.sol\":2058:2374  Arrival({... */\n      dup2\n      mstore\n      0x20\n      add\n        /* \"ExportArrivalLogistics.sol\":2166:2177  _originPort */\n      dup7\n        /* \"ExportArrivalLogistics.sol\":2058:2374  Arrival({... */\n      dup2\n      mstore\n      0x20\n      add\n        /* \"ExportArrivalLogistics.sol\":2206:2220  _departureDate */\n      dup6\n        /* \"ExportArrivalLogistics.sol\":2058:2374  Arrival({... */\n      dup2\n      mstore\n      0x20\n      add\n        /* \"ExportArrivalLogistics.sol\":2247:2259  _arrivalDate */\n      dup5\n        /* \"ExportArrivalLogistics.sol\":2058:2374  Arrival({... */\n      dup2\n      mstore\n      0x20\n      add\n        /* \"ExportArrivalLogistics.sol\":2290:2306  _arrivalLocation */\n      dup4\n        /* \"ExportArrivalLogistics.sol\":2058:2374  Arrival({... */\n      dup2\n      mstore\n      0x20\n      add\n        /* \"ExportArrivalLogistics.sol\":2329:2337  _delayed */\n      dup3\n        /* \"ExportArrivalLogistics.sol\":2058:2374  Arrival({... */\n      iszero\n      iszero\n      dup2\n      mstore\n      0x20\n      add\n        /* \"ExportArrivalLogistics.sol\":2359:2363  true */\n      0x01\n        /* \"ExportArrivalLogistics.sol\":2058:2374  Arrival({... */\n      iszero\n      iszero\n      dup2\n      mstore\n      pop\n        /* \"ExportArrivalLogistics.sol\":2037:2045  arrivals */\n      0x02\n        /* \"ExportArrivalLogistics.sol\":2037:2055  arrivals[_batchId] */\n      0x00\n        /* \"ExportArrivalLogistics.sol\":2046:2054  _batchId */\n      dup10\n        /* \"ExportArrivalLogistics.sol\":2037:2055  arrivals[_batchId] */\n      dup2\n      mstore\n      0x20\n      add\n      swap1\n      dup2\n      mstore\n      0x20\n      add\n      0x00\n      keccak256\n        /* \"ExportArrivalLogistics.sol\":2037:2374  arrivals[_batchId] = Arrival({... */\n      0x00\n      dup3\n      add\n      mload\n      dup2\n      0x00\n      add\n      sstore\n      0x20\n      dup3\n      add\n      mload\n      dup2\n      0x01\n      add\n      swap1\n      dup2\n      tag_73\n      swap2\n      swap1\n      tag_74\n      jump\t// in\n    tag_73:\n      pop\n      0x40\n      dup3\n      add\n      mload\n      dup2\n      0x02\n      add\n      swap1\n      dup2\n      tag_75\n      swap2\n      swap1\n      tag_74\n      jump\t// in\n    tag_75:\n      pop\n      0x60\n      dup3\n      add\n      mload\n      dup2\n      0x03\n      add\n      swap1\n      dup2\n      tag_76\n      swap2\n      swap1\n      tag_74\n      jump\t// in\n    tag_76:\n      pop\n      0x80\n      dup3\n      add\n      mload\n      dup2\n      0x04\n      add\n      swap1\n      dup2\n      tag_77\n      swap2\n      swap1\n      tag_74\n      jump\t// in\n    tag_77:\n      pop\n      0xa0\n      dup3\n      add\n      mload\n      dup2\n      0x05\n      add\n      swap1\n      dup2\n      tag_78\n      swap2\n      swap1\n      tag_74\n      jump\t// in\n    tag_78:\n      pop\n      0xc0\n      dup3\n      add\n      mload\n      dup2\n      0x06\n      add\n      exp(0x0100, 0x00)\n      dup2\n      sload\n      dup2\n      0xff\n      mul\n      not\n      and\n      swap1\n      dup4\n      iszero\n      iszero\n      mul\n      or\n      swap1\n      sstore\n      pop\n      0xe0\n      dup3\n      add\n      mload\n      dup2\n      0x06\n      add\n      exp(0x0100, 0x01)\n      dup2\n      sload\n      dup2\n      0xff\n      mul\n      not\n      and\n      swap1\n      dup4\n      iszero\n      iszero\n      mul\n      or\n      swap1\n      sstore\n      pop\n      swap1\n      pop\n      pop\n        /* \"ExportArrivalLogistics.sol\":2390:2618  ArrivalLogged(... */\n      0x99d7a77e37a6b1e9cbda84bdafdc0f6133887101e0be926bd86c47ecef736f80\n        /* \"ExportArrivalLogistics.sol\":2417:2425  _batchId */\n      dup8\n        /* \"ExportArrivalLogistics.sol\":2439:2453  _transportType */\n      dup8\n        /* \"ExportArrivalLogistics.sol\":2467:2478  _originPort */\n      dup8\n        /* \"ExportArrivalLogistics.sol\":2492:2506  _departureDate */\n      dup8\n        /* \"ExportArrivalLogistics.sol\":2520:2532  _arrivalDate */\n      dup8\n        /* \"ExportArrivalLogistics.sol\":2546:2562  _arrivalLocation */\n      dup8\n        /* \"ExportArrivalLogistics.sol\":2576:2584  _delayed */\n      dup8\n        /* \"ExportArrivalLogistics.sol\":2598:2608  msg.sender */\n      caller\n        /* \"ExportArrivalLogistics.sol\":2390:2618  ArrivalLogged(... */\n      mload(0x40)\n      tag_79\n      swap9\n      swap8\n      swap7\n      swap6\n      swap5\n      swap4\n      swap3\n      swap2\n      swap1\n      tag_80\n      jump\t// in\n    tag_79:\n      mload(0x40)\n      dup1\n      swap2\n      sub\n      swap1\n      log1\n        /* \"ExportArrivalLogistics.sol\":1588:2625  function logArrival(... */\n      pop\n      pop\n      pop\n      pop\n      pop\n      pop\n      pop\n      jump\t// out\n        /* \"ExportArrivalLogistics.sol\":1177:1220  mapping(uint256 => Arrival) public arrivals */\n    tag_20:\n      mstore(0x20, 0x02)\n      dup1\n      0x00\n      mstore\n      keccak256(0x00, 0x40)\n      0x00\n      swap2\n      pop\n      swap1\n      pop\n      dup1\n      0x00\n      add\n      sload\n      swap1\n      dup1\n      0x01\n      add\n      dup1\n      sload\n      tag_81\n      swap1\n      tag_35\n      jump\t// in\n    tag_81:\n      dup1\n      0x1f\n      add\n      0x20\n      dup1\n      swap2\n      div\n      mul\n      0x20\n      add\n      mload(0x40)\n      swap1\n      dup2\n      add\n      0x40\n      mstore\n      dup1\n      swap3\n      swap2\n      swap1\n      dup2\n      dup2\n      mstore\n      0x20\n      add\n      dup3\n      dup1\n      sload\n      tag_82\n      swap1\n      tag_35\n      jump\t// in\n    tag_82:\n      dup1\n      iszero\n      tag_83\n      jumpi\n      dup1\n      0x1f\n      lt\n      tag_84\n      jumpi\n      0x0100\n      dup1\n      dup4\n      sload\n      div\n      mul\n      dup4\n      mstore\n      swap2\n      0x20\n      add\n      swap2\n      jump(tag_83)\n    tag_84:\n      dup3\n      add\n      swap2\n      swap1\n      0x00\n      mstore\n      keccak256(0x00, 0x20)\n      swap1\n    tag_85:\n      dup2\n      sload\n      dup2\n      mstore\n      swap1\n      0x01\n      add\n      swap1\n      0x20\n      add\n      dup1\n      dup4\n      gt\n      tag_85\n      jumpi\n      dup3\n      swap1\n      sub\n      0x1f\n      and\n      dup3\n      add\n      swap2\n    tag_83:\n      pop\n      pop\n      pop\n      pop\n      pop\n      swap1\n      dup1\n      0x02\n      add\n      dup1\n      sload\n      tag_86\n      swap1\n      tag_35\n      jump\t// in\n    tag_86:\n      dup1\n      0x1f\n      add\n      0x20\n      dup1\n      swap2\n      div\n      mul\n      0x20\n      add\n      mload(0x40)\n      swap1\n      dup2\n      add\n      0x40\n      mstore\n      dup1\n      swap3\n      swap2\n      swap1\n      dup2\n      dup2\n      mstore\n      0x20\n      add\n      dup3\n      dup1\n      sload\n      tag_87\n      swap1\n      tag_35\n      jump\t// in\n    tag_87:\n      dup1\n      iszero\n      tag_88\n      jumpi\n      dup1\n      0x1f\n      lt\n      tag_89\n      jumpi\n      0x0100\n      dup1\n      dup4\n      sload\n      div\n      mul\n      dup4\n      mstore\n      swap2\n      0x20\n      add\n      swap2\n      jump(tag_88)\n    tag_89:\n      dup3\n      add\n      swap2\n      swap1\n      0x00\n      mstore\n      keccak256(0x00, 0x20)\n      swap1\n    tag_90:\n      dup2\n      sload\n      dup2\n      mstore\n      swap1\n      0x01\n      add\n      swap1\n      0x20\n      add\n      dup1\n      dup4\n      gt\n      tag_90\n      jumpi\n      dup3\n      swap1\n      sub\n      0x1f\n      and\n      dup3\n      add\n      swap2\n    tag_88:\n      pop\n      pop\n      pop\n      pop\n      pop\n      swap1\n      dup1\n      0x03\n      add\n      dup1\n      sload\n      tag_91\n      swap1\n      tag_35\n      jump\t// in\n    tag_91:\n      dup1\n      0x1f\n      add\n      0x20\n      dup1\n      swap2\n      div\n      mul\n      0x20\n      add\n      mload(0x40)\n      swap1\n      dup2\n      add\n      0x40\n      mstore\n      dup1\n      swap3\n      swap2\n      swap1\n      dup2\n      dup2\n      mstore\n      0x20\n      add\n      dup3\n      dup1\n      sload\n      tag_92\n      swap1\n      tag_35\n      jump\t// in\n    tag_92:\n      dup1\n      iszero\n      tag_93\n      jumpi\n      dup1\n      0x1f\n      lt\n      tag_94\n      jumpi\n      0x0100\n      dup1\n      dup4\n      sload\n      div\n      mul\n      dup4\n      mstore\n      swap2\n      0x20\n      add\n      swap2\n      jump(tag_93)\n    tag_94:\n      dup3\n      add\n      swap2\n      swap1\n      0x00\n      mstore\n      keccak256(0x00, 0x20)\n      swap1\n    tag_95:\n      dup2\n      sload\n      dup2\n      mstore\n      swap1\n      0x01\n      add\n      swap1\n      0x20\n      add\n      dup1\n      dup4\n      gt\n      tag_95\n      jumpi\n      dup3\n      swap1\n      sub\n      0x1f\n      and\n      dup3\n      add\n      swap2\n    tag_93:\n      pop\n      pop\n      pop\n      pop\n      pop\n      swap1\n      dup1\n      0x04\n      add\n      dup1\n      sload\n      tag_96\n      swap1\n      tag_35\n      jump\t// in\n    tag_96:\n      dup1\n      0x1f\n      add\n      0x20\n      dup1\n      swap2\n      div\n      mul\n      0x20\n      add\n      mload(0x40)\n      swap1\n      dup2\n      add\n      0x40\n      mstore\n      dup1\n      swap3\n      swap2\n      swap1\n      dup2\n      dup2\n      mstore\n      0x20\n      add\n      dup3\n      dup1\n      sload\n      tag_97\n      swap1\n      tag_35\n      jump\t// in\n    tag_97:\n      dup1\n      iszero\n      tag_98\n      jumpi\n      dup1\n      0x1f\n      lt\n      tag_99\n      jumpi\n      0x0100\n      dup1\n      dup4\n      sload\n      div\n      mul\n      dup4\n      mstore\n      swap2\n      0x20\n      add\n      swap2\n      jump(tag_98)\n    tag_99:\n      dup3\n      add\n      swap2\n      swap1\n      0x00\n      mstore\n      keccak256(0x00, 0x20)\n      swap1\n    tag_100:\n      dup2\n      sload\n      dup2\n      mstore\n      swap1\n      0x01\n      add\n      swap1\n      0x20\n      add\n      dup1\n      dup4\n      gt\n      tag_100\n      jumpi\n      dup3\n      swap1\n      sub\n      0x1f\n      and\n      dup3\n      add\n      swap2\n    tag_98:\n      pop\n      pop\n      pop\n      pop\n      pop\n      swap1\n      dup1\n      0x05\n      add\n      dup1\n      sload\n      tag_101\n      swap1\n      tag_35\n      jump\t// in\n    tag_101:\n      dup1\n      0x1f\n      add\n      0x20\n      dup1\n      swap2\n      div\n      mul\n      0x20\n      add\n      mload(0x40)\n      swap1\n      dup2\n      add\n      0x40\n      mstore\n      dup1\n      swap3\n      swap2\n      swap1\n      dup2\n      dup2\n      mstore\n      0x20\n      add\n      dup3\n      dup1\n      sload\n      tag_102\n      swap1\n      tag_35\n      jump\t// in\n    tag_102:\n      dup1\n      iszero\n      tag_103\n      jumpi\n      dup1\n      0x1f\n      lt\n      tag_104\n      jumpi\n      0x0100\n      dup1\n      dup4\n      sload\n      div\n      mul\n      dup4\n      mstore\n      swap2\n      0x20\n      add\n      swap2\n      jump(tag_103)\n    tag_104:\n      dup3\n      add\n      swap2\n      swap1\n      0x00\n      mstore\n      keccak256(0x00, 0x20)\n      swap1\n    tag_105:\n      dup2\n      sload\n      dup2\n      mstore\n      swap1\n      0x01\n      add\n      swap1\n      0x20\n      add\n      dup1\n      dup4\n      gt\n      tag_105\n      jumpi\n      dup3\n      swap1\n      sub\n      0x1f\n      and\n      dup3\n      add\n      swap2\n    tag_103:\n      pop\n      pop\n      pop\n      pop\n      pop\n      swap1\n      dup1\n      0x06\n      add\n      0x00\n      swap1\n      sload\n      swap1\n      0x0100\n      exp\n      swap1\n      div\n      0xff\n      and\n      swap1\n      dup1\n      0x06\n      add\n      0x01\n      swap1\n      sload\n      swap1\n      0x0100\n      exp\n      swap1\n      div\n      0xff\n      and\n      swap1\n      pop\n      dup9\n      jump\t// out\n        /* \"ExportArrivalLogistics.sol\":488:508  address public owner */\n    tag_24:\n      0x00\n      dup1\n      sload\n      swap1\n      0x0100\n      exp\n      swap1\n      div\n      0xffffffffffffffffffffffffffffffffffffffff\n      and\n      dup2\n      jump\t// out\n        /* \"ExportArrivalLogistics.sol\":514:561  IFarmersBatchRegistration public farmerContract */\n    tag_28:\n      0x01\n      0x00\n      swap1\n      sload\n      swap1\n      0x0100\n      exp\n      swap1\n      div\n      0xffffffffffffffffffffffffffffffffffffffff\n      and\n      dup2\n      jump\t// out\n        /* \"ExportArrivalLogistics.sol\":2874:3225  function _isValidBatchId(uint256 _batchId) internal view returns (bool) {... */\n    tag_69:\n        /* \"ExportArrivalLogistics.sol\":2940:2944  bool */\n      0x00\n        /* \"ExportArrivalLogistics.sol\":2956:2969  uint256 count */\n      dup1\n        /* \"ExportArrivalLogistics.sol\":2972:2986  farmerContract */\n      0x01\n      0x00\n      swap1\n      sload\n      swap1\n      0x0100\n      exp\n      swap1\n      div\n      0xffffffffffffffffffffffffffffffffffffffff\n      and\n        /* \"ExportArrivalLogistics.sol\":2972:3000  farmerContract.getBatchCount */\n      0xffffffffffffffffffffffffffffffffffffffff\n      and\n      0xa8fabfa5\n        /* \"ExportArrivalLogistics.sol\":2972:3002  farmerContract.getBatchCount() */\n      mload(0x40)\n      dup2\n      0xffffffff\n      and\n      0xe0\n      shl\n      dup2\n      mstore\n      0x04\n      add\n      0x20\n      mload(0x40)\n      dup1\n      dup4\n      sub\n      dup2\n      dup7\n      gas\n      staticcall\n      iszero\n      dup1\n      iszero\n      tag_108\n      jumpi\n      returndatasize\n      0x00\n      dup1\n      returndatacopy\n      revert(0x00, returndatasize)\n    tag_108:\n      pop\n      pop\n      pop\n      pop\n      mload(0x40)\n      returndatasize\n      not(0x1f)\n      0x1f\n      dup3\n      add\n      and\n      dup3\n      add\n      dup1\n      0x40\n      mstore\n      pop\n      dup2\n      add\n      swap1\n      tag_109\n      swap2\n      swap1\n      tag_110\n      jump\t// in\n    tag_109:\n        /* \"ExportArrivalLogistics.sol\":2956:3002  uint256 count = farmerContract.getBatchCount() */\n      swap1\n      pop\n        /* \"ExportArrivalLogistics.sol\":3017:3026  uint256 i */\n      0x00\n        /* \"ExportArrivalLogistics.sol\":3012:3197  for (uint256 i = 0; i < count; i++) {... */\n    tag_111:\n        /* \"ExportArrivalLogistics.sol\":3036:3041  count */\n      dup2\n        /* \"ExportArrivalLogistics.sol\":3032:3033  i */\n      dup2\n        /* \"ExportArrivalLogistics.sol\":3032:3041  i < count */\n      lt\n        /* \"ExportArrivalLogistics.sol\":3012:3197  for (uint256 i = 0; i < count; i++) {... */\n      iszero\n      tag_112\n      jumpi\n        /* \"ExportArrivalLogistics.sol\":3063:3073  uint256 id */\n      0x00\n        /* \"ExportArrivalLogistics.sol\":3083:3097  farmerContract */\n      0x01\n      0x00\n      swap1\n      sload\n      swap1\n      0x0100\n      exp\n      swap1\n      div\n      0xffffffffffffffffffffffffffffffffffffffff\n      and\n        /* \"ExportArrivalLogistics.sol\":3083:3106  farmerContract.getBatch */\n      0xffffffffffffffffffffffffffffffffffffffff\n      and\n      0x5ac44282\n        /* \"ExportArrivalLogistics.sol\":3107:3108  i */\n      dup4\n        /* \"ExportArrivalLogistics.sol\":3083:3109  farmerContract.getBatch(i) */\n      mload(0x40)\n      dup3\n      0xffffffff\n      and\n      0xe0\n      shl\n      dup2\n      mstore\n      0x04\n      add\n      tag_114\n      swap2\n      swap1\n      tag_115\n      jump\t// in\n    tag_114:\n      0x00\n      mload(0x40)\n      dup1\n      dup4\n      sub\n      dup2\n      dup7\n      gas\n      staticcall\n      iszero\n      dup1\n      iszero\n      tag_117\n      jumpi\n      returndatasize\n      0x00\n      dup1\n      returndatacopy\n      revert(0x00, returndatasize)\n    tag_117:\n      pop\n      pop\n      pop\n      pop\n      mload(0x40)\n      returndatasize\n      0x00\n      dup3\n      returndatacopy\n      returndatasize\n      not(0x1f)\n      0x1f\n      dup3\n      add\n      and\n      dup3\n      add\n      dup1\n      0x40\n      mstore\n      pop\n      dup2\n      add\n      swap1\n      tag_118\n      swap2\n      swap1\n      tag_119\n      jump\t// in\n    tag_118:\n        /* \"ExportArrivalLogistics.sol\":3062:3109  (uint256 id,,,,,,) = farmerContract.getBatch(i) */\n      pop\n      pop\n      pop\n      pop\n      pop\n      pop\n      swap1\n      pop\n        /* \"ExportArrivalLogistics.sol\":3133:3141  _batchId */\n      dup5\n        /* \"ExportArrivalLogistics.sol\":3127:3129  id */\n      dup2\n        /* \"ExportArrivalLogistics.sol\":3127:3141  id == _batchId */\n      sub\n        /* \"ExportArrivalLogistics.sol\":3123:3187  if (id == _batchId) {... */\n      tag_120\n      jumpi\n        /* \"ExportArrivalLogistics.sol\":3168:3172  true */\n      0x01\n        /* \"ExportArrivalLogistics.sol\":3161:3172  return true */\n      swap4\n      pop\n      pop\n      pop\n      pop\n      jump(tag_106)\n        /* \"ExportArrivalLogistics.sol\":3123:3187  if (id == _batchId) {... */\n    tag_120:\n        /* \"ExportArrivalLogistics.sol\":3048:3197  {... */\n      pop\n        /* \"ExportArrivalLogistics.sol\":3043:3046  i++ */\n      dup1\n      dup1\n      0x01\n      add\n      swap2\n      pop\n      pop\n        /* \"ExportArrivalLogistics.sol\":3012:3197  for (uint256 i = 0; i < count; i++) {... */\n      jump(tag_111)\n    tag_112:\n      pop\n        /* \"ExportArrivalLogistics.sol\":3213:3218  false */\n      0x00\n        /* \"ExportArrivalLogistics.sol\":3206:3218  return false */\n      swap2\n      pop\n      pop\n        /* \"ExportArrivalLogistics.sol\":2874:3225  function _isValidBatchId(uint256 _batchId) internal view returns (bool) {... */\n    tag_106:\n      swap2\n      swap1\n      pop\n      jump\t// out\n    tag_32:\n      mload(0x40)\n      dup1\n      0x0100\n      add\n      0x40\n      mstore\n      dup1\n      0x00\n      dup2\n      mstore\n      0x20\n      add\n      0x60\n      dup2\n      mstore\n      0x20\n      add\n      0x60\n      dup2\n      mstore\n      0x20\n      add\n      0x60\n      dup2\n      mstore\n      0x20\n      add\n      0x60\n      dup2\n      mstore\n      0x20\n      add\n      0x60\n      dup2\n      mstore\n      0x20\n      add\n      iszero(iszero(0x00))\n      dup2\n      mstore\n      0x20\n      add\n      iszero(iszero(0x00))\n      dup2\n      mstore\n      pop\n      swap1\n      jump\t// out\n        /* \"#utility.yul\":7:82   */\n    tag_121:\n        /* \"#utility.yul\":40:46   */\n      0x00\n        /* \"#utility.yul\":73:75   */\n      0x40\n        /* \"#utility.yul\":67:76   */\n      mload\n        /* \"#utility.yul\":57:76   */\n      swap1\n      pop\n        /* \"#utility.yul\":7:82   */\n      swap1\n      jump\t// out\n        /* \"#utility.yul\":88:205   */\n    tag_122:\n        /* \"#utility.yul\":197:198   */\n      0x00\n        /* \"#utility.yul\":194:195   */\n      dup1\n        /* \"#utility.yul\":187:199   */\n      revert\n        /* \"#utility.yul\":211:328   */\n    tag_123:\n        /* \"#utility.yul\":320:321   */\n      0x00\n        /* \"#utility.yul\":317:318   */\n      dup1\n        /* \"#utility.yul\":310:322   */\n      revert\n        /* \"#utility.yul\":334:411   */\n    tag_124:\n        /* \"#utility.yul\":371:378   */\n      0x00\n        /* \"#utility.yul\":400:405   */\n      dup2\n        /* \"#utility.yul\":389:405   */\n      swap1\n      pop\n        /* \"#utility.yul\":334:411   */\n      swap2\n      swap1\n      pop\n      jump\t// out\n        /* \"#utility.yul\":417:539   */\n    tag_125:\n        /* \"#utility.yul\":490:514   */\n      tag_189\n        /* \"#utility.yul\":508:513   */\n      dup2\n        /* \"#utility.yul\":490:514   */\n      tag_124\n      jump\t// in\n    tag_189:\n        /* \"#utility.yul\":483:488   */\n      dup2\n        /* \"#utility.yul\":480:515   */\n      eq\n        /* \"#utility.yul\":470:533   */\n      tag_190\n      jumpi\n        /* \"#utility.yul\":529:530   */\n      0x00\n        /* \"#utility.yul\":526:527   */\n      dup1\n        /* \"#utility.yul\":519:531   */\n      revert\n        /* \"#utility.yul\":470:533   */\n    tag_190:\n        /* \"#utility.yul\":417:539   */\n      pop\n      jump\t// out\n        /* \"#utility.yul\":545:684   */\n    tag_126:\n        /* \"#utility.yul\":591:596   */\n      0x00\n        /* \"#utility.yul\":629:635   */\n      dup2\n        /* \"#utility.yul\":616:636   */\n      calldataload\n        /* \"#utility.yul\":607:636   */\n      swap1\n      pop\n        /* \"#utility.yul\":645:678   */\n      tag_192\n        /* \"#utility.yul\":672:677   */\n      dup2\n        /* \"#utility.yul\":645:678   */\n      tag_125\n      jump\t// in\n    tag_192:\n        /* \"#utility.yul\":545:684   */\n      swap3\n      swap2\n      pop\n      pop\n      jump\t// out\n        /* \"#utility.yul\":690:1019   */\n    tag_10:\n        /* \"#utility.yul\":749:755   */\n      0x00\n        /* \"#utility.yul\":798:800   */\n      0x20\n        /* \"#utility.yul\":786:795   */\n      dup3\n        /* \"#utility.yul\":777:784   */\n      dup5\n        /* \"#utility.yul\":773:796   */\n      sub\n        /* \"#utility.yul\":769:801   */\n      slt\n        /* \"#utility.yul\":766:885   */\n      iszero\n      tag_194\n      jumpi\n        /* \"#utility.yul\":804:883   */\n      tag_195\n      tag_122\n      jump\t// in\n    tag_195:\n        /* \"#utility.yul\":766:885   */\n    tag_194:\n        /* \"#utility.yul\":924:925   */\n      0x00\n        /* \"#utility.yul\":949:1002   */\n      tag_196\n        /* \"#utility.yul\":994:1001   */\n      dup5\n        /* \"#utility.yul\":985:991   */\n      dup3\n        /* \"#utility.yul\":974:983   */\n      dup6\n        /* \"#utility.yul\":970:992   */\n      add\n        /* \"#utility.yul\":949:1002   */\n      tag_126\n      jump\t// in\n    tag_196:\n        /* \"#utility.yul\":939:1002   */\n      swap2\n      pop\n        /* \"#utility.yul\":895:1012   */\n      pop\n        /* \"#utility.yul\":690:1019   */\n      swap3\n      swap2\n      pop\n      pop\n      jump\t// out\n        /* \"#utility.yul\":1025:1133   */\n    tag_127:\n        /* \"#utility.yul\":1102:1126   */\n      tag_198\n        /* \"#utility.yul\":1120:1125   */\n      dup2\n        /* \"#utility.yul\":1102:1126   */\n      tag_124\n      jump\t// in\n    tag_198:\n        /* \"#utility.yul\":1097:1100   */\n      dup3\n        /* \"#utility.yul\":1090:1127   */\n      mstore\n        /* \"#utility.yul\":1025:1133   */\n      pop\n      pop\n      jump\t// out\n        /* \"#utility.yul\":1139:1238   */\n    tag_128:\n        /* \"#utility.yul\":1191:1197   */\n      0x00\n        /* \"#utility.yul\":1225:1230   */\n      dup2\n        /* \"#utility.yul\":1219:1231   */\n      mload\n        /* \"#utility.yul\":1209:1231   */\n      swap1\n      pop\n        /* \"#utility.yul\":1139:1238   */\n      swap2\n      swap1\n      pop\n      jump\t// out\n        /* \"#utility.yul\":1244:1403   */\n    tag_129:\n        /* \"#utility.yul\":1318:1329   */\n      0x00\n        /* \"#utility.yul\":1352:1358   */\n      dup3\n        /* \"#utility.yul\":1347:1350   */\n      dup3\n        /* \"#utility.yul\":1340:1359   */\n      mstore\n        /* \"#utility.yul\":1392:1396   */\n      0x20\n        /* \"#utility.yul\":1387:1390   */\n      dup3\n        /* \"#utility.yul\":1383:1397   */\n      add\n        /* \"#utility.yul\":1368:1397   */\n      swap1\n      pop\n        /* \"#utility.yul\":1244:1403   */\n      swap3\n      swap2\n      pop\n      pop\n      jump\t// out\n        /* \"#utility.yul\":1409:1548   */\n    tag_130:\n        /* \"#utility.yul\":1498:1504   */\n      dup3\n        /* \"#utility.yul\":1493:1496   */\n      dup2\n        /* \"#utility.yul\":1488:1491   */\n      dup4\n        /* \"#utility.yul\":1482:1505   */\n      mcopy\n        /* \"#utility.yul\":1539:1540   */\n      0x00\n        /* \"#utility.yul\":1530:1536   */\n      dup4\n        /* \"#utility.yul\":1525:1528   */\n      dup4\n        /* \"#utility.yul\":1521:1537   */\n      add\n        /* \"#utility.yul\":1514:1541   */\n      mstore\n        /* \"#utility.yul\":1409:1548   */\n      pop\n      pop\n      pop\n      jump\t// out\n        /* \"#utility.yul\":1554:1656   */\n    tag_131:\n        /* \"#utility.yul\":1595:1601   */\n      0x00\n        /* \"#utility.yul\":1646:1648   */\n      0x1f\n        /* \"#utility.yul\":1642:1649   */\n      not\n        /* \"#utility.yul\":1637:1639   */\n      0x1f\n        /* \"#utility.yul\":1630:1635   */\n      dup4\n        /* \"#utility.yul\":1626:1640   */\n      add\n        /* \"#utility.yul\":1622:1650   */\n      and\n        /* \"#utility.yul\":1612:1650   */\n      swap1\n      pop\n        /* \"#utility.yul\":1554:1656   */\n      swap2\n      swap1\n      pop\n      jump\t// out\n        /* \"#utility.yul\":1662:2019   */\n    tag_132:\n        /* \"#utility.yul\":1740:1743   */\n      0x00\n        /* \"#utility.yul\":1768:1807   */\n      tag_204\n        /* \"#utility.yul\":1801:1806   */\n      dup3\n        /* \"#utility.yul\":1768:1807   */\n      tag_128\n      jump\t// in\n    tag_204:\n        /* \"#utility.yul\":1823:1884   */\n      tag_205\n        /* \"#utility.yul\":1877:1883   */\n      dup2\n        /* \"#utility.yul\":1872:1875   */\n      dup6\n        /* \"#utility.yul\":1823:1884   */\n      tag_129\n      jump\t// in\n    tag_205:\n        /* \"#utility.yul\":1816:1884   */\n      swap4\n      pop\n        /* \"#utility.yul\":1893:1958   */\n      tag_206\n        /* \"#utility.yul\":1951:1957   */\n      dup2\n        /* \"#utility.yul\":1946:1949   */\n      dup6\n        /* \"#utility.yul\":1939:1943   */\n      0x20\n        /* \"#utility.yul\":1932:1937   */\n      dup7\n        /* \"#utility.yul\":1928:1944   */\n      add\n        /* \"#utility.yul\":1893:1958   */\n      tag_130\n      jump\t// in\n    tag_206:\n        /* \"#utility.yul\":1983:2012   */\n      tag_207\n        /* \"#utility.yul\":2005:2011   */\n      dup2\n        /* \"#utility.yul\":1983:2012   */\n      tag_131\n      jump\t// in\n    tag_207:\n        /* \"#utility.yul\":1978:1981   */\n      dup5\n        /* \"#utility.yul\":1974:2013   */\n      add\n        /* \"#utility.yul\":1967:2013   */\n      swap2\n      pop\n        /* \"#utility.yul\":1744:2019   */\n      pop\n        /* \"#utility.yul\":1662:2019   */\n      swap3\n      swap2\n      pop\n      pop\n      jump\t// out\n        /* \"#utility.yul\":2025:2115   */\n    tag_133:\n        /* \"#utility.yul\":2059:2066   */\n      0x00\n        /* \"#utility.yul\":2102:2107   */\n      dup2\n        /* \"#utility.yul\":2095:2108   */\n      iszero\n        /* \"#utility.yul\":2088:2109   */\n      iszero\n        /* \"#utility.yul\":2077:2109   */\n      swap1\n      pop\n        /* \"#utility.yul\":2025:2115   */\n      swap2\n      swap1\n      pop\n      jump\t// out\n        /* \"#utility.yul\":2121:2220   */\n    tag_134:\n        /* \"#utility.yul\":2192:2213   */\n      tag_210\n        /* \"#utility.yul\":2207:2212   */\n      dup2\n        /* \"#utility.yul\":2192:2213   */\n      tag_133\n      jump\t// in\n    tag_210:\n        /* \"#utility.yul\":2187:2190   */\n      dup3\n        /* \"#utility.yul\":2180:2214   */\n      mstore\n        /* \"#utility.yul\":2121:2220   */\n      pop\n      pop\n      jump\t// out\n        /* \"#utility.yul\":2312:4282   */\n    tag_135:\n        /* \"#utility.yul\":2427:2430   */\n      0x00\n        /* \"#utility.yul\":2463:2469   */\n      0x0100\n        /* \"#utility.yul\":2458:2461   */\n      dup4\n        /* \"#utility.yul\":2454:2470   */\n      add\n        /* \"#utility.yul\":2555:2559   */\n      0x00\n        /* \"#utility.yul\":2548:2553   */\n      dup4\n        /* \"#utility.yul\":2544:2560   */\n      add\n        /* \"#utility.yul\":2538:2561   */\n      mload\n        /* \"#utility.yul\":2574:2637   */\n      tag_212\n        /* \"#utility.yul\":2631:2635   */\n      0x00\n        /* \"#utility.yul\":2626:2629   */\n      dup7\n        /* \"#utility.yul\":2622:2636   */\n      add\n        /* \"#utility.yul\":2608:2620   */\n      dup3\n        /* \"#utility.yul\":2574:2637   */\n      tag_127\n      jump\t// in\n    tag_212:\n        /* \"#utility.yul\":2480:2647   */\n      pop\n        /* \"#utility.yul\":2738:2742   */\n      0x20\n        /* \"#utility.yul\":2731:2736   */\n      dup4\n        /* \"#utility.yul\":2727:2743   */\n      add\n        /* \"#utility.yul\":2721:2744   */\n      mload\n        /* \"#utility.yul\":2791:2794   */\n      dup5\n        /* \"#utility.yul\":2785:2789   */\n      dup3\n        /* \"#utility.yul\":2781:2795   */\n      sub\n        /* \"#utility.yul\":2774:2778   */\n      0x20\n        /* \"#utility.yul\":2769:2772   */\n      dup7\n        /* \"#utility.yul\":2765:2779   */\n      add\n        /* \"#utility.yul\":2758:2796   */\n      mstore\n        /* \"#utility.yul\":2817:2890   */\n      tag_213\n        /* \"#utility.yul\":2885:2889   */\n      dup3\n        /* \"#utility.yul\":2871:2883   */\n      dup3\n        /* \"#utility.yul\":2817:2890   */\n      tag_132\n      jump\t// in\n    tag_213:\n        /* \"#utility.yul\":2809:2890   */\n      swap2\n      pop\n        /* \"#utility.yul\":2657:2901   */\n      pop\n        /* \"#utility.yul\":2989:2993   */\n      0x40\n        /* \"#utility.yul\":2982:2987   */\n      dup4\n        /* \"#utility.yul\":2978:2994   */\n      add\n        /* \"#utility.yul\":2972:2995   */\n      mload\n        /* \"#utility.yul\":3042:3045   */\n      dup5\n        /* \"#utility.yul\":3036:3040   */\n      dup3\n        /* \"#utility.yul\":3032:3046   */\n      sub\n        /* \"#utility.yul\":3025:3029   */\n      0x40\n        /* \"#utility.yul\":3020:3023   */\n      dup7\n        /* \"#utility.yul\":3016:3030   */\n      add\n        /* \"#utility.yul\":3009:3047   */\n      mstore\n        /* \"#utility.yul\":3068:3141   */\n      tag_214\n        /* \"#utility.yul\":3136:3140   */\n      dup3\n        /* \"#utility.yul\":3122:3134   */\n      dup3\n        /* \"#utility.yul\":3068:3141   */\n      tag_132\n      jump\t// in\n    tag_214:\n        /* \"#utility.yul\":3060:3141   */\n      swap2\n      pop\n        /* \"#utility.yul\":2911:3152   */\n      pop\n        /* \"#utility.yul\":3243:3247   */\n      0x60\n        /* \"#utility.yul\":3236:3241   */\n      dup4\n        /* \"#utility.yul\":3232:3248   */\n      add\n        /* \"#utility.yul\":3226:3249   */\n      mload\n        /* \"#utility.yul\":3296:3299   */\n      dup5\n        /* \"#utility.yul\":3290:3294   */\n      dup3\n        /* \"#utility.yul\":3286:3300   */\n      sub\n        /* \"#utility.yul\":3279:3283   */\n      0x60\n        /* \"#utility.yul\":3274:3277   */\n      dup7\n        /* \"#utility.yul\":3270:3284   */\n      add\n        /* \"#utility.yul\":3263:3301   */\n      mstore\n        /* \"#utility.yul\":3322:3395   */\n      tag_215\n        /* \"#utility.yul\":3390:3394   */\n      dup3\n        /* \"#utility.yul\":3376:3388   */\n      dup3\n        /* \"#utility.yul\":3322:3395   */\n      tag_132\n      jump\t// in\n    tag_215:\n        /* \"#utility.yul\":3314:3395   */\n      swap2\n      pop\n        /* \"#utility.yul\":3162:3406   */\n      pop\n        /* \"#utility.yul\":3495:3499   */\n      0x80\n        /* \"#utility.yul\":3488:3493   */\n      dup4\n        /* \"#utility.yul\":3484:3500   */\n      add\n        /* \"#utility.yul\":3478:3501   */\n      mload\n        /* \"#utility.yul\":3548:3551   */\n      dup5\n        /* \"#utility.yul\":3542:3546   */\n      dup3\n        /* \"#utility.yul\":3538:3552   */\n      sub\n        /* \"#utility.yul\":3531:3535   */\n      0x80\n        /* \"#utility.yul\":3526:3529   */\n      dup7\n        /* \"#utility.yul\":3522:3536   */\n      add\n        /* \"#utility.yul\":3515:3553   */\n      mstore\n        /* \"#utility.yul\":3574:3647   */\n      tag_216\n        /* \"#utility.yul\":3642:3646   */\n      dup3\n        /* \"#utility.yul\":3628:3640   */\n      dup3\n        /* \"#utility.yul\":3574:3647   */\n      tag_132\n      jump\t// in\n    tag_216:\n        /* \"#utility.yul\":3566:3647   */\n      swap2\n      pop\n        /* \"#utility.yul\":3416:3658   */\n      pop\n        /* \"#utility.yul\":3751:3755   */\n      0xa0\n        /* \"#utility.yul\":3744:3749   */\n      dup4\n        /* \"#utility.yul\":3740:3756   */\n      add\n        /* \"#utility.yul\":3734:3757   */\n      mload\n        /* \"#utility.yul\":3804:3807   */\n      dup5\n        /* \"#utility.yul\":3798:3802   */\n      dup3\n        /* \"#utility.yul\":3794:3808   */\n      sub\n        /* \"#utility.yul\":3787:3791   */\n      0xa0\n        /* \"#utility.yul\":3782:3785   */\n      dup7\n        /* \"#utility.yul\":3778:3792   */\n      add\n        /* \"#utility.yul\":3771:3809   */\n      mstore\n        /* \"#utility.yul\":3830:3903   */\n      tag_217\n        /* \"#utility.yul\":3898:3902   */\n      dup3\n        /* \"#utility.yul\":3884:3896   */\n      dup3\n        /* \"#utility.yul\":3830:3903   */\n      tag_132\n      jump\t// in\n    tag_217:\n        /* \"#utility.yul\":3822:3903   */\n      swap2\n      pop\n        /* \"#utility.yul\":3668:3914   */\n      pop\n        /* \"#utility.yul\":3999:4003   */\n      0xc0\n        /* \"#utility.yul\":3992:3997   */\n      dup4\n        /* \"#utility.yul\":3988:4004   */\n      add\n        /* \"#utility.yul\":3982:4005   */\n      mload\n        /* \"#utility.yul\":4018:4075   */\n      tag_218\n        /* \"#utility.yul\":4069:4073   */\n      0xc0\n        /* \"#utility.yul\":4064:4067   */\n      dup7\n        /* \"#utility.yul\":4060:4074   */\n      add\n        /* \"#utility.yul\":4046:4058   */\n      dup3\n        /* \"#utility.yul\":4018:4075   */\n      tag_134\n      jump\t// in\n    tag_218:\n        /* \"#utility.yul\":3924:4085   */\n      pop\n        /* \"#utility.yul\":4169:4173   */\n      0xe0\n        /* \"#utility.yul\":4162:4167   */\n      dup4\n        /* \"#utility.yul\":4158:4174   */\n      add\n        /* \"#utility.yul\":4152:4175   */\n      mload\n        /* \"#utility.yul\":4188:4245   */\n      tag_219\n        /* \"#utility.yul\":4239:4243   */\n      0xe0\n        /* \"#utility.yul\":4234:4237   */\n      dup7\n        /* \"#utility.yul\":4230:4244   */\n      add\n        /* \"#utility.yul\":4216:4228   */\n      dup3\n        /* \"#utility.yul\":4188:4245   */\n      tag_134\n      jump\t// in\n    tag_219:\n        /* \"#utility.yul\":4095:4255   */\n      pop\n        /* \"#utility.yul\":4272:4276   */\n      dup1\n        /* \"#utility.yul\":4265:4276   */\n      swap2\n      pop\n        /* \"#utility.yul\":2432:4282   */\n      pop\n        /* \"#utility.yul\":2312:4282   */\n      swap3\n      swap2\n      pop\n      pop\n      jump\t// out\n        /* \"#utility.yul\":4288:4653   */\n    tag_13:\n        /* \"#utility.yul\":4427:4431   */\n      0x00\n        /* \"#utility.yul\":4465:4467   */\n      0x20\n        /* \"#utility.yul\":4454:4463   */\n      dup3\n        /* \"#utility.yul\":4450:4468   */\n      add\n        /* \"#utility.yul\":4442:4468   */\n      swap1\n      pop\n        /* \"#utility.yul\":4514:4523   */\n      dup2\n        /* \"#utility.yul\":4508:4512   */\n      dup2\n        /* \"#utility.yul\":4504:4524   */\n      sub\n        /* \"#utility.yul\":4500:4501   */\n      0x00\n        /* \"#utility.yul\":4489:4498   */\n      dup4\n        /* \"#utility.yul\":4485:4502   */\n      add\n        /* \"#utility.yul\":4478:4525   */\n      mstore\n        /* \"#utility.yul\":4542:4646   */\n      tag_221\n        /* \"#utility.yul\":4641:4645   */\n      dup2\n        /* \"#utility.yul\":4632:4638   */\n      dup5\n        /* \"#utility.yul\":4542:4646   */\n      tag_135\n      jump\t// in\n    tag_221:\n        /* \"#utility.yul\":4534:4646   */\n      swap1\n      pop\n        /* \"#utility.yul\":4288:4653   */\n      swap3\n      swap2\n      pop\n      pop\n      jump\t// out\n        /* \"#utility.yul\":4659:4776   */\n    tag_136:\n        /* \"#utility.yul\":4768:4769   */\n      0x00\n        /* \"#utility.yul\":4765:4766   */\n      dup1\n        /* \"#utility.yul\":4758:4770   */\n      revert\n        /* \"#utility.yul\":4782:4899   */\n    tag_137:\n        /* \"#utility.yul\":4891:4892   */\n      0x00\n        /* \"#utility.yul\":4888:4889   */\n      dup1\n        /* \"#utility.yul\":4881:4893   */\n      revert\n        /* \"#utility.yul\":4905:5085   */\n    tag_138:\n        /* \"#utility.yul\":4953:5030   */\n      0x4e487b7100000000000000000000000000000000000000000000000000000000\n        /* \"#utility.yul\":4950:4951   */\n      0x00\n        /* \"#utility.yul\":4943:5031   */\n      mstore\n        /* \"#utility.yul\":5050:5054   */\n      0x41\n        /* \"#utility.yul\":5047:5048   */\n      0x04\n        /* \"#utility.yul\":5040:5055   */\n      mstore\n        /* \"#utility.yul\":5074:5078   */\n      0x24\n        /* \"#utility.yul\":5071:5072   */\n      0x00\n        /* \"#utility.yul\":5064:5079   */\n      revert\n        /* \"#utility.yul\":5091:5372   */\n    tag_139:\n        /* \"#utility.yul\":5174:5201   */\n      tag_226\n        /* \"#utility.yul\":5196:5200   */\n      dup3\n        /* \"#utility.yul\":5174:5201   */\n      tag_131\n      jump\t// in\n    tag_226:\n        /* \"#utility.yul\":5166:5172   */\n      dup2\n        /* \"#utility.yul\":5162:5202   */\n      add\n        /* \"#utility.yul\":5304:5310   */\n      dup2\n        /* \"#utility.yul\":5292:5302   */\n      dup2\n        /* \"#utility.yul\":5289:5311   */\n      lt\n        /* \"#utility.yul\":5268:5286   */\n      0xffffffffffffffff\n        /* \"#utility.yul\":5256:5266   */\n      dup3\n        /* \"#utility.yul\":5253:5287   */\n      gt\n        /* \"#utility.yul\":5250:5312   */\n      or\n        /* \"#utility.yul\":5247:5335   */\n      iszero\n      tag_227\n      jumpi\n        /* \"#utility.yul\":5315:5333   */\n      tag_228\n      tag_138\n      jump\t// in\n    tag_228:\n        /* \"#utility.yul\":5247:5335   */\n    tag_227:\n        /* \"#utility.yul\":5355:5365   */\n      dup1\n        /* \"#utility.yul\":5351:5353   */\n      0x40\n        /* \"#utility.yul\":5344:5366   */\n      mstore\n        /* \"#utility.yul\":5134:5372   */\n      pop\n        /* \"#utility.yul\":5091:5372   */\n      pop\n      pop\n      jump\t// out\n        /* \"#utility.yul\":5378:5507   */\n    tag_140:\n        /* \"#utility.yul\":5412:5418   */\n      0x00\n        /* \"#utility.yul\":5439:5459   */\n      tag_230\n      tag_121\n      jump\t// in\n    tag_230:\n        /* \"#utility.yul\":5429:5459   */\n      swap1\n      pop\n        /* \"#utility.yul\":5468:5501   */\n      tag_231\n        /* \"#utility.yul\":5496:5500   */\n      dup3\n        /* \"#utility.yul\":5488:5494   */\n      dup3\n        /* \"#utility.yul\":5468:5501   */\n      tag_139\n      jump\t// in\n    tag_231:\n        /* \"#utility.yul\":5378:5507   */\n      swap2\n      swap1\n      pop\n      jump\t// out\n        /* \"#utility.yul\":5513:5821   */\n    tag_141:\n        /* \"#utility.yul\":5575:5579   */\n      0x00\n        /* \"#utility.yul\":5665:5683   */\n      0xffffffffffffffff\n        /* \"#utility.yul\":5657:5663   */\n      dup3\n        /* \"#utility.yul\":5654:5684   */\n      gt\n        /* \"#utility.yul\":5651:5707   */\n      iszero\n      tag_233\n      jumpi\n        /* \"#utility.yul\":5687:5705   */\n      tag_234\n      tag_138\n      jump\t// in\n    tag_234:\n        /* \"#utility.yul\":5651:5707   */\n    tag_233:\n        /* \"#utility.yul\":5725:5754   */\n      tag_235\n        /* \"#utility.yul\":5747:5753   */\n      dup3\n        /* \"#utility.yul\":5725:5754   */\n      tag_131\n      jump\t// in\n    tag_235:\n        /* \"#utility.yul\":5717:5754   */\n      swap1\n      pop\n        /* \"#utility.yul\":5809:5813   */\n      0x20\n        /* \"#utility.yul\":5803:5807   */\n      dup2\n        /* \"#utility.yul\":5799:5814   */\n      add\n        /* \"#utility.yul\":5791:5814   */\n      swap1\n      pop\n        /* \"#utility.yul\":5513:5821   */\n      swap2\n      swap1\n      pop\n      jump\t// out\n        /* \"#utility.yul\":5827:5975   */\n    tag_142:\n        /* \"#utility.yul\":5925:5931   */\n      dup3\n        /* \"#utility.yul\":5920:5923   */\n      dup2\n        /* \"#utility.yul\":5915:5918   */\n      dup4\n        /* \"#utility.yul\":5902:5932   */\n      calldatacopy\n        /* \"#utility.yul\":5966:5967   */\n      0x00\n        /* \"#utility.yul\":5957:5963   */\n      dup4\n        /* \"#utility.yul\":5952:5955   */\n      dup4\n        /* \"#utility.yul\":5948:5964   */\n      add\n        /* \"#utility.yul\":5941:5968   */\n      mstore\n        /* \"#utility.yul\":5827:5975   */\n      pop\n      pop\n      pop\n      jump\t// out\n        /* \"#utility.yul\":5981:6406   */\n    tag_143:\n        /* \"#utility.yul\":6059:6064   */\n      0x00\n        /* \"#utility.yul\":6084:6150   */\n      tag_238\n        /* \"#utility.yul\":6100:6149   */\n      tag_239\n        /* \"#utility.yul\":6142:6148   */\n      dup5\n        /* \"#utility.yul\":6100:6149   */\n      tag_141\n      jump\t// in\n    tag_239:\n        /* \"#utility.yul\":6084:6150   */\n      tag_140\n      jump\t// in\n    tag_238:\n        /* \"#utility.yul\":6075:6150   */\n      swap1\n      pop\n        /* \"#utility.yul\":6173:6179   */\n      dup3\n        /* \"#utility.yul\":6166:6171   */\n      dup2\n        /* \"#utility.yul\":6159:6180   */\n      mstore\n        /* \"#utility.yul\":6211:6215   */\n      0x20\n        /* \"#utility.yul\":6204:6209   */\n      dup2\n        /* \"#utility.yul\":6200:6216   */\n      add\n        /* \"#utility.yul\":6249:6252   */\n      dup5\n        /* \"#utility.yul\":6240:6246   */\n      dup5\n        /* \"#utility.yul\":6235:6238   */\n      dup5\n        /* \"#utility.yul\":6231:6247   */\n      add\n        /* \"#utility.yul\":6228:6253   */\n      gt\n        /* \"#utility.yul\":6225:6337   */\n      iszero\n      tag_240\n      jumpi\n        /* \"#utility.yul\":6256:6335   */\n      tag_241\n      tag_137\n      jump\t// in\n    tag_241:\n        /* \"#utility.yul\":6225:6337   */\n    tag_240:\n        /* \"#utility.yul\":6346:6400   */\n      tag_242\n        /* \"#utility.yul\":6393:6399   */\n      dup5\n        /* \"#utility.yul\":6388:6391   */\n      dup3\n        /* \"#utility.yul\":6383:6386   */\n      dup6\n        /* \"#utility.yul\":6346:6400   */\n      tag_142\n      jump\t// in\n    tag_242:\n        /* \"#utility.yul\":6065:6406   */\n      pop\n        /* \"#utility.yul\":5981:6406   */\n      swap4\n      swap3\n      pop\n      pop\n      pop\n      jump\t// out\n        /* \"#utility.yul\":6426:6766   */\n    tag_144:\n        /* \"#utility.yul\":6482:6487   */\n      0x00\n        /* \"#utility.yul\":6531:6534   */\n      dup3\n        /* \"#utility.yul\":6524:6528   */\n      0x1f\n        /* \"#utility.yul\":6516:6522   */\n      dup4\n        /* \"#utility.yul\":6512:6529   */\n      add\n        /* \"#utility.yul\":6508:6535   */\n      slt\n        /* \"#utility.yul\":6498:6620   */\n      tag_244\n      jumpi\n        /* \"#utility.yul\":6539:6618   */\n      tag_245\n      tag_136\n      jump\t// in\n    tag_245:\n        /* \"#utility.yul\":6498:6620   */\n    tag_244:\n        /* \"#utility.yul\":6656:6662   */\n      dup2\n        /* \"#utility.yul\":6643:6663   */\n      calldataload\n        /* \"#utility.yul\":6681:6760   */\n      tag_246\n        /* \"#utility.yul\":6756:6759   */\n      dup5\n        /* \"#utility.yul\":6748:6754   */\n      dup3\n        /* \"#utility.yul\":6741:6745   */\n      0x20\n        /* \"#utility.yul\":6733:6739   */\n      dup7\n        /* \"#utility.yul\":6729:6746   */\n      add\n        /* \"#utility.yul\":6681:6760   */\n      tag_143\n      jump\t// in\n    tag_246:\n        /* \"#utility.yul\":6672:6760   */\n      swap2\n      pop\n        /* \"#utility.yul\":6488:6766   */\n      pop\n        /* \"#utility.yul\":6426:6766   */\n      swap3\n      swap2\n      pop\n      pop\n      jump\t// out\n        /* \"#utility.yul\":6772:6888   */\n    tag_145:\n        /* \"#utility.yul\":6842:6863   */\n      tag_248\n        /* \"#utility.yul\":6857:6862   */\n      dup2\n        /* \"#utility.yul\":6842:6863   */\n      tag_133\n      jump\t// in\n    tag_248:\n        /* \"#utility.yul\":6835:6840   */\n      dup2\n        /* \"#utility.yul\":6832:6864   */\n      eq\n        /* \"#utility.yul\":6822:6882   */\n      tag_249\n      jumpi\n        /* \"#utility.yul\":6878:6879   */\n      0x00\n        /* \"#utility.yul\":6875:6876   */\n      dup1\n        /* \"#utility.yul\":6868:6880   */\n      revert\n        /* \"#utility.yul\":6822:6882   */\n    tag_249:\n        /* \"#utility.yul\":6772:6888   */\n      pop\n      jump\t// out\n        /* \"#utility.yul\":6894:7027   */\n    tag_146:\n        /* \"#utility.yul\":6937:6942   */\n      0x00\n        /* \"#utility.yul\":6975:6981   */\n      dup2\n        /* \"#utility.yul\":6962:6982   */\n      calldataload\n        /* \"#utility.yul\":6953:6982   */\n      swap1\n      pop\n        /* \"#utility.yul\":6991:7021   */\n      tag_251\n        /* \"#utility.yul\":7015:7020   */\n      dup2\n        /* \"#utility.yul\":6991:7021   */\n      tag_145\n      jump\t// in\n    tag_251:\n        /* \"#utility.yul\":6894:7027   */\n      swap3\n      swap2\n      pop\n      pop\n      jump\t// out\n        /* \"#utility.yul\":7033:9130   */\n    tag_16:\n        /* \"#utility.yul\":7193:7199   */\n      0x00\n        /* \"#utility.yul\":7201:7207   */\n      dup1\n        /* \"#utility.yul\":7209:7215   */\n      0x00\n        /* \"#utility.yul\":7217:7223   */\n      dup1\n        /* \"#utility.yul\":7225:7231   */\n      0x00\n        /* \"#utility.yul\":7233:7239   */\n      dup1\n        /* \"#utility.yul\":7241:7247   */\n      0x00\n        /* \"#utility.yul\":7290:7293   */\n      0xe0\n        /* \"#utility.yul\":7278:7287   */\n      dup9\n        /* \"#utility.yul\":7269:7276   */\n      dup11\n        /* \"#utility.yul\":7265:7288   */\n      sub\n        /* \"#utility.yul\":7261:7294   */\n      slt\n        /* \"#utility.yul\":7258:7378   */\n      iszero\n      tag_253\n      jumpi\n        /* \"#utility.yul\":7297:7376   */\n      tag_254\n      tag_122\n      jump\t// in\n    tag_254:\n        /* \"#utility.yul\":7258:7378   */\n    tag_253:\n        /* \"#utility.yul\":7417:7418   */\n      0x00\n        /* \"#utility.yul\":7442:7495   */\n      tag_255\n        /* \"#utility.yul\":7487:7494   */\n      dup11\n        /* \"#utility.yul\":7478:7484   */\n      dup3\n        /* \"#utility.yul\":7467:7476   */\n      dup12\n        /* \"#utility.yul\":7463:7485   */\n      add\n        /* \"#utility.yul\":7442:7495   */\n      tag_126\n      jump\t// in\n    tag_255:\n        /* \"#utility.yul\":7432:7495   */\n      swap8\n      pop\n        /* \"#utility.yul\":7388:7505   */\n      pop\n        /* \"#utility.yul\":7572:7574   */\n      0x20\n        /* \"#utility.yul\":7561:7570   */\n      dup9\n        /* \"#utility.yul\":7557:7575   */\n      add\n        /* \"#utility.yul\":7544:7576   */\n      calldataload\n        /* \"#utility.yul\":7603:7621   */\n      0xffffffffffffffff\n        /* \"#utility.yul\":7595:7601   */\n      dup2\n        /* \"#utility.yul\":7592:7622   */\n      gt\n        /* \"#utility.yul\":7589:7706   */\n      iszero\n      tag_256\n      jumpi\n        /* \"#utility.yul\":7625:7704   */\n      tag_257\n      tag_123\n      jump\t// in\n    tag_257:\n        /* \"#utility.yul\":7589:7706   */\n    tag_256:\n        /* \"#utility.yul\":7730:7793   */\n      tag_258\n        /* \"#utility.yul\":7785:7792   */\n      dup11\n        /* \"#utility.yul\":7776:7782   */\n      dup3\n        /* \"#utility.yul\":7765:7774   */\n      dup12\n        /* \"#utility.yul\":7761:7783   */\n      add\n        /* \"#utility.yul\":7730:7793   */\n      tag_144\n      jump\t// in\n    tag_258:\n        /* \"#utility.yul\":7720:7793   */\n      swap7\n      pop\n        /* \"#utility.yul\":7515:7803   */\n      pop\n        /* \"#utility.yul\":7870:7872   */\n      0x40\n        /* \"#utility.yul\":7859:7868   */\n      dup9\n        /* \"#utility.yul\":7855:7873   */\n      add\n        /* \"#utility.yul\":7842:7874   */\n      calldataload\n        /* \"#utility.yul\":7901:7919   */\n      0xffffffffffffffff\n        /* \"#utility.yul\":7893:7899   */\n      dup2\n        /* \"#utility.yul\":7890:7920   */\n      gt\n        /* \"#utility.yul\":7887:8004   */\n      iszero\n      tag_259\n      jumpi\n        /* \"#utility.yul\":7923:8002   */\n      tag_260\n      tag_123\n      jump\t// in\n    tag_260:\n        /* \"#utility.yul\":7887:8004   */\n    tag_259:\n        /* \"#utility.yul\":8028:8091   */\n      tag_261\n        /* \"#utility.yul\":8083:8090   */\n      dup11\n        /* \"#utility.yul\":8074:8080   */\n      dup3\n        /* \"#utility.yul\":8063:8072   */\n      dup12\n        /* \"#utility.yul\":8059:8081   */\n      add\n        /* \"#utility.yul\":8028:8091   */\n      tag_144\n      jump\t// in\n    tag_261:\n        /* \"#utility.yul\":8018:8091   */\n      swap6\n      pop\n        /* \"#utility.yul\":7813:8101   */\n      pop\n        /* \"#utility.yul\":8168:8170   */\n      0x60\n        /* \"#utility.yul\":8157:8166   */\n      dup9\n        /* \"#utility.yul\":8153:8171   */\n      add\n        /* \"#utility.yul\":8140:8172   */\n      calldataload\n        /* \"#utility.yul\":8199:8217   */\n      0xffffffffffffffff\n        /* \"#utility.yul\":8191:8197   */\n      dup2\n        /* \"#utility.yul\":8188:8218   */\n      gt\n        /* \"#utility.yul\":8185:8302   */\n      iszero\n      tag_262\n      jumpi\n        /* \"#utility.yul\":8221:8300   */\n      tag_263\n      tag_123\n      jump\t// in\n    tag_263:\n        /* \"#utility.yul\":8185:8302   */\n    tag_262:\n        /* \"#utility.yul\":8326:8389   */\n      tag_264\n        /* \"#utility.yul\":8381:8388   */\n      dup11\n        /* \"#utility.yul\":8372:8378   */\n      dup3\n        /* \"#utility.yul\":8361:8370   */\n      dup12\n        /* \"#utility.yul\":8357:8379   */\n      add\n        /* \"#utility.yul\":8326:8389   */\n      tag_144\n      jump\t// in\n    tag_264:\n        /* \"#utility.yul\":8316:8389   */\n      swap5\n      pop\n        /* \"#utility.yul\":8111:8399   */\n      pop\n        /* \"#utility.yul\":8466:8469   */\n      0x80\n        /* \"#utility.yul\":8455:8464   */\n      dup9\n        /* \"#utility.yul\":8451:8470   */\n      add\n        /* \"#utility.yul\":8438:8471   */\n      calldataload\n        /* \"#utility.yul\":8498:8516   */\n      0xffffffffffffffff\n        /* \"#utility.yul\":8490:8496   */\n      dup2\n        /* \"#utility.yul\":8487:8517   */\n      gt\n        /* \"#utility.yul\":8484:8601   */\n      iszero\n      tag_265\n      jumpi\n        /* \"#utility.yul\":8520:8599   */\n      tag_266\n      tag_123\n      jump\t// in\n    tag_266:\n        /* \"#utility.yul\":8484:8601   */\n    tag_265:\n        /* \"#utility.yul\":8625:8688   */\n      tag_267\n        /* \"#utility.yul\":8680:8687   */\n      dup11\n        /* \"#utility.yul\":8671:8677   */\n      dup3\n        /* \"#utility.yul\":8660:8669   */\n      dup12\n        /* \"#utility.yul\":8656:8678   */\n      add\n        /* \"#utility.yul\":8625:8688   */\n      tag_144\n      jump\t// in\n    tag_267:\n        /* \"#utility.yul\":8615:8688   */\n      swap4\n      pop\n        /* \"#utility.yul\":8409:8698   */\n      pop\n        /* \"#utility.yul\":8765:8768   */\n      0xa0\n        /* \"#utility.yul\":8754:8763   */\n      dup9\n        /* \"#utility.yul\":8750:8769   */\n      add\n        /* \"#utility.yul\":8737:8770   */\n      calldataload\n        /* \"#utility.yul\":8797:8815   */\n      0xffffffffffffffff\n        /* \"#utility.yul\":8789:8795   */\n      dup2\n        /* \"#utility.yul\":8786:8816   */\n      gt\n        /* \"#utility.yul\":8783:8900   */\n      iszero\n      tag_268\n      jumpi\n        /* \"#utility.yul\":8819:8898   */\n      tag_269\n      tag_123\n      jump\t// in\n    tag_269:\n        /* \"#utility.yul\":8783:8900   */\n    tag_268:\n        /* \"#utility.yul\":8924:8987   */\n      tag_270\n        /* \"#utility.yul\":8979:8986   */\n      dup11\n        /* \"#utility.yul\":8970:8976   */\n      dup3\n        /* \"#utility.yul\":8959:8968   */\n      dup12\n        /* \"#utility.yul\":8955:8977   */\n      add\n        /* \"#utility.yul\":8924:8987   */\n      tag_144\n      jump\t// in\n    tag_270:\n        /* \"#utility.yul\":8914:8987   */\n      swap3\n      pop\n        /* \"#utility.yul\":8708:8997   */\n      pop\n        /* \"#utility.yul\":9036:9039   */\n      0xc0\n        /* \"#utility.yul\":9063:9113   */\n      tag_271\n        /* \"#utility.yul\":9105:9112   */\n      dup11\n        /* \"#utility.yul\":9096:9102   */\n      dup3\n        /* \"#utility.yul\":9085:9094   */\n      dup12\n        /* \"#utility.yul\":9081:9103   */\n      add\n        /* \"#utility.yul\":9063:9113   */\n      tag_146\n      jump\t// in\n    tag_271:\n        /* \"#utility.yul\":9053:9113   */\n      swap2\n      pop\n        /* \"#utility.yul\":9007:9123   */\n      pop\n        /* \"#utility.yul\":7033:9130   */\n      swap3\n      swap6\n      swap9\n      swap2\n      swap5\n      swap8\n      pop\n      swap3\n      swap6\n      pop\n      jump\t// out\n        /* \"#utility.yul\":9136:9254   */\n    tag_147:\n        /* \"#utility.yul\":9223:9247   */\n      tag_273\n        /* \"#utility.yul\":9241:9246   */\n      dup2\n        /* \"#utility.yul\":9223:9247   */\n      tag_124\n      jump\t// in\n    tag_273:\n        /* \"#utility.yul\":9218:9221   */\n      dup3\n        /* \"#utility.yul\":9211:9248   */\n      mstore\n        /* \"#utility.yul\":9136:9254   */\n      pop\n      pop\n      jump\t// out\n        /* \"#utility.yul\":9260:9429   */\n    tag_148:\n        /* \"#utility.yul\":9344:9355   */\n      0x00\n        /* \"#utility.yul\":9378:9384   */\n      dup3\n        /* \"#utility.yul\":9373:9376   */\n      dup3\n        /* \"#utility.yul\":9366:9385   */\n      mstore\n        /* \"#utility.yul\":9418:9422   */\n      0x20\n        /* \"#utility.yul\":9413:9416   */\n      dup3\n        /* \"#utility.yul\":9409:9423   */\n      add\n        /* \"#utility.yul\":9394:9423   */\n      swap1\n      pop\n        /* \"#utility.yul\":9260:9429   */\n      swap3\n      swap2\n      pop\n      pop\n      jump\t// out\n        /* \"#utility.yul\":9435:9812   */\n    tag_149:\n        /* \"#utility.yul\":9523:9526   */\n      0x00\n        /* \"#utility.yul\":9551:9590   */\n      tag_276\n        /* \"#utility.yul\":9584:9589   */\n      dup3\n        /* \"#utility.yul\":9551:9590   */\n      tag_128\n      jump\t// in\n    tag_276:\n        /* \"#utility.yul\":9606:9677   */\n      tag_277\n        /* \"#utility.yul\":9670:9676   */\n      dup2\n        /* \"#utility.yul\":9665:9668   */\n      dup6\n        /* \"#utility.yul\":9606:9677   */\n      tag_148\n      jump\t// in\n    tag_277:\n        /* \"#utility.yul\":9599:9677   */\n      swap4\n      pop\n        /* \"#utility.yul\":9686:9751   */\n      tag_278\n        /* \"#utility.yul\":9744:9750   */\n      dup2\n        /* \"#utility.yul\":9739:9742   */\n      dup6\n        /* \"#utility.yul\":9732:9736   */\n      0x20\n        /* \"#utility.yul\":9725:9730   */\n      dup7\n        /* \"#utility.yul\":9721:9737   */\n      add\n        /* \"#utility.yul\":9686:9751   */\n      tag_130\n      jump\t// in\n    tag_278:\n        /* \"#utility.yul\":9776:9805   */\n      tag_279\n        /* \"#utility.yul\":9798:9804   */\n      dup2\n        /* \"#utility.yul\":9776:9805   */\n      tag_131\n      jump\t// in\n    tag_279:\n        /* \"#utility.yul\":9771:9774   */\n      dup5\n        /* \"#utility.yul\":9767:9806   */\n      add\n        /* \"#utility.yul\":9760:9806   */\n      swap2\n      pop\n        /* \"#utility.yul\":9527:9812   */\n      pop\n        /* \"#utility.yul\":9435:9812   */\n      swap3\n      swap2\n      pop\n      pop\n      jump\t// out\n        /* \"#utility.yul\":9818:9927   */\n    tag_150:\n        /* \"#utility.yul\":9899:9920   */\n      tag_281\n        /* \"#utility.yul\":9914:9919   */\n      dup2\n        /* \"#utility.yul\":9899:9920   */\n      tag_133\n      jump\t// in\n    tag_281:\n        /* \"#utility.yul\":9894:9897   */\n      dup3\n        /* \"#utility.yul\":9887:9921   */\n      mstore\n        /* \"#utility.yul\":9818:9927   */\n      pop\n      pop\n      jump\t// out\n        /* \"#utility.yul\":9933:11361   */\n    tag_22:\n        /* \"#utility.yul\":10310:10314   */\n      0x00\n        /* \"#utility.yul\":10348:10351   */\n      0x0100\n        /* \"#utility.yul\":10337:10346   */\n      dup3\n        /* \"#utility.yul\":10333:10352   */\n      add\n        /* \"#utility.yul\":10325:10352   */\n      swap1\n      pop\n        /* \"#utility.yul\":10362:10433   */\n      tag_283\n        /* \"#utility.yul\":10430:10431   */\n      0x00\n        /* \"#utility.yul\":10419:10428   */\n      dup4\n        /* \"#utility.yul\":10415:10432   */\n      add\n        /* \"#utility.yul\":10406:10412   */\n      dup12\n        /* \"#utility.yul\":10362:10433   */\n      tag_147\n      jump\t// in\n    tag_283:\n        /* \"#utility.yul\":10480:10489   */\n      dup2\n        /* \"#utility.yul\":10474:10478   */\n      dup2\n        /* \"#utility.yul\":10470:10490   */\n      sub\n        /* \"#utility.yul\":10465:10467   */\n      0x20\n        /* \"#utility.yul\":10454:10463   */\n      dup4\n        /* \"#utility.yul\":10450:10468   */\n      add\n        /* \"#utility.yul\":10443:10491   */\n      mstore\n        /* \"#utility.yul\":10508:10586   */\n      tag_284\n        /* \"#utility.yul\":10581:10585   */\n      dup2\n        /* \"#utility.yul\":10572:10578   */\n      dup11\n        /* \"#utility.yul\":10508:10586   */\n      tag_149\n      jump\t// in\n    tag_284:\n        /* \"#utility.yul\":10500:10586   */\n      swap1\n      pop\n        /* \"#utility.yul\":10633:10642   */\n      dup2\n        /* \"#utility.yul\":10627:10631   */\n      dup2\n        /* \"#utility.yul\":10623:10643   */\n      sub\n        /* \"#utility.yul\":10618:10620   */\n      0x40\n        /* \"#utility.yul\":10607:10616   */\n      dup4\n        /* \"#utility.yul\":10603:10621   */\n      add\n        /* \"#utility.yul\":10596:10644   */\n      mstore\n        /* \"#utility.yul\":10661:10739   */\n      tag_285\n        /* \"#utility.yul\":10734:10738   */\n      dup2\n        /* \"#utility.yul\":10725:10731   */\n      dup10\n        /* \"#utility.yul\":10661:10739   */\n      tag_149\n      jump\t// in\n    tag_285:\n        /* \"#utility.yul\":10653:10739   */\n      swap1\n      pop\n        /* \"#utility.yul\":10786:10795   */\n      dup2\n        /* \"#utility.yul\":10780:10784   */\n      dup2\n        /* \"#utility.yul\":10776:10796   */\n      sub\n        /* \"#utility.yul\":10771:10773   */\n      0x60\n        /* \"#utility.yul\":10760:10769   */\n      dup4\n        /* \"#utility.yul\":10756:10774   */\n      add\n        /* \"#utility.yul\":10749:10797   */\n      mstore\n        /* \"#utility.yul\":10814:10892   */\n      tag_286\n        /* \"#utility.yul\":10887:10891   */\n      dup2\n        /* \"#utility.yul\":10878:10884   */\n      dup9\n        /* \"#utility.yul\":10814:10892   */\n      tag_149\n      jump\t// in\n    tag_286:\n        /* \"#utility.yul\":10806:10892   */\n      swap1\n      pop\n        /* \"#utility.yul\":10940:10949   */\n      dup2\n        /* \"#utility.yul\":10934:10938   */\n      dup2\n        /* \"#utility.yul\":10930:10950   */\n      sub\n        /* \"#utility.yul\":10924:10927   */\n      0x80\n        /* \"#utility.yul\":10913:10922   */\n      dup4\n        /* \"#utility.yul\":10909:10928   */\n      add\n        /* \"#utility.yul\":10902:10951   */\n      mstore\n        /* \"#utility.yul\":10968:11046   */\n      tag_287\n        /* \"#utility.yul\":11041:11045   */\n      dup2\n        /* \"#utility.yul\":11032:11038   */\n      dup8\n        /* \"#utility.yul\":10968:11046   */\n      tag_149\n      jump\t// in\n    tag_287:\n        /* \"#utility.yul\":10960:11046   */\n      swap1\n      pop\n        /* \"#utility.yul\":11094:11103   */\n      dup2\n        /* \"#utility.yul\":11088:11092   */\n      dup2\n        /* \"#utility.yul\":11084:11104   */\n      sub\n        /* \"#utility.yul\":11078:11081   */\n      0xa0\n        /* \"#utility.yul\":11067:11076   */\n      dup4\n        /* \"#utility.yul\":11063:11082   */\n      add\n        /* \"#utility.yul\":11056:11105   */\n      mstore\n        /* \"#utility.yul\":11122:11200   */\n      tag_288\n        /* \"#utility.yul\":11195:11199   */\n      dup2\n        /* \"#utility.yul\":11186:11192   */\n      dup7\n        /* \"#utility.yul\":11122:11200   */\n      tag_149\n      jump\t// in\n    tag_288:\n        /* \"#utility.yul\":11114:11200   */\n      swap1\n      pop\n        /* \"#utility.yul\":11210:11277   */\n      tag_289\n        /* \"#utility.yul\":11272:11275   */\n      0xc0\n        /* \"#utility.yul\":11261:11270   */\n      dup4\n        /* \"#utility.yul\":11257:11276   */\n      add\n        /* \"#utility.yul\":11248:11254   */\n      dup6\n        /* \"#utility.yul\":11210:11277   */\n      tag_150\n      jump\t// in\n    tag_289:\n        /* \"#utility.yul\":11287:11354   */\n      tag_290\n        /* \"#utility.yul\":11349:11352   */\n      0xe0\n        /* \"#utility.yul\":11338:11347   */\n      dup4\n        /* \"#utility.yul\":11334:11353   */\n      add\n        /* \"#utility.yul\":11325:11331   */\n      dup5\n        /* \"#utility.yul\":11287:11354   */\n      tag_150\n      jump\t// in\n    tag_290:\n        /* \"#utility.yul\":9933:11361   */\n      swap10\n      swap9\n      pop\n      pop\n      pop\n      pop\n      pop\n      pop\n      pop\n      pop\n      pop\n      jump\t// out\n        /* \"#utility.yul\":11367:11493   */\n    tag_151:\n        /* \"#utility.yul\":11404:11411   */\n      0x00\n        /* \"#utility.yul\":11444:11486   */\n      0xffffffffffffffffffffffffffffffffffffffff\n        /* \"#utility.yul\":11437:11442   */\n      dup3\n        /* \"#utility.yul\":11433:11487   */\n      and\n        /* \"#utility.yul\":11422:11487   */\n      swap1\n      pop\n        /* \"#utility.yul\":11367:11493   */\n      swap2\n      swap1\n      pop\n      jump\t// out\n        /* \"#utility.yul\":11499:11595   */\n    tag_152:\n        /* \"#utility.yul\":11536:11543   */\n      0x00\n        /* \"#utility.yul\":11565:11589   */\n      tag_293\n        /* \"#utility.yul\":11583:11588   */\n      dup3\n        /* \"#utility.yul\":11565:11589   */\n      tag_151\n      jump\t// in\n    tag_293:\n        /* \"#utility.yul\":11554:11589   */\n      swap1\n      pop\n        /* \"#utility.yul\":11499:11595   */\n      swap2\n      swap1\n      pop\n      jump\t// out\n        /* \"#utility.yul\":11601:11719   */\n    tag_153:\n        /* \"#utility.yul\":11688:11712   */\n      tag_295\n        /* \"#utility.yul\":11706:11711   */\n      dup2\n        /* \"#utility.yul\":11688:11712   */\n      tag_152\n      jump\t// in\n    tag_295:\n        /* \"#utility.yul\":11683:11686   */\n      dup3\n        /* \"#utility.yul\":11676:11713   */\n      mstore\n        /* \"#utility.yul\":11601:11719   */\n      pop\n      pop\n      jump\t// out\n        /* \"#utility.yul\":11725:11947   */\n    tag_26:\n        /* \"#utility.yul\":11818:11822   */\n      0x00\n        /* \"#utility.yul\":11856:11858   */\n      0x20\n        /* \"#utility.yul\":11845:11854   */\n      dup3\n        /* \"#utility.yul\":11841:11859   */\n      add\n        /* \"#utility.yul\":11833:11859   */\n      swap1\n      pop\n        /* \"#utility.yul\":11869:11940   */\n      tag_297\n        /* \"#utility.yul\":11937:11938   */\n      0x00\n        /* \"#utility.yul\":11926:11935   */\n      dup4\n        /* \"#utility.yul\":11922:11939   */\n      add\n        /* \"#utility.yul\":11913:11919   */\n      dup5\n        /* \"#utility.yul\":11869:11940   */\n      tag_153\n      jump\t// in\n    tag_297:\n        /* \"#utility.yul\":11725:11947   */\n      swap3\n      swap2\n      pop\n      pop\n      jump\t// out\n        /* \"#utility.yul\":11953:12013   */\n    tag_154:\n        /* \"#utility.yul\":11981:11984   */\n      0x00\n        /* \"#utility.yul\":12002:12007   */\n      dup2\n        /* \"#utility.yul\":11995:12007   */\n      swap1\n      pop\n        /* \"#utility.yul\":11953:12013   */\n      swap2\n      swap1\n      pop\n      jump\t// out\n        /* \"#utility.yul\":12019:12161   */\n    tag_155:\n        /* \"#utility.yul\":12069:12078   */\n      0x00\n        /* \"#utility.yul\":12102:12155   */\n      tag_300\n        /* \"#utility.yul\":12120:12154   */\n      tag_301\n        /* \"#utility.yul\":12129:12153   */\n      tag_302\n        /* \"#utility.yul\":12147:12152   */\n      dup5\n        /* \"#utility.yul\":12129:12153   */\n      tag_151\n      jump\t// in\n    tag_302:\n        /* \"#utility.yul\":12120:12154   */\n      tag_154\n      jump\t// in\n    tag_301:\n        /* \"#utility.yul\":12102:12155   */\n      tag_151\n      jump\t// in\n    tag_300:\n        /* \"#utility.yul\":12089:12155   */\n      swap1\n      pop\n        /* \"#utility.yul\":12019:12161   */\n      swap2\n      swap1\n      pop\n      jump\t// out\n        /* \"#utility.yul\":12167:12293   */\n    tag_156:\n        /* \"#utility.yul\":12217:12226   */\n      0x00\n        /* \"#utility.yul\":12250:12287   */\n      tag_304\n        /* \"#utility.yul\":12281:12286   */\n      dup3\n        /* \"#utility.yul\":12250:12287   */\n      tag_155\n      jump\t// in\n    tag_304:\n        /* \"#utility.yul\":12237:12287   */\n      swap1\n      pop\n        /* \"#utility.yul\":12167:12293   */\n      swap2\n      swap1\n      pop\n      jump\t// out\n        /* \"#utility.yul\":12299:12457   */\n    tag_157:\n        /* \"#utility.yul\":12381:12390   */\n      0x00\n        /* \"#utility.yul\":12414:12451   */\n      tag_306\n        /* \"#utility.yul\":12445:12450   */\n      dup3\n        /* \"#utility.yul\":12414:12451   */\n      tag_156\n      jump\t// in\n    tag_306:\n        /* \"#utility.yul\":12401:12451   */\n      swap1\n      pop\n        /* \"#utility.yul\":12299:12457   */\n      swap2\n      swap1\n      pop\n      jump\t// out\n        /* \"#utility.yul\":12463:12658   */\n    tag_158:\n        /* \"#utility.yul\":12582:12651   */\n      tag_308\n        /* \"#utility.yul\":12645:12650   */\n      dup2\n        /* \"#utility.yul\":12582:12651   */\n      tag_157\n      jump\t// in\n    tag_308:\n        /* \"#utility.yul\":12577:12580   */\n      dup3\n        /* \"#utility.yul\":12570:12652   */\n      mstore\n        /* \"#utility.yul\":12463:12658   */\n      pop\n      pop\n      jump\t// out\n        /* \"#utility.yul\":12664:12950   */\n    tag_30:\n        /* \"#utility.yul\":12789:12793   */\n      0x00\n        /* \"#utility.yul\":12827:12829   */\n      0x20\n        /* \"#utility.yul\":12816:12825   */\n      dup3\n        /* \"#utility.yul\":12812:12830   */\n      add\n        /* \"#utility.yul\":12804:12830   */\n      swap1\n      pop\n        /* \"#utility.yul\":12840:12943   */\n      tag_310\n        /* \"#utility.yul\":12940:12941   */\n      0x00\n        /* \"#utility.yul\":12929:12938   */\n      dup4\n        /* \"#utility.yul\":12925:12942   */\n      add\n        /* \"#utility.yul\":12916:12922   */\n      dup5\n        /* \"#utility.yul\":12840:12943   */\n      tag_158\n      jump\t// in\n    tag_310:\n        /* \"#utility.yul\":12664:12950   */\n      swap3\n      swap2\n      pop\n      pop\n      jump\t// out\n        /* \"#utility.yul\":12956:13136   */\n    tag_159:\n        /* \"#utility.yul\":13004:13081   */\n      0x4e487b7100000000000000000000000000000000000000000000000000000000\n        /* \"#utility.yul\":13001:13002   */\n      0x00\n        /* \"#utility.yul\":12994:13082   */\n      mstore\n        /* \"#utility.yul\":13101:13105   */\n      0x22\n        /* \"#utility.yul\":13098:13099   */\n      0x04\n        /* \"#utility.yul\":13091:13106   */\n      mstore\n        /* \"#utility.yul\":13125:13129   */\n      0x24\n        /* \"#utility.yul\":13122:13123   */\n      0x00\n        /* \"#utility.yul\":13115:13130   */\n      revert\n        /* \"#utility.yul\":13142:13462   */\n    tag_35:\n        /* \"#utility.yul\":13186:13192   */\n      0x00\n        /* \"#utility.yul\":13223:13224   */\n      0x02\n        /* \"#utility.yul\":13217:13221   */\n      dup3\n        /* \"#utility.yul\":13213:13225   */\n      div\n        /* \"#utility.yul\":13203:13225   */\n      swap1\n      pop\n        /* \"#utility.yul\":13270:13271   */\n      0x01\n        /* \"#utility.yul\":13264:13268   */\n      dup3\n        /* \"#utility.yul\":13260:13272   */\n      and\n        /* \"#utility.yul\":13291:13309   */\n      dup1\n        /* \"#utility.yul\":13281:13362   */\n      tag_313\n      jumpi\n        /* \"#utility.yul\":13347:13351   */\n      0x7f\n        /* \"#utility.yul\":13339:13345   */\n      dup3\n        /* \"#utility.yul\":13335:13352   */\n      and\n        /* \"#utility.yul\":13325:13352   */\n      swap2\n      pop\n        /* \"#utility.yul\":13281:13362   */\n    tag_313:\n        /* \"#utility.yul\":13409:13411   */\n      0x20\n        /* \"#utility.yul\":13401:13407   */\n      dup3\n        /* \"#utility.yul\":13398:13412   */\n      lt\n        /* \"#utility.yul\":13378:13396   */\n      dup2\n        /* \"#utility.yul\":13375:13413   */\n      sub\n        /* \"#utility.yul\":13372:13456   */\n      tag_314\n      jumpi\n        /* \"#utility.yul\":13428:13446   */\n      tag_315\n      tag_159\n      jump\t// in\n    tag_315:\n        /* \"#utility.yul\":13372:13456   */\n    tag_314:\n        /* \"#utility.yul\":13193:13462   */\n      pop\n        /* \"#utility.yul\":13142:13462   */\n      swap2\n      swap1\n      pop\n      jump\t// out\n        /* \"#utility.yul\":13468:13693   */\n    tag_160:\n        /* \"#utility.yul\":13608:13642   */\n      0x4f6e6c79207665726966696564206578706f727465722063616e206c6f672061\n        /* \"#utility.yul\":13604:13605   */\n      0x00\n        /* \"#utility.yul\":13596:13602   */\n      dup3\n        /* \"#utility.yul\":13592:13606   */\n      add\n        /* \"#utility.yul\":13585:13643   */\n      mstore\n        /* \"#utility.yul\":13677:13685   */\n      0x72726976616c0000000000000000000000000000000000000000000000000000\n        /* \"#utility.yul\":13672:13674   */\n      0x20\n        /* \"#utility.yul\":13664:13670   */\n      dup3\n        /* \"#utility.yul\":13660:13675   */\n      add\n        /* \"#utility.yul\":13653:13686   */\n      mstore\n        /* \"#utility.yul\":13468:13693   */\n      pop\n      jump\t// out\n        /* \"#utility.yul\":13699:14065   */\n    tag_161:\n        /* \"#utility.yul\":13841:13844   */\n      0x00\n        /* \"#utility.yul\":13862:13929   */\n      tag_318\n        /* \"#utility.yul\":13926:13928   */\n      0x26\n        /* \"#utility.yul\":13921:13924   */\n      dup4\n        /* \"#utility.yul\":13862:13929   */\n      tag_148\n      jump\t// in\n    tag_318:\n        /* \"#utility.yul\":13855:13929   */\n      swap2\n      pop\n        /* \"#utility.yul\":13938:14031   */\n      tag_319\n        /* \"#utility.yul\":14027:14030   */\n      dup3\n        /* \"#utility.yul\":13938:14031   */\n      tag_160\n      jump\t// in\n    tag_319:\n        /* \"#utility.yul\":14056:14058   */\n      0x40\n        /* \"#utility.yul\":14051:14054   */\n      dup3\n        /* \"#utility.yul\":14047:14059   */\n      add\n        /* \"#utility.yul\":14040:14059   */\n      swap1\n      pop\n        /* \"#utility.yul\":13699:14065   */\n      swap2\n      swap1\n      pop\n      jump\t// out\n        /* \"#utility.yul\":14071:14490   */\n    tag_63:\n        /* \"#utility.yul\":14237:14241   */\n      0x00\n        /* \"#utility.yul\":14275:14277   */\n      0x20\n        /* \"#utility.yul\":14264:14273   */\n      dup3\n        /* \"#utility.yul\":14260:14278   */\n      add\n        /* \"#utility.yul\":14252:14278   */\n      swap1\n      pop\n        /* \"#utility.yul\":14324:14333   */\n      dup2\n        /* \"#utility.yul\":14318:14322   */\n      dup2\n        /* \"#utility.yul\":14314:14334   */\n      sub\n        /* \"#utility.yul\":14310:14311   */\n      0x00\n        /* \"#utility.yul\":14299:14308   */\n      dup4\n        /* \"#utility.yul\":14295:14312   */\n      add\n        /* \"#utility.yul\":14288:14335   */\n      mstore\n        /* \"#utility.yul\":14352:14483   */\n      tag_321\n        /* \"#utility.yul\":14478:14482   */\n      dup2\n        /* \"#utility.yul\":14352:14483   */\n      tag_161\n      jump\t// in\n    tag_321:\n        /* \"#utility.yul\":14344:14483   */\n      swap1\n      pop\n        /* \"#utility.yul\":14071:14490   */\n      swap2\n      swap1\n      pop\n      jump\t// out\n        /* \"#utility.yul\":14496:14668   */\n    tag_162:\n        /* \"#utility.yul\":14636:14660   */\n      0x4172726976616c20616c7265616479206c6f6767656400000000000000000000\n        /* \"#utility.yul\":14632:14633   */\n      0x00\n        /* \"#utility.yul\":14624:14630   */\n      dup3\n        /* \"#utility.yul\":14620:14634   */\n      add\n        /* \"#utility.yul\":14613:14661   */\n      mstore\n        /* \"#utility.yul\":14496:14668   */\n      pop\n      jump\t// out\n        /* \"#utility.yul\":14674:15040   */\n    tag_163:\n        /* \"#utility.yul\":14816:14819   */\n      0x00\n        /* \"#utility.yul\":14837:14904   */\n      tag_324\n        /* \"#utility.yul\":14901:14903   */\n      0x16\n        /* \"#utility.yul\":14896:14899   */\n      dup4\n        /* \"#utility.yul\":14837:14904   */\n      tag_148\n      jump\t// in\n    tag_324:\n        /* \"#utility.yul\":14830:14904   */\n      swap2\n      pop\n        /* \"#utility.yul\":14913:15006   */\n      tag_325\n        /* \"#utility.yul\":15002:15005   */\n      dup3\n        /* \"#utility.yul\":14913:15006   */\n      tag_162\n      jump\t// in\n    tag_325:\n        /* \"#utility.yul\":15031:15033   */\n      0x20\n        /* \"#utility.yul\":15026:15029   */\n      dup3\n        /* \"#utility.yul\":15022:15034   */\n      add\n        /* \"#utility.yul\":15015:15034   */\n      swap1\n      pop\n        /* \"#utility.yul\":14674:15040   */\n      swap2\n      swap1\n      pop\n      jump\t// out\n        /* \"#utility.yul\":15046:15465   */\n    tag_67:\n        /* \"#utility.yul\":15212:15216   */\n      0x00\n        /* \"#utility.yul\":15250:15252   */\n      0x20\n        /* \"#utility.yul\":15239:15248   */\n      dup3\n        /* \"#utility.yul\":15235:15253   */\n      add\n        /* \"#utility.yul\":15227:15253   */\n      swap1\n      pop\n        /* \"#utility.yul\":15299:15308   */\n      dup2\n        /* \"#utility.yul\":15293:15297   */\n      dup2\n        /* \"#utility.yul\":15289:15309   */\n      sub\n        /* \"#utility.yul\":15285:15286   */\n      0x00\n        /* \"#utility.yul\":15274:15283   */\n      dup4\n        /* \"#utility.yul\":15270:15287   */\n      add\n        /* \"#utility.yul\":15263:15310   */\n      mstore\n        /* \"#utility.yul\":15327:15458   */\n      tag_327\n        /* \"#utility.yul\":15453:15457   */\n      dup2\n        /* \"#utility.yul\":15327:15458   */\n      tag_163\n      jump\t// in\n    tag_327:\n        /* \"#utility.yul\":15319:15458   */\n      swap1\n      pop\n        /* \"#utility.yul\":15046:15465   */\n      swap2\n      swap1\n      pop\n      jump\t// out\n        /* \"#utility.yul\":15471:15695   */\n    tag_164:\n        /* \"#utility.yul\":15611:15645   */\n      0x4261746368204944206e6f7420666f756e6420696e206661726d657220636f6e\n        /* \"#utility.yul\":15607:15608   */\n      0x00\n        /* \"#utility.yul\":15599:15605   */\n      dup3\n        /* \"#utility.yul\":15595:15609   */\n      add\n        /* \"#utility.yul\":15588:15646   */\n      mstore\n        /* \"#utility.yul\":15680:15687   */\n      0x7472616374000000000000000000000000000000000000000000000000000000\n        /* \"#utility.yul\":15675:15677   */\n      0x20\n        /* \"#utility.yul\":15667:15673   */\n      dup3\n        /* \"#utility.yul\":15663:15678   */\n      add\n        /* \"#utility.yul\":15656:15688   */\n      mstore\n        /* \"#utility.yul\":15471:15695   */\n      pop\n      jump\t// out\n        /* \"#utility.yul\":15701:16067   */\n    tag_165:\n        /* \"#utility.yul\":15843:15846   */\n      0x00\n        /* \"#utility.yul\":15864:15931   */\n      tag_330\n        /* \"#utility.yul\":15928:15930   */\n      0x25\n        /* \"#utility.yul\":15923:15926   */\n      dup4\n        /* \"#utility.yul\":15864:15931   */\n      tag_148\n      jump\t// in\n    tag_330:\n        /* \"#utility.yul\":15857:15931   */\n      swap2\n      pop\n        /* \"#utility.yul\":15940:16033   */\n      tag_331\n        /* \"#utility.yul\":16029:16032   */\n      dup3\n        /* \"#utility.yul\":15940:16033   */\n      tag_164\n      jump\t// in\n    tag_331:\n        /* \"#utility.yul\":16058:16060   */\n      0x40\n        /* \"#utility.yul\":16053:16056   */\n      dup3\n        /* \"#utility.yul\":16049:16061   */\n      add\n        /* \"#utility.yul\":16042:16061   */\n      swap1\n      pop\n        /* \"#utility.yul\":15701:16067   */\n      swap2\n      swap1\n      pop\n      jump\t// out\n        /* \"#utility.yul\":16073:16492   */\n    tag_72:\n        /* \"#utility.yul\":16239:16243   */\n      0x00\n        /* \"#utility.yul\":16277:16279   */\n      0x20\n        /* \"#utility.yul\":16266:16275   */\n      dup3\n        /* \"#utility.yul\":16262:16280   */\n      add\n        /* \"#utility.yul\":16254:16280   */\n      swap1\n      pop\n        /* \"#utility.yul\":16326:16335   */\n      dup2\n        /* \"#utility.yul\":16320:16324   */\n      dup2\n        /* \"#utility.yul\":16316:16336   */\n      sub\n        /* \"#utility.yul\":16312:16313   */\n      0x00\n        /* \"#utility.yul\":16301:16310   */\n      dup4\n        /* \"#utility.yul\":16297:16314   */\n      add\n        /* \"#utility.yul\":16290:16337   */\n      mstore\n        /* \"#utility.yul\":16354:16485   */\n      tag_333\n        /* \"#utility.yul\":16480:16484   */\n      dup2\n        /* \"#utility.yul\":16354:16485   */\n      tag_165\n      jump\t// in\n    tag_333:\n        /* \"#utility.yul\":16346:16485   */\n      swap1\n      pop\n        /* \"#utility.yul\":16073:16492   */\n      swap2\n      swap1\n      pop\n      jump\t// out\n        /* \"#utility.yul\":16498:16639   */\n    tag_166:\n        /* \"#utility.yul\":16547:16551   */\n      0x00\n        /* \"#utility.yul\":16570:16573   */\n      dup2\n        /* \"#utility.yul\":16562:16573   */\n      swap1\n      pop\n        /* \"#utility.yul\":16593:16596   */\n      dup2\n        /* \"#utility.yul\":16590:16591   */\n      0x00\n        /* \"#utility.yul\":16583:16597   */\n      mstore\n        /* \"#utility.yul\":16627:16631   */\n      0x20\n        /* \"#utility.yul\":16624:16625   */\n      0x00\n        /* \"#utility.yul\":16614:16632   */\n      keccak256\n        /* \"#utility.yul\":16606:16632   */\n      swap1\n      pop\n        /* \"#utility.yul\":16498:16639   */\n      swap2\n      swap1\n      pop\n      jump\t// out\n        /* \"#utility.yul\":16645:16738   */\n    tag_167:\n        /* \"#utility.yul\":16682:16688   */\n      0x00\n        /* \"#utility.yul\":16729:16731   */\n      0x20\n        /* \"#utility.yul\":16724:16726   */\n      0x1f\n        /* \"#utility.yul\":16717:16722   */\n      dup4\n        /* \"#utility.yul\":16713:16727   */\n      add\n        /* \"#utility.yul\":16709:16732   */\n      div\n        /* \"#utility.yul\":16699:16732   */\n      swap1\n      pop\n        /* \"#utility.yul\":16645:16738   */\n      swap2\n      swap1\n      pop\n      jump\t// out\n        /* \"#utility.yul\":16744:16851   */\n    tag_168:\n        /* \"#utility.yul\":16788:16796   */\n      0x00\n        /* \"#utility.yul\":16838:16843   */\n      dup3\n        /* \"#utility.yul\":16832:16836   */\n      dup3\n        /* \"#utility.yul\":16828:16844   */\n      shl\n        /* \"#utility.yul\":16807:16844   */\n      swap1\n      pop\n        /* \"#utility.yul\":16744:16851   */\n      swap3\n      swap2\n      pop\n      pop\n      jump\t// out\n        /* \"#utility.yul\":16857:17250   */\n    tag_169:\n        /* \"#utility.yul\":16926:16932   */\n      0x00\n        /* \"#utility.yul\":16976:16977   */\n      0x08\n        /* \"#utility.yul\":16964:16974   */\n      dup4\n        /* \"#utility.yul\":16960:16978   */\n      mul\n        /* \"#utility.yul\":16999:17096   */\n      tag_338\n        /* \"#utility.yul\":17029:17095   */\n      0xffffffffffffffffffffffffffffffffffffffffffffffffffffffffffffffff\n        /* \"#utility.yul\":17018:17027   */\n      dup3\n        /* \"#utility.yul\":16999:17096   */\n      tag_168\n      jump\t// in\n    tag_338:\n        /* \"#utility.yul\":17117:17156   */\n      tag_339\n        /* \"#utility.yul\":17147:17155   */\n      dup7\n        /* \"#utility.yul\":17136:17145   */\n      dup4\n        /* \"#utility.yul\":17117:17156   */\n      tag_168\n      jump\t// in\n    tag_339:\n        /* \"#utility.yul\":17105:17156   */\n      swap6\n      pop\n        /* \"#utility.yul\":17189:17193   */\n      dup1\n        /* \"#utility.yul\":17185:17194   */\n      not\n        /* \"#utility.yul\":17178:17183   */\n      dup5\n        /* \"#utility.yul\":17174:17195   */\n      and\n        /* \"#utility.yul\":17165:17195   */\n      swap4\n      pop\n        /* \"#utility.yul\":17238:17242   */\n      dup1\n        /* \"#utility.yul\":17228:17236   */\n      dup7\n        /* \"#utility.yul\":17224:17243   */\n      and\n        /* \"#utility.yul\":17217:17222   */\n      dup5\n        /* \"#utility.yul\":17214:17244   */\n      or\n        /* \"#utility.yul\":17204:17244   */\n      swap3\n      pop\n        /* \"#utility.yul\":16933:17250   */\n      pop\n      pop\n        /* \"#utility.yul\":16857:17250   */\n      swap4\n      swap3\n      pop\n      pop\n      pop\n      jump\t// out\n        /* \"#utility.yul\":17256:17398   */\n    tag_170:\n        /* \"#utility.yul\":17306:17315   */\n      0x00\n        /* \"#utility.yul\":17339:17392   */\n      tag_341\n        /* \"#utility.yul\":17357:17391   */\n      tag_342\n        /* \"#utility.yul\":17366:17390   */\n      tag_343\n        /* \"#utility.yul\":17384:17389   */\n      dup5\n        /* \"#utility.yul\":17366:17390   */\n      tag_124\n      jump\t// in\n    tag_343:\n        /* \"#utility.yul\":17357:17391   */\n      tag_154\n      jump\t// in\n    tag_342:\n        /* \"#utility.yul\":17339:17392   */\n      tag_124\n      jump\t// in\n    tag_341:\n        /* \"#utility.yul\":17326:17392   */\n      swap1\n      pop\n        /* \"#utility.yul\":17256:17398   */\n      swap2\n      swap1\n      pop\n      jump\t// out\n        /* \"#utility.yul\":17404:17479   */\n    tag_171:\n        /* \"#utility.yul\":17447:17450   */\n      0x00\n        /* \"#utility.yul\":17468:17473   */\n      dup2\n        /* \"#utility.yul\":17461:17473   */\n      swap1\n      pop\n        /* \"#utility.yul\":17404:17479   */\n      swap2\n      swap1\n      pop\n      jump\t// out\n        /* \"#utility.yul\":17485:17754   */\n    tag_172:\n        /* \"#utility.yul\":17595:17634   */\n      tag_346\n        /* \"#utility.yul\":17626:17633   */\n      dup4\n        /* \"#utility.yul\":17595:17634   */\n      tag_170\n      jump\t// in\n    tag_346:\n        /* \"#utility.yul\":17656:17747   */\n      tag_347\n        /* \"#utility.yul\":17705:17746   */\n      tag_348\n        /* \"#utility.yul\":17729:17745   */\n      dup3\n        /* \"#utility.yul\":17705:17746   */\n      tag_171\n      jump\t// in\n    tag_348:\n        /* \"#utility.yul\":17697:17703   */\n      dup5\n        /* \"#utility.yul\":17690:17694   */\n      dup5\n        /* \"#utility.yul\":17684:17695   */\n      sload\n        /* \"#utility.yul\":17656:17747   */\n      tag_169\n      jump\t// in\n    tag_347:\n        /* \"#utility.yul\":17650:17654   */\n      dup3\n        /* \"#utility.yul\":17643:17748   */\n      sstore\n        /* \"#utility.yul\":17561:17754   */\n      pop\n        /* \"#utility.yul\":17485:17754   */\n      pop\n      pop\n      pop\n      jump\t// out\n        /* \"#utility.yul\":17760:17833   */\n    tag_173:\n        /* \"#utility.yul\":17805:17808   */\n      0x00\n        /* \"#utility.yul\":17760:17833   */\n      swap1\n      jump\t// out\n        /* \"#utility.yul\":17839:18028   */\n    tag_174:\n        /* \"#utility.yul\":17916:17948   */\n      tag_351\n      tag_173\n      jump\t// in\n    tag_351:\n        /* \"#utility.yul\":17957:18022   */\n      tag_352\n        /* \"#utility.yul\":18015:18021   */\n      dup2\n        /* \"#utility.yul\":18007:18013   */\n      dup5\n        /* \"#utility.yul\":18001:18005   */\n      dup5\n        /* \"#utility.yul\":17957:18022   */\n      tag_172\n      jump\t// in\n    tag_352:\n        /* \"#utility.yul\":17892:18028   */\n      pop\n        /* \"#utility.yul\":17839:18028   */\n      pop\n      pop\n      jump\t// out\n        /* \"#utility.yul\":18034:18220   */\n    tag_175:\n        /* \"#utility.yul\":18094:18214   */\n    tag_354:\n        /* \"#utility.yul\":18111:18114   */\n      dup2\n        /* \"#utility.yul\":18104:18109   */\n      dup2\n        /* \"#utility.yul\":18101:18115   */\n      lt\n        /* \"#utility.yul\":18094:18214   */\n      iszero\n      tag_356\n      jumpi\n        /* \"#utility.yul\":18165:18204   */\n      tag_357\n        /* \"#utility.yul\":18202:18203   */\n      0x00\n        /* \"#utility.yul\":18195:18200   */\n      dup3\n        /* \"#utility.yul\":18165:18204   */\n      tag_174\n      jump\t// in\n    tag_357:\n        /* \"#utility.yul\":18138:18139   */\n      0x01\n        /* \"#utility.yul\":18131:18136   */\n      dup2\n        /* \"#utility.yul\":18127:18140   */\n      add\n        /* \"#utility.yul\":18118:18140   */\n      swap1\n      pop\n        /* \"#utility.yul\":18094:18214   */\n      jump(tag_354)\n    tag_356:\n        /* \"#utility.yul\":18034:18220   */\n      pop\n      pop\n      jump\t// out\n        /* \"#utility.yul\":18226:18769   */\n    tag_176:\n        /* \"#utility.yul\":18327:18329   */\n      0x1f\n        /* \"#utility.yul\":18322:18325   */\n      dup3\n        /* \"#utility.yul\":18319:18330   */\n      gt\n        /* \"#utility.yul\":18316:18762   */\n      iszero\n      tag_359\n      jumpi\n        /* \"#utility.yul\":18361:18399   */\n      tag_360\n        /* \"#utility.yul\":18393:18398   */\n      dup2\n        /* \"#utility.yul\":18361:18399   */\n      tag_166\n      jump\t// in\n    tag_360:\n        /* \"#utility.yul\":18445:18474   */\n      tag_361\n        /* \"#utility.yul\":18463:18473   */\n      dup5\n        /* \"#utility.yul\":18445:18474   */\n      tag_167\n      jump\t// in\n    tag_361:\n        /* \"#utility.yul\":18435:18443   */\n      dup2\n        /* \"#utility.yul\":18431:18475   */\n      add\n        /* \"#utility.yul\":18628:18630   */\n      0x20\n        /* \"#utility.yul\":18616:18626   */\n      dup6\n        /* \"#utility.yul\":18613:18631   */\n      lt\n        /* \"#utility.yul\":18610:18659   */\n      iszero\n      tag_362\n      jumpi\n        /* \"#utility.yul\":18649:18657   */\n      dup2\n        /* \"#utility.yul\":18634:18657   */\n      swap1\n      pop\n        /* \"#utility.yul\":18610:18659   */\n    tag_362:\n        /* \"#utility.yul\":18672:18752   */\n      tag_363\n        /* \"#utility.yul\":18728:18750   */\n      tag_364\n        /* \"#utility.yul\":18746:18749   */\n      dup6\n        /* \"#utility.yul\":18728:18750   */\n      tag_167\n      jump\t// in\n    tag_364:\n        /* \"#utility.yul\":18718:18726   */\n      dup4\n        /* \"#utility.yul\":18714:18751   */\n      add\n        /* \"#utility.yul\":18701:18712   */\n      dup3\n        /* \"#utility.yul\":18672:18752   */\n      tag_175\n      jump\t// in\n    tag_363:\n        /* \"#utility.yul\":18331:18762   */\n      pop\n      pop\n        /* \"#utility.yul\":18316:18762   */\n    tag_359:\n        /* \"#utility.yul\":18226:18769   */\n      pop\n      pop\n      pop\n      jump\t// out\n        /* \"#utility.yul\":18775:18892   */\n    tag_177:\n        /* \"#utility.yul\":18829:18837   */\n      0x00\n        /* \"#utility.yul\":18879:18884   */\n      dup3\n        /* \"#utility.yul\":18873:18877   */\n      dup3\n        /* \"#utility.yul\":18869:18885   */\n      shr\n        /* \"#utility.yul\":18848:18885   */\n      swap1\n      pop\n        /* \"#utility.yul\":18775:18892   */\n      swap3\n      swap2\n      pop\n      pop\n      jump\t// out\n        /* \"#utility.yul\":18898:19067   */\n    tag_178:\n        /* \"#utility.yul\":18942:18948   */\n      0x00\n        /* \"#utility.yul\":18975:19026   */\n      tag_367\n        /* \"#utility.yul\":19023:19024   */\n      0x00\n        /* \"#utility.yul\":19019:19025   */\n      not\n        /* \"#utility.yul\":19011:19016   */\n      dup5\n        /* \"#utility.yul\":19008:19009   */\n      0x08\n        /* \"#utility.yul\":19004:19017   */\n      mul\n        /* \"#utility.yul\":18975:19026   */\n      tag_177\n      jump\t// in\n    tag_367:\n        /* \"#utility.yul\":18971:19027   */\n      not\n        /* \"#utility.yul\":19056:19060   */\n      dup1\n        /* \"#utility.yul\":19050:19054   */\n      dup4\n        /* \"#utility.yul\":19046:19061   */\n      and\n        /* \"#utility.yul\":19036:19061   */\n      swap2\n      pop\n        /* \"#utility.yul\":18949:19067   */\n      pop\n        /* \"#utility.yul\":18898:19067   */\n      swap3\n      swap2\n      pop\n      pop\n      jump\t// out\n        /* \"#utility.yul\":19072:19367   */\n    tag_179:\n        /* \"#utility.yul\":19148:19152   */\n      0x00\n        /* \"#utility.yul\":19294:19323   */\n      tag_369\n        /* \"#utility.yul\":19319:19322   */\n      dup4\n        /* \"#utility.yul\":19313:19317   */\n      dup4\n        /* \"#utility.yul\":19294:19323   */\n      tag_178\n      jump\t// in\n    tag_369:\n        /* \"#utility.yul\":19286:19323   */\n      swap2\n      pop\n        /* \"#utility.yul\":19356:19359   */\n      dup3\n        /* \"#utility.yul\":19353:19354   */\n      0x02\n        /* \"#utility.yul\":19349:19360   */\n      mul\n        /* \"#utility.yul\":19343:19347   */\n      dup3\n        /* \"#utility.yul\":19340:19361   */\n      or\n        /* \"#utility.yul\":19332:19361   */\n      swap1\n      pop\n        /* \"#utility.yul\":19072:19367   */\n      swap3\n      swap2\n      pop\n      pop\n      jump\t// out\n        /* \"#utility.yul\":19372:20767   */\n    tag_74:\n        /* \"#utility.yul\":19489:19526   */\n      tag_371\n        /* \"#utility.yul\":19522:19525   */\n      dup3\n        /* \"#utility.yul\":19489:19526   */\n      tag_128\n      jump\t// in\n    tag_371:\n        /* \"#utility.yul\":19591:19609   */\n      0xffffffffffffffff\n        /* \"#utility.yul\":19583:19589   */\n      dup2\n        /* \"#utility.yul\":19580:19610   */\n      gt\n        /* \"#utility.yul\":19577:19633   */\n      iszero\n      tag_372\n      jumpi\n        /* \"#utility.yul\":19613:19631   */\n      tag_373\n      tag_138\n      jump\t// in\n    tag_373:\n        /* \"#utility.yul\":19577:19633   */\n    tag_372:\n        /* \"#utility.yul\":19657:19695   */\n      tag_374\n        /* \"#utility.yul\":19689:19693   */\n      dup3\n        /* \"#utility.yul\":19683:19694   */\n      sload\n        /* \"#utility.yul\":19657:19695   */\n      tag_35\n      jump\t// in\n    tag_374:\n        /* \"#utility.yul\":19742:19809   */\n      tag_375\n        /* \"#utility.yul\":19802:19808   */\n      dup3\n        /* \"#utility.yul\":19794:19800   */\n      dup3\n        /* \"#utility.yul\":19788:19792   */\n      dup6\n        /* \"#utility.yul\":19742:19809   */\n      tag_176\n      jump\t// in\n    tag_375:\n        /* \"#utility.yul\":19836:19837   */\n      0x00\n        /* \"#utility.yul\":19860:19864   */\n      0x20\n        /* \"#utility.yul\":19847:19864   */\n      swap1\n      pop\n        /* \"#utility.yul\":19892:19894   */\n      0x1f\n        /* \"#utility.yul\":19884:19890   */\n      dup4\n        /* \"#utility.yul\":19881:19895   */\n      gt\n        /* \"#utility.yul\":19909:19910   */\n      0x01\n        /* \"#utility.yul\":19904:20522   */\n      dup2\n      eq\n      tag_377\n      jumpi\n        /* \"#utility.yul\":20566:20567   */\n      0x00\n        /* \"#utility.yul\":20583:20589   */\n      dup5\n        /* \"#utility.yul\":20580:20657   */\n      iszero\n      tag_378\n      jumpi\n        /* \"#utility.yul\":20632:20641   */\n      dup3\n        /* \"#utility.yul\":20627:20630   */\n      dup8\n        /* \"#utility.yul\":20623:20642   */\n      add\n        /* \"#utility.yul\":20617:20643   */\n      mload\n        /* \"#utility.yul\":20608:20643   */\n      swap1\n      pop\n        /* \"#utility.yul\":20580:20657   */\n    tag_378:\n        /* \"#utility.yul\":20683:20750   */\n      tag_379\n        /* \"#utility.yul\":20743:20749   */\n      dup6\n        /* \"#utility.yul\":20736:20741   */\n      dup3\n        /* \"#utility.yul\":20683:20750   */\n      tag_179\n      jump\t// in\n    tag_379:\n        /* \"#utility.yul\":20677:20681   */\n      dup7\n        /* \"#utility.yul\":20670:20751   */\n      sstore\n        /* \"#utility.yul\":20539:20761   */\n      pop\n        /* \"#utility.yul\":19874:20761   */\n      jump(tag_376)\n        /* \"#utility.yul\":19904:20522   */\n    tag_377:\n        /* \"#utility.yul\":19956:19960   */\n      0x1f\n        /* \"#utility.yul\":19952:19961   */\n      not\n        /* \"#utility.yul\":19944:19950   */\n      dup5\n        /* \"#utility.yul\":19940:19962   */\n      and\n        /* \"#utility.yul\":19990:20027   */\n      tag_380\n        /* \"#utility.yul\":20022:20026   */\n      dup7\n        /* \"#utility.yul\":19990:20027   */\n      tag_166\n      jump\t// in\n    tag_380:\n        /* \"#utility.yul\":20049:20050   */\n      0x00\n        /* \"#utility.yul\":20063:20271   */\n    tag_381:\n        /* \"#utility.yul\":20077:20084   */\n      dup3\n        /* \"#utility.yul\":20074:20075   */\n      dup2\n        /* \"#utility.yul\":20071:20085   */\n      lt\n        /* \"#utility.yul\":20063:20271   */\n      iszero\n      tag_383\n      jumpi\n        /* \"#utility.yul\":20156:20165   */\n      dup5\n        /* \"#utility.yul\":20151:20154   */\n      dup10\n        /* \"#utility.yul\":20147:20166   */\n      add\n        /* \"#utility.yul\":20141:20167   */\n      mload\n        /* \"#utility.yul\":20133:20139   */\n      dup3\n        /* \"#utility.yul\":20126:20168   */\n      sstore\n        /* \"#utility.yul\":20207:20208   */\n      0x01\n        /* \"#utility.yul\":20199:20205   */\n      dup3\n        /* \"#utility.yul\":20195:20209   */\n      add\n        /* \"#utility.yul\":20185:20209   */\n      swap2\n      pop\n        /* \"#utility.yul\":20254:20256   */\n      0x20\n        /* \"#utility.yul\":20243:20252   */\n      dup6\n        /* \"#utility.yul\":20239:20257   */\n      add\n        /* \"#utility.yul\":20226:20257   */\n      swap5\n      pop\n        /* \"#utility.yul\":20100:20104   */\n      0x20\n        /* \"#utility.yul\":20097:20098   */\n      dup2\n        /* \"#utility.yul\":20093:20105   */\n      add\n        /* \"#utility.yul\":20088:20105   */\n      swap1\n      pop\n        /* \"#utility.yul\":20063:20271   */\n      jump(tag_381)\n    tag_383:\n        /* \"#utility.yul\":20299:20305   */\n      dup7\n        /* \"#utility.yul\":20290:20297   */\n      dup4\n        /* \"#utility.yul\":20287:20306   */\n      lt\n        /* \"#utility.yul\":20284:20463   */\n      iszero\n      tag_384\n      jumpi\n        /* \"#utility.yul\":20357:20366   */\n      dup5\n        /* \"#utility.yul\":20352:20355   */\n      dup10\n        /* \"#utility.yul\":20348:20367   */\n      add\n        /* \"#utility.yul\":20342:20368   */\n      mload\n        /* \"#utility.yul\":20400:20448   */\n      tag_385\n        /* \"#utility.yul\":20442:20446   */\n      0x1f\n        /* \"#utility.yul\":20434:20440   */\n      dup10\n        /* \"#utility.yul\":20430:20447   */\n      and\n        /* \"#utility.yul\":20419:20428   */\n      dup3\n        /* \"#utility.yul\":20400:20448   */\n      tag_178\n      jump\t// in\n    tag_385:\n        /* \"#utility.yul\":20392:20398   */\n      dup4\n        /* \"#utility.yul\":20385:20449   */\n      sstore\n        /* \"#utility.yul\":20307:20463   */\n      pop\n        /* \"#utility.yul\":20284:20463   */\n    tag_384:\n        /* \"#utility.yul\":20509:20510   */\n      0x01\n        /* \"#utility.yul\":20505:20506   */\n      0x02\n        /* \"#utility.yul\":20497:20503   */\n      dup9\n        /* \"#utility.yul\":20493:20507   */\n      mul\n        /* \"#utility.yul\":20489:20511   */\n      add\n        /* \"#utility.yul\":20483:20487   */\n      dup9\n        /* \"#utility.yul\":20476:20512   */\n      sstore\n        /* \"#utility.yul\":19911:20522   */\n      pop\n      pop\n      pop\n        /* \"#utility.yul\":19874:20761   */\n    tag_376:\n      pop\n        /* \"#utility.yul\":19464:20767   */\n      pop\n      pop\n      pop\n        /* \"#utility.yul\":19372:20767   */\n      pop\n      pop\n      jump\t// out\n        /* \"#utility.yul\":20773:22213   */\n    tag_80:\n        /* \"#utility.yul\":21156:21160   */\n      0x00\n        /* \"#utility.yul\":21194:21197   */\n      0x0100\n        /* \"#utility.yul\":21183:21192   */\n      dup3\n        /* \"#utility.yul\":21179:21198   */\n      add\n        /* \"#utility.yul\":21171:21198   */\n      swap1\n      pop\n        /* \"#utility.yul\":21208:21279   */\n      tag_387\n        /* \"#utility.yul\":21276:21277   */\n      0x00\n        /* \"#utility.yul\":21265:21274   */\n      dup4\n        /* \"#utility.yul\":21261:21278   */\n      add\n        /* \"#utility.yul\":21252:21258   */\n      dup12\n        /* \"#utility.yul\":21208:21279   */\n      tag_147\n      jump\t// in\n    tag_387:\n        /* \"#utility.yul\":21326:21335   */\n      dup2\n        /* \"#utility.yul\":21320:21324   */\n      dup2\n        /* \"#utility.yul\":21316:21336   */\n      sub\n        /* \"#utility.yul\":21311:21313   */\n      0x20\n        /* \"#utility.yul\":21300:21309   */\n      dup4\n        /* \"#utility.yul\":21296:21314   */\n      add\n        /* \"#utility.yul\":21289:21337   */\n      mstore\n        /* \"#utility.yul\":21354:21432   */\n      tag_388\n        /* \"#utility.yul\":21427:21431   */\n      dup2\n        /* \"#utility.yul\":21418:21424   */\n      dup11\n        /* \"#utility.yul\":21354:21432   */\n      tag_149\n      jump\t// in\n    tag_388:\n        /* \"#utility.yul\":21346:21432   */\n      swap1\n      pop\n        /* \"#utility.yul\":21479:21488   */\n      dup2\n        /* \"#utility.yul\":21473:21477   */\n      dup2\n        /* \"#utility.yul\":21469:21489   */\n      sub\n        /* \"#utility.yul\":21464:21466   */\n      0x40\n        /* \"#utility.yul\":21453:21462   */\n      dup4\n        /* \"#utility.yul\":21449:21467   */\n      add\n        /* \"#utility.yul\":21442:21490   */\n      mstore\n        /* \"#utility.yul\":21507:21585   */\n      tag_389\n        /* \"#utility.yul\":21580:21584   */\n      dup2\n        /* \"#utility.yul\":21571:21577   */\n      dup10\n        /* \"#utility.yul\":21507:21585   */\n      tag_149\n      jump\t// in\n    tag_389:\n        /* \"#utility.yul\":21499:21585   */\n      swap1\n      pop\n        /* \"#utility.yul\":21632:21641   */\n      dup2\n        /* \"#utility.yul\":21626:21630   */\n      dup2\n        /* \"#utility.yul\":21622:21642   */\n      sub\n        /* \"#utility.yul\":21617:21619   */\n      0x60\n        /* \"#utility.yul\":21606:21615   */\n      dup4\n        /* \"#utility.yul\":21602:21620   */\n      add\n        /* \"#utility.yul\":21595:21643   */\n      mstore\n        /* \"#utility.yul\":21660:21738   */\n      tag_390\n        /* \"#utility.yul\":21733:21737   */\n      dup2\n        /* \"#utility.yul\":21724:21730   */\n      dup9\n        /* \"#utility.yul\":21660:21738   */\n      tag_149\n      jump\t// in\n    tag_390:\n        /* \"#utility.yul\":21652:21738   */\n      swap1\n      pop\n        /* \"#utility.yul\":21786:21795   */\n      dup2\n        /* \"#utility.yul\":21780:21784   */\n      dup2\n        /* \"#utility.yul\":21776:21796   */\n      sub\n        /* \"#utility.yul\":21770:21773   */\n      0x80\n        /* \"#utility.yul\":21759:21768   */\n      dup4\n        /* \"#utility.yul\":21755:21774   */\n      add\n        /* \"#utility.yul\":21748:21797   */\n      mstore\n        /* \"#utility.yul\":21814:21892   */\n      tag_391\n        /* \"#utility.yul\":21887:21891   */\n      dup2\n        /* \"#utility.yul\":21878:21884   */\n      dup8\n        /* \"#utility.yul\":21814:21892   */\n      tag_149\n      jump\t// in\n    tag_391:\n        /* \"#utility.yul\":21806:21892   */\n      swap1\n      pop\n        /* \"#utility.yul\":21940:21949   */\n      dup2\n        /* \"#utility.yul\":21934:21938   */\n      dup2\n        /* \"#utility.yul\":21930:21950   */\n      sub\n        /* \"#utility.yul\":21924:21927   */\n      0xa0\n        /* \"#utility.yul\":21913:21922   */\n      dup4\n        /* \"#utility.yul\":21909:21928   */\n      add\n        /* \"#utility.yul\":21902:21951   */\n      mstore\n        /* \"#utility.yul\":21968:22046   */\n      tag_392\n        /* \"#utility.yul\":22041:22045   */\n      dup2\n        /* \"#utility.yul\":22032:22038   */\n      dup7\n        /* \"#utility.yul\":21968:22046   */\n      tag_149\n      jump\t// in\n    tag_392:\n        /* \"#utility.yul\":21960:22046   */\n      swap1\n      pop\n        /* \"#utility.yul\":22056:22123   */\n      tag_393\n        /* \"#utility.yul\":22118:22121   */\n      0xc0\n        /* \"#utility.yul\":22107:22116   */\n      dup4\n        /* \"#utility.yul\":22103:22122   */\n      add\n        /* \"#utility.yul\":22094:22100   */\n      dup6\n        /* \"#utility.yul\":22056:22123   */\n      tag_150\n      jump\t// in\n    tag_393:\n        /* \"#utility.yul\":22133:22206   */\n      tag_394\n        /* \"#utility.yul\":22201:22204   */\n      0xe0\n        /* \"#utility.yul\":22190:22199   */\n      dup4\n        /* \"#utility.yul\":22186:22205   */\n      add\n        /* \"#utility.yul\":22177:22183   */\n      dup5\n        /* \"#utility.yul\":22133:22206   */\n      tag_153\n      jump\t// in\n    tag_394:\n        /* \"#utility.yul\":20773:22213   */\n      swap10\n      swap9\n      pop\n      pop\n      pop\n      pop\n      pop\n      pop\n      pop\n      pop\n      pop\n      jump\t// out\n        /* \"#utility.yul\":22219:22362   */\n    tag_180:\n        /* \"#utility.yul\":22276:22281   */\n      0x00\n        /* \"#utility.yul\":22307:22313   */\n      dup2\n        /* \"#utility.yul\":22301:22314   */\n      mload\n        /* \"#utility.yul\":22292:22314   */\n      swap1\n      pop\n        /* \"#utility.yul\":22323:22356   */\n      tag_396\n        /* \"#utility.yul\":22350:22355   */\n      dup2\n        /* \"#utility.yul\":22323:22356   */\n      tag_125\n      jump\t// in\n    tag_396:\n        /* \"#utility.yul\":22219:22362   */\n      swap3\n      swap2\n      pop\n      pop\n      jump\t// out\n        /* \"#utility.yul\":22368:22719   */\n    tag_110:\n        /* \"#utility.yul\":22438:22444   */\n      0x00\n        /* \"#utility.yul\":22487:22489   */\n      0x20\n        /* \"#utility.yul\":22475:22484   */\n      dup3\n        /* \"#utility.yul\":22466:22473   */\n      dup5\n        /* \"#utility.yul\":22462:22485   */\n      sub\n        /* \"#utility.yul\":22458:22490   */\n      slt\n        /* \"#utility.yul\":22455:22574   */\n      iszero\n      tag_398\n      jumpi\n        /* \"#utility.yul\":22493:22572   */\n      tag_399\n      tag_122\n      jump\t// in\n    tag_399:\n        /* \"#utility.yul\":22455:22574   */\n    tag_398:\n        /* \"#utility.yul\":22613:22614   */\n      0x00\n        /* \"#utility.yul\":22638:22702   */\n      tag_400\n        /* \"#utility.yul\":22694:22701   */\n      dup5\n        /* \"#utility.yul\":22685:22691   */\n      dup3\n        /* \"#utility.yul\":22674:22683   */\n      dup6\n        /* \"#utility.yul\":22670:22692   */\n      add\n        /* \"#utility.yul\":22638:22702   */\n      tag_180\n      jump\t// in\n    tag_400:\n        /* \"#utility.yul\":22628:22702   */\n      swap2\n      pop\n        /* \"#utility.yul\":22584:22712   */\n      pop\n        /* \"#utility.yul\":22368:22719   */\n      swap3\n      swap2\n      pop\n      pop\n      jump\t// out\n        /* \"#utility.yul\":22725:22947   */\n    tag_115:\n        /* \"#utility.yul\":22818:22822   */\n      0x00\n        /* \"#utility.yul\":22856:22858   */\n      0x20\n        /* \"#utility.yul\":22845:22854   */\n      dup3\n        /* \"#utility.yul\":22841:22859   */\n      add\n        /* \"#utility.yul\":22833:22859   */\n      swap1\n      pop\n        /* \"#utility.yul\":22869:22940   */\n      tag_402\n        /* \"#utility.yul\":22937:22938   */\n      0x00\n        /* \"#utility.yul\":22926:22935   */\n      dup4\n        /* \"#utility.yul\":22922:22939   */\n      add\n        /* \"#utility.yul\":22913:22919   */\n      dup5\n        /* \"#utility.yul\":22869:22940   */\n      tag_147\n      jump\t// in\n    tag_402:\n        /* \"#utility.yul\":22725:22947   */\n      swap3\n      swap2\n      pop\n      pop\n      jump\t// out\n        /* \"#utility.yul\":22953:23387   */\n    tag_181:\n        /* \"#utility.yul\":23042:23047   */\n      0x00\n        /* \"#utility.yul\":23067:23133   */\n      tag_404\n        /* \"#utility.yul\":23083:23132   */\n      tag_405\n        /* \"#utility.yul\":23125:23131   */\n      dup5\n        /* \"#utility.yul\":23083:23132   */\n      tag_141\n      jump\t// in\n    tag_405:\n        /* \"#utility.yul\":23067:23133   */\n      tag_140\n      jump\t// in\n    tag_404:\n        /* \"#utility.yul\":23058:23133   */\n      swap1\n      pop\n        /* \"#utility.yul\":23156:23162   */\n      dup3\n        /* \"#utility.yul\":23149:23154   */\n      dup2\n        /* \"#utility.yul\":23142:23163   */\n      mstore\n        /* \"#utility.yul\":23194:23198   */\n      0x20\n        /* \"#utility.yul\":23187:23192   */\n      dup2\n        /* \"#utility.yul\":23183:23199   */\n      add\n        /* \"#utility.yul\":23232:23235   */\n      dup5\n        /* \"#utility.yul\":23223:23229   */\n      dup5\n        /* \"#utility.yul\":23218:23221   */\n      dup5\n        /* \"#utility.yul\":23214:23230   */\n      add\n        /* \"#utility.yul\":23211:23236   */\n      gt\n        /* \"#utility.yul\":23208:23320   */\n      iszero\n      tag_406\n      jumpi\n        /* \"#utility.yul\":23239:23318   */\n      tag_407\n      tag_137\n      jump\t// in\n    tag_407:\n        /* \"#utility.yul\":23208:23320   */\n    tag_406:\n        /* \"#utility.yul\":23329:23381   */\n      tag_408\n        /* \"#utility.yul\":23374:23380   */\n      dup5\n        /* \"#utility.yul\":23369:23372   */\n      dup3\n        /* \"#utility.yul\":23364:23367   */\n      dup6\n        /* \"#utility.yul\":23329:23381   */\n      tag_130\n      jump\t// in\n    tag_408:\n        /* \"#utility.yul\":23048:23387   */\n      pop\n        /* \"#utility.yul\":22953:23387   */\n      swap4\n      swap3\n      pop\n      pop\n      pop\n      jump\t// out\n        /* \"#utility.yul\":23407:23762   */\n    tag_182:\n        /* \"#utility.yul\":23474:23479   */\n      0x00\n        /* \"#utility.yul\":23523:23526   */\n      dup3\n        /* \"#utility.yul\":23516:23520   */\n      0x1f\n        /* \"#utility.yul\":23508:23514   */\n      dup4\n        /* \"#utility.yul\":23504:23521   */\n      add\n        /* \"#utility.yul\":23500:23527   */\n      slt\n        /* \"#utility.yul\":23490:23612   */\n      tag_410\n      jumpi\n        /* \"#utility.yul\":23531:23610   */\n      tag_411\n      tag_136\n      jump\t// in\n    tag_411:\n        /* \"#utility.yul\":23490:23612   */\n    tag_410:\n        /* \"#utility.yul\":23641:23647   */\n      dup2\n        /* \"#utility.yul\":23635:23648   */\n      mload\n        /* \"#utility.yul\":23666:23756   */\n      tag_412\n        /* \"#utility.yul\":23752:23755   */\n      dup5\n        /* \"#utility.yul\":23744:23750   */\n      dup3\n        /* \"#utility.yul\":23737:23741   */\n      0x20\n        /* \"#utility.yul\":23729:23735   */\n      dup7\n        /* \"#utility.yul\":23725:23742   */\n      add\n        /* \"#utility.yul\":23666:23756   */\n      tag_181\n      jump\t// in\n    tag_412:\n        /* \"#utility.yul\":23657:23756   */\n      swap2\n      pop\n        /* \"#utility.yul\":23480:23762   */\n      pop\n        /* \"#utility.yul\":23407:23762   */\n      swap3\n      swap2\n      pop\n      pop\n      jump\t// out\n        /* \"#utility.yul\":23768:26097   */\n    tag_119:\n        /* \"#utility.yul\":23952:23958   */\n      0x00\n        /* \"#utility.yul\":23960:23966   */\n      dup1\n        /* \"#utility.yul\":23968:23974   */\n      0x00\n        /* \"#utility.yul\":23976:23982   */\n      dup1\n        /* \"#utility.yul\":23984:23990   */\n      0x00\n        /* \"#utility.yul\":23992:23998   */\n      dup1\n        /* \"#utility.yul\":24000:24006   */\n      0x00\n        /* \"#utility.yul\":24049:24052   */\n      0xe0\n        /* \"#utility.yul\":24037:24046   */\n      dup9\n        /* \"#utility.yul\":24028:24035   */\n      dup11\n        /* \"#utility.yul\":24024:24047   */\n      sub\n        /* \"#utility.yul\":24020:24053   */\n      slt\n        /* \"#utility.yul\":24017:24137   */\n      iszero\n      tag_414\n      jumpi\n        /* \"#utility.yul\":24056:24135   */\n      tag_415\n      tag_122\n      jump\t// in\n    tag_415:\n        /* \"#utility.yul\":24017:24137   */\n    tag_414:\n        /* \"#utility.yul\":24176:24177   */\n      0x00\n        /* \"#utility.yul\":24201:24265   */\n      tag_416\n        /* \"#utility.yul\":24257:24264   */\n      dup11\n        /* \"#utility.yul\":24248:24254   */\n      dup3\n        /* \"#utility.yul\":24237:24246   */\n      dup12\n        /* \"#utility.yul\":24233:24255   */\n      add\n        /* \"#utility.yul\":24201:24265   */\n      tag_180\n      jump\t// in\n    tag_416:\n        /* \"#utility.yul\":24191:24265   */\n      swap8\n      pop\n        /* \"#utility.yul\":24147:24275   */\n      pop\n        /* \"#utility.yul\":24335:24337   */\n      0x20\n        /* \"#utility.yul\":24324:24333   */\n      dup9\n        /* \"#utility.yul\":24320:24338   */\n      add\n        /* \"#utility.yul\":24314:24339   */\n      mload\n        /* \"#utility.yul\":24366:24384   */\n      0xffffffffffffffff\n        /* \"#utility.yul\":24358:24364   */\n      dup2\n        /* \"#utility.yul\":24355:24385   */\n      gt\n        /* \"#utility.yul\":24352:24469   */\n      iszero\n      tag_417\n      jumpi\n        /* \"#utility.yul\":24388:24467   */\n      tag_418\n      tag_123\n      jump\t// in\n    tag_418:\n        /* \"#utility.yul\":24352:24469   */\n    tag_417:\n        /* \"#utility.yul\":24493:24567   */\n      tag_419\n        /* \"#utility.yul\":24559:24566   */\n      dup11\n        /* \"#utility.yul\":24550:24556   */\n      dup3\n        /* \"#utility.yul\":24539:24548   */\n      dup12\n        /* \"#utility.yul\":24535:24557   */\n      add\n        /* \"#utility.yul\":24493:24567   */\n      tag_182\n      jump\t// in\n    tag_419:\n        /* \"#utility.yul\":24483:24567   */\n      swap7\n      pop\n        /* \"#utility.yul\":24285:24577   */\n      pop\n        /* \"#utility.yul\":24637:24639   */\n      0x40\n        /* \"#utility.yul\":24626:24635   */\n      dup9\n        /* \"#utility.yul\":24622:24640   */\n      add\n        /* \"#utility.yul\":24616:24641   */\n      mload\n        /* \"#utility.yul\":24668:24686   */\n      0xffffffffffffffff\n        /* \"#utility.yul\":24660:24666   */\n      dup2\n        /* \"#utility.yul\":24657:24687   */\n      gt\n        /* \"#utility.yul\":24654:24771   */\n      iszero\n      tag_420\n      jumpi\n        /* \"#utility.yul\":24690:24769   */\n      tag_421\n      tag_123\n      jump\t// in\n    tag_421:\n        /* \"#utility.yul\":24654:24771   */\n    tag_420:\n        /* \"#utility.yul\":24795:24869   */\n      tag_422\n        /* \"#utility.yul\":24861:24868   */\n      dup11\n        /* \"#utility.yul\":24852:24858   */\n      dup3\n        /* \"#utility.yul\":24841:24850   */\n      dup12\n        /* \"#utility.yul\":24837:24859   */\n      add\n        /* \"#utility.yul\":24795:24869   */\n      tag_182\n      jump\t// in\n    tag_422:\n        /* \"#utility.yul\":24785:24869   */\n      swap6\n      pop\n        /* \"#utility.yul\":24587:24879   */\n      pop\n        /* \"#utility.yul\":24939:24941   */\n      0x60\n        /* \"#utility.yul\":24928:24937   */\n      dup9\n        /* \"#utility.yul\":24924:24942   */\n      add\n        /* \"#utility.yul\":24918:24943   */\n      mload\n        /* \"#utility.yul\":24970:24988   */\n      0xffffffffffffffff\n        /* \"#utility.yul\":24962:24968   */\n      dup2\n        /* \"#utility.yul\":24959:24989   */\n      gt\n        /* \"#utility.yul\":24956:25073   */\n      iszero\n      tag_423\n      jumpi\n        /* \"#utility.yul\":24992:25071   */\n      tag_424\n      tag_123\n      jump\t// in\n    tag_424:\n        /* \"#utility.yul\":24956:25073   */\n    tag_423:\n        /* \"#utility.yul\":25097:25171   */\n      tag_425\n        /* \"#utility.yul\":25163:25170   */\n      dup11\n        /* \"#utility.yul\":25154:25160   */\n      dup3\n        /* \"#utility.yul\":25143:25152   */\n      dup12\n        /* \"#utility.yul\":25139:25161   */\n      add\n        /* \"#utility.yul\":25097:25171   */\n      tag_182\n      jump\t// in\n    tag_425:\n        /* \"#utility.yul\":25087:25171   */\n      swap5\n      pop\n        /* \"#utility.yul\":24889:25181   */\n      pop\n        /* \"#utility.yul\":25241:25244   */\n      0x80\n        /* \"#utility.yul\":25230:25239   */\n      dup9\n        /* \"#utility.yul\":25226:25245   */\n      add\n        /* \"#utility.yul\":25220:25246   */\n      mload\n        /* \"#utility.yul\":25273:25291   */\n      0xffffffffffffffff\n        /* \"#utility.yul\":25265:25271   */\n      dup2\n        /* \"#utility.yul\":25262:25292   */\n      gt\n        /* \"#utility.yul\":25259:25376   */\n      iszero\n      tag_426\n      jumpi\n        /* \"#utility.yul\":25295:25374   */\n      tag_427\n      tag_123\n      jump\t// in\n    tag_427:\n        /* \"#utility.yul\":25259:25376   */\n    tag_426:\n        /* \"#utility.yul\":25400:25474   */\n      tag_428\n        /* \"#utility.yul\":25466:25473   */\n      dup11\n        /* \"#utility.yul\":25457:25463   */\n      dup3\n        /* \"#utility.yul\":25446:25455   */\n      dup12\n        /* \"#utility.yul\":25442:25464   */\n      add\n        /* \"#utility.yul\":25400:25474   */\n      tag_182\n      jump\t// in\n    tag_428:\n        /* \"#utility.yul\":25390:25474   */\n      swap4\n      pop\n        /* \"#utility.yul\":25191:25484   */\n      pop\n        /* \"#utility.yul\":25544:25547   */\n      0xa0\n        /* \"#utility.yul\":25533:25542   */\n      dup9\n        /* \"#utility.yul\":25529:25548   */\n      add\n        /* \"#utility.yul\":25523:25549   */\n      mload\n        /* \"#utility.yul\":25576:25594   */\n      0xffffffffffffffff\n        /* \"#utility.yul\":25568:25574   */\n      dup2\n        /* \"#utility.yul\":25565:25595   */\n      gt\n        /* \"#utility.yul\":25562:25679   */\n      iszero\n      tag_429\n      jumpi\n        /* \"#utility.yul\":25598:25677   */\n      tag_430\n      tag_123\n      jump\t// in\n    tag_430:\n        /* \"#utility.yul\":25562:25679   */\n    tag_429:\n        /* \"#utility.yul\":25703:25777   */\n      tag_431\n        /* \"#utility.yul\":25769:25776   */\n      dup11\n        /* \"#utility.yul\":25760:25766   */\n      dup3\n        /* \"#utility.yul\":25749:25758   */\n      dup12\n        /* \"#utility.yul\":25745:25767   */\n      add\n        /* \"#utility.yul\":25703:25777   */\n      tag_182\n      jump\t// in\n    tag_431:\n        /* \"#utility.yul\":25693:25777   */\n      swap3\n      pop\n        /* \"#utility.yul\":25494:25787   */\n      pop\n        /* \"#utility.yul\":25847:25850   */\n      0xc0\n        /* \"#utility.yul\":25836:25845   */\n      dup9\n        /* \"#utility.yul\":25832:25851   */\n      add\n        /* \"#utility.yul\":25826:25852   */\n      mload\n        /* \"#utility.yul\":25879:25897   */\n      0xffffffffffffffff\n        /* \"#utility.yul\":25871:25877   */\n      dup2\n        /* \"#utility.yul\":25868:25898   */\n      gt\n        /* \"#utility.yul\":25865:25982   */\n      iszero\n      tag_432\n      jumpi\n        /* \"#utility.yul\":25901:25980   */\n      tag_433\n      tag_123\n      jump\t// in\n    tag_433:\n        /* \"#utility.yul\":25865:25982   */\n    tag_432:\n        /* \"#utility.yul\":26006:26080   */\n      tag_434\n        /* \"#utility.yul\":26072:26079   */\n      dup11\n        /* \"#utility.yul\":26063:26069   */\n      dup3\n        /* \"#utility.yul\":26052:26061   */\n      dup12\n        /* \"#utility.yul\":26048:26070   */\n      add\n        /* \"#utility.yul\":26006:26080   */\n      tag_182\n      jump\t// in\n    tag_434:\n        /* \"#utility.yul\":25996:26080   */\n      swap2\n      pop\n        /* \"#utility.yul\":25797:26090   */\n      pop\n        /* \"#utility.yul\":23768:26097   */\n      swap3\n      swap6\n      swap9\n      swap2\n      swap5\n      swap8\n      pop\n      swap3\n      swap6\n      pop\n      jump\t// out\n\n    auxdata: 0xa26469706673582212207a21f2458cc9f022b5c51eb2be3edec750f0f887fa98c2a0bdc78cccfbb91d6964736f6c634300081a0033\n}\n",
				"bytecode": {
					"linkReferences": {},
					"object": "608060405234801561000f575f80fd5b50604051611a86380380611a8683398181016040528101906100319190610114565b335f806101000a81548173ffffffffffffffffffffffffffffffffffffffff021916908373ffffffffffffffffffffffffffffffffffffffff1602179055508060015f6101000a81548173ffffffffffffffffffffffffffffffffffffffff021916908373ffffffffffffffffffffffffffffffffffffffff1602179055505061013f565b5f80fd5b5f73ffffffffffffffffffffffffffffffffffffffff82169050919050565b5f6100e3826100ba565b9050919050565b6100f3816100d9565b81146100fd575f80fd5b50565b5f8151905061010e816100ea565b92915050565b5f60208284031215610129576101286100b6565b5b5f61013684828501610100565b91505092915050565b61193a8061014c5f395ff3fe608060405234801561000f575f80fd5b5060043610610055575f3560e01c806342cd0723146100595780635ed7cac6146100895780637aa56e62146100a55780638da5cb5b146100dc5780639c0b7d46146100fa575b5f80fd5b610073600480360381019061006e9190610c19565b610118565b6040516100809190610da6565b60405180910390f35b6100a3600480360381019061009e9190610f1c565b610452565b005b6100bf60048036038101906100ba9190610c19565b6106df565b6040516100d39897969594939291906110ab565b60405180910390f35b6100e46109da565b6040516100f19190611189565b60405180910390f35b6101026109fd565b60405161010f91906111fd565b60405180910390f35b610120610b8f565b60025f8381526020019081526020015f20604051806101000160405290815f820154815260200160018201805461015690611243565b80601f016020809104026020016040519081016040528092919081815260200182805461018290611243565b80156101cd5780601f106101a4576101008083540402835291602001916101cd565b820191905f5260205f20905b8154815290600101906020018083116101b057829003601f168201915b505050505081526020016002820180546101e690611243565b80601f016020809104026020016040519081016040528092919081815260200182805461021290611243565b801561025d5780601f106102345761010080835404028352916020019161025d565b820191905f5260205f20905b81548152906001019060200180831161024057829003601f168201915b5050505050815260200160038201805461027690611243565b80601f01602080910402602001604051908101604052809291908181526020018280546102a290611243565b80156102ed5780601f106102c4576101008083540402835291602001916102ed565b820191905f5260205f20905b8154815290600101906020018083116102d057829003601f168201915b5050505050815260200160048201805461030690611243565b80601f016020809104026020016040519081016040528092919081815260200182805461033290611243565b801561037d5780601f106103545761010080835404028352916020019161037d565b820191905f5260205f20905b81548152906001019060200180831161036057829003601f168201915b5050505050815260200160058201805461039690611243565b80601f01602080910402602001604051908101604052809291908181526020018280546103c290611243565b801561040d5780601f106103e45761010080835404028352916020019161040d565b820191905f5260205f20905b8154815290600101906020018083116103f057829003601f168201915b50505050508152602001600682015f9054906101000a900460ff161515151581526020016006820160019054906101000a900460ff1615151515815250509050919050565b5f8054906101000a900473ffffffffffffffffffffffffffffffffffffffff1673ffffffffffffffffffffffffffffffffffffffff163373ffffffffffffffffffffffffffffffffffffffff16146104df576040517f08c379a00000000000000000000000000000000000000000000000000000000081526004016104d6906112e3565b60405180910390fd5b60025f8881526020019081526020015f2060060160019054906101000a900460ff1615610541576040517f08c379a00000000000000000000000000000000000000000000000000000000081526004016105389061134b565b60405180910390fd5b61054a87610a22565b610589576040517f08c379a0000000000000000000000000000000000000000000000000000000008152600401610580906113d9565b60405180910390fd5b60405180610100016040528088815260200187815260200186815260200185815260200184815260200183815260200182151581526020016001151581525060025f8981526020019081526020015f205f820151815f015560208201518160010190816105f6919061158b565b50604082015181600201908161060c919061158b565b506060820151816003019081610622919061158b565b506080820151816004019081610638919061158b565b5060a082015181600501908161064e919061158b565b5060c0820151816006015f6101000a81548160ff02191690831515021790555060e08201518160060160016101000a81548160ff0219169083151502179055509050507f99d7a77e37a6b1e9cbda84bdafdc0f6133887101e0be926bd86c47ecef736f8087878787878787336040516106ce98979695949392919061165a565b60405180910390a150505050505050565b6002602052805f5260405f205f91509050805f01549080600101805461070490611243565b80601f016020809104026020016040519081016040528092919081815260200182805461073090611243565b801561077b5780601f106107525761010080835404028352916020019161077b565b820191905f5260205f20905b81548152906001019060200180831161075e57829003601f168201915b50505050509080600201805461079090611243565b80601f01602080910402602001604051908101604052809291908181526020018280546107bc90611243565b80156108075780601f106107de57610100808354040283529160200191610807565b820191905f5260205f20905b8154815290600101906020018083116107ea57829003601f168201915b50505050509080600301805461081c90611243565b80601f016020809104026020016040519081016040528092919081815260200182805461084890611243565b80156108935780601f1061086a57610100808354040283529160200191610893565b820191905f5260205f20905b81548152906001019060200180831161087657829003601f168201915b5050505050908060040180546108a890611243565b80601f01602080910402602001604051908101604052809291908181526020018280546108d490611243565b801561091f5780601f106108f65761010080835404028352916020019161091f565b820191905f5260205f20905b81548152906001019060200180831161090257829003601f168201915b50505050509080600501805461093490611243565b80601f016020809104026020016040519081016040528092919081815260200182805461096090611243565b80156109ab5780601f10610982576101008083540402835291602001916109ab565b820191905f5260205f20905b81548152906001019060200180831161098e57829003601f168201915b505050505090806006015f9054906101000a900460ff16908060060160019054906101000a900460ff16905088565b5f8054906101000a900473ffffffffffffffffffffffffffffffffffffffff1681565b60015f9054906101000a900473ffffffffffffffffffffffffffffffffffffffff1681565b5f8060015f9054906101000a900473ffffffffffffffffffffffffffffffffffffffff1673ffffffffffffffffffffffffffffffffffffffff1663a8fabfa56040518163ffffffff1660e01b8152600401602060405180830381865afa158015610a8e573d5f803e3d5ffd5b505050506040513d601f19601f82011682018060405250810190610ab2919061170d565b90505f5b81811015610b84575f60015f9054906101000a900473ffffffffffffffffffffffffffffffffffffffff1673ffffffffffffffffffffffffffffffffffffffff16635ac44282836040518263ffffffff1660e01b8152600401610b199190611738565b5f60405180830381865afa158015610b33573d5f803e3d5ffd5b505050506040513d5f823e3d601f19601f82011682018060405250810190610b5b91906117bf565b5050505050509050848103610b765760019350505050610b8a565b508080600101915050610ab6565b505f9150505b919050565b6040518061010001604052805f815260200160608152602001606081526020016060815260200160608152602001606081526020015f151581526020015f151581525090565b5f604051905090565b5f80fd5b5f80fd5b5f819050919050565b610bf881610be6565b8114610c02575f80fd5b50565b5f81359050610c1381610bef565b92915050565b5f60208284031215610c2e57610c2d610bde565b5b5f610c3b84828501610c05565b91505092915050565b610c4d81610be6565b82525050565b5f81519050919050565b5f82825260208201905092915050565b8281835e5f83830152505050565b5f601f19601f8301169050919050565b5f610c9582610c53565b610c9f8185610c5d565b9350610caf818560208601610c6d565b610cb881610c7b565b840191505092915050565b5f8115159050919050565b610cd781610cc3565b82525050565b5f61010083015f830151610cf35f860182610c44565b5060208301518482036020860152610d0b8282610c8b565b91505060408301518482036040860152610d258282610c8b565b91505060608301518482036060860152610d3f8282610c8b565b91505060808301518482036080860152610d598282610c8b565b91505060a083015184820360a0860152610d738282610c8b565b91505060c0830151610d8860c0860182610cce565b5060e0830151610d9b60e0860182610cce565b508091505092915050565b5f6020820190508181035f830152610dbe8184610cdd565b905092915050565b5f80fd5b5f80fd5b7f4e487b71000000000000000000000000000000000000000000000000000000005f52604160045260245ffd5b610e0482610c7b565b810181811067ffffffffffffffff82111715610e2357610e22610dce565b5b80604052505050565b5f610e35610bd5565b9050610e418282610dfb565b919050565b5f67ffffffffffffffff821115610e6057610e5f610dce565b5b610e6982610c7b565b9050602081019050919050565b828183375f83830152505050565b5f610e96610e9184610e46565b610e2c565b905082815260208101848484011115610eb257610eb1610dca565b5b610ebd848285610e76565b509392505050565b5f82601f830112610ed957610ed8610dc6565b5b8135610ee9848260208601610e84565b91505092915050565b610efb81610cc3565b8114610f05575f80fd5b50565b5f81359050610f1681610ef2565b92915050565b5f805f805f805f60e0888a031215610f3757610f36610bde565b5b5f610f448a828b01610c05565b975050602088013567ffffffffffffffff811115610f6557610f64610be2565b5b610f718a828b01610ec5565b965050604088013567ffffffffffffffff811115610f9257610f91610be2565b5b610f9e8a828b01610ec5565b955050606088013567ffffffffffffffff811115610fbf57610fbe610be2565b5b610fcb8a828b01610ec5565b945050608088013567ffffffffffffffff811115610fec57610feb610be2565b5b610ff88a828b01610ec5565b93505060a088013567ffffffffffffffff81111561101957611018610be2565b5b6110258a828b01610ec5565b92505060c06110368a828b01610f08565b91505092959891949750929550565b61104e81610be6565b82525050565b5f82825260208201905092915050565b5f61106e82610c53565b6110788185611054565b9350611088818560208601610c6d565b61109181610c7b565b840191505092915050565b6110a581610cc3565b82525050565b5f610100820190506110bf5f83018b611045565b81810360208301526110d1818a611064565b905081810360408301526110e58189611064565b905081810360608301526110f98188611064565b9050818103608083015261110d8187611064565b905081810360a08301526111218186611064565b905061113060c083018561109c565b61113d60e083018461109c565b9998505050505050505050565b5f73ffffffffffffffffffffffffffffffffffffffff82169050919050565b5f6111738261114a565b9050919050565b61118381611169565b82525050565b5f60208201905061119c5f83018461117a565b92915050565b5f819050919050565b5f6111c56111c06111bb8461114a565b6111a2565b61114a565b9050919050565b5f6111d6826111ab565b9050919050565b5f6111e7826111cc565b9050919050565b6111f7816111dd565b82525050565b5f6020820190506112105f8301846111ee565b92915050565b7f4e487b71000000000000000000000000000000000000000000000000000000005f52602260045260245ffd5b5f600282049050600182168061125a57607f821691505b60208210810361126d5761126c611216565b5b50919050565b7f4f6e6c79207665726966696564206578706f727465722063616e206c6f6720615f8201527f72726976616c0000000000000000000000000000000000000000000000000000602082015250565b5f6112cd602683611054565b91506112d882611273565b604082019050919050565b5f6020820190508181035f8301526112fa816112c1565b9050919050565b7f4172726976616c20616c7265616479206c6f67676564000000000000000000005f82015250565b5f611335601683611054565b915061134082611301565b602082019050919050565b5f6020820190508181035f83015261136281611329565b9050919050565b7f4261746368204944206e6f7420666f756e6420696e206661726d657220636f6e5f8201527f7472616374000000000000000000000000000000000000000000000000000000602082015250565b5f6113c3602583611054565b91506113ce82611369565b604082019050919050565b5f6020820190508181035f8301526113f0816113b7565b9050919050565b5f819050815f5260205f209050919050565b5f6020601f8301049050919050565b5f82821b905092915050565b5f600883026114537fffffffffffffffffffffffffffffffffffffffffffffffffffffffffffffffff82611418565b61145d8683611418565b95508019841693508086168417925050509392505050565b5f61148f61148a61148584610be6565b6111a2565b610be6565b9050919050565b5f819050919050565b6114a883611475565b6114bc6114b482611496565b848454611424565b825550505050565b5f90565b6114d06114c4565b6114db81848461149f565b505050565b5b818110156114fe576114f35f826114c8565b6001810190506114e1565b5050565b601f82111561154357611514816113f7565b61151d84611409565b8101602085101561152c578190505b61154061153885611409565b8301826114e0565b50505b505050565b5f82821c905092915050565b5f6115635f1984600802611548565b1980831691505092915050565b5f61157b8383611554565b9150826002028217905092915050565b61159482610c53565b67ffffffffffffffff8111156115ad576115ac610dce565b5b6115b78254611243565b6115c2828285611502565b5f60209050601f8311600181146115f3575f84156115e1578287015190505b6115eb8582611570565b865550611652565b601f198416611601866113f7565b5f5b8281101561162857848901518255600182019150602085019450602081019050611603565b868310156116455784890151611641601f891682611554565b8355505b6001600288020188555050505b505050505050565b5f6101008201905061166e5f83018b611045565b8181036020830152611680818a611064565b905081810360408301526116948189611064565b905081810360608301526116a88188611064565b905081810360808301526116bc8187611064565b905081810360a08301526116d08186611064565b90506116df60c083018561109c565b6116ec60e083018461117a565b9998505050505050505050565b5f8151905061170781610bef565b92915050565b5f6020828403121561172257611721610bde565b5b5f61172f848285016116f9565b91505092915050565b5f60208201905061174b5f830184611045565b92915050565b5f61176361175e84610e46565b610e2c565b90508281526020810184848401111561177f5761177e610dca565b5b61178a848285610c6d565b509392505050565b5f82601f8301126117a6576117a5610dc6565b5b81516117b6848260208601611751565b91505092915050565b5f805f805f805f60e0888a0312156117da576117d9610bde565b5b5f6117e78a828b016116f9565b975050602088015167ffffffffffffffff81111561180857611807610be2565b5b6118148a828b01611792565b965050604088015167ffffffffffffffff81111561183557611834610be2565b5b6118418a828b01611792565b955050606088015167ffffffffffffffff81111561186257611861610be2565b5b61186e8a828b01611792565b945050608088015167ffffffffffffffff81111561188f5761188e610be2565b5b61189b8a828b01611792565b93505060a088015167ffffffffffffffff8111156118bc576118bb610be2565b5b6118c88a828b01611792565b92505060c088015167ffffffffffffffff8111156118e9576118e8610be2565b5b6118f58a828b01611792565b9150509295989194975092955056fea26469706673582212207a21f2458cc9f022b5c51eb2be3edec750f0f887fa98c2a0bdc78cccfbb91d6964736f6c634300081a0033",
					"opcodes": "PUSH1 0x80 PUSH1 0x40 MSTORE CALLVALUE DUP1 ISZERO PUSH2 0xF JUMPI PUSH0 DUP1 REVERT JUMPDEST POP PUSH1 0x40 MLOAD PUSH2 0x1A86 CODESIZE SUB DUP1 PUSH2 0x1A86 DUP4 CODECOPY DUP2 DUP2 ADD PUSH1 0x40 MSTORE DUP2 ADD SWAP1 PUSH2 0x31 SWAP2 SWAP1 PUSH2 0x114 JUMP JUMPDEST CALLER PUSH0 DUP1 PUSH2 0x100 EXP DUP2 SLOAD DUP2 PUSH20 0xFFFFFFFFFFFFFFFFFFFFFFFFFFFFFFFFFFFFFFFF MUL NOT AND SWAP1 DUP4 PUSH20 0xFFFFFFFFFFFFFFFFFFFFFFFFFFFFFFFFFFFFFFFF AND MUL OR SWAP1 SSTORE POP DUP1 PUSH1 0x1 PUSH0 PUSH2 0x100 EXP DUP2 SLOAD DUP2 PUSH20 0xFFFFFFFFFFFFFFFFFFFFFFFFFFFFFFFFFFFFFFFF MUL NOT AND SWAP1 DUP4 PUSH20 0xFFFFFFFFFFFFFFFFFFFFFFFFFFFFFFFFFFFFFFFF AND MUL OR SWAP1 SSTORE POP POP PUSH2 0x13F JUMP JUMPDEST PUSH0 DUP1 REVERT JUMPDEST PUSH0 PUSH20 0xFFFFFFFFFFFFFFFFFFFFFFFFFFFFFFFFFFFFFFFF DUP3 AND SWAP1 POP SWAP2 SWAP1 POP JUMP JUMPDEST PUSH0 PUSH2 0xE3 DUP3 PUSH2 0xBA JUMP JUMPDEST SWAP1 POP SWAP2 SWAP1 POP JUMP JUMPDEST PUSH2 0xF3 DUP2 PUSH2 0xD9 JUMP JUMPDEST DUP2 EQ PUSH2 0xFD JUMPI PUSH0 DUP1 REVERT JUMPDEST POP JUMP JUMPDEST PUSH0 DUP2 MLOAD SWAP1 POP PUSH2 0x10E DUP2 PUSH2 0xEA JUMP JUMPDEST SWAP3 SWAP2 POP POP JUMP JUMPDEST PUSH0 PUSH1 0x20 DUP3 DUP5 SUB SLT ISZERO PUSH2 0x129 JUMPI PUSH2 0x128 PUSH2 0xB6 JUMP JUMPDEST JUMPDEST PUSH0 PUSH2 0x136 DUP5 DUP3 DUP6 ADD PUSH2 0x100 JUMP JUMPDEST SWAP2 POP POP SWAP3 SWAP2 POP POP JUMP JUMPDEST PUSH2 0x193A DUP1 PUSH2 0x14C PUSH0 CODECOPY PUSH0 RETURN INVALID PUSH1 0x80 PUSH1 0x40 MSTORE CALLVALUE DUP1 ISZERO PUSH2 0xF JUMPI PUSH0 DUP1 REVERT JUMPDEST POP PUSH1 0x4 CALLDATASIZE LT PUSH2 0x55 JUMPI PUSH0 CALLDATALOAD PUSH1 0xE0 SHR DUP1 PUSH4 0x42CD0723 EQ PUSH2 0x59 JUMPI DUP1 PUSH4 0x5ED7CAC6 EQ PUSH2 0x89 JUMPI DUP1 PUSH4 0x7AA56E62 EQ PUSH2 0xA5 JUMPI DUP1 PUSH4 0x8DA5CB5B EQ PUSH2 0xDC JUMPI DUP1 PUSH4 0x9C0B7D46 EQ PUSH2 0xFA JUMPI JUMPDEST PUSH0 DUP1 REVERT JUMPDEST PUSH2 0x73 PUSH1 0x4 DUP1 CALLDATASIZE SUB DUP2 ADD SWAP1 PUSH2 0x6E SWAP2 SWAP1 PUSH2 0xC19 JUMP JUMPDEST PUSH2 0x118 JUMP JUMPDEST PUSH1 0x40 MLOAD PUSH2 0x80 SWAP2 SWAP1 PUSH2 0xDA6 JUMP JUMPDEST PUSH1 0x40 MLOAD DUP1 SWAP2 SUB SWAP1 RETURN JUMPDEST PUSH2 0xA3 PUSH1 0x4 DUP1 CALLDATASIZE SUB DUP2 ADD SWAP1 PUSH2 0x9E SWAP2 SWAP1 PUSH2 0xF1C JUMP JUMPDEST PUSH2 0x452 JUMP JUMPDEST STOP JUMPDEST PUSH2 0xBF PUSH1 0x4 DUP1 CALLDATASIZE SUB DUP2 ADD SWAP1 PUSH2 0xBA SWAP2 SWAP1 PUSH2 0xC19 JUMP JUMPDEST PUSH2 0x6DF JUMP JUMPDEST PUSH1 0x40 MLOAD PUSH2 0xD3 SWAP9 SWAP8 SWAP7 SWAP6 SWAP5 SWAP4 SWAP3 SWAP2 SWAP1 PUSH2 0x10AB JUMP JUMPDEST PUSH1 0x40 MLOAD DUP1 SWAP2 SUB SWAP1 RETURN JUMPDEST PUSH2 0xE4 PUSH2 0x9DA JUMP JUMPDEST PUSH1 0x40 MLOAD PUSH2 0xF1 SWAP2 SWAP1 PUSH2 0x1189 JUMP JUMPDEST PUSH1 0x40 MLOAD DUP1 SWAP2 SUB SWAP1 RETURN JUMPDEST PUSH2 0x102 PUSH2 0x9FD JUMP JUMPDEST PUSH1 0x40 MLOAD PUSH2 0x10F SWAP2 SWAP1 PUSH2 0x11FD JUMP JUMPDEST PUSH1 0x40 MLOAD DUP1 SWAP2 SUB SWAP1 RETURN JUMPDEST PUSH2 0x120 PUSH2 0xB8F JUMP JUMPDEST PUSH1 0x2 PUSH0 DUP4 DUP2 MSTORE PUSH1 0x20 ADD SWAP1 DUP2 MSTORE PUSH1 0x20 ADD PUSH0 KECCAK256 PUSH1 0x40 MLOAD DUP1 PUSH2 0x100 ADD PUSH1 0x40 MSTORE SWAP1 DUP2 PUSH0 DUP3 ADD SLOAD DUP2 MSTORE PUSH1 0x20 ADD PUSH1 0x1 DUP3 ADD DUP1 SLOAD PUSH2 0x156 SWAP1 PUSH2 0x1243 JUMP JUMPDEST DUP1 PUSH1 0x1F ADD PUSH1 0x20 DUP1 SWAP2 DIV MUL PUSH1 0x20 ADD PUSH1 0x40 MLOAD SWAP1 DUP2 ADD PUSH1 0x40 MSTORE DUP1 SWAP3 SWAP2 SWAP1 DUP2 DUP2 MSTORE PUSH1 0x20 ADD DUP3 DUP1 SLOAD PUSH2 0x182 SWAP1 PUSH2 0x1243 JUMP JUMPDEST DUP1 ISZERO PUSH2 0x1CD JUMPI DUP1 PUSH1 0x1F LT PUSH2 0x1A4 JUMPI PUSH2 0x100 DUP1 DUP4 SLOAD DIV MUL DUP4 MSTORE SWAP2 PUSH1 0x20 ADD SWAP2 PUSH2 0x1CD JUMP JUMPDEST DUP3 ADD SWAP2 SWAP1 PUSH0 MSTORE PUSH1 0x20 PUSH0 KECCAK256 SWAP1 JUMPDEST DUP2 SLOAD DUP2 MSTORE SWAP1 PUSH1 0x1 ADD SWAP1 PUSH1 0x20 ADD DUP1 DUP4 GT PUSH2 0x1B0 JUMPI DUP3 SWAP1 SUB PUSH1 0x1F AND DUP3 ADD SWAP2 JUMPDEST POP POP POP POP POP DUP2 MSTORE PUSH1 0x20 ADD PUSH1 0x2 DUP3 ADD DUP1 SLOAD PUSH2 0x1E6 SWAP1 PUSH2 0x1243 JUMP JUMPDEST DUP1 PUSH1 0x1F ADD PUSH1 0x20 DUP1 SWAP2 DIV MUL PUSH1 0x20 ADD PUSH1 0x40 MLOAD SWAP1 DUP2 ADD PUSH1 0x40 MSTORE DUP1 SWAP3 SWAP2 SWAP1 DUP2 DUP2 MSTORE PUSH1 0x20 ADD DUP3 DUP1 SLOAD PUSH2 0x212 SWAP1 PUSH2 0x1243 JUMP JUMPDEST DUP1 ISZERO PUSH2 0x25D JUMPI DUP1 PUSH1 0x1F LT PUSH2 0x234 JUMPI PUSH2 0x100 DUP1 DUP4 SLOAD DIV MUL DUP4 MSTORE SWAP2 PUSH1 0x20 ADD SWAP2 PUSH2 0x25D JUMP JUMPDEST DUP3 ADD SWAP2 SWAP1 PUSH0 MSTORE PUSH1 0x20 PUSH0 KECCAK256 SWAP1 JUMPDEST DUP2 SLOAD DUP2 MSTORE SWAP1 PUSH1 0x1 ADD SWAP1 PUSH1 0x20 ADD DUP1 DUP4 GT PUSH2 0x240 JUMPI DUP3 SWAP1 SUB PUSH1 0x1F AND DUP3 ADD SWAP2 JUMPDEST POP POP POP POP POP DUP2 MSTORE PUSH1 0x20 ADD PUSH1 0x3 DUP3 ADD DUP1 SLOAD PUSH2 0x276 SWAP1 PUSH2 0x1243 JUMP JUMPDEST DUP1 PUSH1 0x1F ADD PUSH1 0x20 DUP1 SWAP2 DIV MUL PUSH1 0x20 ADD PUSH1 0x40 MLOAD SWAP1 DUP2 ADD PUSH1 0x40 MSTORE DUP1 SWAP3 SWAP2 SWAP1 DUP2 DUP2 MSTORE PUSH1 0x20 ADD DUP3 DUP1 SLOAD PUSH2 0x2A2 SWAP1 PUSH2 0x1243 JUMP JUMPDEST DUP1 ISZERO PUSH2 0x2ED JUMPI DUP1 PUSH1 0x1F LT PUSH2 0x2C4 JUMPI PUSH2 0x100 DUP1 DUP4 SLOAD DIV MUL DUP4 MSTORE SWAP2 PUSH1 0x20 ADD SWAP2 PUSH2 0x2ED JUMP JUMPDEST DUP3 ADD SWAP2 SWAP1 PUSH0 MSTORE PUSH1 0x20 PUSH0 KECCAK256 SWAP1 JUMPDEST DUP2 SLOAD DUP2 MSTORE SWAP1 PUSH1 0x1 ADD SWAP1 PUSH1 0x20 ADD DUP1 DUP4 GT PUSH2 0x2D0 JUMPI DUP3 SWAP1 SUB PUSH1 0x1F AND DUP3 ADD SWAP2 JUMPDEST POP POP POP POP POP DUP2 MSTORE PUSH1 0x20 ADD PUSH1 0x4 DUP3 ADD DUP1 SLOAD PUSH2 0x306 SWAP1 PUSH2 0x1243 JUMP JUMPDEST DUP1 PUSH1 0x1F ADD PUSH1 0x20 DUP1 SWAP2 DIV MUL PUSH1 0x20 ADD PUSH1 0x40 MLOAD SWAP1 DUP2 ADD PUSH1 0x40 MSTORE DUP1 SWAP3 SWAP2 SWAP1 DUP2 DUP2 MSTORE PUSH1 0x20 ADD DUP3 DUP1 SLOAD PUSH2 0x332 SWAP1 PUSH2 0x1243 JUMP JUMPDEST DUP1 ISZERO PUSH2 0x37D JUMPI DUP1 PUSH1 0x1F LT PUSH2 0x354 JUMPI PUSH2 0x100 DUP1 DUP4 SLOAD DIV MUL DUP4 MSTORE SWAP2 PUSH1 0x20 ADD SWAP2 PUSH2 0x37D JUMP JUMPDEST DUP3 ADD SWAP2 SWAP1 PUSH0 MSTORE PUSH1 0x20 PUSH0 KECCAK256 SWAP1 JUMPDEST DUP2 SLOAD DUP2 MSTORE SWAP1 PUSH1 0x1 ADD SWAP1 PUSH1 0x20 ADD DUP1 DUP4 GT PUSH2 0x360 JUMPI DUP3 SWAP1 SUB PUSH1 0x1F AND DUP3 ADD SWAP2 JUMPDEST POP POP POP POP POP DUP2 MSTORE PUSH1 0x20 ADD PUSH1 0x5 DUP3 ADD DUP1 SLOAD PUSH2 0x396 SWAP1 PUSH2 0x1243 JUMP JUMPDEST DUP1 PUSH1 0x1F ADD PUSH1 0x20 DUP1 SWAP2 DIV MUL PUSH1 0x20 ADD PUSH1 0x40 MLOAD SWAP1 DUP2 ADD PUSH1 0x40 MSTORE DUP1 SWAP3 SWAP2 SWAP1 DUP2 DUP2 MSTORE PUSH1 0x20 ADD DUP3 DUP1 SLOAD PUSH2 0x3C2 SWAP1 PUSH2 0x1243 JUMP JUMPDEST DUP1 ISZERO PUSH2 0x40D JUMPI DUP1 PUSH1 0x1F LT PUSH2 0x3E4 JUMPI PUSH2 0x100 DUP1 DUP4 SLOAD DIV MUL DUP4 MSTORE SWAP2 PUSH1 0x20 ADD SWAP2 PUSH2 0x40D JUMP JUMPDEST DUP3 ADD SWAP2 SWAP1 PUSH0 MSTORE PUSH1 0x20 PUSH0 KECCAK256 SWAP1 JUMPDEST DUP2 SLOAD DUP2 MSTORE SWAP1 PUSH1 0x1 ADD SWAP1 PUSH1 0x20 ADD DUP1 DUP4 GT PUSH2 0x3F0 JUMPI DUP3 SWAP1 SUB PUSH1 0x1F AND DUP3 ADD SWAP2 JUMPDEST POP POP POP POP POP DUP2 MSTORE PUSH1 0x20 ADD PUSH1 0x6 DUP3 ADD PUSH0 SWAP1 SLOAD SWAP1 PUSH2 0x100 EXP SWAP1 DIV PUSH1 0xFF AND ISZERO ISZERO ISZERO ISZERO DUP2 MSTORE PUSH1 0x20 ADD PUSH1 0x6 DUP3 ADD PUSH1 0x1 SWAP1 SLOAD SWAP1 PUSH2 0x100 EXP SWAP1 DIV PUSH1 0xFF AND ISZERO ISZERO ISZERO ISZERO DUP2 MSTORE POP POP SWAP1 POP SWAP2 SWAP1 POP JUMP JUMPDEST PUSH0 DUP1 SLOAD SWAP1 PUSH2 0x100 EXP SWAP1 DIV PUSH20 0xFFFFFFFFFFFFFFFFFFFFFFFFFFFFFFFFFFFFFFFF AND PUSH20 0xFFFFFFFFFFFFFFFFFFFFFFFFFFFFFFFFFFFFFFFF AND CALLER PUSH20 0xFFFFFFFFFFFFFFFFFFFFFFFFFFFFFFFFFFFFFFFF AND EQ PUSH2 0x4DF JUMPI PUSH1 0x40 MLOAD PUSH32 0x8C379A000000000000000000000000000000000000000000000000000000000 DUP2 MSTORE PUSH1 0x4 ADD PUSH2 0x4D6 SWAP1 PUSH2 0x12E3 JUMP JUMPDEST PUSH1 0x40 MLOAD DUP1 SWAP2 SUB SWAP1 REVERT JUMPDEST PUSH1 0x2 PUSH0 DUP9 DUP2 MSTORE PUSH1 0x20 ADD SWAP1 DUP2 MSTORE PUSH1 0x20 ADD PUSH0 KECCAK256 PUSH1 0x6 ADD PUSH1 0x1 SWAP1 SLOAD SWAP1 PUSH2 0x100 EXP SWAP1 DIV PUSH1 0xFF AND ISZERO PUSH2 0x541 JUMPI PUSH1 0x40 MLOAD PUSH32 0x8C379A000000000000000000000000000000000000000000000000000000000 DUP2 MSTORE PUSH1 0x4 ADD PUSH2 0x538 SWAP1 PUSH2 0x134B JUMP JUMPDEST PUSH1 0x40 MLOAD DUP1 SWAP2 SUB SWAP1 REVERT JUMPDEST PUSH2 0x54A DUP8 PUSH2 0xA22 JUMP JUMPDEST PUSH2 0x589 JUMPI PUSH1 0x40 MLOAD PUSH32 0x8C379A000000000000000000000000000000000000000000000000000000000 DUP2 MSTORE PUSH1 0x4 ADD PUSH2 0x580 SWAP1 PUSH2 0x13D9 JUMP JUMPDEST PUSH1 0x40 MLOAD DUP1 SWAP2 SUB SWAP1 REVERT JUMPDEST PUSH1 0x40 MLOAD DUP1 PUSH2 0x100 ADD PUSH1 0x40 MSTORE DUP1 DUP9 DUP2 MSTORE PUSH1 0x20 ADD DUP8 DUP2 MSTORE PUSH1 0x20 ADD DUP7 DUP2 MSTORE PUSH1 0x20 ADD DUP6 DUP2 MSTORE PUSH1 0x20 ADD DUP5 DUP2 MSTORE PUSH1 0x20 ADD DUP4 DUP2 MSTORE PUSH1 0x20 ADD DUP3 ISZERO ISZERO DUP2 MSTORE PUSH1 0x20 ADD PUSH1 0x1 ISZERO ISZERO DUP2 MSTORE POP PUSH1 0x2 PUSH0 DUP10 DUP2 MSTORE PUSH1 0x20 ADD SWAP1 DUP2 MSTORE PUSH1 0x20 ADD PUSH0 KECCAK256 PUSH0 DUP3 ADD MLOAD DUP2 PUSH0 ADD SSTORE PUSH1 0x20 DUP3 ADD MLOAD DUP2 PUSH1 0x1 ADD SWAP1 DUP2 PUSH2 0x5F6 SWAP2 SWAP1 PUSH2 0x158B JUMP JUMPDEST POP PUSH1 0x40 DUP3 ADD MLOAD DUP2 PUSH1 0x2 ADD SWAP1 DUP2 PUSH2 0x60C SWAP2 SWAP1 PUSH2 0x158B JUMP JUMPDEST POP PUSH1 0x60 DUP3 ADD MLOAD DUP2 PUSH1 0x3 ADD SWAP1 DUP2 PUSH2 0x622 SWAP2 SWAP1 PUSH2 0x158B JUMP JUMPDEST POP PUSH1 0x80 DUP3 ADD MLOAD DUP2 PUSH1 0x4 ADD SWAP1 DUP2 PUSH2 0x638 SWAP2 SWAP1 PUSH2 0x158B JUMP JUMPDEST POP PUSH1 0xA0 DUP3 ADD MLOAD DUP2 PUSH1 0x5 ADD SWAP1 DUP2 PUSH2 0x64E SWAP2 SWAP1 PUSH2 0x158B JUMP JUMPDEST POP PUSH1 0xC0 DUP3 ADD MLOAD DUP2 PUSH1 0x6 ADD PUSH0 PUSH2 0x100 EXP DUP2 SLOAD DUP2 PUSH1 0xFF MUL NOT AND SWAP1 DUP4 ISZERO ISZERO MUL OR SWAP1 SSTORE POP PUSH1 0xE0 DUP3 ADD MLOAD DUP2 PUSH1 0x6 ADD PUSH1 0x1 PUSH2 0x100 EXP DUP2 SLOAD DUP2 PUSH1 0xFF MUL NOT AND SWAP1 DUP4 ISZERO ISZERO MUL OR SWAP1 SSTORE POP SWAP1 POP POP PUSH32 0x99D7A77E37A6B1E9CBDA84BDAFDC0F6133887101E0BE926BD86C47ECEF736F80 DUP8 DUP8 DUP8 DUP8 DUP8 DUP8 DUP8 CALLER PUSH1 0x40 MLOAD PUSH2 0x6CE SWAP9 SWAP8 SWAP7 SWAP6 SWAP5 SWAP4 SWAP3 SWAP2 SWAP1 PUSH2 0x165A JUMP JUMPDEST PUSH1 0x40 MLOAD DUP1 SWAP2 SUB SWAP1 LOG1 POP POP POP POP POP POP POP JUMP JUMPDEST PUSH1 0x2 PUSH1 0x20 MSTORE DUP1 PUSH0 MSTORE PUSH1 0x40 PUSH0 KECCAK256 PUSH0 SWAP2 POP SWAP1 POP DUP1 PUSH0 ADD SLOAD SWAP1 DUP1 PUSH1 0x1 ADD DUP1 SLOAD PUSH2 0x704 SWAP1 PUSH2 0x1243 JUMP JUMPDEST DUP1 PUSH1 0x1F ADD PUSH1 0x20 DUP1 SWAP2 DIV MUL PUSH1 0x20 ADD PUSH1 0x40 MLOAD SWAP1 DUP2 ADD PUSH1 0x40 MSTORE DUP1 SWAP3 SWAP2 SWAP1 DUP2 DUP2 MSTORE PUSH1 0x20 ADD DUP3 DUP1 SLOAD PUSH2 0x730 SWAP1 PUSH2 0x1243 JUMP JUMPDEST DUP1 ISZERO PUSH2 0x77B JUMPI DUP1 PUSH1 0x1F LT PUSH2 0x752 JUMPI PUSH2 0x100 DUP1 DUP4 SLOAD DIV MUL DUP4 MSTORE SWAP2 PUSH1 0x20 ADD SWAP2 PUSH2 0x77B JUMP JUMPDEST DUP3 ADD SWAP2 SWAP1 PUSH0 MSTORE PUSH1 0x20 PUSH0 KECCAK256 SWAP1 JUMPDEST DUP2 SLOAD DUP2 MSTORE SWAP1 PUSH1 0x1 ADD SWAP1 PUSH1 0x20 ADD DUP1 DUP4 GT PUSH2 0x75E JUMPI DUP3 SWAP1 SUB PUSH1 0x1F AND DUP3 ADD SWAP2 JUMPDEST POP POP POP POP POP SWAP1 DUP1 PUSH1 0x2 ADD DUP1 SLOAD PUSH2 0x790 SWAP1 PUSH2 0x1243 JUMP JUMPDEST DUP1 PUSH1 0x1F ADD PUSH1 0x20 DUP1 SWAP2 DIV MUL PUSH1 0x20 ADD PUSH1 0x40 MLOAD SWAP1 DUP2 ADD PUSH1 0x40 MSTORE DUP1 SWAP3 SWAP2 SWAP1 DUP2 DUP2 MSTORE PUSH1 0x20 ADD DUP3 DUP1 SLOAD PUSH2 0x7BC SWAP1 PUSH2 0x1243 JUMP JUMPDEST DUP1 ISZERO PUSH2 0x807 JUMPI DUP1 PUSH1 0x1F LT PUSH2 0x7DE JUMPI PUSH2 0x100 DUP1 DUP4 SLOAD DIV MUL DUP4 MSTORE SWAP2 PUSH1 0x20 ADD SWAP2 PUSH2 0x807 JUMP JUMPDEST DUP3 ADD SWAP2 SWAP1 PUSH0 MSTORE PUSH1 0x20 PUSH0 KECCAK256 SWAP1 JUMPDEST DUP2 SLOAD DUP2 MSTORE SWAP1 PUSH1 0x1 ADD SWAP1 PUSH1 0x20 ADD DUP1 DUP4 GT PUSH2 0x7EA JUMPI DUP3 SWAP1 SUB PUSH1 0x1F AND DUP3 ADD SWAP2 JUMPDEST POP POP POP POP POP SWAP1 DUP1 PUSH1 0x3 ADD DUP1 SLOAD PUSH2 0x81C SWAP1 PUSH2 0x1243 JUMP JUMPDEST DUP1 PUSH1 0x1F ADD PUSH1 0x20 DUP1 SWAP2 DIV MUL PUSH1 0x20 ADD PUSH1 0x40 MLOAD SWAP1 DUP2 ADD PUSH1 0x40 MSTORE DUP1 SWAP3 SWAP2 SWAP1 DUP2 DUP2 MSTORE PUSH1 0x20 ADD DUP3 DUP1 SLOAD PUSH2 0x848 SWAP1 PUSH2 0x1243 JUMP JUMPDEST DUP1 ISZERO PUSH2 0x893 JUMPI DUP1 PUSH1 0x1F LT PUSH2 0x86A JUMPI PUSH2 0x100 DUP1 DUP4 SLOAD DIV MUL DUP4 MSTORE SWAP2 PUSH1 0x20 ADD SWAP2 PUSH2 0x893 JUMP JUMPDEST DUP3 ADD SWAP2 SWAP1 PUSH0 MSTORE PUSH1 0x20 PUSH0 KECCAK256 SWAP1 JUMPDEST DUP2 SLOAD DUP2 MSTORE SWAP1 PUSH1 0x1 ADD SWAP1 PUSH1 0x20 ADD DUP1 DUP4 GT PUSH2 0x876 JUMPI DUP3 SWAP1 SUB PUSH1 0x1F AND DUP3 ADD SWAP2 JUMPDEST POP POP POP POP POP SWAP1 DUP1 PUSH1 0x4 ADD DUP1 SLOAD PUSH2 0x8A8 SWAP1 PUSH2 0x1243 JUMP JUMPDEST DUP1 PUSH1 0x1F ADD PUSH1 0x20 DUP1 SWAP2 DIV MUL PUSH1 0x20 ADD PUSH1 0x40 MLOAD SWAP1 DUP2 ADD PUSH1 0x40 MSTORE DUP1 SWAP3 SWAP2 SWAP1 DUP2 DUP2 MSTORE PUSH1 0x20 ADD DUP3 DUP1 SLOAD PUSH2 0x8D4 SWAP1 PUSH2 0x1243 JUMP JUMPDEST DUP1 ISZERO PUSH2 0x91F JUMPI DUP1 PUSH1 0x1F LT PUSH2 0x8F6 JUMPI PUSH2 0x100 DUP1 DUP4 SLOAD DIV MUL DUP4 MSTORE SWAP2 PUSH1 0x20 ADD SWAP2 PUSH2 0x91F JUMP JUMPDEST DUP3 ADD SWAP2 SWAP1 PUSH0 MSTORE PUSH1 0x20 PUSH0 KECCAK256 SWAP1 JUMPDEST DUP2 SLOAD DUP2 MSTORE SWAP1 PUSH1 0x1 ADD SWAP1 PUSH1 0x20 ADD DUP1 DUP4 GT PUSH2 0x902 JUMPI DUP3 SWAP1 SUB PUSH1 0x1F AND DUP3 ADD SWAP2 JUMPDEST POP POP POP POP POP SWAP1 DUP1 PUSH1 0x5 ADD DUP1 SLOAD PUSH2 0x934 SWAP1 PUSH2 0x1243 JUMP JUMPDEST DUP1 PUSH1 0x1F ADD PUSH1 0x20 DUP1 SWAP2 DIV MUL PUSH1 0x20 ADD PUSH1 0x40 MLOAD SWAP1 DUP2 ADD PUSH1 0x40 MSTORE DUP1 SWAP3 SWAP2 SWAP1 DUP2 DUP2 MSTORE PUSH1 0x20 ADD DUP3 DUP1 SLOAD PUSH2 0x960 SWAP1 PUSH2 0x1243 JUMP JUMPDEST DUP1 ISZERO PUSH2 0x9AB JUMPI DUP1 PUSH1 0x1F LT PUSH2 0x982 JUMPI PUSH2 0x100 DUP1 DUP4 SLOAD DIV MUL DUP4 MSTORE SWAP2 PUSH1 0x20 ADD SWAP2 PUSH2 0x9AB JUMP JUMPDEST DUP3 ADD SWAP2 SWAP1 PUSH0 MSTORE PUSH1 0x20 PUSH0 KECCAK256 SWAP1 JUMPDEST DUP2 SLOAD DUP2 MSTORE SWAP1 PUSH1 0x1 ADD SWAP1 PUSH1 0x20 ADD DUP1 DUP4 GT PUSH2 0x98E JUMPI DUP3 SWAP1 SUB PUSH1 0x1F AND DUP3 ADD SWAP2 JUMPDEST POP POP POP POP POP SWAP1 DUP1 PUSH1 0x6 ADD PUSH0 SWAP1 SLOAD SWAP1 PUSH2 0x100 EXP SWAP1 DIV PUSH1 0xFF AND SWAP1 DUP1 PUSH1 0x6 ADD PUSH1 0x1 SWAP1 SLOAD SWAP1 PUSH2 0x100 EXP SWAP1 DIV PUSH1 0xFF AND SWAP1 POP DUP9 JUMP JUMPDEST PUSH0 DUP1 SLOAD SWAP1 PUSH2 0x100 EXP SWAP1 DIV PUSH20 0xFFFFFFFFFFFFFFFFFFFFFFFFFFFFFFFFFFFFFFFF AND DUP2 JUMP JUMPDEST PUSH1 0x1 PUSH0 SWAP1 SLOAD SWAP1 PUSH2 0x100 EXP SWAP1 DIV PUSH20 0xFFFFFFFFFFFFFFFFFFFFFFFFFFFFFFFFFFFFFFFF AND DUP2 JUMP JUMPDEST PUSH0 DUP1 PUSH1 0x1 PUSH0 SWAP1 SLOAD SWAP1 PUSH2 0x100 EXP SWAP1 DIV PUSH20 0xFFFFFFFFFFFFFFFFFFFFFFFFFFFFFFFFFFFFFFFF AND PUSH20 0xFFFFFFFFFFFFFFFFFFFFFFFFFFFFFFFFFFFFFFFF AND PUSH4 0xA8FABFA5 PUSH1 0x40 MLOAD DUP2 PUSH4 0xFFFFFFFF AND PUSH1 0xE0 SHL DUP2 MSTORE PUSH1 0x4 ADD PUSH1 0x20 PUSH1 0x40 MLOAD DUP1 DUP4 SUB DUP2 DUP7 GAS STATICCALL ISZERO DUP1 ISZERO PUSH2 0xA8E JUMPI RETURNDATASIZE PUSH0 DUP1 RETURNDATACOPY RETURNDATASIZE PUSH0 REVERT JUMPDEST POP POP POP POP PUSH1 0x40 MLOAD RETURNDATASIZE PUSH1 0x1F NOT PUSH1 0x1F DUP3 ADD AND DUP3 ADD DUP1 PUSH1 0x40 MSTORE POP DUP2 ADD SWAP1 PUSH2 0xAB2 SWAP2 SWAP1 PUSH2 0x170D JUMP JUMPDEST SWAP1 POP PUSH0 JUMPDEST DUP2 DUP2 LT ISZERO PUSH2 0xB84 JUMPI PUSH0 PUSH1 0x1 PUSH0 SWAP1 SLOAD SWAP1 PUSH2 0x100 EXP SWAP1 DIV PUSH20 0xFFFFFFFFFFFFFFFFFFFFFFFFFFFFFFFFFFFFFFFF AND PUSH20 0xFFFFFFFFFFFFFFFFFFFFFFFFFFFFFFFFFFFFFFFF AND PUSH4 0x5AC44282 DUP4 PUSH1 0x40 MLOAD DUP3 PUSH4 0xFFFFFFFF AND PUSH1 0xE0 SHL DUP2 MSTORE PUSH1 0x4 ADD PUSH2 0xB19 SWAP2 SWAP1 PUSH2 0x1738 JUMP JUMPDEST PUSH0 PUSH1 0x40 MLOAD DUP1 DUP4 SUB DUP2 DUP7 GAS STATICCALL ISZERO DUP1 ISZERO PUSH2 0xB33 JUMPI RETURNDATASIZE PUSH0 DUP1 RETURNDATACOPY RETURNDATASIZE PUSH0 REVERT JUMPDEST POP POP POP POP PUSH1 0x40 MLOAD RETURNDATASIZE PUSH0 DUP3 RETURNDATACOPY RETURNDATASIZE PUSH1 0x1F NOT PUSH1 0x1F DUP3 ADD AND DUP3 ADD DUP1 PUSH1 0x40 MSTORE POP DUP2 ADD SWAP1 PUSH2 0xB5B SWAP2 SWAP1 PUSH2 0x17BF JUMP JUMPDEST POP POP POP POP POP POP SWAP1 POP DUP5 DUP2 SUB PUSH2 0xB76 JUMPI PUSH1 0x1 SWAP4 POP POP POP POP PUSH2 0xB8A JUMP JUMPDEST POP DUP1 DUP1 PUSH1 0x1 ADD SWAP2 POP POP PUSH2 0xAB6 JUMP JUMPDEST POP PUSH0 SWAP2 POP POP JUMPDEST SWAP2 SWAP1 POP JUMP JUMPDEST PUSH1 0x40 MLOAD DUP1 PUSH2 0x100 ADD PUSH1 0x40 MSTORE DUP1 PUSH0 DUP2 MSTORE PUSH1 0x20 ADD PUSH1 0x60 DUP2 MSTORE PUSH1 0x20 ADD PUSH1 0x60 DUP2 MSTORE PUSH1 0x20 ADD PUSH1 0x60 DUP2 MSTORE PUSH1 0x20 ADD PUSH1 0x60 DUP2 MSTORE PUSH1 0x20 ADD PUSH1 0x60 DUP2 MSTORE PUSH1 0x20 ADD PUSH0 ISZERO ISZERO DUP2 MSTORE PUSH1 0x20 ADD PUSH0 ISZERO ISZERO DUP2 MSTORE POP SWAP1 JUMP JUMPDEST PUSH0 PUSH1 0x40 MLOAD SWAP1 POP SWAP1 JUMP JUMPDEST PUSH0 DUP1 REVERT JUMPDEST PUSH0 DUP1 REVERT JUMPDEST PUSH0 DUP2 SWAP1 POP SWAP2 SWAP1 POP JUMP JUMPDEST PUSH2 0xBF8 DUP2 PUSH2 0xBE6 JUMP JUMPDEST DUP2 EQ PUSH2 0xC02 JUMPI PUSH0 DUP1 REVERT JUMPDEST POP JUMP JUMPDEST PUSH0 DUP2 CALLDATALOAD SWAP1 POP PUSH2 0xC13 DUP2 PUSH2 0xBEF JUMP JUMPDEST SWAP3 SWAP2 POP POP JUMP JUMPDEST PUSH0 PUSH1 0x20 DUP3 DUP5 SUB SLT ISZERO PUSH2 0xC2E JUMPI PUSH2 0xC2D PUSH2 0xBDE JUMP JUMPDEST JUMPDEST PUSH0 PUSH2 0xC3B DUP5 DUP3 DUP6 ADD PUSH2 0xC05 JUMP JUMPDEST SWAP2 POP POP SWAP3 SWAP2 POP POP JUMP JUMPDEST PUSH2 0xC4D DUP2 PUSH2 0xBE6 JUMP JUMPDEST DUP3 MSTORE POP POP JUMP JUMPDEST PUSH0 DUP2 MLOAD SWAP1 POP SWAP2 SWAP1 POP JUMP JUMPDEST PUSH0 DUP3 DUP3 MSTORE PUSH1 0x20 DUP3 ADD SWAP1 POP SWAP3 SWAP2 POP POP JUMP JUMPDEST DUP3 DUP2 DUP4 MCOPY PUSH0 DUP4 DUP4 ADD MSTORE POP POP POP JUMP JUMPDEST PUSH0 PUSH1 0x1F NOT PUSH1 0x1F DUP4 ADD AND SWAP1 POP SWAP2 SWAP1 POP JUMP JUMPDEST PUSH0 PUSH2 0xC95 DUP3 PUSH2 0xC53 JUMP JUMPDEST PUSH2 0xC9F DUP2 DUP6 PUSH2 0xC5D JUMP JUMPDEST SWAP4 POP PUSH2 0xCAF DUP2 DUP6 PUSH1 0x20 DUP7 ADD PUSH2 0xC6D JUMP JUMPDEST PUSH2 0xCB8 DUP2 PUSH2 0xC7B JUMP JUMPDEST DUP5 ADD SWAP2 POP POP SWAP3 SWAP2 POP POP JUMP JUMPDEST PUSH0 DUP2 ISZERO ISZERO SWAP1 POP SWAP2 SWAP1 POP JUMP JUMPDEST PUSH2 0xCD7 DUP2 PUSH2 0xCC3 JUMP JUMPDEST DUP3 MSTORE POP POP JUMP JUMPDEST PUSH0 PUSH2 0x100 DUP4 ADD PUSH0 DUP4 ADD MLOAD PUSH2 0xCF3 PUSH0 DUP7 ADD DUP3 PUSH2 0xC44 JUMP JUMPDEST POP PUSH1 0x20 DUP4 ADD MLOAD DUP5 DUP3 SUB PUSH1 0x20 DUP7 ADD MSTORE PUSH2 0xD0B DUP3 DUP3 PUSH2 0xC8B JUMP JUMPDEST SWAP2 POP POP PUSH1 0x40 DUP4 ADD MLOAD DUP5 DUP3 SUB PUSH1 0x40 DUP7 ADD MSTORE PUSH2 0xD25 DUP3 DUP3 PUSH2 0xC8B JUMP JUMPDEST SWAP2 POP POP PUSH1 0x60 DUP4 ADD MLOAD DUP5 DUP3 SUB PUSH1 0x60 DUP7 ADD MSTORE PUSH2 0xD3F DUP3 DUP3 PUSH2 0xC8B JUMP JUMPDEST SWAP2 POP POP PUSH1 0x80 DUP4 ADD MLOAD DUP5 DUP3 SUB PUSH1 0x80 DUP7 ADD MSTORE PUSH2 0xD59 DUP3 DUP3 PUSH2 0xC8B JUMP JUMPDEST SWAP2 POP POP PUSH1 0xA0 DUP4 ADD MLOAD DUP5 DUP3 SUB PUSH1 0xA0 DUP7 ADD MSTORE PUSH2 0xD73 DUP3 DUP3 PUSH2 0xC8B JUMP JUMPDEST SWAP2 POP POP PUSH1 0xC0 DUP4 ADD MLOAD PUSH2 0xD88 PUSH1 0xC0 DUP7 ADD DUP3 PUSH2 0xCCE JUMP JUMPDEST POP PUSH1 0xE0 DUP4 ADD MLOAD PUSH2 0xD9B PUSH1 0xE0 DUP7 ADD DUP3 PUSH2 0xCCE JUMP JUMPDEST POP DUP1 SWAP2 POP POP SWAP3 SWAP2 POP POP JUMP JUMPDEST PUSH0 PUSH1 0x20 DUP3 ADD SWAP1 POP DUP2 DUP2 SUB PUSH0 DUP4 ADD MSTORE PUSH2 0xDBE DUP2 DUP5 PUSH2 0xCDD JUMP JUMPDEST SWAP1 POP SWAP3 SWAP2 POP POP JUMP JUMPDEST PUSH0 DUP1 REVERT JUMPDEST PUSH0 DUP1 REVERT JUMPDEST PUSH32 0x4E487B7100000000000000000000000000000000000000000000000000000000 PUSH0 MSTORE PUSH1 0x41 PUSH1 0x4 MSTORE PUSH1 0x24 PUSH0 REVERT JUMPDEST PUSH2 0xE04 DUP3 PUSH2 0xC7B JUMP JUMPDEST DUP2 ADD DUP2 DUP2 LT PUSH8 0xFFFFFFFFFFFFFFFF DUP3 GT OR ISZERO PUSH2 0xE23 JUMPI PUSH2 0xE22 PUSH2 0xDCE JUMP JUMPDEST JUMPDEST DUP1 PUSH1 0x40 MSTORE POP POP POP JUMP JUMPDEST PUSH0 PUSH2 0xE35 PUSH2 0xBD5 JUMP JUMPDEST SWAP1 POP PUSH2 0xE41 DUP3 DUP3 PUSH2 0xDFB JUMP JUMPDEST SWAP2 SWAP1 POP JUMP JUMPDEST PUSH0 PUSH8 0xFFFFFFFFFFFFFFFF DUP3 GT ISZERO PUSH2 0xE60 JUMPI PUSH2 0xE5F PUSH2 0xDCE JUMP JUMPDEST JUMPDEST PUSH2 0xE69 DUP3 PUSH2 0xC7B JUMP JUMPDEST SWAP1 POP PUSH1 0x20 DUP2 ADD SWAP1 POP SWAP2 SWAP1 POP JUMP JUMPDEST DUP3 DUP2 DUP4 CALLDATACOPY PUSH0 DUP4 DUP4 ADD MSTORE POP POP POP JUMP JUMPDEST PUSH0 PUSH2 0xE96 PUSH2 0xE91 DUP5 PUSH2 0xE46 JUMP JUMPDEST PUSH2 0xE2C JUMP JUMPDEST SWAP1 POP DUP3 DUP2 MSTORE PUSH1 0x20 DUP2 ADD DUP5 DUP5 DUP5 ADD GT ISZERO PUSH2 0xEB2 JUMPI PUSH2 0xEB1 PUSH2 0xDCA JUMP JUMPDEST JUMPDEST PUSH2 0xEBD DUP5 DUP3 DUP6 PUSH2 0xE76 JUMP JUMPDEST POP SWAP4 SWAP3 POP POP POP JUMP JUMPDEST PUSH0 DUP3 PUSH1 0x1F DUP4 ADD SLT PUSH2 0xED9 JUMPI PUSH2 0xED8 PUSH2 0xDC6 JUMP JUMPDEST JUMPDEST DUP2 CALLDATALOAD PUSH2 0xEE9 DUP5 DUP3 PUSH1 0x20 DUP7 ADD PUSH2 0xE84 JUMP JUMPDEST SWAP2 POP POP SWAP3 SWAP2 POP POP JUMP JUMPDEST PUSH2 0xEFB DUP2 PUSH2 0xCC3 JUMP JUMPDEST DUP2 EQ PUSH2 0xF05 JUMPI PUSH0 DUP1 REVERT JUMPDEST POP JUMP JUMPDEST PUSH0 DUP2 CALLDATALOAD SWAP1 POP PUSH2 0xF16 DUP2 PUSH2 0xEF2 JUMP JUMPDEST SWAP3 SWAP2 POP POP JUMP JUMPDEST PUSH0 DUP1 PUSH0 DUP1 PUSH0 DUP1 PUSH0 PUSH1 0xE0 DUP9 DUP11 SUB SLT ISZERO PUSH2 0xF37 JUMPI PUSH2 0xF36 PUSH2 0xBDE JUMP JUMPDEST JUMPDEST PUSH0 PUSH2 0xF44 DUP11 DUP3 DUP12 ADD PUSH2 0xC05 JUMP JUMPDEST SWAP8 POP POP PUSH1 0x20 DUP9 ADD CALLDATALOAD PUSH8 0xFFFFFFFFFFFFFFFF DUP2 GT ISZERO PUSH2 0xF65 JUMPI PUSH2 0xF64 PUSH2 0xBE2 JUMP JUMPDEST JUMPDEST PUSH2 0xF71 DUP11 DUP3 DUP12 ADD PUSH2 0xEC5 JUMP JUMPDEST SWAP7 POP POP PUSH1 0x40 DUP9 ADD CALLDATALOAD PUSH8 0xFFFFFFFFFFFFFFFF DUP2 GT ISZERO PUSH2 0xF92 JUMPI PUSH2 0xF91 PUSH2 0xBE2 JUMP JUMPDEST JUMPDEST PUSH2 0xF9E DUP11 DUP3 DUP12 ADD PUSH2 0xEC5 JUMP JUMPDEST SWAP6 POP POP PUSH1 0x60 DUP9 ADD CALLDATALOAD PUSH8 0xFFFFFFFFFFFFFFFF DUP2 GT ISZERO PUSH2 0xFBF JUMPI PUSH2 0xFBE PUSH2 0xBE2 JUMP JUMPDEST JUMPDEST PUSH2 0xFCB DUP11 DUP3 DUP12 ADD PUSH2 0xEC5 JUMP JUMPDEST SWAP5 POP POP PUSH1 0x80 DUP9 ADD CALLDATALOAD PUSH8 0xFFFFFFFFFFFFFFFF DUP2 GT ISZERO PUSH2 0xFEC JUMPI PUSH2 0xFEB PUSH2 0xBE2 JUMP JUMPDEST JUMPDEST PUSH2 0xFF8 DUP11 DUP3 DUP12 ADD PUSH2 0xEC5 JUMP JUMPDEST SWAP4 POP POP PUSH1 0xA0 DUP9 ADD CALLDATALOAD PUSH8 0xFFFFFFFFFFFFFFFF DUP2 GT ISZERO PUSH2 0x1019 JUMPI PUSH2 0x1018 PUSH2 0xBE2 JUMP JUMPDEST JUMPDEST PUSH2 0x1025 DUP11 DUP3 DUP12 ADD PUSH2 0xEC5 JUMP JUMPDEST SWAP3 POP POP PUSH1 0xC0 PUSH2 0x1036 DUP11 DUP3 DUP12 ADD PUSH2 0xF08 JUMP JUMPDEST SWAP2 POP POP SWAP3 SWAP6 SWAP9 SWAP2 SWAP5 SWAP8 POP SWAP3 SWAP6 POP JUMP JUMPDEST PUSH2 0x104E DUP2 PUSH2 0xBE6 JUMP JUMPDEST DUP3 MSTORE POP POP JUMP JUMPDEST PUSH0 DUP3 DUP3 MSTORE PUSH1 0x20 DUP3 ADD SWAP1 POP SWAP3 SWAP2 POP POP JUMP JUMPDEST PUSH0 PUSH2 0x106E DUP3 PUSH2 0xC53 JUMP JUMPDEST PUSH2 0x1078 DUP2 DUP6 PUSH2 0x1054 JUMP JUMPDEST SWAP4 POP PUSH2 0x1088 DUP2 DUP6 PUSH1 0x20 DUP7 ADD PUSH2 0xC6D JUMP JUMPDEST PUSH2 0x1091 DUP2 PUSH2 0xC7B JUMP JUMPDEST DUP5 ADD SWAP2 POP POP SWAP3 SWAP2 POP POP JUMP JUMPDEST PUSH2 0x10A5 DUP2 PUSH2 0xCC3 JUMP JUMPDEST DUP3 MSTORE POP POP JUMP JUMPDEST PUSH0 PUSH2 0x100 DUP3 ADD SWAP1 POP PUSH2 0x10BF PUSH0 DUP4 ADD DUP12 PUSH2 0x1045 JUMP JUMPDEST DUP2 DUP2 SUB PUSH1 0x20 DUP4 ADD MSTORE PUSH2 0x10D1 DUP2 DUP11 PUSH2 0x1064 JUMP JUMPDEST SWAP1 POP DUP2 DUP2 SUB PUSH1 0x40 DUP4 ADD MSTORE PUSH2 0x10E5 DUP2 DUP10 PUSH2 0x1064 JUMP JUMPDEST SWAP1 POP DUP2 DUP2 SUB PUSH1 0x60 DUP4 ADD MSTORE PUSH2 0x10F9 DUP2 DUP9 PUSH2 0x1064 JUMP JUMPDEST SWAP1 POP DUP2 DUP2 SUB PUSH1 0x80 DUP4 ADD MSTORE PUSH2 0x110D DUP2 DUP8 PUSH2 0x1064 JUMP JUMPDEST SWAP1 POP DUP2 DUP2 SUB PUSH1 0xA0 DUP4 ADD MSTORE PUSH2 0x1121 DUP2 DUP7 PUSH2 0x1064 JUMP JUMPDEST SWAP1 POP PUSH2 0x1130 PUSH1 0xC0 DUP4 ADD DUP6 PUSH2 0x109C JUMP JUMPDEST PUSH2 0x113D PUSH1 0xE0 DUP4 ADD DUP5 PUSH2 0x109C JUMP JUMPDEST SWAP10 SWAP9 POP POP POP POP POP POP POP POP POP JUMP JUMPDEST PUSH0 PUSH20 0xFFFFFFFFFFFFFFFFFFFFFFFFFFFFFFFFFFFFFFFF DUP3 AND SWAP1 POP SWAP2 SWAP1 POP JUMP JUMPDEST PUSH0 PUSH2 0x1173 DUP3 PUSH2 0x114A JUMP JUMPDEST SWAP1 POP SWAP2 SWAP1 POP JUMP JUMPDEST PUSH2 0x1183 DUP2 PUSH2 0x1169 JUMP JUMPDEST DUP3 MSTORE POP POP JUMP JUMPDEST PUSH0 PUSH1 0x20 DUP3 ADD SWAP1 POP PUSH2 0x119C PUSH0 DUP4 ADD DUP5 PUSH2 0x117A JUMP JUMPDEST SWAP3 SWAP2 POP POP JUMP JUMPDEST PUSH0 DUP2 SWAP1 POP SWAP2 SWAP1 POP JUMP JUMPDEST PUSH0 PUSH2 0x11C5 PUSH2 0x11C0 PUSH2 0x11BB DUP5 PUSH2 0x114A JUMP JUMPDEST PUSH2 0x11A2 JUMP JUMPDEST PUSH2 0x114A JUMP JUMPDEST SWAP1 POP SWAP2 SWAP1 POP JUMP JUMPDEST PUSH0 PUSH2 0x11D6 DUP3 PUSH2 0x11AB JUMP JUMPDEST SWAP1 POP SWAP2 SWAP1 POP JUMP JUMPDEST PUSH0 PUSH2 0x11E7 DUP3 PUSH2 0x11CC JUMP JUMPDEST SWAP1 POP SWAP2 SWAP1 POP JUMP JUMPDEST PUSH2 0x11F7 DUP2 PUSH2 0x11DD JUMP JUMPDEST DUP3 MSTORE POP POP JUMP JUMPDEST PUSH0 PUSH1 0x20 DUP3 ADD SWAP1 POP PUSH2 0x1210 PUSH0 DUP4 ADD DUP5 PUSH2 0x11EE JUMP JUMPDEST SWAP3 SWAP2 POP POP JUMP JUMPDEST PUSH32 0x4E487B7100000000000000000000000000000000000000000000000000000000 PUSH0 MSTORE PUSH1 0x22 PUSH1 0x4 MSTORE PUSH1 0x24 PUSH0 REVERT JUMPDEST PUSH0 PUSH1 0x2 DUP3 DIV SWAP1 POP PUSH1 0x1 DUP3 AND DUP1 PUSH2 0x125A JUMPI PUSH1 0x7F DUP3 AND SWAP2 POP JUMPDEST PUSH1 0x20 DUP3 LT DUP2 SUB PUSH2 0x126D JUMPI PUSH2 0x126C PUSH2 0x1216 JUMP JUMPDEST JUMPDEST POP SWAP2 SWAP1 POP JUMP JUMPDEST PUSH32 0x4F6E6C79207665726966696564206578706F727465722063616E206C6F672061 PUSH0 DUP3 ADD MSTORE PUSH32 0x72726976616C0000000000000000000000000000000000000000000000000000 PUSH1 0x20 DUP3 ADD MSTORE POP JUMP JUMPDEST PUSH0 PUSH2 0x12CD PUSH1 0x26 DUP4 PUSH2 0x1054 JUMP JUMPDEST SWAP2 POP PUSH2 0x12D8 DUP3 PUSH2 0x1273 JUMP JUMPDEST PUSH1 0x40 DUP3 ADD SWAP1 POP SWAP2 SWAP1 POP JUMP JUMPDEST PUSH0 PUSH1 0x20 DUP3 ADD SWAP1 POP DUP2 DUP2 SUB PUSH0 DUP4 ADD MSTORE PUSH2 0x12FA DUP2 PUSH2 0x12C1 JUMP JUMPDEST SWAP1 POP SWAP2 SWAP1 POP JUMP JUMPDEST PUSH32 0x4172726976616C20616C7265616479206C6F6767656400000000000000000000 PUSH0 DUP3 ADD MSTORE POP JUMP JUMPDEST PUSH0 PUSH2 0x1335 PUSH1 0x16 DUP4 PUSH2 0x1054 JUMP JUMPDEST SWAP2 POP PUSH2 0x1340 DUP3 PUSH2 0x1301 JUMP JUMPDEST PUSH1 0x20 DUP3 ADD SWAP1 POP SWAP2 SWAP1 POP JUMP JUMPDEST PUSH0 PUSH1 0x20 DUP3 ADD SWAP1 POP DUP2 DUP2 SUB PUSH0 DUP4 ADD MSTORE PUSH2 0x1362 DUP2 PUSH2 0x1329 JUMP JUMPDEST SWAP1 POP SWAP2 SWAP1 POP JUMP JUMPDEST PUSH32 0x4261746368204944206E6F7420666F756E6420696E206661726D657220636F6E PUSH0 DUP3 ADD MSTORE PUSH32 0x7472616374000000000000000000000000000000000000000000000000000000 PUSH1 0x20 DUP3 ADD MSTORE POP JUMP JUMPDEST PUSH0 PUSH2 0x13C3 PUSH1 0x25 DUP4 PUSH2 0x1054 JUMP JUMPDEST SWAP2 POP PUSH2 0x13CE DUP3 PUSH2 0x1369 JUMP JUMPDEST PUSH1 0x40 DUP3 ADD SWAP1 POP SWAP2 SWAP1 POP JUMP JUMPDEST PUSH0 PUSH1 0x20 DUP3 ADD SWAP1 POP DUP2 DUP2 SUB PUSH0 DUP4 ADD MSTORE PUSH2 0x13F0 DUP2 PUSH2 0x13B7 JUMP JUMPDEST SWAP1 POP SWAP2 SWAP1 POP JUMP JUMPDEST PUSH0 DUP2 SWAP1 POP DUP2 PUSH0 MSTORE PUSH1 0x20 PUSH0 KECCAK256 SWAP1 POP SWAP2 SWAP1 POP JUMP JUMPDEST PUSH0 PUSH1 0x20 PUSH1 0x1F DUP4 ADD DIV SWAP1 POP SWAP2 SWAP1 POP JUMP JUMPDEST PUSH0 DUP3 DUP3 SHL SWAP1 POP SWAP3 SWAP2 POP POP JUMP JUMPDEST PUSH0 PUSH1 0x8 DUP4 MUL PUSH2 0x1453 PUSH32 0xFFFFFFFFFFFFFFFFFFFFFFFFFFFFFFFFFFFFFFFFFFFFFFFFFFFFFFFFFFFFFFFF DUP3 PUSH2 0x1418 JUMP JUMPDEST PUSH2 0x145D DUP7 DUP4 PUSH2 0x1418 JUMP JUMPDEST SWAP6 POP DUP1 NOT DUP5 AND SWAP4 POP DUP1 DUP7 AND DUP5 OR SWAP3 POP POP POP SWAP4 SWAP3 POP POP POP JUMP JUMPDEST PUSH0 PUSH2 0x148F PUSH2 0x148A PUSH2 0x1485 DUP5 PUSH2 0xBE6 JUMP JUMPDEST PUSH2 0x11A2 JUMP JUMPDEST PUSH2 0xBE6 JUMP JUMPDEST SWAP1 POP SWAP2 SWAP1 POP JUMP JUMPDEST PUSH0 DUP2 SWAP1 POP SWAP2 SWAP1 POP JUMP JUMPDEST PUSH2 0x14A8 DUP4 PUSH2 0x1475 JUMP JUMPDEST PUSH2 0x14BC PUSH2 0x14B4 DUP3 PUSH2 0x1496 JUMP JUMPDEST DUP5 DUP5 SLOAD PUSH2 0x1424 JUMP JUMPDEST DUP3 SSTORE POP POP POP POP JUMP JUMPDEST PUSH0 SWAP1 JUMP JUMPDEST PUSH2 0x14D0 PUSH2 0x14C4 JUMP JUMPDEST PUSH2 0x14DB DUP2 DUP5 DUP5 PUSH2 0x149F JUMP JUMPDEST POP POP POP JUMP JUMPDEST JUMPDEST DUP2 DUP2 LT ISZERO PUSH2 0x14FE JUMPI PUSH2 0x14F3 PUSH0 DUP3 PUSH2 0x14C8 JUMP JUMPDEST PUSH1 0x1 DUP2 ADD SWAP1 POP PUSH2 0x14E1 JUMP JUMPDEST POP POP JUMP JUMPDEST PUSH1 0x1F DUP3 GT ISZERO PUSH2 0x1543 JUMPI PUSH2 0x1514 DUP2 PUSH2 0x13F7 JUMP JUMPDEST PUSH2 0x151D DUP5 PUSH2 0x1409 JUMP JUMPDEST DUP2 ADD PUSH1 0x20 DUP6 LT ISZERO PUSH2 0x152C JUMPI DUP2 SWAP1 POP JUMPDEST PUSH2 0x1540 PUSH2 0x1538 DUP6 PUSH2 0x1409 JUMP JUMPDEST DUP4 ADD DUP3 PUSH2 0x14E0 JUMP JUMPDEST POP POP JUMPDEST POP POP POP JUMP JUMPDEST PUSH0 DUP3 DUP3 SHR SWAP1 POP SWAP3 SWAP2 POP POP JUMP JUMPDEST PUSH0 PUSH2 0x1563 PUSH0 NOT DUP5 PUSH1 0x8 MUL PUSH2 0x1548 JUMP JUMPDEST NOT DUP1 DUP4 AND SWAP2 POP POP SWAP3 SWAP2 POP POP JUMP JUMPDEST PUSH0 PUSH2 0x157B DUP4 DUP4 PUSH2 0x1554 JUMP JUMPDEST SWAP2 POP DUP3 PUSH1 0x2 MUL DUP3 OR SWAP1 POP SWAP3 SWAP2 POP POP JUMP JUMPDEST PUSH2 0x1594 DUP3 PUSH2 0xC53 JUMP JUMPDEST PUSH8 0xFFFFFFFFFFFFFFFF DUP2 GT ISZERO PUSH2 0x15AD JUMPI PUSH2 0x15AC PUSH2 0xDCE JUMP JUMPDEST JUMPDEST PUSH2 0x15B7 DUP3 SLOAD PUSH2 0x1243 JUMP JUMPDEST PUSH2 0x15C2 DUP3 DUP3 DUP6 PUSH2 0x1502 JUMP JUMPDEST PUSH0 PUSH1 0x20 SWAP1 POP PUSH1 0x1F DUP4 GT PUSH1 0x1 DUP2 EQ PUSH2 0x15F3 JUMPI PUSH0 DUP5 ISZERO PUSH2 0x15E1 JUMPI DUP3 DUP8 ADD MLOAD SWAP1 POP JUMPDEST PUSH2 0x15EB DUP6 DUP3 PUSH2 0x1570 JUMP JUMPDEST DUP7 SSTORE POP PUSH2 0x1652 JUMP JUMPDEST PUSH1 0x1F NOT DUP5 AND PUSH2 0x1601 DUP7 PUSH2 0x13F7 JUMP JUMPDEST PUSH0 JUMPDEST DUP3 DUP2 LT ISZERO PUSH2 0x1628 JUMPI DUP5 DUP10 ADD MLOAD DUP3 SSTORE PUSH1 0x1 DUP3 ADD SWAP2 POP PUSH1 0x20 DUP6 ADD SWAP5 POP PUSH1 0x20 DUP2 ADD SWAP1 POP PUSH2 0x1603 JUMP JUMPDEST DUP7 DUP4 LT ISZERO PUSH2 0x1645 JUMPI DUP5 DUP10 ADD MLOAD PUSH2 0x1641 PUSH1 0x1F DUP10 AND DUP3 PUSH2 0x1554 JUMP JUMPDEST DUP4 SSTORE POP JUMPDEST PUSH1 0x1 PUSH1 0x2 DUP9 MUL ADD DUP9 SSTORE POP POP POP JUMPDEST POP POP POP POP POP POP JUMP JUMPDEST PUSH0 PUSH2 0x100 DUP3 ADD SWAP1 POP PUSH2 0x166E PUSH0 DUP4 ADD DUP12 PUSH2 0x1045 JUMP JUMPDEST DUP2 DUP2 SUB PUSH1 0x20 DUP4 ADD MSTORE PUSH2 0x1680 DUP2 DUP11 PUSH2 0x1064 JUMP JUMPDEST SWAP1 POP DUP2 DUP2 SUB PUSH1 0x40 DUP4 ADD MSTORE PUSH2 0x1694 DUP2 DUP10 PUSH2 0x1064 JUMP JUMPDEST SWAP1 POP DUP2 DUP2 SUB PUSH1 0x60 DUP4 ADD MSTORE PUSH2 0x16A8 DUP2 DUP9 PUSH2 0x1064 JUMP JUMPDEST SWAP1 POP DUP2 DUP2 SUB PUSH1 0x80 DUP4 ADD MSTORE PUSH2 0x16BC DUP2 DUP8 PUSH2 0x1064 JUMP JUMPDEST SWAP1 POP DUP2 DUP2 SUB PUSH1 0xA0 DUP4 ADD MSTORE PUSH2 0x16D0 DUP2 DUP7 PUSH2 0x1064 JUMP JUMPDEST SWAP1 POP PUSH2 0x16DF PUSH1 0xC0 DUP4 ADD DUP6 PUSH2 0x109C JUMP JUMPDEST PUSH2 0x16EC PUSH1 0xE0 DUP4 ADD DUP5 PUSH2 0x117A JUMP JUMPDEST SWAP10 SWAP9 POP POP POP POP POP POP POP POP POP JUMP JUMPDEST PUSH0 DUP2 MLOAD SWAP1 POP PUSH2 0x1707 DUP2 PUSH2 0xBEF JUMP JUMPDEST SWAP3 SWAP2 POP POP JUMP JUMPDEST PUSH0 PUSH1 0x20 DUP3 DUP5 SUB SLT ISZERO PUSH2 0x1722 JUMPI PUSH2 0x1721 PUSH2 0xBDE JUMP JUMPDEST JUMPDEST PUSH0 PUSH2 0x172F DUP5 DUP3 DUP6 ADD PUSH2 0x16F9 JUMP JUMPDEST SWAP2 POP POP SWAP3 SWAP2 POP POP JUMP JUMPDEST PUSH0 PUSH1 0x20 DUP3 ADD SWAP1 POP PUSH2 0x174B PUSH0 DUP4 ADD DUP5 PUSH2 0x1045 JUMP JUMPDEST SWAP3 SWAP2 POP POP JUMP JUMPDEST PUSH0 PUSH2 0x1763 PUSH2 0x175E DUP5 PUSH2 0xE46 JUMP JUMPDEST PUSH2 0xE2C JUMP JUMPDEST SWAP1 POP DUP3 DUP2 MSTORE PUSH1 0x20 DUP2 ADD DUP5 DUP5 DUP5 ADD GT ISZERO PUSH2 0x177F JUMPI PUSH2 0x177E PUSH2 0xDCA JUMP JUMPDEST JUMPDEST PUSH2 0x178A DUP5 DUP3 DUP6 PUSH2 0xC6D JUMP JUMPDEST POP SWAP4 SWAP3 POP POP POP JUMP JUMPDEST PUSH0 DUP3 PUSH1 0x1F DUP4 ADD SLT PUSH2 0x17A6 JUMPI PUSH2 0x17A5 PUSH2 0xDC6 JUMP JUMPDEST JUMPDEST DUP2 MLOAD PUSH2 0x17B6 DUP5 DUP3 PUSH1 0x20 DUP7 ADD PUSH2 0x1751 JUMP JUMPDEST SWAP2 POP POP SWAP3 SWAP2 POP POP JUMP JUMPDEST PUSH0 DUP1 PUSH0 DUP1 PUSH0 DUP1 PUSH0 PUSH1 0xE0 DUP9 DUP11 SUB SLT ISZERO PUSH2 0x17DA JUMPI PUSH2 0x17D9 PUSH2 0xBDE JUMP JUMPDEST JUMPDEST PUSH0 PUSH2 0x17E7 DUP11 DUP3 DUP12 ADD PUSH2 0x16F9 JUMP JUMPDEST SWAP8 POP POP PUSH1 0x20 DUP9 ADD MLOAD PUSH8 0xFFFFFFFFFFFFFFFF DUP2 GT ISZERO PUSH2 0x1808 JUMPI PUSH2 0x1807 PUSH2 0xBE2 JUMP JUMPDEST JUMPDEST PUSH2 0x1814 DUP11 DUP3 DUP12 ADD PUSH2 0x1792 JUMP JUMPDEST SWAP7 POP POP PUSH1 0x40 DUP9 ADD MLOAD PUSH8 0xFFFFFFFFFFFFFFFF DUP2 GT ISZERO PUSH2 0x1835 JUMPI PUSH2 0x1834 PUSH2 0xBE2 JUMP JUMPDEST JUMPDEST PUSH2 0x1841 DUP11 DUP3 DUP12 ADD PUSH2 0x1792 JUMP JUMPDEST SWAP6 POP POP PUSH1 0x60 DUP9 ADD MLOAD PUSH8 0xFFFFFFFFFFFFFFFF DUP2 GT ISZERO PUSH2 0x1862 JUMPI PUSH2 0x1861 PUSH2 0xBE2 JUMP JUMPDEST JUMPDEST PUSH2 0x186E DUP11 DUP3 DUP12 ADD PUSH2 0x1792 JUMP JUMPDEST SWAP5 POP POP PUSH1 0x80 DUP9 ADD MLOAD PUSH8 0xFFFFFFFFFFFFFFFF DUP2 GT ISZERO PUSH2 0x188F JUMPI PUSH2 0x188E PUSH2 0xBE2 JUMP JUMPDEST JUMPDEST PUSH2 0x189B DUP11 DUP3 DUP12 ADD PUSH2 0x1792 JUMP JUMPDEST SWAP4 POP POP PUSH1 0xA0 DUP9 ADD MLOAD PUSH8 0xFFFFFFFFFFFFFFFF DUP2 GT ISZERO PUSH2 0x18BC JUMPI PUSH2 0x18BB PUSH2 0xBE2 JUMP JUMPDEST JUMPDEST PUSH2 0x18C8 DUP11 DUP3 DUP12 ADD PUSH2 0x1792 JUMP JUMPDEST SWAP3 POP POP PUSH1 0xC0 DUP9 ADD MLOAD PUSH8 0xFFFFFFFFFFFFFFFF DUP2 GT ISZERO PUSH2 0x18E9 JUMPI PUSH2 0x18E8 PUSH2 0xBE2 JUMP JUMPDEST JUMPDEST PUSH2 0x18F5 DUP11 DUP3 DUP12 ADD PUSH2 0x1792 JUMP JUMPDEST SWAP2 POP POP SWAP3 SWAP6 SWAP9 SWAP2 SWAP5 SWAP8 POP SWAP3 SWAP6 POP JUMP INVALID LOG2 PUSH5 0x6970667358 0x22 SLT KECCAK256 PUSH27 0x21F2458CC9F022B5C51EB2BE3EDEC750F0F887FA98C2A0BDC78CCC 0xFB 0xB9 SAR PUSH10 0x64736F6C634300081A00 CALLER "
				},
				"gasEstimates": {
					"creation": {
						"codeDepositCost": "1291600",
						"executionCost": "infinite",
						"totalCost": "infinite"
					},
					"external": {
						"arrivals(uint256)": "infinite",
						"farmerContract()": "infinite",
						"getArrival(uint256)": "infinite",
						"logArrival(uint256,string,string,string,string,string,bool)": "infinite",
						"owner()": "2549"
					},
					"internal": {
						"_isValidBatchId(uint256)": "infinite"
					}
				},
				"methodIdentifiers": {
					"arrivals(uint256)": "7aa56e62",
					"farmerContract()": "9c0b7d46",
					"getArrival(uint256)": "42cd0723",
					"logArrival(uint256,string,string,string,string,string,bool)": "5ed7cac6",
					"owner()": "8da5cb5b"
				}
			},
			"storageLayout": {
				"storage": [
					{
						"astId": 29,
						"contract": "ExportArrivalLogistics.sol:ExportArrivalLogistics",
						"label": "owner",
						"offset": 0,
						"slot": "0",
						"type": "t_address"
					},
					{
						"astId": 32,
						"contract": "ExportArrivalLogistics.sol:ExportArrivalLogistics",
						"label": "farmerContract",
						"offset": 0,
						"slot": "1",
						"type": "t_contract(IFarmersBatchRegistration)27"
					},
					{
						"astId": 83,
						"contract": "ExportArrivalLogistics.sol:ExportArrivalLogistics",
						"label": "arrivals",
						"offset": 0,
						"slot": "2",
						"type": "t_mapping(t_uint256,t_struct(Arrival)78_storage)"
					}
				],
				"types": {
					"t_address": {
						"encoding": "inplace",
						"label": "address",
						"numberOfBytes": "20"
					},
					"t_bool": {
						"encoding": "inplace",
						"label": "bool",
						"numberOfBytes": "1"
					},
					"t_contract(IFarmersBatchRegistration)27": {
						"encoding": "inplace",
						"label": "contract IFarmersBatchRegistration",
						"numberOfBytes": "20"
					},
					"t_mapping(t_uint256,t_struct(Arrival)78_storage)": {
						"encoding": "mapping",
						"key": "t_uint256",
						"label": "mapping(uint256 => struct ExportArrivalLogistics.Arrival)",
						"numberOfBytes": "32",
						"value": "t_struct(Arrival)78_storage"
					},
					"t_string_storage": {
						"encoding": "bytes",
						"label": "string",
						"numberOfBytes": "32"
					},
					"t_struct(Arrival)78_storage": {
						"encoding": "inplace",
						"label": "struct ExportArrivalLogistics.Arrival",
						"members": [
							{
								"astId": 63,
								"contract": "ExportArrivalLogistics.sol:ExportArrivalLogistics",
								"label": "batchId",
								"offset": 0,
								"slot": "0",
								"type": "t_uint256"
							},
							{
								"astId": 65,
								"contract": "ExportArrivalLogistics.sol:ExportArrivalLogistics",
								"label": "transportType",
								"offset": 0,
								"slot": "1",
								"type": "t_string_storage"
							},
							{
								"astId": 67,
								"contract": "ExportArrivalLogistics.sol:ExportArrivalLogistics",
								"label": "originPort",
								"offset": 0,
								"slot": "2",
								"type": "t_string_storage"
							},
							{
								"astId": 69,
								"contract": "ExportArrivalLogistics.sol:ExportArrivalLogistics",
								"label": "departureDate",
								"offset": 0,
								"slot": "3",
								"type": "t_string_storage"
							},
							{
								"astId": 71,
								"contract": "ExportArrivalLogistics.sol:ExportArrivalLogistics",
								"label": "arrivalDate",
								"offset": 0,
								"slot": "4",
								"type": "t_string_storage"
							},
							{
								"astId": 73,
								"contract": "ExportArrivalLogistics.sol:ExportArrivalLogistics",
								"label": "arrivalLocation",
								"offset": 0,
								"slot": "5",
								"type": "t_string_storage"
							},
							{
								"astId": 75,
								"contract": "ExportArrivalLogistics.sol:ExportArrivalLogistics",
								"label": "delayed",
								"offset": 0,
								"slot": "6",
								"type": "t_bool"
							},
							{
								"astId": 77,
								"contract": "ExportArrivalLogistics.sol:ExportArrivalLogistics",
								"label": "logged",
								"offset": 1,
								"slot": "6",
								"type": "t_bool"
							}
						],
						"numberOfBytes": "224"
					},
					"t_uint256": {
						"encoding": "inplace",
						"label": "uint256",
						"numberOfBytes": "32"
					}
				}
			},
			"userdoc": {
				"kind": "user",
				"methods": {
					"getArrival(uint256)": {
						"notice": "Get arrival log for a specific batch"
					},
					"logArrival(uint256,string,string,string,string,string,bool)": {
						"notice": "Log the arrival details of a coffee export batch"
					}
				},
				"version": 1
			}
		}
	}
}