{
	"ExportDepartureLogistics.sol": {
		"ExportDepartureLogistics": {
			"abi": [
				{
					"inputs": [
						{
							"internalType": "address",
							"name": "_farmerContractAddress",
							"type": "address"
						}
					],
					"stateMutability": "nonpayable",
					"type": "constructor"
				},
				{
					"anonymous": false,
					"inputs": [
						{
							"indexed": false,
							"internalType": "uint256",
							"name": "batchId",
							"type": "uint256"
						},
						{
							"indexed": false,
							"internalType": "string",
							"name": "transportType",
							"type": "string"
						},
						{
							"indexed": false,
							"internalType": "string",
							"name": "originPort",
							"type": "string"
						},
						{
							"indexed": false,
							"internalType": "string",
							"name": "departureDate",
							"type": "string"
						},
						{
							"indexed": false,
							"internalType": "address",
							"name": "exporter",
							"type": "address"
						}
					],
					"name": "DepartureLogged",
					"type": "event"
				},
				{
					"inputs": [
						{
							"internalType": "uint256",
							"name": "",
							"type": "uint256"
						}
					],
					"name": "departures",
					"outputs": [
						{
							"internalType": "uint256",
							"name": "batchId",
							"type": "uint256"
						},
						{
							"internalType": "string",
							"name": "transportType",
							"type": "string"
						},
						{
							"internalType": "string",
							"name": "originPort",
							"type": "string"
						},
						{
							"internalType": "string",
							"name": "departureDate",
							"type": "string"
						},
						{
							"internalType": "bool",
							"name": "logged",
							"type": "bool"
						}
					],
					"stateMutability": "view",
					"type": "function"
				},
				{
					"inputs": [],
					"name": "farmerContract",
					"outputs": [
						{
							"internalType": "contract IFarmersBatchRegistration",
							"name": "",
							"type": "address"
						}
					],
					"stateMutability": "view",
					"type": "function"
				},
				{
					"inputs": [
						{
							"internalType": "uint256",
							"name": "_batchId",
							"type": "uint256"
						}
					],
					"name": "getDeparture",
					"outputs": [
						{
							"components": [
								{
									"internalType": "uint256",
									"name": "batchId",
									"type": "uint256"
								},
								{
									"internalType": "string",
									"name": "transportType",
									"type": "string"
								},
								{
									"internalType": "string",
									"name": "originPort",
									"type": "string"
								},
								{
									"internalType": "string",
									"name": "departureDate",
									"type": "string"
								},
								{
									"internalType": "bool",
									"name": "logged",
									"type": "bool"
								}
							],
							"internalType": "struct ExportDepartureLogistics.Departure",
							"name": "",
							"type": "tuple"
						}
					],
					"stateMutability": "view",
					"type": "function"
				},
				{
					"inputs": [
						{
							"internalType": "uint256",
							"name": "_batchId",
							"type": "uint256"
						},
						{
							"internalType": "string",
							"name": "_transportType",
							"type": "string"
						},
						{
							"internalType": "string",
							"name": "_originPort",
							"type": "string"
						},
						{
							"internalType": "string",
							"name": "_departureDate",
							"type": "string"
						}
					],
					"name": "logDeparture",
					"outputs": [],
					"stateMutability": "nonpayable",
					"type": "function"
				},
				{
					"inputs": [],
					"name": "owner",
					"outputs": [
						{
							"internalType": "address",
							"name": "",
							"type": "address"
						}
					],
					"stateMutability": "view",
					"type": "function"
				}
			],
			"devdoc": {
				"kind": "dev",
				"methods": {},
				"version": 1
			},
			"evm": {
				"assembly": "    /* \"ExportDepartureLogistics.sol\":383:2356  contract ExportDepartureLogistics {... */\n  mstore(0x40, 0x80)\n    /* \"ExportDepartureLogistics.sol\":503:658  constructor(address _farmerContractAddress) {... */\n  callvalue\n  dup1\n  iszero\n  tag_1\n  jumpi\n  0x00\n  dup1\n  revert\ntag_1:\n  pop\n  mload(0x40)\n  sub(codesize, bytecodeSize)\n  dup1\n  bytecodeSize\n  dup4\n  codecopy\n  dup2\n  dup2\n  add\n  0x40\n  mstore\n  dup2\n  add\n  swap1\n  tag_2\n  swap2\n  swap1\n  tag_3\n  jump\t// in\ntag_2:\n    /* \"ExportDepartureLogistics.sol\":565:575  msg.sender */\n  caller\n    /* \"ExportDepartureLogistics.sol\":557:562  owner */\n  0x00\n  dup1\n    /* \"ExportDepartureLogistics.sol\":557:575  owner = msg.sender */\n  0x0100\n  exp\n  dup2\n  sload\n  dup2\n  0xffffffffffffffffffffffffffffffffffffffff\n  mul\n  not\n  and\n  swap1\n  dup4\n  0xffffffffffffffffffffffffffffffffffffffff\n  and\n  mul\n  or\n  swap1\n  sstore\n  pop\n    /* \"ExportDepartureLogistics.sol\":628:650  _farmerContractAddress */\n  dup1\n    /* \"ExportDepartureLogistics.sol\":585:599  farmerContract */\n  0x01\n  0x00\n    /* \"ExportDepartureLogistics.sol\":585:651  farmerContract = IFarmersBatchRegistration(_farmerContractAddress) */\n  0x0100\n  exp\n  dup2\n  sload\n  dup2\n  0xffffffffffffffffffffffffffffffffffffffff\n  mul\n  not\n  and\n  swap1\n  dup4\n  0xffffffffffffffffffffffffffffffffffffffff\n  and\n  mul\n  or\n  swap1\n  sstore\n  pop\n    /* \"ExportDepartureLogistics.sol\":503:658  constructor(address _farmerContractAddress) {... */\n  pop\n    /* \"ExportDepartureLogistics.sol\":383:2356  contract ExportDepartureLogistics {... */\n  jump(tag_6)\n    /* \"#utility.yul\":88:205   */\ntag_8:\n    /* \"#utility.yul\":197:198   */\n  0x00\n    /* \"#utility.yul\":194:195   */\n  dup1\n    /* \"#utility.yul\":187:199   */\n  revert\n    /* \"#utility.yul\":334:460   */\ntag_10:\n    /* \"#utility.yul\":371:378   */\n  0x00\n    /* \"#utility.yul\":411:453   */\n  0xffffffffffffffffffffffffffffffffffffffff\n    /* \"#utility.yul\":404:409   */\n  dup3\n    /* \"#utility.yul\":400:454   */\n  and\n    /* \"#utility.yul\":389:454   */\n  swap1\n  pop\n    /* \"#utility.yul\":334:460   */\n  swap2\n  swap1\n  pop\n  jump\t// out\n    /* \"#utility.yul\":466:562   */\ntag_11:\n    /* \"#utility.yul\":503:510   */\n  0x00\n    /* \"#utility.yul\":532:556   */\n  tag_20\n    /* \"#utility.yul\":550:555   */\n  dup3\n    /* \"#utility.yul\":532:556   */\n  tag_10\n  jump\t// in\ntag_20:\n    /* \"#utility.yul\":521:556   */\n  swap1\n  pop\n    /* \"#utility.yul\":466:562   */\n  swap2\n  swap1\n  pop\n  jump\t// out\n    /* \"#utility.yul\":568:690   */\ntag_12:\n    /* \"#utility.yul\":641:665   */\n  tag_22\n    /* \"#utility.yul\":659:664   */\n  dup2\n    /* \"#utility.yul\":641:665   */\n  tag_11\n  jump\t// in\ntag_22:\n    /* \"#utility.yul\":634:639   */\n  dup2\n    /* \"#utility.yul\":631:666   */\n  eq\n    /* \"#utility.yul\":621:684   */\n  tag_23\n  jumpi\n    /* \"#utility.yul\":680:681   */\n  0x00\n    /* \"#utility.yul\":677:678   */\n  dup1\n    /* \"#utility.yul\":670:682   */\n  revert\n    /* \"#utility.yul\":621:684   */\ntag_23:\n    /* \"#utility.yul\":568:690   */\n  pop\n  jump\t// out\n    /* \"#utility.yul\":696:839   */\ntag_13:\n    /* \"#utility.yul\":753:758   */\n  0x00\n    /* \"#utility.yul\":784:790   */\n  dup2\n    /* \"#utility.yul\":778:791   */\n  mload\n    /* \"#utility.yul\":769:791   */\n  swap1\n  pop\n    /* \"#utility.yul\":800:833   */\n  tag_25\n    /* \"#utility.yul\":827:832   */\n  dup2\n    /* \"#utility.yul\":800:833   */\n  tag_12\n  jump\t// in\ntag_25:\n    /* \"#utility.yul\":696:839   */\n  swap3\n  swap2\n  pop\n  pop\n  jump\t// out\n    /* \"#utility.yul\":845:1196   */\ntag_3:\n    /* \"#utility.yul\":915:921   */\n  0x00\n    /* \"#utility.yul\":964:966   */\n  0x20\n    /* \"#utility.yul\":952:961   */\n  dup3\n    /* \"#utility.yul\":943:950   */\n  dup5\n    /* \"#utility.yul\":939:962   */\n  sub\n    /* \"#utility.yul\":935:967   */\n  slt\n    /* \"#utility.yul\":932:1051   */\n  iszero\n  tag_27\n  jumpi\n    /* \"#utility.yul\":970:1049   */\n  tag_28\n  tag_8\n  jump\t// in\ntag_28:\n    /* \"#utility.yul\":932:1051   */\ntag_27:\n    /* \"#utility.yul\":1090:1091   */\n  0x00\n    /* \"#utility.yul\":1115:1179   */\n  tag_29\n    /* \"#utility.yul\":1171:1178   */\n  dup5\n    /* \"#utility.yul\":1162:1168   */\n  dup3\n    /* \"#utility.yul\":1151:1160   */\n  dup6\n    /* \"#utility.yul\":1147:1169   */\n  add\n    /* \"#utility.yul\":1115:1179   */\n  tag_13\n  jump\t// in\ntag_29:\n    /* \"#utility.yul\":1105:1179   */\n  swap2\n  pop\n    /* \"#utility.yul\":1061:1189   */\n  pop\n    /* \"#utility.yul\":845:1196   */\n  swap3\n  swap2\n  pop\n  pop\n  jump\t// out\n    /* \"ExportDepartureLogistics.sol\":383:2356  contract ExportDepartureLogistics {... */\ntag_6:\n  dataSize(sub_0)\n  dup1\n  dataOffset(sub_0)\n  0x00\n  codecopy\n  0x00\n  return\nstop\n\nsub_0: assembly {\n        /* \"ExportDepartureLogistics.sol\":383:2356  contract ExportDepartureLogistics {... */\n      mstore(0x40, 0x80)\n      callvalue\n      dup1\n      iszero\n      tag_1\n      jumpi\n      0x00\n      dup1\n      revert\n    tag_1:\n      pop\n      jumpi(tag_2, lt(calldatasize, 0x04))\n      shr(0xe0, calldataload(0x00))\n      dup1\n      0x0ad3c939\n      eq\n      tag_3\n      jumpi\n      dup1\n      0x0f6bc96b\n      eq\n      tag_4\n      jumpi\n      dup1\n      0x8da5cb5b\n      eq\n      tag_5\n      jumpi\n      dup1\n      0x9c0b7d46\n      eq\n      tag_6\n      jumpi\n      dup1\n      0xbbbf3bac\n      eq\n      tag_7\n      jumpi\n    tag_2:\n      0x00\n      dup1\n      revert\n        /* \"ExportDepartureLogistics.sol\":1874:1997  function getDeparture(uint256 _batchId) public view returns (Departure memory) {... */\n    tag_3:\n      tag_8\n      0x04\n      dup1\n      calldatasize\n      sub\n      dup2\n      add\n      swap1\n      tag_9\n      swap2\n      swap1\n      tag_10\n      jump\t// in\n    tag_9:\n      tag_11\n      jump\t// in\n    tag_8:\n      mload(0x40)\n      tag_12\n      swap2\n      swap1\n      tag_13\n      jump\t// in\n    tag_12:\n      mload(0x40)\n      dup1\n      swap2\n      sub\n      swap1\n      return\n        /* \"ExportDepartureLogistics.sol\":957:1004  mapping(uint256 => Departure) public departures */\n    tag_4:\n      tag_14\n      0x04\n      dup1\n      calldatasize\n      sub\n      dup2\n      add\n      swap1\n      tag_15\n      swap2\n      swap1\n      tag_10\n      jump\t// in\n    tag_15:\n      tag_16\n      jump\t// in\n    tag_14:\n      mload(0x40)\n      tag_17\n      swap6\n      swap5\n      swap4\n      swap3\n      swap2\n      swap1\n      tag_18\n      jump\t// in\n    tag_17:\n      mload(0x40)\n      dup1\n      swap2\n      sub\n      swap1\n      return\n        /* \"ExportDepartureLogistics.sol\":423:443  address public owner */\n    tag_5:\n      tag_19\n      tag_20\n      jump\t// in\n    tag_19:\n      mload(0x40)\n      tag_21\n      swap2\n      swap1\n      tag_22\n      jump\t// in\n    tag_21:\n      mload(0x40)\n      dup1\n      swap2\n      sub\n      swap1\n      return\n        /* \"ExportDepartureLogistics.sol\":449:496  IFarmersBatchRegistration public farmerContract */\n    tag_6:\n      tag_23\n      tag_24\n      jump\t// in\n    tag_23:\n      mload(0x40)\n      tag_25\n      swap2\n      swap1\n      tag_26\n      jump\t// in\n    tag_25:\n      mload(0x40)\n      dup1\n      swap2\n      sub\n      swap1\n      return\n        /* \"ExportDepartureLogistics.sol\":1183:1868  function logDeparture(... */\n    tag_7:\n      tag_27\n      0x04\n      dup1\n      calldatasize\n      sub\n      dup2\n      add\n      swap1\n      tag_28\n      swap2\n      swap1\n      tag_29\n      jump\t// in\n    tag_28:\n      tag_30\n      jump\t// in\n    tag_27:\n      stop\n        /* \"ExportDepartureLogistics.sol\":1874:1997  function getDeparture(uint256 _batchId) public view returns (Departure memory) {... */\n    tag_11:\n        /* \"ExportDepartureLogistics.sol\":1935:1951  Departure memory */\n      tag_31\n      tag_32\n      jump\t// in\n    tag_31:\n        /* \"ExportDepartureLogistics.sol\":1970:1980  departures */\n      0x02\n        /* \"ExportDepartureLogistics.sol\":1970:1990  departures[_batchId] */\n      0x00\n        /* \"ExportDepartureLogistics.sol\":1981:1989  _batchId */\n      dup4\n        /* \"ExportDepartureLogistics.sol\":1970:1990  departures[_batchId] */\n      dup2\n      mstore\n      0x20\n      add\n      swap1\n      dup2\n      mstore\n      0x20\n      add\n      0x00\n      keccak256\n        /* \"ExportDepartureLogistics.sol\":1963:1990  return departures[_batchId] */\n      mload(0x40)\n      dup1\n      0xa0\n      add\n      0x40\n      mstore\n      swap1\n      dup2\n      0x00\n      dup3\n      add\n      sload\n      dup2\n      mstore\n      0x20\n      add\n      0x01\n      dup3\n      add\n      dup1\n      sload\n      tag_34\n      swap1\n      tag_35\n      jump\t// in\n    tag_34:\n      dup1\n      0x1f\n      add\n      0x20\n      dup1\n      swap2\n      div\n      mul\n      0x20\n      add\n      mload(0x40)\n      swap1\n      dup2\n      add\n      0x40\n      mstore\n      dup1\n      swap3\n      swap2\n      swap1\n      dup2\n      dup2\n      mstore\n      0x20\n      add\n      dup3\n      dup1\n      sload\n      tag_36\n      swap1\n      tag_35\n      jump\t// in\n    tag_36:\n      dup1\n      iszero\n      tag_37\n      jumpi\n      dup1\n      0x1f\n      lt\n      tag_38\n      jumpi\n      0x0100\n      dup1\n      dup4\n      sload\n      div\n      mul\n      dup4\n      mstore\n      swap2\n      0x20\n      add\n      swap2\n      jump(tag_37)\n    tag_38:\n      dup3\n      add\n      swap2\n      swap1\n      0x00\n      mstore\n      keccak256(0x00, 0x20)\n      swap1\n    tag_39:\n      dup2\n      sload\n      dup2\n      mstore\n      swap1\n      0x01\n      add\n      swap1\n      0x20\n      add\n      dup1\n      dup4\n      gt\n      tag_39\n      jumpi\n      dup3\n      swap1\n      sub\n      0x1f\n      and\n      dup3\n      add\n      swap2\n    tag_37:\n      pop\n      pop\n      pop\n      pop\n      pop\n      dup2\n      mstore\n      0x20\n      add\n      0x02\n      dup3\n      add\n      dup1\n      sload\n      tag_40\n      swap1\n      tag_35\n      jump\t// in\n    tag_40:\n      dup1\n      0x1f\n      add\n      0x20\n      dup1\n      swap2\n      div\n      mul\n      0x20\n      add\n      mload(0x40)\n      swap1\n      dup2\n      add\n      0x40\n      mstore\n      dup1\n      swap3\n      swap2\n      swap1\n      dup2\n      dup2\n      mstore\n      0x20\n      add\n      dup3\n      dup1\n      sload\n      tag_41\n      swap1\n      tag_35\n      jump\t// in\n    tag_41:\n      dup1\n      iszero\n      tag_42\n      jumpi\n      dup1\n      0x1f\n      lt\n      tag_43\n      jumpi\n      0x0100\n      dup1\n      dup4\n      sload\n      div\n      mul\n      dup4\n      mstore\n      swap2\n      0x20\n      add\n      swap2\n      jump(tag_42)\n    tag_43:\n      dup3\n      add\n      swap2\n      swap1\n      0x00\n      mstore\n      keccak256(0x00, 0x20)\n      swap1\n    tag_44:\n      dup2\n      sload\n      dup2\n      mstore\n      swap1\n      0x01\n      add\n      swap1\n      0x20\n      add\n      dup1\n      dup4\n      gt\n      tag_44\n      jumpi\n      dup3\n      swap1\n      sub\n      0x1f\n      and\n      dup3\n      add\n      swap2\n    tag_42:\n      pop\n      pop\n      pop\n      pop\n      pop\n      dup2\n      mstore\n      0x20\n      add\n      0x03\n      dup3\n      add\n      dup1\n      sload\n      tag_45\n      swap1\n      tag_35\n      jump\t// in\n    tag_45:\n      dup1\n      0x1f\n      add\n      0x20\n      dup1\n      swap2\n      div\n      mul\n      0x20\n      add\n      mload(0x40)\n      swap1\n      dup2\n      add\n      0x40\n      mstore\n      dup1\n      swap3\n      swap2\n      swap1\n      dup2\n      dup2\n      mstore\n      0x20\n      add\n      dup3\n      dup1\n      sload\n      tag_46\n      swap1\n      tag_35\n      jump\t// in\n    tag_46:\n      dup1\n      iszero\n      tag_47\n      jumpi\n      dup1\n      0x1f\n      lt\n      tag_48\n      jumpi\n      0x0100\n      dup1\n      dup4\n      sload\n      div\n      mul\n      dup4\n      mstore\n      swap2\n      0x20\n      add\n      swap2\n      jump(tag_47)\n    tag_48:\n      dup3\n      add\n      swap2\n      swap1\n      0x00\n      mstore\n      keccak256(0x00, 0x20)\n      swap1\n    tag_49:\n      dup2\n      sload\n      dup2\n      mstore\n      swap1\n      0x01\n      add\n      swap1\n      0x20\n      add\n      dup1\n      dup4\n      gt\n      tag_49\n      jumpi\n      dup3\n      swap1\n      sub\n      0x1f\n      and\n      dup3\n      add\n      swap2\n    tag_47:\n      pop\n      pop\n      pop\n      pop\n      pop\n      dup2\n      mstore\n      0x20\n      add\n      0x04\n      dup3\n      add\n      0x00\n      swap1\n      sload\n      swap1\n      0x0100\n      exp\n      swap1\n      div\n      0xff\n      and\n      iszero\n      iszero\n      iszero\n      iszero\n      dup2\n      mstore\n      pop\n      pop\n      swap1\n      pop\n        /* \"ExportDepartureLogistics.sol\":1874:1997  function getDeparture(uint256 _batchId) public view returns (Departure memory) {... */\n      swap2\n      swap1\n      pop\n      jump\t// out\n        /* \"ExportDepartureLogistics.sol\":957:1004  mapping(uint256 => Departure) public departures */\n    tag_16:\n      mstore(0x20, 0x02)\n      dup1\n      0x00\n      mstore\n      keccak256(0x00, 0x40)\n      0x00\n      swap2\n      pop\n      swap1\n      pop\n      dup1\n      0x00\n      add\n      sload\n      swap1\n      dup1\n      0x01\n      add\n      dup1\n      sload\n      tag_50\n      swap1\n      tag_35\n      jump\t// in\n    tag_50:\n      dup1\n      0x1f\n      add\n      0x20\n      dup1\n      swap2\n      div\n      mul\n      0x20\n      add\n      mload(0x40)\n      swap1\n      dup2\n      add\n      0x40\n      mstore\n      dup1\n      swap3\n      swap2\n      swap1\n      dup2\n      dup2\n      mstore\n      0x20\n      add\n      dup3\n      dup1\n      sload\n      tag_51\n      swap1\n      tag_35\n      jump\t// in\n    tag_51:\n      dup1\n      iszero\n      tag_52\n      jumpi\n      dup1\n      0x1f\n      lt\n      tag_53\n      jumpi\n      0x0100\n      dup1\n      dup4\n      sload\n      div\n      mul\n      dup4\n      mstore\n      swap2\n      0x20\n      add\n      swap2\n      jump(tag_52)\n    tag_53:\n      dup3\n      add\n      swap2\n      swap1\n      0x00\n      mstore\n      keccak256(0x00, 0x20)\n      swap1\n    tag_54:\n      dup2\n      sload\n      dup2\n      mstore\n      swap1\n      0x01\n      add\n      swap1\n      0x20\n      add\n      dup1\n      dup4\n      gt\n      tag_54\n      jumpi\n      dup3\n      swap1\n      sub\n      0x1f\n      and\n      dup3\n      add\n      swap2\n    tag_52:\n      pop\n      pop\n      pop\n      pop\n      pop\n      swap1\n      dup1\n      0x02\n      add\n      dup1\n      sload\n      tag_55\n      swap1\n      tag_35\n      jump\t// in\n    tag_55:\n      dup1\n      0x1f\n      add\n      0x20\n      dup1\n      swap2\n      div\n      mul\n      0x20\n      add\n      mload(0x40)\n      swap1\n      dup2\n      add\n      0x40\n      mstore\n      dup1\n      swap3\n      swap2\n      swap1\n      dup2\n      dup2\n      mstore\n      0x20\n      add\n      dup3\n      dup1\n      sload\n      tag_56\n      swap1\n      tag_35\n      jump\t// in\n    tag_56:\n      dup1\n      iszero\n      tag_57\n      jumpi\n      dup1\n      0x1f\n      lt\n      tag_58\n      jumpi\n      0x0100\n      dup1\n      dup4\n      sload\n      div\n      mul\n      dup4\n      mstore\n      swap2\n      0x20\n      add\n      swap2\n      jump(tag_57)\n    tag_58:\n      dup3\n      add\n      swap2\n      swap1\n      0x00\n      mstore\n      keccak256(0x00, 0x20)\n      swap1\n    tag_59:\n      dup2\n      sload\n      dup2\n      mstore\n      swap1\n      0x01\n      add\n      swap1\n      0x20\n      add\n      dup1\n      dup4\n      gt\n      tag_59\n      jumpi\n      dup3\n      swap1\n      sub\n      0x1f\n      and\n      dup3\n      add\n      swap2\n    tag_57:\n      pop\n      pop\n      pop\n      pop\n      pop\n      swap1\n      dup1\n      0x03\n      add\n      dup1\n      sload\n      tag_60\n      swap1\n      tag_35\n      jump\t// in\n    tag_60:\n      dup1\n      0x1f\n      add\n      0x20\n      dup1\n      swap2\n      div\n      mul\n      0x20\n      add\n      mload(0x40)\n      swap1\n      dup2\n      add\n      0x40\n      mstore\n      dup1\n      swap3\n      swap2\n      swap1\n      dup2\n      dup2\n      mstore\n      0x20\n      add\n      dup3\n      dup1\n      sload\n      tag_61\n      swap1\n      tag_35\n      jump\t// in\n    tag_61:\n      dup1\n      iszero\n      tag_62\n      jumpi\n      dup1\n      0x1f\n      lt\n      tag_63\n      jumpi\n      0x0100\n      dup1\n      dup4\n      sload\n      div\n      mul\n      dup4\n      mstore\n      swap2\n      0x20\n      add\n      swap2\n      jump(tag_62)\n    tag_63:\n      dup3\n      add\n      swap2\n      swap1\n      0x00\n      mstore\n      keccak256(0x00, 0x20)\n      swap1\n    tag_64:\n      dup2\n      sload\n      dup2\n      mstore\n      swap1\n      0x01\n      add\n      swap1\n      0x20\n      add\n      dup1\n      dup4\n      gt\n      tag_64\n      jumpi\n      dup3\n      swap1\n      sub\n      0x1f\n      and\n      dup3\n      add\n      swap2\n    tag_62:\n      pop\n      pop\n      pop\n      pop\n      pop\n      swap1\n      dup1\n      0x04\n      add\n      0x00\n      swap1\n      sload\n      swap1\n      0x0100\n      exp\n      swap1\n      div\n      0xff\n      and\n      swap1\n      pop\n      dup6\n      jump\t// out\n        /* \"ExportDepartureLogistics.sol\":423:443  address public owner */\n    tag_20:\n      0x00\n      dup1\n      sload\n      swap1\n      0x0100\n      exp\n      swap1\n      div\n      0xffffffffffffffffffffffffffffffffffffffff\n      and\n      dup2\n      jump\t// out\n        /* \"ExportDepartureLogistics.sol\":449:496  IFarmersBatchRegistration public farmerContract */\n    tag_24:\n      0x01\n      0x00\n      swap1\n      sload\n      swap1\n      0x0100\n      exp\n      swap1\n      div\n      0xffffffffffffffffffffffffffffffffffffffff\n      and\n      dup2\n      jump\t// out\n        /* \"ExportDepartureLogistics.sol\":1183:1868  function logDeparture(... */\n    tag_30:\n        /* \"ExportDepartureLogistics.sol\":720:725  owner */\n      0x00\n      dup1\n      sload\n      swap1\n      0x0100\n      exp\n      swap1\n      div\n      0xffffffffffffffffffffffffffffffffffffffff\n      and\n        /* \"ExportDepartureLogistics.sol\":706:725  msg.sender == owner */\n      0xffffffffffffffffffffffffffffffffffffffff\n      and\n        /* \"ExportDepartureLogistics.sol\":706:716  msg.sender */\n      caller\n        /* \"ExportDepartureLogistics.sol\":706:725  msg.sender == owner */\n      0xffffffffffffffffffffffffffffffffffffffff\n      and\n      eq\n        /* \"ExportDepartureLogistics.sol\":698:770  require(msg.sender == owner, \"Only verified exporter can log departure\") */\n      tag_66\n      jumpi\n      mload(0x40)\n      0x08c379a000000000000000000000000000000000000000000000000000000000\n      dup2\n      mstore\n      0x04\n      add\n      tag_67\n      swap1\n      tag_68\n      jump\t// in\n    tag_67:\n      mload(0x40)\n      dup1\n      swap2\n      sub\n      swap1\n      revert\n    tag_66:\n        /* \"ExportDepartureLogistics.sol\":1387:1397  departures */\n      0x02\n        /* \"ExportDepartureLogistics.sol\":1387:1407  departures[_batchId] */\n      0x00\n        /* \"ExportDepartureLogistics.sol\":1398:1406  _batchId */\n      dup6\n        /* \"ExportDepartureLogistics.sol\":1387:1407  departures[_batchId] */\n      dup2\n      mstore\n      0x20\n      add\n      swap1\n      dup2\n      mstore\n      0x20\n      add\n      0x00\n      keccak256\n        /* \"ExportDepartureLogistics.sol\":1387:1414  departures[_batchId].logged */\n      0x04\n      add\n      0x00\n      swap1\n      sload\n      swap1\n      0x0100\n      exp\n      swap1\n      div\n      0xff\n      and\n        /* \"ExportDepartureLogistics.sol\":1386:1414  !departures[_batchId].logged */\n      iszero\n        /* \"ExportDepartureLogistics.sol\":1378:1443  require(!departures[_batchId].logged, \"Departure already logged\") */\n      tag_70\n      jumpi\n      mload(0x40)\n      0x08c379a000000000000000000000000000000000000000000000000000000000\n      dup2\n      mstore\n      0x04\n      add\n      tag_71\n      swap1\n      tag_72\n      jump\t// in\n    tag_71:\n      mload(0x40)\n      dup1\n      swap2\n      sub\n      swap1\n      revert\n    tag_70:\n        /* \"ExportDepartureLogistics.sol\":1461:1486  _isValidBatchId(_batchId) */\n      tag_73\n        /* \"ExportDepartureLogistics.sol\":1477:1485  _batchId */\n      dup5\n        /* \"ExportDepartureLogistics.sol\":1461:1476  _isValidBatchId */\n      tag_74\n        /* \"ExportDepartureLogistics.sol\":1461:1486  _isValidBatchId(_batchId) */\n      jump\t// in\n    tag_73:\n        /* \"ExportDepartureLogistics.sol\":1453:1528  require(_isValidBatchId(_batchId), \"Batch ID not found in farmer contract\") */\n      tag_75\n      jumpi\n      mload(0x40)\n      0x08c379a000000000000000000000000000000000000000000000000000000000\n      dup2\n      mstore\n      0x04\n      add\n      tag_76\n      swap1\n      tag_77\n      jump\t// in\n    tag_76:\n      mload(0x40)\n      dup1\n      swap2\n      sub\n      swap1\n      revert\n    tag_75:\n        /* \"ExportDepartureLogistics.sol\":1562:1763  Departure({... */\n      mload(0x40)\n      dup1\n      0xa0\n      add\n      0x40\n      mstore\n      dup1\n        /* \"ExportDepartureLogistics.sol\":1595:1603  _batchId */\n      dup6\n        /* \"ExportDepartureLogistics.sol\":1562:1763  Departure({... */\n      dup2\n      mstore\n      0x20\n      add\n        /* \"ExportDepartureLogistics.sol\":1632:1646  _transportType */\n      dup5\n        /* \"ExportDepartureLogistics.sol\":1562:1763  Departure({... */\n      dup2\n      mstore\n      0x20\n      add\n        /* \"ExportDepartureLogistics.sol\":1672:1683  _originPort */\n      dup4\n        /* \"ExportDepartureLogistics.sol\":1562:1763  Departure({... */\n      dup2\n      mstore\n      0x20\n      add\n        /* \"ExportDepartureLogistics.sol\":1712:1726  _departureDate */\n      dup3\n        /* \"ExportDepartureLogistics.sol\":1562:1763  Departure({... */\n      dup2\n      mstore\n      0x20\n      add\n        /* \"ExportDepartureLogistics.sol\":1748:1752  true */\n      0x01\n        /* \"ExportDepartureLogistics.sol\":1562:1763  Departure({... */\n      iszero\n      iszero\n      dup2\n      mstore\n      pop\n        /* \"ExportDepartureLogistics.sol\":1539:1549  departures */\n      0x02\n        /* \"ExportDepartureLogistics.sol\":1539:1559  departures[_batchId] */\n      0x00\n        /* \"ExportDepartureLogistics.sol\":1550:1558  _batchId */\n      dup7\n        /* \"ExportDepartureLogistics.sol\":1539:1559  departures[_batchId] */\n      dup2\n      mstore\n      0x20\n      add\n      swap1\n      dup2\n      mstore\n      0x20\n      add\n      0x00\n      keccak256\n        /* \"ExportDepartureLogistics.sol\":1539:1763  departures[_batchId] = Departure({... */\n      0x00\n      dup3\n      add\n      mload\n      dup2\n      0x00\n      add\n      sstore\n      0x20\n      dup3\n      add\n      mload\n      dup2\n      0x01\n      add\n      swap1\n      dup2\n      tag_78\n      swap2\n      swap1\n      tag_79\n      jump\t// in\n    tag_78:\n      pop\n      0x40\n      dup3\n      add\n      mload\n      dup2\n      0x02\n      add\n      swap1\n      dup2\n      tag_80\n      swap2\n      swap1\n      tag_79\n      jump\t// in\n    tag_80:\n      pop\n      0x60\n      dup3\n      add\n      mload\n      dup2\n      0x03\n      add\n      swap1\n      dup2\n      tag_81\n      swap2\n      swap1\n      tag_79\n      jump\t// in\n    tag_81:\n      pop\n      0x80\n      dup3\n      add\n      mload\n      dup2\n      0x04\n      add\n      exp(0x0100, 0x00)\n      dup2\n      sload\n      dup2\n      0xff\n      mul\n      not\n      and\n      swap1\n      dup4\n      iszero\n      iszero\n      mul\n      or\n      swap1\n      sstore\n      pop\n      swap1\n      pop\n      pop\n        /* \"ExportDepartureLogistics.sol\":1779:1861  DepartureLogged(_batchId, _transportType, _originPort, _departureDate, msg.sender) */\n      0xa0b3c98bd0e328776668e753573fd7fddb2d27d8278c9a794c19d87f85dea04c\n        /* \"ExportDepartureLogistics.sol\":1795:1803  _batchId */\n      dup5\n        /* \"ExportDepartureLogistics.sol\":1805:1819  _transportType */\n      dup5\n        /* \"ExportDepartureLogistics.sol\":1821:1832  _originPort */\n      dup5\n        /* \"ExportDepartureLogistics.sol\":1834:1848  _departureDate */\n      dup5\n        /* \"ExportDepartureLogistics.sol\":1850:1860  msg.sender */\n      caller\n        /* \"ExportDepartureLogistics.sol\":1779:1861  DepartureLogged(_batchId, _transportType, _originPort, _departureDate, msg.sender) */\n      mload(0x40)\n      tag_82\n      swap6\n      swap5\n      swap4\n      swap3\n      swap2\n      swap1\n      tag_83\n      jump\t// in\n    tag_82:\n      mload(0x40)\n      dup1\n      swap2\n      sub\n      swap1\n      log1\n        /* \"ExportDepartureLogistics.sol\":1183:1868  function logDeparture(... */\n      pop\n      pop\n      pop\n      pop\n      jump\t// out\n        /* \"ExportDepartureLogistics.sol\":2003:2354  function _isValidBatchId(uint256 _batchId) internal view returns (bool) {... */\n    tag_74:\n        /* \"ExportDepartureLogistics.sol\":2069:2073  bool */\n      0x00\n        /* \"ExportDepartureLogistics.sol\":2085:2098  uint256 count */\n      dup1\n        /* \"ExportDepartureLogistics.sol\":2101:2115  farmerContract */\n      0x01\n      0x00\n      swap1\n      sload\n      swap1\n      0x0100\n      exp\n      swap1\n      div\n      0xffffffffffffffffffffffffffffffffffffffff\n      and\n        /* \"ExportDepartureLogistics.sol\":2101:2129  farmerContract.getBatchCount */\n      0xffffffffffffffffffffffffffffffffffffffff\n      and\n      0xa8fabfa5\n        /* \"ExportDepartureLogistics.sol\":2101:2131  farmerContract.getBatchCount() */\n      mload(0x40)\n      dup2\n      0xffffffff\n      and\n      0xe0\n      shl\n      dup2\n      mstore\n      0x04\n      add\n      0x20\n      mload(0x40)\n      dup1\n      dup4\n      sub\n      dup2\n      dup7\n      gas\n      staticcall\n      iszero\n      dup1\n      iszero\n      tag_86\n      jumpi\n      returndatasize\n      0x00\n      dup1\n      returndatacopy\n      revert(0x00, returndatasize)\n    tag_86:\n      pop\n      pop\n      pop\n      pop\n      mload(0x40)\n      returndatasize\n      not(0x1f)\n      0x1f\n      dup3\n      add\n      and\n      dup3\n      add\n      dup1\n      0x40\n      mstore\n      pop\n      dup2\n      add\n      swap1\n      tag_87\n      swap2\n      swap1\n      tag_88\n      jump\t// in\n    tag_87:\n        /* \"ExportDepartureLogistics.sol\":2085:2131  uint256 count = farmerContract.getBatchCount() */\n      swap1\n      pop\n        /* \"ExportDepartureLogistics.sol\":2146:2155  uint256 i */\n      0x00\n        /* \"ExportDepartureLogistics.sol\":2141:2326  for (uint256 i = 0; i < count; i++) {... */\n    tag_89:\n        /* \"ExportDepartureLogistics.sol\":2165:2170  count */\n      dup2\n        /* \"ExportDepartureLogistics.sol\":2161:2162  i */\n      dup2\n        /* \"ExportDepartureLogistics.sol\":2161:2170  i < count */\n      lt\n        /* \"ExportDepartureLogistics.sol\":2141:2326  for (uint256 i = 0; i < count; i++) {... */\n      iszero\n      tag_90\n      jumpi\n        /* \"ExportDepartureLogistics.sol\":2192:2202  uint256 id */\n      0x00\n        /* \"ExportDepartureLogistics.sol\":2212:2226  farmerContract */\n      0x01\n      0x00\n      swap1\n      sload\n      swap1\n      0x0100\n      exp\n      swap1\n      div\n      0xffffffffffffffffffffffffffffffffffffffff\n      and\n        /* \"ExportDepartureLogistics.sol\":2212:2235  farmerContract.getBatch */\n      0xffffffffffffffffffffffffffffffffffffffff\n      and\n      0x5ac44282\n        /* \"ExportDepartureLogistics.sol\":2236:2237  i */\n      dup4\n        /* \"ExportDepartureLogistics.sol\":2212:2238  farmerContract.getBatch(i) */\n      mload(0x40)\n      dup3\n      0xffffffff\n      and\n      0xe0\n      shl\n      dup2\n      mstore\n      0x04\n      add\n      tag_92\n      swap2\n      swap1\n      tag_93\n      jump\t// in\n    tag_92:\n      0x00\n      mload(0x40)\n      dup1\n      dup4\n      sub\n      dup2\n      dup7\n      gas\n      staticcall\n      iszero\n      dup1\n      iszero\n      tag_95\n      jumpi\n      returndatasize\n      0x00\n      dup1\n      returndatacopy\n      revert(0x00, returndatasize)\n    tag_95:\n      pop\n      pop\n      pop\n      pop\n      mload(0x40)\n      returndatasize\n      0x00\n      dup3\n      returndatacopy\n      returndatasize\n      not(0x1f)\n      0x1f\n      dup3\n      add\n      and\n      dup3\n      add\n      dup1\n      0x40\n      mstore\n      pop\n      dup2\n      add\n      swap1\n      tag_96\n      swap2\n      swap1\n      tag_97\n      jump\t// in\n    tag_96:\n        /* \"ExportDepartureLogistics.sol\":2191:2238  (uint256 id,,,,,,) = farmerContract.getBatch(i) */\n      pop\n      pop\n      pop\n      pop\n      pop\n      pop\n      swap1\n      pop\n        /* \"ExportDepartureLogistics.sol\":2262:2270  _batchId */\n      dup5\n        /* \"ExportDepartureLogistics.sol\":2256:2258  id */\n      dup2\n        /* \"ExportDepartureLogistics.sol\":2256:2270  id == _batchId */\n      sub\n        /* \"ExportDepartureLogistics.sol\":2252:2316  if (id == _batchId) {... */\n      tag_98\n      jumpi\n        /* \"ExportDepartureLogistics.sol\":2297:2301  true */\n      0x01\n        /* \"ExportDepartureLogistics.sol\":2290:2301  return true */\n      swap4\n      pop\n      pop\n      pop\n      pop\n      jump(tag_84)\n        /* \"ExportDepartureLogistics.sol\":2252:2316  if (id == _batchId) {... */\n    tag_98:\n        /* \"ExportDepartureLogistics.sol\":2177:2326  {... */\n      pop\n        /* \"ExportDepartureLogistics.sol\":2172:2175  i++ */\n      dup1\n      dup1\n      0x01\n      add\n      swap2\n      pop\n      pop\n        /* \"ExportDepartureLogistics.sol\":2141:2326  for (uint256 i = 0; i < count; i++) {... */\n      jump(tag_89)\n    tag_90:\n      pop\n        /* \"ExportDepartureLogistics.sol\":2342:2347  false */\n      0x00\n        /* \"ExportDepartureLogistics.sol\":2335:2347  return false */\n      swap2\n      pop\n      pop\n        /* \"ExportDepartureLogistics.sol\":2003:2354  function _isValidBatchId(uint256 _batchId) internal view returns (bool) {... */\n    tag_84:\n      swap2\n      swap1\n      pop\n      jump\t// out\n    tag_32:\n      mload(0x40)\n      dup1\n      0xa0\n      add\n      0x40\n      mstore\n      dup1\n      0x00\n      dup2\n      mstore\n      0x20\n      add\n      0x60\n      dup2\n      mstore\n      0x20\n      add\n      0x60\n      dup2\n      mstore\n      0x20\n      add\n      0x60\n      dup2\n      mstore\n      0x20\n      add\n      iszero(iszero(0x00))\n      dup2\n      mstore\n      pop\n      swap1\n      jump\t// out\n        /* \"#utility.yul\":7:82   */\n    tag_99:\n        /* \"#utility.yul\":40:46   */\n      0x00\n        /* \"#utility.yul\":73:75   */\n      0x40\n        /* \"#utility.yul\":67:76   */\n      mload\n        /* \"#utility.yul\":57:76   */\n      swap1\n      pop\n        /* \"#utility.yul\":7:82   */\n      swap1\n      jump\t// out\n        /* \"#utility.yul\":88:205   */\n    tag_100:\n        /* \"#utility.yul\":197:198   */\n      0x00\n        /* \"#utility.yul\":194:195   */\n      dup1\n        /* \"#utility.yul\":187:199   */\n      revert\n        /* \"#utility.yul\":211:328   */\n    tag_101:\n        /* \"#utility.yul\":320:321   */\n      0x00\n        /* \"#utility.yul\":317:318   */\n      dup1\n        /* \"#utility.yul\":310:322   */\n      revert\n        /* \"#utility.yul\":334:411   */\n    tag_102:\n        /* \"#utility.yul\":371:378   */\n      0x00\n        /* \"#utility.yul\":400:405   */\n      dup2\n        /* \"#utility.yul\":389:405   */\n      swap1\n      pop\n        /* \"#utility.yul\":334:411   */\n      swap2\n      swap1\n      pop\n      jump\t// out\n        /* \"#utility.yul\":417:539   */\n    tag_103:\n        /* \"#utility.yul\":490:514   */\n      tag_165\n        /* \"#utility.yul\":508:513   */\n      dup2\n        /* \"#utility.yul\":490:514   */\n      tag_102\n      jump\t// in\n    tag_165:\n        /* \"#utility.yul\":483:488   */\n      dup2\n        /* \"#utility.yul\":480:515   */\n      eq\n        /* \"#utility.yul\":470:533   */\n      tag_166\n      jumpi\n        /* \"#utility.yul\":529:530   */\n      0x00\n        /* \"#utility.yul\":526:527   */\n      dup1\n        /* \"#utility.yul\":519:531   */\n      revert\n        /* \"#utility.yul\":470:533   */\n    tag_166:\n        /* \"#utility.yul\":417:539   */\n      pop\n      jump\t// out\n        /* \"#utility.yul\":545:684   */\n    tag_104:\n        /* \"#utility.yul\":591:596   */\n      0x00\n        /* \"#utility.yul\":629:635   */\n      dup2\n        /* \"#utility.yul\":616:636   */\n      calldataload\n        /* \"#utility.yul\":607:636   */\n      swap1\n      pop\n        /* \"#utility.yul\":645:678   */\n      tag_168\n        /* \"#utility.yul\":672:677   */\n      dup2\n        /* \"#utility.yul\":645:678   */\n      tag_103\n      jump\t// in\n    tag_168:\n        /* \"#utility.yul\":545:684   */\n      swap3\n      swap2\n      pop\n      pop\n      jump\t// out\n        /* \"#utility.yul\":690:1019   */\n    tag_10:\n        /* \"#utility.yul\":749:755   */\n      0x00\n        /* \"#utility.yul\":798:800   */\n      0x20\n        /* \"#utility.yul\":786:795   */\n      dup3\n        /* \"#utility.yul\":777:784   */\n      dup5\n        /* \"#utility.yul\":773:796   */\n      sub\n        /* \"#utility.yul\":769:801   */\n      slt\n        /* \"#utility.yul\":766:885   */\n      iszero\n      tag_170\n      jumpi\n        /* \"#utility.yul\":804:883   */\n      tag_171\n      tag_100\n      jump\t// in\n    tag_171:\n        /* \"#utility.yul\":766:885   */\n    tag_170:\n        /* \"#utility.yul\":924:925   */\n      0x00\n        /* \"#utility.yul\":949:1002   */\n      tag_172\n        /* \"#utility.yul\":994:1001   */\n      dup5\n        /* \"#utility.yul\":985:991   */\n      dup3\n        /* \"#utility.yul\":974:983   */\n      dup6\n        /* \"#utility.yul\":970:992   */\n      add\n        /* \"#utility.yul\":949:1002   */\n      tag_104\n      jump\t// in\n    tag_172:\n        /* \"#utility.yul\":939:1002   */\n      swap2\n      pop\n        /* \"#utility.yul\":895:1012   */\n      pop\n        /* \"#utility.yul\":690:1019   */\n      swap3\n      swap2\n      pop\n      pop\n      jump\t// out\n        /* \"#utility.yul\":1025:1133   */\n    tag_105:\n        /* \"#utility.yul\":1102:1126   */\n      tag_174\n        /* \"#utility.yul\":1120:1125   */\n      dup2\n        /* \"#utility.yul\":1102:1126   */\n      tag_102\n      jump\t// in\n    tag_174:\n        /* \"#utility.yul\":1097:1100   */\n      dup3\n        /* \"#utility.yul\":1090:1127   */\n      mstore\n        /* \"#utility.yul\":1025:1133   */\n      pop\n      pop\n      jump\t// out\n        /* \"#utility.yul\":1139:1238   */\n    tag_106:\n        /* \"#utility.yul\":1191:1197   */\n      0x00\n        /* \"#utility.yul\":1225:1230   */\n      dup2\n        /* \"#utility.yul\":1219:1231   */\n      mload\n        /* \"#utility.yul\":1209:1231   */\n      swap1\n      pop\n        /* \"#utility.yul\":1139:1238   */\n      swap2\n      swap1\n      pop\n      jump\t// out\n        /* \"#utility.yul\":1244:1403   */\n    tag_107:\n        /* \"#utility.yul\":1318:1329   */\n      0x00\n        /* \"#utility.yul\":1352:1358   */\n      dup3\n        /* \"#utility.yul\":1347:1350   */\n      dup3\n        /* \"#utility.yul\":1340:1359   */\n      mstore\n        /* \"#utility.yul\":1392:1396   */\n      0x20\n        /* \"#utility.yul\":1387:1390   */\n      dup3\n        /* \"#utility.yul\":1383:1397   */\n      add\n        /* \"#utility.yul\":1368:1397   */\n      swap1\n      pop\n        /* \"#utility.yul\":1244:1403   */\n      swap3\n      swap2\n      pop\n      pop\n      jump\t// out\n        /* \"#utility.yul\":1409:1548   */\n    tag_108:\n        /* \"#utility.yul\":1498:1504   */\n      dup3\n        /* \"#utility.yul\":1493:1496   */\n      dup2\n        /* \"#utility.yul\":1488:1491   */\n      dup4\n        /* \"#utility.yul\":1482:1505   */\n      mcopy\n        /* \"#utility.yul\":1539:1540   */\n      0x00\n        /* \"#utility.yul\":1530:1536   */\n      dup4\n        /* \"#utility.yul\":1525:1528   */\n      dup4\n        /* \"#utility.yul\":1521:1537   */\n      add\n        /* \"#utility.yul\":1514:1541   */\n      mstore\n        /* \"#utility.yul\":1409:1548   */\n      pop\n      pop\n      pop\n      jump\t// out\n        /* \"#utility.yul\":1554:1656   */\n    tag_109:\n        /* \"#utility.yul\":1595:1601   */\n      0x00\n        /* \"#utility.yul\":1646:1648   */\n      0x1f\n        /* \"#utility.yul\":1642:1649   */\n      not\n        /* \"#utility.yul\":1637:1639   */\n      0x1f\n        /* \"#utility.yul\":1630:1635   */\n      dup4\n        /* \"#utility.yul\":1626:1640   */\n      add\n        /* \"#utility.yul\":1622:1650   */\n      and\n        /* \"#utility.yul\":1612:1650   */\n      swap1\n      pop\n        /* \"#utility.yul\":1554:1656   */\n      swap2\n      swap1\n      pop\n      jump\t// out\n        /* \"#utility.yul\":1662:2019   */\n    tag_110:\n        /* \"#utility.yul\":1740:1743   */\n      0x00\n        /* \"#utility.yul\":1768:1807   */\n      tag_180\n        /* \"#utility.yul\":1801:1806   */\n      dup3\n        /* \"#utility.yul\":1768:1807   */\n      tag_106\n      jump\t// in\n    tag_180:\n        /* \"#utility.yul\":1823:1884   */\n      tag_181\n        /* \"#utility.yul\":1877:1883   */\n      dup2\n        /* \"#utility.yul\":1872:1875   */\n      dup6\n        /* \"#utility.yul\":1823:1884   */\n      tag_107\n      jump\t// in\n    tag_181:\n        /* \"#utility.yul\":1816:1884   */\n      swap4\n      pop\n        /* \"#utility.yul\":1893:1958   */\n      tag_182\n        /* \"#utility.yul\":1951:1957   */\n      dup2\n        /* \"#utility.yul\":1946:1949   */\n      dup6\n        /* \"#utility.yul\":1939:1943   */\n      0x20\n        /* \"#utility.yul\":1932:1937   */\n      dup7\n        /* \"#utility.yul\":1928:1944   */\n      add\n        /* \"#utility.yul\":1893:1958   */\n      tag_108\n      jump\t// in\n    tag_182:\n        /* \"#utility.yul\":1983:2012   */\n      tag_183\n        /* \"#utility.yul\":2005:2011   */\n      dup2\n        /* \"#utility.yul\":1983:2012   */\n      tag_109\n      jump\t// in\n    tag_183:\n        /* \"#utility.yul\":1978:1981   */\n      dup5\n        /* \"#utility.yul\":1974:2013   */\n      add\n        /* \"#utility.yul\":1967:2013   */\n      swap2\n      pop\n        /* \"#utility.yul\":1744:2019   */\n      pop\n        /* \"#utility.yul\":1662:2019   */\n      swap3\n      swap2\n      pop\n      pop\n      jump\t// out\n        /* \"#utility.yul\":2025:2115   */\n    tag_111:\n        /* \"#utility.yul\":2059:2066   */\n      0x00\n        /* \"#utility.yul\":2102:2107   */\n      dup2\n        /* \"#utility.yul\":2095:2108   */\n      iszero\n        /* \"#utility.yul\":2088:2109   */\n      iszero\n        /* \"#utility.yul\":2077:2109   */\n      swap1\n      pop\n        /* \"#utility.yul\":2025:2115   */\n      swap2\n      swap1\n      pop\n      jump\t// out\n        /* \"#utility.yul\":2121:2220   */\n    tag_112:\n        /* \"#utility.yul\":2192:2213   */\n      tag_186\n        /* \"#utility.yul\":2207:2212   */\n      dup2\n        /* \"#utility.yul\":2192:2213   */\n      tag_111\n      jump\t// in\n    tag_186:\n        /* \"#utility.yul\":2187:2190   */\n      dup3\n        /* \"#utility.yul\":2180:2214   */\n      mstore\n        /* \"#utility.yul\":2121:2220   */\n      pop\n      pop\n      jump\t// out\n        /* \"#utility.yul\":2320:3613   */\n    tag_113:\n        /* \"#utility.yul\":2439:2442   */\n      0x00\n        /* \"#utility.yul\":2475:2479   */\n      0xa0\n        /* \"#utility.yul\":2470:2473   */\n      dup4\n        /* \"#utility.yul\":2466:2480   */\n      add\n        /* \"#utility.yul\":2565:2569   */\n      0x00\n        /* \"#utility.yul\":2558:2563   */\n      dup4\n        /* \"#utility.yul\":2554:2570   */\n      add\n        /* \"#utility.yul\":2548:2571   */\n      mload\n        /* \"#utility.yul\":2584:2647   */\n      tag_188\n        /* \"#utility.yul\":2641:2645   */\n      0x00\n        /* \"#utility.yul\":2636:2639   */\n      dup7\n        /* \"#utility.yul\":2632:2646   */\n      add\n        /* \"#utility.yul\":2618:2630   */\n      dup3\n        /* \"#utility.yul\":2584:2647   */\n      tag_105\n      jump\t// in\n    tag_188:\n        /* \"#utility.yul\":2490:2657   */\n      pop\n        /* \"#utility.yul\":2748:2752   */\n      0x20\n        /* \"#utility.yul\":2741:2746   */\n      dup4\n        /* \"#utility.yul\":2737:2753   */\n      add\n        /* \"#utility.yul\":2731:2754   */\n      mload\n        /* \"#utility.yul\":2801:2804   */\n      dup5\n        /* \"#utility.yul\":2795:2799   */\n      dup3\n        /* \"#utility.yul\":2791:2805   */\n      sub\n        /* \"#utility.yul\":2784:2788   */\n      0x20\n        /* \"#utility.yul\":2779:2782   */\n      dup7\n        /* \"#utility.yul\":2775:2789   */\n      add\n        /* \"#utility.yul\":2768:2806   */\n      mstore\n        /* \"#utility.yul\":2827:2900   */\n      tag_189\n        /* \"#utility.yul\":2895:2899   */\n      dup3\n        /* \"#utility.yul\":2881:2893   */\n      dup3\n        /* \"#utility.yul\":2827:2900   */\n      tag_110\n      jump\t// in\n    tag_189:\n        /* \"#utility.yul\":2819:2900   */\n      swap2\n      pop\n        /* \"#utility.yul\":2667:2911   */\n      pop\n        /* \"#utility.yul\":2999:3003   */\n      0x40\n        /* \"#utility.yul\":2992:2997   */\n      dup4\n        /* \"#utility.yul\":2988:3004   */\n      add\n        /* \"#utility.yul\":2982:3005   */\n      mload\n        /* \"#utility.yul\":3052:3055   */\n      dup5\n        /* \"#utility.yul\":3046:3050   */\n      dup3\n        /* \"#utility.yul\":3042:3056   */\n      sub\n        /* \"#utility.yul\":3035:3039   */\n      0x40\n        /* \"#utility.yul\":3030:3033   */\n      dup7\n        /* \"#utility.yul\":3026:3040   */\n      add\n        /* \"#utility.yul\":3019:3057   */\n      mstore\n        /* \"#utility.yul\":3078:3151   */\n      tag_190\n        /* \"#utility.yul\":3146:3150   */\n      dup3\n        /* \"#utility.yul\":3132:3144   */\n      dup3\n        /* \"#utility.yul\":3078:3151   */\n      tag_110\n      jump\t// in\n    tag_190:\n        /* \"#utility.yul\":3070:3151   */\n      swap2\n      pop\n        /* \"#utility.yul\":2921:3162   */\n      pop\n        /* \"#utility.yul\":3253:3257   */\n      0x60\n        /* \"#utility.yul\":3246:3251   */\n      dup4\n        /* \"#utility.yul\":3242:3258   */\n      add\n        /* \"#utility.yul\":3236:3259   */\n      mload\n        /* \"#utility.yul\":3306:3309   */\n      dup5\n        /* \"#utility.yul\":3300:3304   */\n      dup3\n        /* \"#utility.yul\":3296:3310   */\n      sub\n        /* \"#utility.yul\":3289:3293   */\n      0x60\n        /* \"#utility.yul\":3284:3287   */\n      dup7\n        /* \"#utility.yul\":3280:3294   */\n      add\n        /* \"#utility.yul\":3273:3311   */\n      mstore\n        /* \"#utility.yul\":3332:3405   */\n      tag_191\n        /* \"#utility.yul\":3400:3404   */\n      dup3\n        /* \"#utility.yul\":3386:3398   */\n      dup3\n        /* \"#utility.yul\":3332:3405   */\n      tag_110\n      jump\t// in\n    tag_191:\n        /* \"#utility.yul\":3324:3405   */\n      swap2\n      pop\n        /* \"#utility.yul\":3172:3416   */\n      pop\n        /* \"#utility.yul\":3500:3504   */\n      0x80\n        /* \"#utility.yul\":3493:3498   */\n      dup4\n        /* \"#utility.yul\":3489:3505   */\n      add\n        /* \"#utility.yul\":3483:3506   */\n      mload\n        /* \"#utility.yul\":3519:3576   */\n      tag_192\n        /* \"#utility.yul\":3570:3574   */\n      0x80\n        /* \"#utility.yul\":3565:3568   */\n      dup7\n        /* \"#utility.yul\":3561:3575   */\n      add\n        /* \"#utility.yul\":3547:3559   */\n      dup3\n        /* \"#utility.yul\":3519:3576   */\n      tag_112\n      jump\t// in\n    tag_192:\n        /* \"#utility.yul\":3426:3586   */\n      pop\n        /* \"#utility.yul\":3603:3607   */\n      dup1\n        /* \"#utility.yul\":3596:3607   */\n      swap2\n      pop\n        /* \"#utility.yul\":2444:3613   */\n      pop\n        /* \"#utility.yul\":2320:3613   */\n      swap3\n      swap2\n      pop\n      pop\n      jump\t// out\n        /* \"#utility.yul\":3619:3992   */\n    tag_13:\n        /* \"#utility.yul\":3762:3766   */\n      0x00\n        /* \"#utility.yul\":3800:3802   */\n      0x20\n        /* \"#utility.yul\":3789:3798   */\n      dup3\n        /* \"#utility.yul\":3785:3803   */\n      add\n        /* \"#utility.yul\":3777:3803   */\n      swap1\n      pop\n        /* \"#utility.yul\":3849:3858   */\n      dup2\n        /* \"#utility.yul\":3843:3847   */\n      dup2\n        /* \"#utility.yul\":3839:3859   */\n      sub\n        /* \"#utility.yul\":3835:3836   */\n      0x00\n        /* \"#utility.yul\":3824:3833   */\n      dup4\n        /* \"#utility.yul\":3820:3837   */\n      add\n        /* \"#utility.yul\":3813:3860   */\n      mstore\n        /* \"#utility.yul\":3877:3985   */\n      tag_194\n        /* \"#utility.yul\":3980:3984   */\n      dup2\n        /* \"#utility.yul\":3971:3977   */\n      dup5\n        /* \"#utility.yul\":3877:3985   */\n      tag_113\n      jump\t// in\n    tag_194:\n        /* \"#utility.yul\":3869:3985   */\n      swap1\n      pop\n        /* \"#utility.yul\":3619:3992   */\n      swap3\n      swap2\n      pop\n      pop\n      jump\t// out\n        /* \"#utility.yul\":3998:4116   */\n    tag_114:\n        /* \"#utility.yul\":4085:4109   */\n      tag_196\n        /* \"#utility.yul\":4103:4108   */\n      dup2\n        /* \"#utility.yul\":4085:4109   */\n      tag_102\n      jump\t// in\n    tag_196:\n        /* \"#utility.yul\":4080:4083   */\n      dup3\n        /* \"#utility.yul\":4073:4110   */\n      mstore\n        /* \"#utility.yul\":3998:4116   */\n      pop\n      pop\n      jump\t// out\n        /* \"#utility.yul\":4122:4291   */\n    tag_115:\n        /* \"#utility.yul\":4206:4217   */\n      0x00\n        /* \"#utility.yul\":4240:4246   */\n      dup3\n        /* \"#utility.yul\":4235:4238   */\n      dup3\n        /* \"#utility.yul\":4228:4247   */\n      mstore\n        /* \"#utility.yul\":4280:4284   */\n      0x20\n        /* \"#utility.yul\":4275:4278   */\n      dup3\n        /* \"#utility.yul\":4271:4285   */\n      add\n        /* \"#utility.yul\":4256:4285   */\n      swap1\n      pop\n        /* \"#utility.yul\":4122:4291   */\n      swap3\n      swap2\n      pop\n      pop\n      jump\t// out\n        /* \"#utility.yul\":4297:4674   */\n    tag_116:\n        /* \"#utility.yul\":4385:4388   */\n      0x00\n        /* \"#utility.yul\":4413:4452   */\n      tag_199\n        /* \"#utility.yul\":4446:4451   */\n      dup3\n        /* \"#utility.yul\":4413:4452   */\n      tag_106\n      jump\t// in\n    tag_199:\n        /* \"#utility.yul\":4468:4539   */\n      tag_200\n        /* \"#utility.yul\":4532:4538   */\n      dup2\n        /* \"#utility.yul\":4527:4530   */\n      dup6\n        /* \"#utility.yul\":4468:4539   */\n      tag_115\n      jump\t// in\n    tag_200:\n        /* \"#utility.yul\":4461:4539   */\n      swap4\n      pop\n        /* \"#utility.yul\":4548:4613   */\n      tag_201\n        /* \"#utility.yul\":4606:4612   */\n      dup2\n        /* \"#utility.yul\":4601:4604   */\n      dup6\n        /* \"#utility.yul\":4594:4598   */\n      0x20\n        /* \"#utility.yul\":4587:4592   */\n      dup7\n        /* \"#utility.yul\":4583:4599   */\n      add\n        /* \"#utility.yul\":4548:4613   */\n      tag_108\n      jump\t// in\n    tag_201:\n        /* \"#utility.yul\":4638:4667   */\n      tag_202\n        /* \"#utility.yul\":4660:4666   */\n      dup2\n        /* \"#utility.yul\":4638:4667   */\n      tag_109\n      jump\t// in\n    tag_202:\n        /* \"#utility.yul\":4633:4636   */\n      dup5\n        /* \"#utility.yul\":4629:4668   */\n      add\n        /* \"#utility.yul\":4622:4668   */\n      swap2\n      pop\n        /* \"#utility.yul\":4389:4674   */\n      pop\n        /* \"#utility.yul\":4297:4674   */\n      swap3\n      swap2\n      pop\n      pop\n      jump\t// out\n        /* \"#utility.yul\":4680:4789   */\n    tag_117:\n        /* \"#utility.yul\":4761:4782   */\n      tag_204\n        /* \"#utility.yul\":4776:4781   */\n      dup2\n        /* \"#utility.yul\":4761:4782   */\n      tag_111\n      jump\t// in\n    tag_204:\n        /* \"#utility.yul\":4756:4759   */\n      dup3\n        /* \"#utility.yul\":4749:4783   */\n      mstore\n        /* \"#utility.yul\":4680:4789   */\n      pop\n      pop\n      jump\t// out\n        /* \"#utility.yul\":4795:5720   */\n    tag_18:\n        /* \"#utility.yul\":5054:5058   */\n      0x00\n        /* \"#utility.yul\":5092:5095   */\n      0xa0\n        /* \"#utility.yul\":5081:5090   */\n      dup3\n        /* \"#utility.yul\":5077:5096   */\n      add\n        /* \"#utility.yul\":5069:5096   */\n      swap1\n      pop\n        /* \"#utility.yul\":5106:5177   */\n      tag_206\n        /* \"#utility.yul\":5174:5175   */\n      0x00\n        /* \"#utility.yul\":5163:5172   */\n      dup4\n        /* \"#utility.yul\":5159:5176   */\n      add\n        /* \"#utility.yul\":5150:5156   */\n      dup9\n        /* \"#utility.yul\":5106:5177   */\n      tag_114\n      jump\t// in\n    tag_206:\n        /* \"#utility.yul\":5224:5233   */\n      dup2\n        /* \"#utility.yul\":5218:5222   */\n      dup2\n        /* \"#utility.yul\":5214:5234   */\n      sub\n        /* \"#utility.yul\":5209:5211   */\n      0x20\n        /* \"#utility.yul\":5198:5207   */\n      dup4\n        /* \"#utility.yul\":5194:5212   */\n      add\n        /* \"#utility.yul\":5187:5235   */\n      mstore\n        /* \"#utility.yul\":5252:5330   */\n      tag_207\n        /* \"#utility.yul\":5325:5329   */\n      dup2\n        /* \"#utility.yul\":5316:5322   */\n      dup8\n        /* \"#utility.yul\":5252:5330   */\n      tag_116\n      jump\t// in\n    tag_207:\n        /* \"#utility.yul\":5244:5330   */\n      swap1\n      pop\n        /* \"#utility.yul\":5377:5386   */\n      dup2\n        /* \"#utility.yul\":5371:5375   */\n      dup2\n        /* \"#utility.yul\":5367:5387   */\n      sub\n        /* \"#utility.yul\":5362:5364   */\n      0x40\n        /* \"#utility.yul\":5351:5360   */\n      dup4\n        /* \"#utility.yul\":5347:5365   */\n      add\n        /* \"#utility.yul\":5340:5388   */\n      mstore\n        /* \"#utility.yul\":5405:5483   */\n      tag_208\n        /* \"#utility.yul\":5478:5482   */\n      dup2\n        /* \"#utility.yul\":5469:5475   */\n      dup7\n        /* \"#utility.yul\":5405:5483   */\n      tag_116\n      jump\t// in\n    tag_208:\n        /* \"#utility.yul\":5397:5483   */\n      swap1\n      pop\n        /* \"#utility.yul\":5530:5539   */\n      dup2\n        /* \"#utility.yul\":5524:5528   */\n      dup2\n        /* \"#utility.yul\":5520:5540   */\n      sub\n        /* \"#utility.yul\":5515:5517   */\n      0x60\n        /* \"#utility.yul\":5504:5513   */\n      dup4\n        /* \"#utility.yul\":5500:5518   */\n      add\n        /* \"#utility.yul\":5493:5541   */\n      mstore\n        /* \"#utility.yul\":5558:5636   */\n      tag_209\n        /* \"#utility.yul\":5631:5635   */\n      dup2\n        /* \"#utility.yul\":5622:5628   */\n      dup6\n        /* \"#utility.yul\":5558:5636   */\n      tag_116\n      jump\t// in\n    tag_209:\n        /* \"#utility.yul\":5550:5636   */\n      swap1\n      pop\n        /* \"#utility.yul\":5646:5713   */\n      tag_210\n        /* \"#utility.yul\":5708:5711   */\n      0x80\n        /* \"#utility.yul\":5697:5706   */\n      dup4\n        /* \"#utility.yul\":5693:5712   */\n      add\n        /* \"#utility.yul\":5684:5690   */\n      dup5\n        /* \"#utility.yul\":5646:5713   */\n      tag_117\n      jump\t// in\n    tag_210:\n        /* \"#utility.yul\":4795:5720   */\n      swap7\n      swap6\n      pop\n      pop\n      pop\n      pop\n      pop\n      pop\n      jump\t// out\n        /* \"#utility.yul\":5726:5852   */\n    tag_118:\n        /* \"#utility.yul\":5763:5770   */\n      0x00\n        /* \"#utility.yul\":5803:5845   */\n      0xffffffffffffffffffffffffffffffffffffffff\n        /* \"#utility.yul\":5796:5801   */\n      dup3\n        /* \"#utility.yul\":5792:5846   */\n      and\n        /* \"#utility.yul\":5781:5846   */\n      swap1\n      pop\n        /* \"#utility.yul\":5726:5852   */\n      swap2\n      swap1\n      pop\n      jump\t// out\n        /* \"#utility.yul\":5858:5954   */\n    tag_119:\n        /* \"#utility.yul\":5895:5902   */\n      0x00\n        /* \"#utility.yul\":5924:5948   */\n      tag_213\n        /* \"#utility.yul\":5942:5947   */\n      dup3\n        /* \"#utility.yul\":5924:5948   */\n      tag_118\n      jump\t// in\n    tag_213:\n        /* \"#utility.yul\":5913:5948   */\n      swap1\n      pop\n        /* \"#utility.yul\":5858:5954   */\n      swap2\n      swap1\n      pop\n      jump\t// out\n        /* \"#utility.yul\":5960:6078   */\n    tag_120:\n        /* \"#utility.yul\":6047:6071   */\n      tag_215\n        /* \"#utility.yul\":6065:6070   */\n      dup2\n        /* \"#utility.yul\":6047:6071   */\n      tag_119\n      jump\t// in\n    tag_215:\n        /* \"#utility.yul\":6042:6045   */\n      dup3\n        /* \"#utility.yul\":6035:6072   */\n      mstore\n        /* \"#utility.yul\":5960:6078   */\n      pop\n      pop\n      jump\t// out\n        /* \"#utility.yul\":6084:6306   */\n    tag_22:\n        /* \"#utility.yul\":6177:6181   */\n      0x00\n        /* \"#utility.yul\":6215:6217   */\n      0x20\n        /* \"#utility.yul\":6204:6213   */\n      dup3\n        /* \"#utility.yul\":6200:6218   */\n      add\n        /* \"#utility.yul\":6192:6218   */\n      swap1\n      pop\n        /* \"#utility.yul\":6228:6299   */\n      tag_217\n        /* \"#utility.yul\":6296:6297   */\n      0x00\n        /* \"#utility.yul\":6285:6294   */\n      dup4\n        /* \"#utility.yul\":6281:6298   */\n      add\n        /* \"#utility.yul\":6272:6278   */\n      dup5\n        /* \"#utility.yul\":6228:6299   */\n      tag_120\n      jump\t// in\n    tag_217:\n        /* \"#utility.yul\":6084:6306   */\n      swap3\n      swap2\n      pop\n      pop\n      jump\t// out\n        /* \"#utility.yul\":6312:6372   */\n    tag_121:\n        /* \"#utility.yul\":6340:6343   */\n      0x00\n        /* \"#utility.yul\":6361:6366   */\n      dup2\n        /* \"#utility.yul\":6354:6366   */\n      swap1\n      pop\n        /* \"#utility.yul\":6312:6372   */\n      swap2\n      swap1\n      pop\n      jump\t// out\n        /* \"#utility.yul\":6378:6520   */\n    tag_122:\n        /* \"#utility.yul\":6428:6437   */\n      0x00\n        /* \"#utility.yul\":6461:6514   */\n      tag_220\n        /* \"#utility.yul\":6479:6513   */\n      tag_221\n        /* \"#utility.yul\":6488:6512   */\n      tag_222\n        /* \"#utility.yul\":6506:6511   */\n      dup5\n        /* \"#utility.yul\":6488:6512   */\n      tag_118\n      jump\t// in\n    tag_222:\n        /* \"#utility.yul\":6479:6513   */\n      tag_121\n      jump\t// in\n    tag_221:\n        /* \"#utility.yul\":6461:6514   */\n      tag_118\n      jump\t// in\n    tag_220:\n        /* \"#utility.yul\":6448:6514   */\n      swap1\n      pop\n        /* \"#utility.yul\":6378:6520   */\n      swap2\n      swap1\n      pop\n      jump\t// out\n        /* \"#utility.yul\":6526:6652   */\n    tag_123:\n        /* \"#utility.yul\":6576:6585   */\n      0x00\n        /* \"#utility.yul\":6609:6646   */\n      tag_224\n        /* \"#utility.yul\":6640:6645   */\n      dup3\n        /* \"#utility.yul\":6609:6646   */\n      tag_122\n      jump\t// in\n    tag_224:\n        /* \"#utility.yul\":6596:6646   */\n      swap1\n      pop\n        /* \"#utility.yul\":6526:6652   */\n      swap2\n      swap1\n      pop\n      jump\t// out\n        /* \"#utility.yul\":6658:6816   */\n    tag_124:\n        /* \"#utility.yul\":6740:6749   */\n      0x00\n        /* \"#utility.yul\":6773:6810   */\n      tag_226\n        /* \"#utility.yul\":6804:6809   */\n      dup3\n        /* \"#utility.yul\":6773:6810   */\n      tag_123\n      jump\t// in\n    tag_226:\n        /* \"#utility.yul\":6760:6810   */\n      swap1\n      pop\n        /* \"#utility.yul\":6658:6816   */\n      swap2\n      swap1\n      pop\n      jump\t// out\n        /* \"#utility.yul\":6822:7017   */\n    tag_125:\n        /* \"#utility.yul\":6941:7010   */\n      tag_228\n        /* \"#utility.yul\":7004:7009   */\n      dup2\n        /* \"#utility.yul\":6941:7010   */\n      tag_124\n      jump\t// in\n    tag_228:\n        /* \"#utility.yul\":6936:6939   */\n      dup3\n        /* \"#utility.yul\":6929:7011   */\n      mstore\n        /* \"#utility.yul\":6822:7017   */\n      pop\n      pop\n      jump\t// out\n        /* \"#utility.yul\":7023:7309   */\n    tag_26:\n        /* \"#utility.yul\":7148:7152   */\n      0x00\n        /* \"#utility.yul\":7186:7188   */\n      0x20\n        /* \"#utility.yul\":7175:7184   */\n      dup3\n        /* \"#utility.yul\":7171:7189   */\n      add\n        /* \"#utility.yul\":7163:7189   */\n      swap1\n      pop\n        /* \"#utility.yul\":7199:7302   */\n      tag_230\n        /* \"#utility.yul\":7299:7300   */\n      0x00\n        /* \"#utility.yul\":7288:7297   */\n      dup4\n        /* \"#utility.yul\":7284:7301   */\n      add\n        /* \"#utility.yul\":7275:7281   */\n      dup5\n        /* \"#utility.yul\":7199:7302   */\n      tag_125\n      jump\t// in\n    tag_230:\n        /* \"#utility.yul\":7023:7309   */\n      swap3\n      swap2\n      pop\n      pop\n      jump\t// out\n        /* \"#utility.yul\":7315:7432   */\n    tag_126:\n        /* \"#utility.yul\":7424:7425   */\n      0x00\n        /* \"#utility.yul\":7421:7422   */\n      dup1\n        /* \"#utility.yul\":7414:7426   */\n      revert\n        /* \"#utility.yul\":7438:7555   */\n    tag_127:\n        /* \"#utility.yul\":7547:7548   */\n      0x00\n        /* \"#utility.yul\":7544:7545   */\n      dup1\n        /* \"#utility.yul\":7537:7549   */\n      revert\n        /* \"#utility.yul\":7561:7741   */\n    tag_128:\n        /* \"#utility.yul\":7609:7686   */\n      0x4e487b7100000000000000000000000000000000000000000000000000000000\n        /* \"#utility.yul\":7606:7607   */\n      0x00\n        /* \"#utility.yul\":7599:7687   */\n      mstore\n        /* \"#utility.yul\":7706:7710   */\n      0x41\n        /* \"#utility.yul\":7703:7704   */\n      0x04\n        /* \"#utility.yul\":7696:7711   */\n      mstore\n        /* \"#utility.yul\":7730:7734   */\n      0x24\n        /* \"#utility.yul\":7727:7728   */\n      0x00\n        /* \"#utility.yul\":7720:7735   */\n      revert\n        /* \"#utility.yul\":7747:8028   */\n    tag_129:\n        /* \"#utility.yul\":7830:7857   */\n      tag_235\n        /* \"#utility.yul\":7852:7856   */\n      dup3\n        /* \"#utility.yul\":7830:7857   */\n      tag_109\n      jump\t// in\n    tag_235:\n        /* \"#utility.yul\":7822:7828   */\n      dup2\n        /* \"#utility.yul\":7818:7858   */\n      add\n        /* \"#utility.yul\":7960:7966   */\n      dup2\n        /* \"#utility.yul\":7948:7958   */\n      dup2\n        /* \"#utility.yul\":7945:7967   */\n      lt\n        /* \"#utility.yul\":7924:7942   */\n      0xffffffffffffffff\n        /* \"#utility.yul\":7912:7922   */\n      dup3\n        /* \"#utility.yul\":7909:7943   */\n      gt\n        /* \"#utility.yul\":7906:7968   */\n      or\n        /* \"#utility.yul\":7903:7991   */\n      iszero\n      tag_236\n      jumpi\n        /* \"#utility.yul\":7971:7989   */\n      tag_237\n      tag_128\n      jump\t// in\n    tag_237:\n        /* \"#utility.yul\":7903:7991   */\n    tag_236:\n        /* \"#utility.yul\":8011:8021   */\n      dup1\n        /* \"#utility.yul\":8007:8009   */\n      0x40\n        /* \"#utility.yul\":8000:8022   */\n      mstore\n        /* \"#utility.yul\":7790:8028   */\n      pop\n        /* \"#utility.yul\":7747:8028   */\n      pop\n      pop\n      jump\t// out\n        /* \"#utility.yul\":8034:8163   */\n    tag_130:\n        /* \"#utility.yul\":8068:8074   */\n      0x00\n        /* \"#utility.yul\":8095:8115   */\n      tag_239\n      tag_99\n      jump\t// in\n    tag_239:\n        /* \"#utility.yul\":8085:8115   */\n      swap1\n      pop\n        /* \"#utility.yul\":8124:8157   */\n      tag_240\n        /* \"#utility.yul\":8152:8156   */\n      dup3\n        /* \"#utility.yul\":8144:8150   */\n      dup3\n        /* \"#utility.yul\":8124:8157   */\n      tag_129\n      jump\t// in\n    tag_240:\n        /* \"#utility.yul\":8034:8163   */\n      swap2\n      swap1\n      pop\n      jump\t// out\n        /* \"#utility.yul\":8169:8477   */\n    tag_131:\n        /* \"#utility.yul\":8231:8235   */\n      0x00\n        /* \"#utility.yul\":8321:8339   */\n      0xffffffffffffffff\n        /* \"#utility.yul\":8313:8319   */\n      dup3\n        /* \"#utility.yul\":8310:8340   */\n      gt\n        /* \"#utility.yul\":8307:8363   */\n      iszero\n      tag_242\n      jumpi\n        /* \"#utility.yul\":8343:8361   */\n      tag_243\n      tag_128\n      jump\t// in\n    tag_243:\n        /* \"#utility.yul\":8307:8363   */\n    tag_242:\n        /* \"#utility.yul\":8381:8410   */\n      tag_244\n        /* \"#utility.yul\":8403:8409   */\n      dup3\n        /* \"#utility.yul\":8381:8410   */\n      tag_109\n      jump\t// in\n    tag_244:\n        /* \"#utility.yul\":8373:8410   */\n      swap1\n      pop\n        /* \"#utility.yul\":8465:8469   */\n      0x20\n        /* \"#utility.yul\":8459:8463   */\n      dup2\n        /* \"#utility.yul\":8455:8470   */\n      add\n        /* \"#utility.yul\":8447:8470   */\n      swap1\n      pop\n        /* \"#utility.yul\":8169:8477   */\n      swap2\n      swap1\n      pop\n      jump\t// out\n        /* \"#utility.yul\":8483:8631   */\n    tag_132:\n        /* \"#utility.yul\":8581:8587   */\n      dup3\n        /* \"#utility.yul\":8576:8579   */\n      dup2\n        /* \"#utility.yul\":8571:8574   */\n      dup4\n        /* \"#utility.yul\":8558:8588   */\n      calldatacopy\n        /* \"#utility.yul\":8622:8623   */\n      0x00\n        /* \"#utility.yul\":8613:8619   */\n      dup4\n        /* \"#utility.yul\":8608:8611   */\n      dup4\n        /* \"#utility.yul\":8604:8620   */\n      add\n        /* \"#utility.yul\":8597:8624   */\n      mstore\n        /* \"#utility.yul\":8483:8631   */\n      pop\n      pop\n      pop\n      jump\t// out\n        /* \"#utility.yul\":8637:9062   */\n    tag_133:\n        /* \"#utility.yul\":8715:8720   */\n      0x00\n        /* \"#utility.yul\":8740:8806   */\n      tag_247\n        /* \"#utility.yul\":8756:8805   */\n      tag_248\n        /* \"#utility.yul\":8798:8804   */\n      dup5\n        /* \"#utility.yul\":8756:8805   */\n      tag_131\n      jump\t// in\n    tag_248:\n        /* \"#utility.yul\":8740:8806   */\n      tag_130\n      jump\t// in\n    tag_247:\n        /* \"#utility.yul\":8731:8806   */\n      swap1\n      pop\n        /* \"#utility.yul\":8829:8835   */\n      dup3\n        /* \"#utility.yul\":8822:8827   */\n      dup2\n        /* \"#utility.yul\":8815:8836   */\n      mstore\n        /* \"#utility.yul\":8867:8871   */\n      0x20\n        /* \"#utility.yul\":8860:8865   */\n      dup2\n        /* \"#utility.yul\":8856:8872   */\n      add\n        /* \"#utility.yul\":8905:8908   */\n      dup5\n        /* \"#utility.yul\":8896:8902   */\n      dup5\n        /* \"#utility.yul\":8891:8894   */\n      dup5\n        /* \"#utility.yul\":8887:8903   */\n      add\n        /* \"#utility.yul\":8884:8909   */\n      gt\n        /* \"#utility.yul\":8881:8993   */\n      iszero\n      tag_249\n      jumpi\n        /* \"#utility.yul\":8912:8991   */\n      tag_250\n      tag_127\n      jump\t// in\n    tag_250:\n        /* \"#utility.yul\":8881:8993   */\n    tag_249:\n        /* \"#utility.yul\":9002:9056   */\n      tag_251\n        /* \"#utility.yul\":9049:9055   */\n      dup5\n        /* \"#utility.yul\":9044:9047   */\n      dup3\n        /* \"#utility.yul\":9039:9042   */\n      dup6\n        /* \"#utility.yul\":9002:9056   */\n      tag_132\n      jump\t// in\n    tag_251:\n        /* \"#utility.yul\":8721:9062   */\n      pop\n        /* \"#utility.yul\":8637:9062   */\n      swap4\n      swap3\n      pop\n      pop\n      pop\n      jump\t// out\n        /* \"#utility.yul\":9082:9422   */\n    tag_134:\n        /* \"#utility.yul\":9138:9143   */\n      0x00\n        /* \"#utility.yul\":9187:9190   */\n      dup3\n        /* \"#utility.yul\":9180:9184   */\n      0x1f\n        /* \"#utility.yul\":9172:9178   */\n      dup4\n        /* \"#utility.yul\":9168:9185   */\n      add\n        /* \"#utility.yul\":9164:9191   */\n      slt\n        /* \"#utility.yul\":9154:9276   */\n      tag_253\n      jumpi\n        /* \"#utility.yul\":9195:9274   */\n      tag_254\n      tag_126\n      jump\t// in\n    tag_254:\n        /* \"#utility.yul\":9154:9276   */\n    tag_253:\n        /* \"#utility.yul\":9312:9318   */\n      dup2\n        /* \"#utility.yul\":9299:9319   */\n      calldataload\n        /* \"#utility.yul\":9337:9416   */\n      tag_255\n        /* \"#utility.yul\":9412:9415   */\n      dup5\n        /* \"#utility.yul\":9404:9410   */\n      dup3\n        /* \"#utility.yul\":9397:9401   */\n      0x20\n        /* \"#utility.yul\":9389:9395   */\n      dup7\n        /* \"#utility.yul\":9385:9402   */\n      add\n        /* \"#utility.yul\":9337:9416   */\n      tag_133\n      jump\t// in\n    tag_255:\n        /* \"#utility.yul\":9328:9416   */\n      swap2\n      pop\n        /* \"#utility.yul\":9144:9422   */\n      pop\n        /* \"#utility.yul\":9082:9422   */\n      swap3\n      swap2\n      pop\n      pop\n      jump\t// out\n        /* \"#utility.yul\":9428:10733   */\n    tag_29:\n        /* \"#utility.yul\":9544:9550   */\n      0x00\n        /* \"#utility.yul\":9552:9558   */\n      dup1\n        /* \"#utility.yul\":9560:9566   */\n      0x00\n        /* \"#utility.yul\":9568:9574   */\n      dup1\n        /* \"#utility.yul\":9617:9620   */\n      0x80\n        /* \"#utility.yul\":9605:9614   */\n      dup6\n        /* \"#utility.yul\":9596:9603   */\n      dup8\n        /* \"#utility.yul\":9592:9615   */\n      sub\n        /* \"#utility.yul\":9588:9621   */\n      slt\n        /* \"#utility.yul\":9585:9705   */\n      iszero\n      tag_257\n      jumpi\n        /* \"#utility.yul\":9624:9703   */\n      tag_258\n      tag_100\n      jump\t// in\n    tag_258:\n        /* \"#utility.yul\":9585:9705   */\n    tag_257:\n        /* \"#utility.yul\":9744:9745   */\n      0x00\n        /* \"#utility.yul\":9769:9822   */\n      tag_259\n        /* \"#utility.yul\":9814:9821   */\n      dup8\n        /* \"#utility.yul\":9805:9811   */\n      dup3\n        /* \"#utility.yul\":9794:9803   */\n      dup9\n        /* \"#utility.yul\":9790:9812   */\n      add\n        /* \"#utility.yul\":9769:9822   */\n      tag_104\n      jump\t// in\n    tag_259:\n        /* \"#utility.yul\":9759:9822   */\n      swap5\n      pop\n        /* \"#utility.yul\":9715:9832   */\n      pop\n        /* \"#utility.yul\":9899:9901   */\n      0x20\n        /* \"#utility.yul\":9888:9897   */\n      dup6\n        /* \"#utility.yul\":9884:9902   */\n      add\n        /* \"#utility.yul\":9871:9903   */\n      calldataload\n        /* \"#utility.yul\":9930:9948   */\n      0xffffffffffffffff\n        /* \"#utility.yul\":9922:9928   */\n      dup2\n        /* \"#utility.yul\":9919:9949   */\n      gt\n        /* \"#utility.yul\":9916:10033   */\n      iszero\n      tag_260\n      jumpi\n        /* \"#utility.yul\":9952:10031   */\n      tag_261\n      tag_101\n      jump\t// in\n    tag_261:\n        /* \"#utility.yul\":9916:10033   */\n    tag_260:\n        /* \"#utility.yul\":10057:10120   */\n      tag_262\n        /* \"#utility.yul\":10112:10119   */\n      dup8\n        /* \"#utility.yul\":10103:10109   */\n      dup3\n        /* \"#utility.yul\":10092:10101   */\n      dup9\n        /* \"#utility.yul\":10088:10110   */\n      add\n        /* \"#utility.yul\":10057:10120   */\n      tag_134\n      jump\t// in\n    tag_262:\n        /* \"#utility.yul\":10047:10120   */\n      swap4\n      pop\n        /* \"#utility.yul\":9842:10130   */\n      pop\n        /* \"#utility.yul\":10197:10199   */\n      0x40\n        /* \"#utility.yul\":10186:10195   */\n      dup6\n        /* \"#utility.yul\":10182:10200   */\n      add\n        /* \"#utility.yul\":10169:10201   */\n      calldataload\n        /* \"#utility.yul\":10228:10246   */\n      0xffffffffffffffff\n        /* \"#utility.yul\":10220:10226   */\n      dup2\n        /* \"#utility.yul\":10217:10247   */\n      gt\n        /* \"#utility.yul\":10214:10331   */\n      iszero\n      tag_263\n      jumpi\n        /* \"#utility.yul\":10250:10329   */\n      tag_264\n      tag_101\n      jump\t// in\n    tag_264:\n        /* \"#utility.yul\":10214:10331   */\n    tag_263:\n        /* \"#utility.yul\":10355:10418   */\n      tag_265\n        /* \"#utility.yul\":10410:10417   */\n      dup8\n        /* \"#utility.yul\":10401:10407   */\n      dup3\n        /* \"#utility.yul\":10390:10399   */\n      dup9\n        /* \"#utility.yul\":10386:10408   */\n      add\n        /* \"#utility.yul\":10355:10418   */\n      tag_134\n      jump\t// in\n    tag_265:\n        /* \"#utility.yul\":10345:10418   */\n      swap3\n      pop\n        /* \"#utility.yul\":10140:10428   */\n      pop\n        /* \"#utility.yul\":10495:10497   */\n      0x60\n        /* \"#utility.yul\":10484:10493   */\n      dup6\n        /* \"#utility.yul\":10480:10498   */\n      add\n        /* \"#utility.yul\":10467:10499   */\n      calldataload\n        /* \"#utility.yul\":10526:10544   */\n      0xffffffffffffffff\n        /* \"#utility.yul\":10518:10524   */\n      dup2\n        /* \"#utility.yul\":10515:10545   */\n      gt\n        /* \"#utility.yul\":10512:10629   */\n      iszero\n      tag_266\n      jumpi\n        /* \"#utility.yul\":10548:10627   */\n      tag_267\n      tag_101\n      jump\t// in\n    tag_267:\n        /* \"#utility.yul\":10512:10629   */\n    tag_266:\n        /* \"#utility.yul\":10653:10716   */\n      tag_268\n        /* \"#utility.yul\":10708:10715   */\n      dup8\n        /* \"#utility.yul\":10699:10705   */\n      dup3\n        /* \"#utility.yul\":10688:10697   */\n      dup9\n        /* \"#utility.yul\":10684:10706   */\n      add\n        /* \"#utility.yul\":10653:10716   */\n      tag_134\n      jump\t// in\n    tag_268:\n        /* \"#utility.yul\":10643:10716   */\n      swap2\n      pop\n        /* \"#utility.yul\":10438:10726   */\n      pop\n        /* \"#utility.yul\":9428:10733   */\n      swap3\n      swap6\n      swap2\n      swap5\n      pop\n      swap3\n      pop\n      jump\t// out\n        /* \"#utility.yul\":10739:10919   */\n    tag_135:\n        /* \"#utility.yul\":10787:10864   */\n      0x4e487b7100000000000000000000000000000000000000000000000000000000\n        /* \"#utility.yul\":10784:10785   */\n      0x00\n        /* \"#utility.yul\":10777:10865   */\n      mstore\n        /* \"#utility.yul\":10884:10888   */\n      0x22\n        /* \"#utility.yul\":10881:10882   */\n      0x04\n        /* \"#utility.yul\":10874:10889   */\n      mstore\n        /* \"#utility.yul\":10908:10912   */\n      0x24\n        /* \"#utility.yul\":10905:10906   */\n      0x00\n        /* \"#utility.yul\":10898:10913   */\n      revert\n        /* \"#utility.yul\":10925:11245   */\n    tag_35:\n        /* \"#utility.yul\":10969:10975   */\n      0x00\n        /* \"#utility.yul\":11006:11007   */\n      0x02\n        /* \"#utility.yul\":11000:11004   */\n      dup3\n        /* \"#utility.yul\":10996:11008   */\n      div\n        /* \"#utility.yul\":10986:11008   */\n      swap1\n      pop\n        /* \"#utility.yul\":11053:11054   */\n      0x01\n        /* \"#utility.yul\":11047:11051   */\n      dup3\n        /* \"#utility.yul\":11043:11055   */\n      and\n        /* \"#utility.yul\":11074:11092   */\n      dup1\n        /* \"#utility.yul\":11064:11145   */\n      tag_271\n      jumpi\n        /* \"#utility.yul\":11130:11134   */\n      0x7f\n        /* \"#utility.yul\":11122:11128   */\n      dup3\n        /* \"#utility.yul\":11118:11135   */\n      and\n        /* \"#utility.yul\":11108:11135   */\n      swap2\n      pop\n        /* \"#utility.yul\":11064:11145   */\n    tag_271:\n        /* \"#utility.yul\":11192:11194   */\n      0x20\n        /* \"#utility.yul\":11184:11190   */\n      dup3\n        /* \"#utility.yul\":11181:11195   */\n      lt\n        /* \"#utility.yul\":11161:11179   */\n      dup2\n        /* \"#utility.yul\":11158:11196   */\n      sub\n        /* \"#utility.yul\":11155:11239   */\n      tag_272\n      jumpi\n        /* \"#utility.yul\":11211:11229   */\n      tag_273\n      tag_135\n      jump\t// in\n    tag_273:\n        /* \"#utility.yul\":11155:11239   */\n    tag_272:\n        /* \"#utility.yul\":10976:11245   */\n      pop\n        /* \"#utility.yul\":10925:11245   */\n      swap2\n      swap1\n      pop\n      jump\t// out\n        /* \"#utility.yul\":11251:11478   */\n    tag_136:\n        /* \"#utility.yul\":11391:11425   */\n      0x4f6e6c79207665726966696564206578706f727465722063616e206c6f672064\n        /* \"#utility.yul\":11387:11388   */\n      0x00\n        /* \"#utility.yul\":11379:11385   */\n      dup3\n        /* \"#utility.yul\":11375:11389   */\n      add\n        /* \"#utility.yul\":11368:11426   */\n      mstore\n        /* \"#utility.yul\":11460:11470   */\n      0x6570617274757265000000000000000000000000000000000000000000000000\n        /* \"#utility.yul\":11455:11457   */\n      0x20\n        /* \"#utility.yul\":11447:11453   */\n      dup3\n        /* \"#utility.yul\":11443:11458   */\n      add\n        /* \"#utility.yul\":11436:11471   */\n      mstore\n        /* \"#utility.yul\":11251:11478   */\n      pop\n      jump\t// out\n        /* \"#utility.yul\":11484:11850   */\n    tag_137:\n        /* \"#utility.yul\":11626:11629   */\n      0x00\n        /* \"#utility.yul\":11647:11714   */\n      tag_276\n        /* \"#utility.yul\":11711:11713   */\n      0x28\n        /* \"#utility.yul\":11706:11709   */\n      dup4\n        /* \"#utility.yul\":11647:11714   */\n      tag_115\n      jump\t// in\n    tag_276:\n        /* \"#utility.yul\":11640:11714   */\n      swap2\n      pop\n        /* \"#utility.yul\":11723:11816   */\n      tag_277\n        /* \"#utility.yul\":11812:11815   */\n      dup3\n        /* \"#utility.yul\":11723:11816   */\n      tag_136\n      jump\t// in\n    tag_277:\n        /* \"#utility.yul\":11841:11843   */\n      0x40\n        /* \"#utility.yul\":11836:11839   */\n      dup3\n        /* \"#utility.yul\":11832:11844   */\n      add\n        /* \"#utility.yul\":11825:11844   */\n      swap1\n      pop\n        /* \"#utility.yul\":11484:11850   */\n      swap2\n      swap1\n      pop\n      jump\t// out\n        /* \"#utility.yul\":11856:12275   */\n    tag_68:\n        /* \"#utility.yul\":12022:12026   */\n      0x00\n        /* \"#utility.yul\":12060:12062   */\n      0x20\n        /* \"#utility.yul\":12049:12058   */\n      dup3\n        /* \"#utility.yul\":12045:12063   */\n      add\n        /* \"#utility.yul\":12037:12063   */\n      swap1\n      pop\n        /* \"#utility.yul\":12109:12118   */\n      dup2\n        /* \"#utility.yul\":12103:12107   */\n      dup2\n        /* \"#utility.yul\":12099:12119   */\n      sub\n        /* \"#utility.yul\":12095:12096   */\n      0x00\n        /* \"#utility.yul\":12084:12093   */\n      dup4\n        /* \"#utility.yul\":12080:12097   */\n      add\n        /* \"#utility.yul\":12073:12120   */\n      mstore\n        /* \"#utility.yul\":12137:12268   */\n      tag_279\n        /* \"#utility.yul\":12263:12267   */\n      dup2\n        /* \"#utility.yul\":12137:12268   */\n      tag_137\n      jump\t// in\n    tag_279:\n        /* \"#utility.yul\":12129:12268   */\n      swap1\n      pop\n        /* \"#utility.yul\":11856:12275   */\n      swap2\n      swap1\n      pop\n      jump\t// out\n        /* \"#utility.yul\":12281:12455   */\n    tag_138:\n        /* \"#utility.yul\":12421:12447   */\n      0x44657061727475726520616c7265616479206c6f676765640000000000000000\n        /* \"#utility.yul\":12417:12418   */\n      0x00\n        /* \"#utility.yul\":12409:12415   */\n      dup3\n        /* \"#utility.yul\":12405:12419   */\n      add\n        /* \"#utility.yul\":12398:12448   */\n      mstore\n        /* \"#utility.yul\":12281:12455   */\n      pop\n      jump\t// out\n        /* \"#utility.yul\":12461:12827   */\n    tag_139:\n        /* \"#utility.yul\":12603:12606   */\n      0x00\n        /* \"#utility.yul\":12624:12691   */\n      tag_282\n        /* \"#utility.yul\":12688:12690   */\n      0x18\n        /* \"#utility.yul\":12683:12686   */\n      dup4\n        /* \"#utility.yul\":12624:12691   */\n      tag_115\n      jump\t// in\n    tag_282:\n        /* \"#utility.yul\":12617:12691   */\n      swap2\n      pop\n        /* \"#utility.yul\":12700:12793   */\n      tag_283\n        /* \"#utility.yul\":12789:12792   */\n      dup3\n        /* \"#utility.yul\":12700:12793   */\n      tag_138\n      jump\t// in\n    tag_283:\n        /* \"#utility.yul\":12818:12820   */\n      0x20\n        /* \"#utility.yul\":12813:12816   */\n      dup3\n        /* \"#utility.yul\":12809:12821   */\n      add\n        /* \"#utility.yul\":12802:12821   */\n      swap1\n      pop\n        /* \"#utility.yul\":12461:12827   */\n      swap2\n      swap1\n      pop\n      jump\t// out\n        /* \"#utility.yul\":12833:13252   */\n    tag_72:\n        /* \"#utility.yul\":12999:13003   */\n      0x00\n        /* \"#utility.yul\":13037:13039   */\n      0x20\n        /* \"#utility.yul\":13026:13035   */\n      dup3\n        /* \"#utility.yul\":13022:13040   */\n      add\n        /* \"#utility.yul\":13014:13040   */\n      swap1\n      pop\n        /* \"#utility.yul\":13086:13095   */\n      dup2\n        /* \"#utility.yul\":13080:13084   */\n      dup2\n        /* \"#utility.yul\":13076:13096   */\n      sub\n        /* \"#utility.yul\":13072:13073   */\n      0x00\n        /* \"#utility.yul\":13061:13070   */\n      dup4\n        /* \"#utility.yul\":13057:13074   */\n      add\n        /* \"#utility.yul\":13050:13097   */\n      mstore\n        /* \"#utility.yul\":13114:13245   */\n      tag_285\n        /* \"#utility.yul\":13240:13244   */\n      dup2\n        /* \"#utility.yul\":13114:13245   */\n      tag_139\n      jump\t// in\n    tag_285:\n        /* \"#utility.yul\":13106:13245   */\n      swap1\n      pop\n        /* \"#utility.yul\":12833:13252   */\n      swap2\n      swap1\n      pop\n      jump\t// out\n        /* \"#utility.yul\":13258:13482   */\n    tag_140:\n        /* \"#utility.yul\":13398:13432   */\n      0x4261746368204944206e6f7420666f756e6420696e206661726d657220636f6e\n        /* \"#utility.yul\":13394:13395   */\n      0x00\n        /* \"#utility.yul\":13386:13392   */\n      dup3\n        /* \"#utility.yul\":13382:13396   */\n      add\n        /* \"#utility.yul\":13375:13433   */\n      mstore\n        /* \"#utility.yul\":13467:13474   */\n      0x7472616374000000000000000000000000000000000000000000000000000000\n        /* \"#utility.yul\":13462:13464   */\n      0x20\n        /* \"#utility.yul\":13454:13460   */\n      dup3\n        /* \"#utility.yul\":13450:13465   */\n      add\n        /* \"#utility.yul\":13443:13475   */\n      mstore\n        /* \"#utility.yul\":13258:13482   */\n      pop\n      jump\t// out\n        /* \"#utility.yul\":13488:13854   */\n    tag_141:\n        /* \"#utility.yul\":13630:13633   */\n      0x00\n        /* \"#utility.yul\":13651:13718   */\n      tag_288\n        /* \"#utility.yul\":13715:13717   */\n      0x25\n        /* \"#utility.yul\":13710:13713   */\n      dup4\n        /* \"#utility.yul\":13651:13718   */\n      tag_115\n      jump\t// in\n    tag_288:\n        /* \"#utility.yul\":13644:13718   */\n      swap2\n      pop\n        /* \"#utility.yul\":13727:13820   */\n      tag_289\n        /* \"#utility.yul\":13816:13819   */\n      dup3\n        /* \"#utility.yul\":13727:13820   */\n      tag_140\n      jump\t// in\n    tag_289:\n        /* \"#utility.yul\":13845:13847   */\n      0x40\n        /* \"#utility.yul\":13840:13843   */\n      dup3\n        /* \"#utility.yul\":13836:13848   */\n      add\n        /* \"#utility.yul\":13829:13848   */\n      swap1\n      pop\n        /* \"#utility.yul\":13488:13854   */\n      swap2\n      swap1\n      pop\n      jump\t// out\n        /* \"#utility.yul\":13860:14279   */\n    tag_77:\n        /* \"#utility.yul\":14026:14030   */\n      0x00\n        /* \"#utility.yul\":14064:14066   */\n      0x20\n        /* \"#utility.yul\":14053:14062   */\n      dup3\n        /* \"#utility.yul\":14049:14067   */\n      add\n        /* \"#utility.yul\":14041:14067   */\n      swap1\n      pop\n        /* \"#utility.yul\":14113:14122   */\n      dup2\n        /* \"#utility.yul\":14107:14111   */\n      dup2\n        /* \"#utility.yul\":14103:14123   */\n      sub\n        /* \"#utility.yul\":14099:14100   */\n      0x00\n        /* \"#utility.yul\":14088:14097   */\n      dup4\n        /* \"#utility.yul\":14084:14101   */\n      add\n        /* \"#utility.yul\":14077:14124   */\n      mstore\n        /* \"#utility.yul\":14141:14272   */\n      tag_291\n        /* \"#utility.yul\":14267:14271   */\n      dup2\n        /* \"#utility.yul\":14141:14272   */\n      tag_141\n      jump\t// in\n    tag_291:\n        /* \"#utility.yul\":14133:14272   */\n      swap1\n      pop\n        /* \"#utility.yul\":13860:14279   */\n      swap2\n      swap1\n      pop\n      jump\t// out\n        /* \"#utility.yul\":14285:14426   */\n    tag_142:\n        /* \"#utility.yul\":14334:14338   */\n      0x00\n        /* \"#utility.yul\":14357:14360   */\n      dup2\n        /* \"#utility.yul\":14349:14360   */\n      swap1\n      pop\n        /* \"#utility.yul\":14380:14383   */\n      dup2\n        /* \"#utility.yul\":14377:14378   */\n      0x00\n        /* \"#utility.yul\":14370:14384   */\n      mstore\n        /* \"#utility.yul\":14414:14418   */\n      0x20\n        /* \"#utility.yul\":14411:14412   */\n      0x00\n        /* \"#utility.yul\":14401:14419   */\n      keccak256\n        /* \"#utility.yul\":14393:14419   */\n      swap1\n      pop\n        /* \"#utility.yul\":14285:14426   */\n      swap2\n      swap1\n      pop\n      jump\t// out\n        /* \"#utility.yul\":14432:14525   */\n    tag_143:\n        /* \"#utility.yul\":14469:14475   */\n      0x00\n        /* \"#utility.yul\":14516:14518   */\n      0x20\n        /* \"#utility.yul\":14511:14513   */\n      0x1f\n        /* \"#utility.yul\":14504:14509   */\n      dup4\n        /* \"#utility.yul\":14500:14514   */\n      add\n        /* \"#utility.yul\":14496:14519   */\n      div\n        /* \"#utility.yul\":14486:14519   */\n      swap1\n      pop\n        /* \"#utility.yul\":14432:14525   */\n      swap2\n      swap1\n      pop\n      jump\t// out\n        /* \"#utility.yul\":14531:14638   */\n    tag_144:\n        /* \"#utility.yul\":14575:14583   */\n      0x00\n        /* \"#utility.yul\":14625:14630   */\n      dup3\n        /* \"#utility.yul\":14619:14623   */\n      dup3\n        /* \"#utility.yul\":14615:14631   */\n      shl\n        /* \"#utility.yul\":14594:14631   */\n      swap1\n      pop\n        /* \"#utility.yul\":14531:14638   */\n      swap3\n      swap2\n      pop\n      pop\n      jump\t// out\n        /* \"#utility.yul\":14644:15037   */\n    tag_145:\n        /* \"#utility.yul\":14713:14719   */\n      0x00\n        /* \"#utility.yul\":14763:14764   */\n      0x08\n        /* \"#utility.yul\":14751:14761   */\n      dup4\n        /* \"#utility.yul\":14747:14765   */\n      mul\n        /* \"#utility.yul\":14786:14883   */\n      tag_296\n        /* \"#utility.yul\":14816:14882   */\n      0xffffffffffffffffffffffffffffffffffffffffffffffffffffffffffffffff\n        /* \"#utility.yul\":14805:14814   */\n      dup3\n        /* \"#utility.yul\":14786:14883   */\n      tag_144\n      jump\t// in\n    tag_296:\n        /* \"#utility.yul\":14904:14943   */\n      tag_297\n        /* \"#utility.yul\":14934:14942   */\n      dup7\n        /* \"#utility.yul\":14923:14932   */\n      dup4\n        /* \"#utility.yul\":14904:14943   */\n      tag_144\n      jump\t// in\n    tag_297:\n        /* \"#utility.yul\":14892:14943   */\n      swap6\n      pop\n        /* \"#utility.yul\":14976:14980   */\n      dup1\n        /* \"#utility.yul\":14972:14981   */\n      not\n        /* \"#utility.yul\":14965:14970   */\n      dup5\n        /* \"#utility.yul\":14961:14982   */\n      and\n        /* \"#utility.yul\":14952:14982   */\n      swap4\n      pop\n        /* \"#utility.yul\":15025:15029   */\n      dup1\n        /* \"#utility.yul\":15015:15023   */\n      dup7\n        /* \"#utility.yul\":15011:15030   */\n      and\n        /* \"#utility.yul\":15004:15009   */\n      dup5\n        /* \"#utility.yul\":15001:15031   */\n      or\n        /* \"#utility.yul\":14991:15031   */\n      swap3\n      pop\n        /* \"#utility.yul\":14720:15037   */\n      pop\n      pop\n        /* \"#utility.yul\":14644:15037   */\n      swap4\n      swap3\n      pop\n      pop\n      pop\n      jump\t// out\n        /* \"#utility.yul\":15043:15185   */\n    tag_146:\n        /* \"#utility.yul\":15093:15102   */\n      0x00\n        /* \"#utility.yul\":15126:15179   */\n      tag_299\n        /* \"#utility.yul\":15144:15178   */\n      tag_300\n        /* \"#utility.yul\":15153:15177   */\n      tag_301\n        /* \"#utility.yul\":15171:15176   */\n      dup5\n        /* \"#utility.yul\":15153:15177   */\n      tag_102\n      jump\t// in\n    tag_301:\n        /* \"#utility.yul\":15144:15178   */\n      tag_121\n      jump\t// in\n    tag_300:\n        /* \"#utility.yul\":15126:15179   */\n      tag_102\n      jump\t// in\n    tag_299:\n        /* \"#utility.yul\":15113:15179   */\n      swap1\n      pop\n        /* \"#utility.yul\":15043:15185   */\n      swap2\n      swap1\n      pop\n      jump\t// out\n        /* \"#utility.yul\":15191:15266   */\n    tag_147:\n        /* \"#utility.yul\":15234:15237   */\n      0x00\n        /* \"#utility.yul\":15255:15260   */\n      dup2\n        /* \"#utility.yul\":15248:15260   */\n      swap1\n      pop\n        /* \"#utility.yul\":15191:15266   */\n      swap2\n      swap1\n      pop\n      jump\t// out\n        /* \"#utility.yul\":15272:15541   */\n    tag_148:\n        /* \"#utility.yul\":15382:15421   */\n      tag_304\n        /* \"#utility.yul\":15413:15420   */\n      dup4\n        /* \"#utility.yul\":15382:15421   */\n      tag_146\n      jump\t// in\n    tag_304:\n        /* \"#utility.yul\":15443:15534   */\n      tag_305\n        /* \"#utility.yul\":15492:15533   */\n      tag_306\n        /* \"#utility.yul\":15516:15532   */\n      dup3\n        /* \"#utility.yul\":15492:15533   */\n      tag_147\n      jump\t// in\n    tag_306:\n        /* \"#utility.yul\":15484:15490   */\n      dup5\n        /* \"#utility.yul\":15477:15481   */\n      dup5\n        /* \"#utility.yul\":15471:15482   */\n      sload\n        /* \"#utility.yul\":15443:15534   */\n      tag_145\n      jump\t// in\n    tag_305:\n        /* \"#utility.yul\":15437:15441   */\n      dup3\n        /* \"#utility.yul\":15430:15535   */\n      sstore\n        /* \"#utility.yul\":15348:15541   */\n      pop\n        /* \"#utility.yul\":15272:15541   */\n      pop\n      pop\n      pop\n      jump\t// out\n        /* \"#utility.yul\":15547:15620   */\n    tag_149:\n        /* \"#utility.yul\":15592:15595   */\n      0x00\n        /* \"#utility.yul\":15547:15620   */\n      swap1\n      jump\t// out\n        /* \"#utility.yul\":15626:15815   */\n    tag_150:\n        /* \"#utility.yul\":15703:15735   */\n      tag_309\n      tag_149\n      jump\t// in\n    tag_309:\n        /* \"#utility.yul\":15744:15809   */\n      tag_310\n        /* \"#utility.yul\":15802:15808   */\n      dup2\n        /* \"#utility.yul\":15794:15800   */\n      dup5\n        /* \"#utility.yul\":15788:15792   */\n      dup5\n        /* \"#utility.yul\":15744:15809   */\n      tag_148\n      jump\t// in\n    tag_310:\n        /* \"#utility.yul\":15679:15815   */\n      pop\n        /* \"#utility.yul\":15626:15815   */\n      pop\n      pop\n      jump\t// out\n        /* \"#utility.yul\":15821:16007   */\n    tag_151:\n        /* \"#utility.yul\":15881:16001   */\n    tag_312:\n        /* \"#utility.yul\":15898:15901   */\n      dup2\n        /* \"#utility.yul\":15891:15896   */\n      dup2\n        /* \"#utility.yul\":15888:15902   */\n      lt\n        /* \"#utility.yul\":15881:16001   */\n      iszero\n      tag_314\n      jumpi\n        /* \"#utility.yul\":15952:15991   */\n      tag_315\n        /* \"#utility.yul\":15989:15990   */\n      0x00\n        /* \"#utility.yul\":15982:15987   */\n      dup3\n        /* \"#utility.yul\":15952:15991   */\n      tag_150\n      jump\t// in\n    tag_315:\n        /* \"#utility.yul\":15925:15926   */\n      0x01\n        /* \"#utility.yul\":15918:15923   */\n      dup2\n        /* \"#utility.yul\":15914:15927   */\n      add\n        /* \"#utility.yul\":15905:15927   */\n      swap1\n      pop\n        /* \"#utility.yul\":15881:16001   */\n      jump(tag_312)\n    tag_314:\n        /* \"#utility.yul\":15821:16007   */\n      pop\n      pop\n      jump\t// out\n        /* \"#utility.yul\":16013:16556   */\n    tag_152:\n        /* \"#utility.yul\":16114:16116   */\n      0x1f\n        /* \"#utility.yul\":16109:16112   */\n      dup3\n        /* \"#utility.yul\":16106:16117   */\n      gt\n        /* \"#utility.yul\":16103:16549   */\n      iszero\n      tag_317\n      jumpi\n        /* \"#utility.yul\":16148:16186   */\n      tag_318\n        /* \"#utility.yul\":16180:16185   */\n      dup2\n        /* \"#utility.yul\":16148:16186   */\n      tag_142\n      jump\t// in\n    tag_318:\n        /* \"#utility.yul\":16232:16261   */\n      tag_319\n        /* \"#utility.yul\":16250:16260   */\n      dup5\n        /* \"#utility.yul\":16232:16261   */\n      tag_143\n      jump\t// in\n    tag_319:\n        /* \"#utility.yul\":16222:16230   */\n      dup2\n        /* \"#utility.yul\":16218:16262   */\n      add\n        /* \"#utility.yul\":16415:16417   */\n      0x20\n        /* \"#utility.yul\":16403:16413   */\n      dup6\n        /* \"#utility.yul\":16400:16418   */\n      lt\n        /* \"#utility.yul\":16397:16446   */\n      iszero\n      tag_320\n      jumpi\n        /* \"#utility.yul\":16436:16444   */\n      dup2\n        /* \"#utility.yul\":16421:16444   */\n      swap1\n      pop\n        /* \"#utility.yul\":16397:16446   */\n    tag_320:\n        /* \"#utility.yul\":16459:16539   */\n      tag_321\n        /* \"#utility.yul\":16515:16537   */\n      tag_322\n        /* \"#utility.yul\":16533:16536   */\n      dup6\n        /* \"#utility.yul\":16515:16537   */\n      tag_143\n      jump\t// in\n    tag_322:\n        /* \"#utility.yul\":16505:16513   */\n      dup4\n        /* \"#utility.yul\":16501:16538   */\n      add\n        /* \"#utility.yul\":16488:16499   */\n      dup3\n        /* \"#utility.yul\":16459:16539   */\n      tag_151\n      jump\t// in\n    tag_321:\n        /* \"#utility.yul\":16118:16549   */\n      pop\n      pop\n        /* \"#utility.yul\":16103:16549   */\n    tag_317:\n        /* \"#utility.yul\":16013:16556   */\n      pop\n      pop\n      pop\n      jump\t// out\n        /* \"#utility.yul\":16562:16679   */\n    tag_153:\n        /* \"#utility.yul\":16616:16624   */\n      0x00\n        /* \"#utility.yul\":16666:16671   */\n      dup3\n        /* \"#utility.yul\":16660:16664   */\n      dup3\n        /* \"#utility.yul\":16656:16672   */\n      shr\n        /* \"#utility.yul\":16635:16672   */\n      swap1\n      pop\n        /* \"#utility.yul\":16562:16679   */\n      swap3\n      swap2\n      pop\n      pop\n      jump\t// out\n        /* \"#utility.yul\":16685:16854   */\n    tag_154:\n        /* \"#utility.yul\":16729:16735   */\n      0x00\n        /* \"#utility.yul\":16762:16813   */\n      tag_325\n        /* \"#utility.yul\":16810:16811   */\n      0x00\n        /* \"#utility.yul\":16806:16812   */\n      not\n        /* \"#utility.yul\":16798:16803   */\n      dup5\n        /* \"#utility.yul\":16795:16796   */\n      0x08\n        /* \"#utility.yul\":16791:16804   */\n      mul\n        /* \"#utility.yul\":16762:16813   */\n      tag_153\n      jump\t// in\n    tag_325:\n        /* \"#utility.yul\":16758:16814   */\n      not\n        /* \"#utility.yul\":16843:16847   */\n      dup1\n        /* \"#utility.yul\":16837:16841   */\n      dup4\n        /* \"#utility.yul\":16833:16848   */\n      and\n        /* \"#utility.yul\":16823:16848   */\n      swap2\n      pop\n        /* \"#utility.yul\":16736:16854   */\n      pop\n        /* \"#utility.yul\":16685:16854   */\n      swap3\n      swap2\n      pop\n      pop\n      jump\t// out\n        /* \"#utility.yul\":16859:17154   */\n    tag_155:\n        /* \"#utility.yul\":16935:16939   */\n      0x00\n        /* \"#utility.yul\":17081:17110   */\n      tag_327\n        /* \"#utility.yul\":17106:17109   */\n      dup4\n        /* \"#utility.yul\":17100:17104   */\n      dup4\n        /* \"#utility.yul\":17081:17110   */\n      tag_154\n      jump\t// in\n    tag_327:\n        /* \"#utility.yul\":17073:17110   */\n      swap2\n      pop\n        /* \"#utility.yul\":17143:17146   */\n      dup3\n        /* \"#utility.yul\":17140:17141   */\n      0x02\n        /* \"#utility.yul\":17136:17147   */\n      mul\n        /* \"#utility.yul\":17130:17134   */\n      dup3\n        /* \"#utility.yul\":17127:17148   */\n      or\n        /* \"#utility.yul\":17119:17148   */\n      swap1\n      pop\n        /* \"#utility.yul\":16859:17154   */\n      swap3\n      swap2\n      pop\n      pop\n      jump\t// out\n        /* \"#utility.yul\":17159:18554   */\n    tag_79:\n        /* \"#utility.yul\":17276:17313   */\n      tag_329\n        /* \"#utility.yul\":17309:17312   */\n      dup3\n        /* \"#utility.yul\":17276:17313   */\n      tag_106\n      jump\t// in\n    tag_329:\n        /* \"#utility.yul\":17378:17396   */\n      0xffffffffffffffff\n        /* \"#utility.yul\":17370:17376   */\n      dup2\n        /* \"#utility.yul\":17367:17397   */\n      gt\n        /* \"#utility.yul\":17364:17420   */\n      iszero\n      tag_330\n      jumpi\n        /* \"#utility.yul\":17400:17418   */\n      tag_331\n      tag_128\n      jump\t// in\n    tag_331:\n        /* \"#utility.yul\":17364:17420   */\n    tag_330:\n        /* \"#utility.yul\":17444:17482   */\n      tag_332\n        /* \"#utility.yul\":17476:17480   */\n      dup3\n        /* \"#utility.yul\":17470:17481   */\n      sload\n        /* \"#utility.yul\":17444:17482   */\n      tag_35\n      jump\t// in\n    tag_332:\n        /* \"#utility.yul\":17529:17596   */\n      tag_333\n        /* \"#utility.yul\":17589:17595   */\n      dup3\n        /* \"#utility.yul\":17581:17587   */\n      dup3\n        /* \"#utility.yul\":17575:17579   */\n      dup6\n        /* \"#utility.yul\":17529:17596   */\n      tag_152\n      jump\t// in\n    tag_333:\n        /* \"#utility.yul\":17623:17624   */\n      0x00\n        /* \"#utility.yul\":17647:17651   */\n      0x20\n        /* \"#utility.yul\":17634:17651   */\n      swap1\n      pop\n        /* \"#utility.yul\":17679:17681   */\n      0x1f\n        /* \"#utility.yul\":17671:17677   */\n      dup4\n        /* \"#utility.yul\":17668:17682   */\n      gt\n        /* \"#utility.yul\":17696:17697   */\n      0x01\n        /* \"#utility.yul\":17691:18309   */\n      dup2\n      eq\n      tag_335\n      jumpi\n        /* \"#utility.yul\":18353:18354   */\n      0x00\n        /* \"#utility.yul\":18370:18376   */\n      dup5\n        /* \"#utility.yul\":18367:18444   */\n      iszero\n      tag_336\n      jumpi\n        /* \"#utility.yul\":18419:18428   */\n      dup3\n        /* \"#utility.yul\":18414:18417   */\n      dup8\n        /* \"#utility.yul\":18410:18429   */\n      add\n        /* \"#utility.yul\":18404:18430   */\n      mload\n        /* \"#utility.yul\":18395:18430   */\n      swap1\n      pop\n        /* \"#utility.yul\":18367:18444   */\n    tag_336:\n        /* \"#utility.yul\":18470:18537   */\n      tag_337\n        /* \"#utility.yul\":18530:18536   */\n      dup6\n        /* \"#utility.yul\":18523:18528   */\n      dup3\n        /* \"#utility.yul\":18470:18537   */\n      tag_155\n      jump\t// in\n    tag_337:\n        /* \"#utility.yul\":18464:18468   */\n      dup7\n        /* \"#utility.yul\":18457:18538   */\n      sstore\n        /* \"#utility.yul\":18326:18548   */\n      pop\n        /* \"#utility.yul\":17661:18548   */\n      jump(tag_334)\n        /* \"#utility.yul\":17691:18309   */\n    tag_335:\n        /* \"#utility.yul\":17743:17747   */\n      0x1f\n        /* \"#utility.yul\":17739:17748   */\n      not\n        /* \"#utility.yul\":17731:17737   */\n      dup5\n        /* \"#utility.yul\":17727:17749   */\n      and\n        /* \"#utility.yul\":17777:17814   */\n      tag_338\n        /* \"#utility.yul\":17809:17813   */\n      dup7\n        /* \"#utility.yul\":17777:17814   */\n      tag_142\n      jump\t// in\n    tag_338:\n        /* \"#utility.yul\":17836:17837   */\n      0x00\n        /* \"#utility.yul\":17850:18058   */\n    tag_339:\n        /* \"#utility.yul\":17864:17871   */\n      dup3\n        /* \"#utility.yul\":17861:17862   */\n      dup2\n        /* \"#utility.yul\":17858:17872   */\n      lt\n        /* \"#utility.yul\":17850:18058   */\n      iszero\n      tag_341\n      jumpi\n        /* \"#utility.yul\":17943:17952   */\n      dup5\n        /* \"#utility.yul\":17938:17941   */\n      dup10\n        /* \"#utility.yul\":17934:17953   */\n      add\n        /* \"#utility.yul\":17928:17954   */\n      mload\n        /* \"#utility.yul\":17920:17926   */\n      dup3\n        /* \"#utility.yul\":17913:17955   */\n      sstore\n        /* \"#utility.yul\":17994:17995   */\n      0x01\n        /* \"#utility.yul\":17986:17992   */\n      dup3\n        /* \"#utility.yul\":17982:17996   */\n      add\n        /* \"#utility.yul\":17972:17996   */\n      swap2\n      pop\n        /* \"#utility.yul\":18041:18043   */\n      0x20\n        /* \"#utility.yul\":18030:18039   */\n      dup6\n        /* \"#utility.yul\":18026:18044   */\n      add\n        /* \"#utility.yul\":18013:18044   */\n      swap5\n      pop\n        /* \"#utility.yul\":17887:17891   */\n      0x20\n        /* \"#utility.yul\":17884:17885   */\n      dup2\n        /* \"#utility.yul\":17880:17892   */\n      add\n        /* \"#utility.yul\":17875:17892   */\n      swap1\n      pop\n        /* \"#utility.yul\":17850:18058   */\n      jump(tag_339)\n    tag_341:\n        /* \"#utility.yul\":18086:18092   */\n      dup7\n        /* \"#utility.yul\":18077:18084   */\n      dup4\n        /* \"#utility.yul\":18074:18093   */\n      lt\n        /* \"#utility.yul\":18071:18250   */\n      iszero\n      tag_342\n      jumpi\n        /* \"#utility.yul\":18144:18153   */\n      dup5\n        /* \"#utility.yul\":18139:18142   */\n      dup10\n        /* \"#utility.yul\":18135:18154   */\n      add\n        /* \"#utility.yul\":18129:18155   */\n      mload\n        /* \"#utility.yul\":18187:18235   */\n      tag_343\n        /* \"#utility.yul\":18229:18233   */\n      0x1f\n        /* \"#utility.yul\":18221:18227   */\n      dup10\n        /* \"#utility.yul\":18217:18234   */\n      and\n        /* \"#utility.yul\":18206:18215   */\n      dup3\n        /* \"#utility.yul\":18187:18235   */\n      tag_154\n      jump\t// in\n    tag_343:\n        /* \"#utility.yul\":18179:18185   */\n      dup4\n        /* \"#utility.yul\":18172:18236   */\n      sstore\n        /* \"#utility.yul\":18094:18250   */\n      pop\n        /* \"#utility.yul\":18071:18250   */\n    tag_342:\n        /* \"#utility.yul\":18296:18297   */\n      0x01\n        /* \"#utility.yul\":18292:18293   */\n      0x02\n        /* \"#utility.yul\":18284:18290   */\n      dup9\n        /* \"#utility.yul\":18280:18294   */\n      mul\n        /* \"#utility.yul\":18276:18298   */\n      add\n        /* \"#utility.yul\":18270:18274   */\n      dup9\n        /* \"#utility.yul\":18263:18299   */\n      sstore\n        /* \"#utility.yul\":17698:18309   */\n      pop\n      pop\n      pop\n        /* \"#utility.yul\":17661:18548   */\n    tag_334:\n      pop\n        /* \"#utility.yul\":17251:18554   */\n      pop\n      pop\n      pop\n        /* \"#utility.yul\":17159:18554   */\n      pop\n      pop\n      jump\t// out\n        /* \"#utility.yul\":18560:19497   */\n    tag_83:\n        /* \"#utility.yul\":18825:18829   */\n      0x00\n        /* \"#utility.yul\":18863:18866   */\n      0xa0\n        /* \"#utility.yul\":18852:18861   */\n      dup3\n        /* \"#utility.yul\":18848:18867   */\n      add\n        /* \"#utility.yul\":18840:18867   */\n      swap1\n      pop\n        /* \"#utility.yul\":18877:18948   */\n      tag_345\n        /* \"#utility.yul\":18945:18946   */\n      0x00\n        /* \"#utility.yul\":18934:18943   */\n      dup4\n        /* \"#utility.yul\":18930:18947   */\n      add\n        /* \"#utility.yul\":18921:18927   */\n      dup9\n        /* \"#utility.yul\":18877:18948   */\n      tag_114\n      jump\t// in\n    tag_345:\n        /* \"#utility.yul\":18995:19004   */\n      dup2\n        /* \"#utility.yul\":18989:18993   */\n      dup2\n        /* \"#utility.yul\":18985:19005   */\n      sub\n        /* \"#utility.yul\":18980:18982   */\n      0x20\n        /* \"#utility.yul\":18969:18978   */\n      dup4\n        /* \"#utility.yul\":18965:18983   */\n      add\n        /* \"#utility.yul\":18958:19006   */\n      mstore\n        /* \"#utility.yul\":19023:19101   */\n      tag_346\n        /* \"#utility.yul\":19096:19100   */\n      dup2\n        /* \"#utility.yul\":19087:19093   */\n      dup8\n        /* \"#utility.yul\":19023:19101   */\n      tag_116\n      jump\t// in\n    tag_346:\n        /* \"#utility.yul\":19015:19101   */\n      swap1\n      pop\n        /* \"#utility.yul\":19148:19157   */\n      dup2\n        /* \"#utility.yul\":19142:19146   */\n      dup2\n        /* \"#utility.yul\":19138:19158   */\n      sub\n        /* \"#utility.yul\":19133:19135   */\n      0x40\n        /* \"#utility.yul\":19122:19131   */\n      dup4\n        /* \"#utility.yul\":19118:19136   */\n      add\n        /* \"#utility.yul\":19111:19159   */\n      mstore\n        /* \"#utility.yul\":19176:19254   */\n      tag_347\n        /* \"#utility.yul\":19249:19253   */\n      dup2\n        /* \"#utility.yul\":19240:19246   */\n      dup7\n        /* \"#utility.yul\":19176:19254   */\n      tag_116\n      jump\t// in\n    tag_347:\n        /* \"#utility.yul\":19168:19254   */\n      swap1\n      pop\n        /* \"#utility.yul\":19301:19310   */\n      dup2\n        /* \"#utility.yul\":19295:19299   */\n      dup2\n        /* \"#utility.yul\":19291:19311   */\n      sub\n        /* \"#utility.yul\":19286:19288   */\n      0x60\n        /* \"#utility.yul\":19275:19284   */\n      dup4\n        /* \"#utility.yul\":19271:19289   */\n      add\n        /* \"#utility.yul\":19264:19312   */\n      mstore\n        /* \"#utility.yul\":19329:19407   */\n      tag_348\n        /* \"#utility.yul\":19402:19406   */\n      dup2\n        /* \"#utility.yul\":19393:19399   */\n      dup6\n        /* \"#utility.yul\":19329:19407   */\n      tag_116\n      jump\t// in\n    tag_348:\n        /* \"#utility.yul\":19321:19407   */\n      swap1\n      pop\n        /* \"#utility.yul\":19417:19490   */\n      tag_349\n        /* \"#utility.yul\":19485:19488   */\n      0x80\n        /* \"#utility.yul\":19474:19483   */\n      dup4\n        /* \"#utility.yul\":19470:19489   */\n      add\n        /* \"#utility.yul\":19461:19467   */\n      dup5\n        /* \"#utility.yul\":19417:19490   */\n      tag_120\n      jump\t// in\n    tag_349:\n        /* \"#utility.yul\":18560:19497   */\n      swap7\n      swap6\n      pop\n      pop\n      pop\n      pop\n      pop\n      pop\n      jump\t// out\n        /* \"#utility.yul\":19503:19646   */\n    tag_156:\n        /* \"#utility.yul\":19560:19565   */\n      0x00\n        /* \"#utility.yul\":19591:19597   */\n      dup2\n        /* \"#utility.yul\":19585:19598   */\n      mload\n        /* \"#utility.yul\":19576:19598   */\n      swap1\n      pop\n        /* \"#utility.yul\":19607:19640   */\n      tag_351\n        /* \"#utility.yul\":19634:19639   */\n      dup2\n        /* \"#utility.yul\":19607:19640   */\n      tag_103\n      jump\t// in\n    tag_351:\n        /* \"#utility.yul\":19503:19646   */\n      swap3\n      swap2\n      pop\n      pop\n      jump\t// out\n        /* \"#utility.yul\":19652:20003   */\n    tag_88:\n        /* \"#utility.yul\":19722:19728   */\n      0x00\n        /* \"#utility.yul\":19771:19773   */\n      0x20\n        /* \"#utility.yul\":19759:19768   */\n      dup3\n        /* \"#utility.yul\":19750:19757   */\n      dup5\n        /* \"#utility.yul\":19746:19769   */\n      sub\n        /* \"#utility.yul\":19742:19774   */\n      slt\n        /* \"#utility.yul\":19739:19858   */\n      iszero\n      tag_353\n      jumpi\n        /* \"#utility.yul\":19777:19856   */\n      tag_354\n      tag_100\n      jump\t// in\n    tag_354:\n        /* \"#utility.yul\":19739:19858   */\n    tag_353:\n        /* \"#utility.yul\":19897:19898   */\n      0x00\n        /* \"#utility.yul\":19922:19986   */\n      tag_355\n        /* \"#utility.yul\":19978:19985   */\n      dup5\n        /* \"#utility.yul\":19969:19975   */\n      dup3\n        /* \"#utility.yul\":19958:19967   */\n      dup6\n        /* \"#utility.yul\":19954:19976   */\n      add\n        /* \"#utility.yul\":19922:19986   */\n      tag_156\n      jump\t// in\n    tag_355:\n        /* \"#utility.yul\":19912:19986   */\n      swap2\n      pop\n        /* \"#utility.yul\":19868:19996   */\n      pop\n        /* \"#utility.yul\":19652:20003   */\n      swap3\n      swap2\n      pop\n      pop\n      jump\t// out\n        /* \"#utility.yul\":20009:20231   */\n    tag_93:\n        /* \"#utility.yul\":20102:20106   */\n      0x00\n        /* \"#utility.yul\":20140:20142   */\n      0x20\n        /* \"#utility.yul\":20129:20138   */\n      dup3\n        /* \"#utility.yul\":20125:20143   */\n      add\n        /* \"#utility.yul\":20117:20143   */\n      swap1\n      pop\n        /* \"#utility.yul\":20153:20224   */\n      tag_357\n        /* \"#utility.yul\":20221:20222   */\n      0x00\n        /* \"#utility.yul\":20210:20219   */\n      dup4\n        /* \"#utility.yul\":20206:20223   */\n      add\n        /* \"#utility.yul\":20197:20203   */\n      dup5\n        /* \"#utility.yul\":20153:20224   */\n      tag_114\n      jump\t// in\n    tag_357:\n        /* \"#utility.yul\":20009:20231   */\n      swap3\n      swap2\n      pop\n      pop\n      jump\t// out\n        /* \"#utility.yul\":20237:20671   */\n    tag_157:\n        /* \"#utility.yul\":20326:20331   */\n      0x00\n        /* \"#utility.yul\":20351:20417   */\n      tag_359\n        /* \"#utility.yul\":20367:20416   */\n      tag_360\n        /* \"#utility.yul\":20409:20415   */\n      dup5\n        /* \"#utility.yul\":20367:20416   */\n      tag_131\n      jump\t// in\n    tag_360:\n        /* \"#utility.yul\":20351:20417   */\n      tag_130\n      jump\t// in\n    tag_359:\n        /* \"#utility.yul\":20342:20417   */\n      swap1\n      pop\n        /* \"#utility.yul\":20440:20446   */\n      dup3\n        /* \"#utility.yul\":20433:20438   */\n      dup2\n        /* \"#utility.yul\":20426:20447   */\n      mstore\n        /* \"#utility.yul\":20478:20482   */\n      0x20\n        /* \"#utility.yul\":20471:20476   */\n      dup2\n        /* \"#utility.yul\":20467:20483   */\n      add\n        /* \"#utility.yul\":20516:20519   */\n      dup5\n        /* \"#utility.yul\":20507:20513   */\n      dup5\n        /* \"#utility.yul\":20502:20505   */\n      dup5\n        /* \"#utility.yul\":20498:20514   */\n      add\n        /* \"#utility.yul\":20495:20520   */\n      gt\n        /* \"#utility.yul\":20492:20604   */\n      iszero\n      tag_361\n      jumpi\n        /* \"#utility.yul\":20523:20602   */\n      tag_362\n      tag_127\n      jump\t// in\n    tag_362:\n        /* \"#utility.yul\":20492:20604   */\n    tag_361:\n        /* \"#utility.yul\":20613:20665   */\n      tag_363\n        /* \"#utility.yul\":20658:20664   */\n      dup5\n        /* \"#utility.yul\":20653:20656   */\n      dup3\n        /* \"#utility.yul\":20648:20651   */\n      dup6\n        /* \"#utility.yul\":20613:20665   */\n      tag_108\n      jump\t// in\n    tag_363:\n        /* \"#utility.yul\":20332:20671   */\n      pop\n        /* \"#utility.yul\":20237:20671   */\n      swap4\n      swap3\n      pop\n      pop\n      pop\n      jump\t// out\n        /* \"#utility.yul\":20691:21046   */\n    tag_158:\n        /* \"#utility.yul\":20758:20763   */\n      0x00\n        /* \"#utility.yul\":20807:20810   */\n      dup3\n        /* \"#utility.yul\":20800:20804   */\n      0x1f\n        /* \"#utility.yul\":20792:20798   */\n      dup4\n        /* \"#utility.yul\":20788:20805   */\n      add\n        /* \"#utility.yul\":20784:20811   */\n      slt\n        /* \"#utility.yul\":20774:20896   */\n      tag_365\n      jumpi\n        /* \"#utility.yul\":20815:20894   */\n      tag_366\n      tag_126\n      jump\t// in\n    tag_366:\n        /* \"#utility.yul\":20774:20896   */\n    tag_365:\n        /* \"#utility.yul\":20925:20931   */\n      dup2\n        /* \"#utility.yul\":20919:20932   */\n      mload\n        /* \"#utility.yul\":20950:21040   */\n      tag_367\n        /* \"#utility.yul\":21036:21039   */\n      dup5\n        /* \"#utility.yul\":21028:21034   */\n      dup3\n        /* \"#utility.yul\":21021:21025   */\n      0x20\n        /* \"#utility.yul\":21013:21019   */\n      dup7\n        /* \"#utility.yul\":21009:21026   */\n      add\n        /* \"#utility.yul\":20950:21040   */\n      tag_157\n      jump\t// in\n    tag_367:\n        /* \"#utility.yul\":20941:21040   */\n      swap2\n      pop\n        /* \"#utility.yul\":20764:21046   */\n      pop\n        /* \"#utility.yul\":20691:21046   */\n      swap3\n      swap2\n      pop\n      pop\n      jump\t// out\n        /* \"#utility.yul\":21052:23381   */\n    tag_97:\n        /* \"#utility.yul\":21236:21242   */\n      0x00\n        /* \"#utility.yul\":21244:21250   */\n      dup1\n        /* \"#utility.yul\":21252:21258   */\n      0x00\n        /* \"#utility.yul\":21260:21266   */\n      dup1\n        /* \"#utility.yul\":21268:21274   */\n      0x00\n        /* \"#utility.yul\":21276:21282   */\n      dup1\n        /* \"#utility.yul\":21284:21290   */\n      0x00\n        /* \"#utility.yul\":21333:21336   */\n      0xe0\n        /* \"#utility.yul\":21321:21330   */\n      dup9\n        /* \"#utility.yul\":21312:21319   */\n      dup11\n        /* \"#utility.yul\":21308:21331   */\n      sub\n        /* \"#utility.yul\":21304:21337   */\n      slt\n        /* \"#utility.yul\":21301:21421   */\n      iszero\n      tag_369\n      jumpi\n        /* \"#utility.yul\":21340:21419   */\n      tag_370\n      tag_100\n      jump\t// in\n    tag_370:\n        /* \"#utility.yul\":21301:21421   */\n    tag_369:\n        /* \"#utility.yul\":21460:21461   */\n      0x00\n        /* \"#utility.yul\":21485:21549   */\n      tag_371\n        /* \"#utility.yul\":21541:21548   */\n      dup11\n        /* \"#utility.yul\":21532:21538   */\n      dup3\n        /* \"#utility.yul\":21521:21530   */\n      dup12\n        /* \"#utility.yul\":21517:21539   */\n      add\n        /* \"#utility.yul\":21485:21549   */\n      tag_156\n      jump\t// in\n    tag_371:\n        /* \"#utility.yul\":21475:21549   */\n      swap8\n      pop\n        /* \"#utility.yul\":21431:21559   */\n      pop\n        /* \"#utility.yul\":21619:21621   */\n      0x20\n        /* \"#utility.yul\":21608:21617   */\n      dup9\n        /* \"#utility.yul\":21604:21622   */\n      add\n        /* \"#utility.yul\":21598:21623   */\n      mload\n        /* \"#utility.yul\":21650:21668   */\n      0xffffffffffffffff\n        /* \"#utility.yul\":21642:21648   */\n      dup2\n        /* \"#utility.yul\":21639:21669   */\n      gt\n        /* \"#utility.yul\":21636:21753   */\n      iszero\n      tag_372\n      jumpi\n        /* \"#utility.yul\":21672:21751   */\n      tag_373\n      tag_101\n      jump\t// in\n    tag_373:\n        /* \"#utility.yul\":21636:21753   */\n    tag_372:\n        /* \"#utility.yul\":21777:21851   */\n      tag_374\n        /* \"#utility.yul\":21843:21850   */\n      dup11\n        /* \"#utility.yul\":21834:21840   */\n      dup3\n        /* \"#utility.yul\":21823:21832   */\n      dup12\n        /* \"#utility.yul\":21819:21841   */\n      add\n        /* \"#utility.yul\":21777:21851   */\n      tag_158\n      jump\t// in\n    tag_374:\n        /* \"#utility.yul\":21767:21851   */\n      swap7\n      pop\n        /* \"#utility.yul\":21569:21861   */\n      pop\n        /* \"#utility.yul\":21921:21923   */\n      0x40\n        /* \"#utility.yul\":21910:21919   */\n      dup9\n        /* \"#utility.yul\":21906:21924   */\n      add\n        /* \"#utility.yul\":21900:21925   */\n      mload\n        /* \"#utility.yul\":21952:21970   */\n      0xffffffffffffffff\n        /* \"#utility.yul\":21944:21950   */\n      dup2\n        /* \"#utility.yul\":21941:21971   */\n      gt\n        /* \"#utility.yul\":21938:22055   */\n      iszero\n      tag_375\n      jumpi\n        /* \"#utility.yul\":21974:22053   */\n      tag_376\n      tag_101\n      jump\t// in\n    tag_376:\n        /* \"#utility.yul\":21938:22055   */\n    tag_375:\n        /* \"#utility.yul\":22079:22153   */\n      tag_377\n        /* \"#utility.yul\":22145:22152   */\n      dup11\n        /* \"#utility.yul\":22136:22142   */\n      dup3\n        /* \"#utility.yul\":22125:22134   */\n      dup12\n        /* \"#utility.yul\":22121:22143   */\n      add\n        /* \"#utility.yul\":22079:22153   */\n      tag_158\n      jump\t// in\n    tag_377:\n        /* \"#utility.yul\":22069:22153   */\n      swap6\n      pop\n        /* \"#utility.yul\":21871:22163   */\n      pop\n        /* \"#utility.yul\":22223:22225   */\n      0x60\n        /* \"#utility.yul\":22212:22221   */\n      dup9\n        /* \"#utility.yul\":22208:22226   */\n      add\n        /* \"#utility.yul\":22202:22227   */\n      mload\n        /* \"#utility.yul\":22254:22272   */\n      0xffffffffffffffff\n        /* \"#utility.yul\":22246:22252   */\n      dup2\n        /* \"#utility.yul\":22243:22273   */\n      gt\n        /* \"#utility.yul\":22240:22357   */\n      iszero\n      tag_378\n      jumpi\n        /* \"#utility.yul\":22276:22355   */\n      tag_379\n      tag_101\n      jump\t// in\n    tag_379:\n        /* \"#utility.yul\":22240:22357   */\n    tag_378:\n        /* \"#utility.yul\":22381:22455   */\n      tag_380\n        /* \"#utility.yul\":22447:22454   */\n      dup11\n        /* \"#utility.yul\":22438:22444   */\n      dup3\n        /* \"#utility.yul\":22427:22436   */\n      dup12\n        /* \"#utility.yul\":22423:22445   */\n      add\n        /* \"#utility.yul\":22381:22455   */\n      tag_158\n      jump\t// in\n    tag_380:\n        /* \"#utility.yul\":22371:22455   */\n      swap5\n      pop\n        /* \"#utility.yul\":22173:22465   */\n      pop\n        /* \"#utility.yul\":22525:22528   */\n      0x80\n        /* \"#utility.yul\":22514:22523   */\n      dup9\n        /* \"#utility.yul\":22510:22529   */\n      add\n        /* \"#utility.yul\":22504:22530   */\n      mload\n        /* \"#utility.yul\":22557:22575   */\n      0xffffffffffffffff\n        /* \"#utility.yul\":22549:22555   */\n      dup2\n        /* \"#utility.yul\":22546:22576   */\n      gt\n        /* \"#utility.yul\":22543:22660   */\n      iszero\n      tag_381\n      jumpi\n        /* \"#utility.yul\":22579:22658   */\n      tag_382\n      tag_101\n      jump\t// in\n    tag_382:\n        /* \"#utility.yul\":22543:22660   */\n    tag_381:\n        /* \"#utility.yul\":22684:22758   */\n      tag_383\n        /* \"#utility.yul\":22750:22757   */\n      dup11\n        /* \"#utility.yul\":22741:22747   */\n      dup3\n        /* \"#utility.yul\":22730:22739   */\n      dup12\n        /* \"#utility.yul\":22726:22748   */\n      add\n        /* \"#utility.yul\":22684:22758   */\n      tag_158\n      jump\t// in\n    tag_383:\n        /* \"#utility.yul\":22674:22758   */\n      swap4\n      pop\n        /* \"#utility.yul\":22475:22768   */\n      pop\n        /* \"#utility.yul\":22828:22831   */\n      0xa0\n        /* \"#utility.yul\":22817:22826   */\n      dup9\n        /* \"#utility.yul\":22813:22832   */\n      add\n        /* \"#utility.yul\":22807:22833   */\n      mload\n        /* \"#utility.yul\":22860:22878   */\n      0xffffffffffffffff\n        /* \"#utility.yul\":22852:22858   */\n      dup2\n        /* \"#utility.yul\":22849:22879   */\n      gt\n        /* \"#utility.yul\":22846:22963   */\n      iszero\n      tag_384\n      jumpi\n        /* \"#utility.yul\":22882:22961   */\n      tag_385\n      tag_101\n      jump\t// in\n    tag_385:\n        /* \"#utility.yul\":22846:22963   */\n    tag_384:\n        /* \"#utility.yul\":22987:23061   */\n      tag_386\n        /* \"#utility.yul\":23053:23060   */\n      dup11\n        /* \"#utility.yul\":23044:23050   */\n      dup3\n        /* \"#utility.yul\":23033:23042   */\n      dup12\n        /* \"#utility.yul\":23029:23051   */\n      add\n        /* \"#utility.yul\":22987:23061   */\n      tag_158\n      jump\t// in\n    tag_386:\n        /* \"#utility.yul\":22977:23061   */\n      swap3\n      pop\n        /* \"#utility.yul\":22778:23071   */\n      pop\n        /* \"#utility.yul\":23131:23134   */\n      0xc0\n        /* \"#utility.yul\":23120:23129   */\n      dup9\n        /* \"#utility.yul\":23116:23135   */\n      add\n        /* \"#utility.yul\":23110:23136   */\n      mload\n        /* \"#utility.yul\":23163:23181   */\n      0xffffffffffffffff\n        /* \"#utility.yul\":23155:23161   */\n      dup2\n        /* \"#utility.yul\":23152:23182   */\n      gt\n        /* \"#utility.yul\":23149:23266   */\n      iszero\n      tag_387\n      jumpi\n        /* \"#utility.yul\":23185:23264   */\n      tag_388\n      tag_101\n      jump\t// in\n    tag_388:\n        /* \"#utility.yul\":23149:23266   */\n    tag_387:\n        /* \"#utility.yul\":23290:23364   */\n      tag_389\n        /* \"#utility.yul\":23356:23363   */\n      dup11\n        /* \"#utility.yul\":23347:23353   */\n      dup3\n        /* \"#utility.yul\":23336:23345   */\n      dup12\n        /* \"#utility.yul\":23332:23354   */\n      add\n        /* \"#utility.yul\":23290:23364   */\n      tag_158\n      jump\t// in\n    tag_389:\n        /* \"#utility.yul\":23280:23364   */\n      swap2\n      pop\n        /* \"#utility.yul\":23081:23374   */\n      pop\n        /* \"#utility.yul\":21052:23381   */\n      swap3\n      swap6\n      swap9\n      swap2\n      swap5\n      swap8\n      pop\n      swap3\n      swap6\n      pop\n      jump\t// out\n\n    auxdata: 0xa2646970667358221220a3dfedc43204ef23566a75c64440e0a4e4c429a64d80b1a61da1b040175c2c2364736f6c634300081a0033\n}\n",
				"bytecode": {
					"linkReferences": {},
					"object": "608060405234801561000f575f80fd5b5060405161164538038061164583398181016040528101906100319190610114565b335f806101000a81548173ffffffffffffffffffffffffffffffffffffffff021916908373ffffffffffffffffffffffffffffffffffffffff1602179055508060015f6101000a81548173ffffffffffffffffffffffffffffffffffffffff021916908373ffffffffffffffffffffffffffffffffffffffff1602179055505061013f565b5f80fd5b5f73ffffffffffffffffffffffffffffffffffffffff82169050919050565b5f6100e3826100ba565b9050919050565b6100f3816100d9565b81146100fd575f80fd5b50565b5f8151905061010e816100ea565b92915050565b5f60208284031215610129576101286100b6565b5b5f61013684828501610100565b91505092915050565b6114f98061014c5f395ff3fe608060405234801561000f575f80fd5b5060043610610055575f3560e01c80630ad3c939146100595780630f6bc96b146100895780638da5cb5b146100bd5780639c0b7d46146100db578063bbbf3bac146100f9575b5f80fd5b610073600480360381019061006e919061092d565b610115565b6040516100809190610a72565b60405180910390f35b6100a3600480360381019061009e919061092d565b610313565b6040516100b4959493929190610af8565b60405180910390f35b6100c56104e3565b6040516100d29190610b9d565b60405180910390f35b6100e3610506565b6040516100f09190610c11565b60405180910390f35b610113600480360381019061010e9190610d56565b61052b565b005b61011d6108ba565b60025f8381526020019081526020015f206040518060a00160405290815f820154815260200160018201805461015290610e3b565b80601f016020809104026020016040519081016040528092919081815260200182805461017e90610e3b565b80156101c95780601f106101a0576101008083540402835291602001916101c9565b820191905f5260205f20905b8154815290600101906020018083116101ac57829003601f168201915b505050505081526020016002820180546101e290610e3b565b80601f016020809104026020016040519081016040528092919081815260200182805461020e90610e3b565b80156102595780601f1061023057610100808354040283529160200191610259565b820191905f5260205f20905b81548152906001019060200180831161023c57829003601f168201915b5050505050815260200160038201805461027290610e3b565b80601f016020809104026020016040519081016040528092919081815260200182805461029e90610e3b565b80156102e95780601f106102c0576101008083540402835291602001916102e9565b820191905f5260205f20905b8154815290600101906020018083116102cc57829003601f168201915b50505050508152602001600482015f9054906101000a900460ff1615151515815250509050919050565b6002602052805f5260405f205f91509050805f01549080600101805461033890610e3b565b80601f016020809104026020016040519081016040528092919081815260200182805461036490610e3b565b80156103af5780601f10610386576101008083540402835291602001916103af565b820191905f5260205f20905b81548152906001019060200180831161039257829003601f168201915b5050505050908060020180546103c490610e3b565b80601f01602080910402602001604051908101604052809291908181526020018280546103f090610e3b565b801561043b5780601f106104125761010080835404028352916020019161043b565b820191905f5260205f20905b81548152906001019060200180831161041e57829003601f168201915b50505050509080600301805461045090610e3b565b80601f016020809104026020016040519081016040528092919081815260200182805461047c90610e3b565b80156104c75780601f1061049e576101008083540402835291602001916104c7565b820191905f5260205f20905b8154815290600101906020018083116104aa57829003601f168201915b505050505090806004015f9054906101000a900460ff16905085565b5f8054906101000a900473ffffffffffffffffffffffffffffffffffffffff1681565b60015f9054906101000a900473ffffffffffffffffffffffffffffffffffffffff1681565b5f8054906101000a900473ffffffffffffffffffffffffffffffffffffffff1673ffffffffffffffffffffffffffffffffffffffff163373ffffffffffffffffffffffffffffffffffffffff16146105b8576040517f08c379a00000000000000000000000000000000000000000000000000000000081526004016105af90610edb565b60405180910390fd5b60025f8581526020019081526020015f206004015f9054906101000a900460ff1615610619576040517f08c379a000000000000000000000000000000000000000000000000000000000815260040161061090610f43565b60405180910390fd5b6106228461074d565b610661576040517f08c379a000000000000000000000000000000000000000000000000000000000815260040161065890610fd1565b60405180910390fd5b6040518060a001604052808581526020018481526020018381526020018281526020016001151581525060025f8681526020019081526020015f205f820151815f015560208201518160010190816106b99190611183565b5060408201518160020190816106cf9190611183565b5060608201518160030190816106e59190611183565b506080820151816004015f6101000a81548160ff0219169083151502179055509050507fa0b3c98bd0e328776668e753573fd7fddb2d27d8278c9a794c19d87f85dea04c848484843360405161073f959493929190611252565b60405180910390a150505050565b5f8060015f9054906101000a900473ffffffffffffffffffffffffffffffffffffffff1673ffffffffffffffffffffffffffffffffffffffff1663a8fabfa56040518163ffffffff1660e01b8152600401602060405180830381865afa1580156107b9573d5f803e3d5ffd5b505050506040513d601f19601f820116820180604052508101906107dd91906112cc565b90505f5b818110156108af575f60015f9054906101000a900473ffffffffffffffffffffffffffffffffffffffff1673ffffffffffffffffffffffffffffffffffffffff16635ac44282836040518263ffffffff1660e01b815260040161084491906112f7565b5f60405180830381865afa15801561085e573d5f803e3d5ffd5b505050506040513d5f823e3d601f19601f82011682018060405250810190610886919061137e565b50505050505090508481036108a157600193505050506108b5565b5080806001019150506107e1565b505f9150505b919050565b6040518060a001604052805f81526020016060815260200160608152602001606081526020015f151581525090565b5f604051905090565b5f80fd5b5f80fd5b5f819050919050565b61090c816108fa565b8114610916575f80fd5b50565b5f8135905061092781610903565b92915050565b5f60208284031215610942576109416108f2565b5b5f61094f84828501610919565b91505092915050565b610961816108fa565b82525050565b5f81519050919050565b5f82825260208201905092915050565b8281835e5f83830152505050565b5f601f19601f8301169050919050565b5f6109a982610967565b6109b38185610971565b93506109c3818560208601610981565b6109cc8161098f565b840191505092915050565b5f8115159050919050565b6109eb816109d7565b82525050565b5f60a083015f830151610a065f860182610958565b5060208301518482036020860152610a1e828261099f565b91505060408301518482036040860152610a38828261099f565b91505060608301518482036060860152610a52828261099f565b9150506080830151610a6760808601826109e2565b508091505092915050565b5f6020820190508181035f830152610a8a81846109f1565b905092915050565b610a9b816108fa565b82525050565b5f82825260208201905092915050565b5f610abb82610967565b610ac58185610aa1565b9350610ad5818560208601610981565b610ade8161098f565b840191505092915050565b610af2816109d7565b82525050565b5f60a082019050610b0b5f830188610a92565b8181036020830152610b1d8187610ab1565b90508181036040830152610b318186610ab1565b90508181036060830152610b458185610ab1565b9050610b546080830184610ae9565b9695505050505050565b5f73ffffffffffffffffffffffffffffffffffffffff82169050919050565b5f610b8782610b5e565b9050919050565b610b9781610b7d565b82525050565b5f602082019050610bb05f830184610b8e565b92915050565b5f819050919050565b5f610bd9610bd4610bcf84610b5e565b610bb6565b610b5e565b9050919050565b5f610bea82610bbf565b9050919050565b5f610bfb82610be0565b9050919050565b610c0b81610bf1565b82525050565b5f602082019050610c245f830184610c02565b92915050565b5f80fd5b5f80fd5b7f4e487b71000000000000000000000000000000000000000000000000000000005f52604160045260245ffd5b610c688261098f565b810181811067ffffffffffffffff82111715610c8757610c86610c32565b5b80604052505050565b5f610c996108e9565b9050610ca58282610c5f565b919050565b5f67ffffffffffffffff821115610cc457610cc3610c32565b5b610ccd8261098f565b9050602081019050919050565b828183375f83830152505050565b5f610cfa610cf584610caa565b610c90565b905082815260208101848484011115610d1657610d15610c2e565b5b610d21848285610cda565b509392505050565b5f82601f830112610d3d57610d3c610c2a565b5b8135610d4d848260208601610ce8565b91505092915050565b5f805f8060808587031215610d6e57610d6d6108f2565b5b5f610d7b87828801610919565b945050602085013567ffffffffffffffff811115610d9c57610d9b6108f6565b5b610da887828801610d29565b935050604085013567ffffffffffffffff811115610dc957610dc86108f6565b5b610dd587828801610d29565b925050606085013567ffffffffffffffff811115610df657610df56108f6565b5b610e0287828801610d29565b91505092959194509250565b7f4e487b71000000000000000000000000000000000000000000000000000000005f52602260045260245ffd5b5f6002820490506001821680610e5257607f821691505b602082108103610e6557610e64610e0e565b5b50919050565b7f4f6e6c79207665726966696564206578706f727465722063616e206c6f6720645f8201527f6570617274757265000000000000000000000000000000000000000000000000602082015250565b5f610ec5602883610aa1565b9150610ed082610e6b565b604082019050919050565b5f6020820190508181035f830152610ef281610eb9565b9050919050565b7f44657061727475726520616c7265616479206c6f6767656400000000000000005f82015250565b5f610f2d601883610aa1565b9150610f3882610ef9565b602082019050919050565b5f6020820190508181035f830152610f5a81610f21565b9050919050565b7f4261746368204944206e6f7420666f756e6420696e206661726d657220636f6e5f8201527f7472616374000000000000000000000000000000000000000000000000000000602082015250565b5f610fbb602583610aa1565b9150610fc682610f61565b604082019050919050565b5f6020820190508181035f830152610fe881610faf565b9050919050565b5f819050815f5260205f209050919050565b5f6020601f8301049050919050565b5f82821b905092915050565b5f6008830261104b7fffffffffffffffffffffffffffffffffffffffffffffffffffffffffffffffff82611010565b6110558683611010565b95508019841693508086168417925050509392505050565b5f61108761108261107d846108fa565b610bb6565b6108fa565b9050919050565b5f819050919050565b6110a08361106d565b6110b46110ac8261108e565b84845461101c565b825550505050565b5f90565b6110c86110bc565b6110d3818484611097565b505050565b5b818110156110f6576110eb5f826110c0565b6001810190506110d9565b5050565b601f82111561113b5761110c81610fef565b61111584611001565b81016020851015611124578190505b61113861113085611001565b8301826110d8565b50505b505050565b5f82821c905092915050565b5f61115b5f1984600802611140565b1980831691505092915050565b5f611173838361114c565b9150826002028217905092915050565b61118c82610967565b67ffffffffffffffff8111156111a5576111a4610c32565b5b6111af8254610e3b565b6111ba8282856110fa565b5f60209050601f8311600181146111eb575f84156111d9578287015190505b6111e38582611168565b86555061124a565b601f1984166111f986610fef565b5f5b82811015611220578489015182556001820191506020850194506020810190506111fb565b8683101561123d5784890151611239601f89168261114c565b8355505b6001600288020188555050505b505050505050565b5f60a0820190506112655f830188610a92565b81810360208301526112778187610ab1565b9050818103604083015261128b8186610ab1565b9050818103606083015261129f8185610ab1565b90506112ae6080830184610b8e565b9695505050505050565b5f815190506112c681610903565b92915050565b5f602082840312156112e1576112e06108f2565b5b5f6112ee848285016112b8565b91505092915050565b5f60208201905061130a5f830184610a92565b92915050565b5f61132261131d84610caa565b610c90565b90508281526020810184848401111561133e5761133d610c2e565b5b611349848285610981565b509392505050565b5f82601f83011261136557611364610c2a565b5b8151611375848260208601611310565b91505092915050565b5f805f805f805f60e0888a031215611399576113986108f2565b5b5f6113a68a828b016112b8565b975050602088015167ffffffffffffffff8111156113c7576113c66108f6565b5b6113d38a828b01611351565b965050604088015167ffffffffffffffff8111156113f4576113f36108f6565b5b6114008a828b01611351565b955050606088015167ffffffffffffffff811115611421576114206108f6565b5b61142d8a828b01611351565b945050608088015167ffffffffffffffff81111561144e5761144d6108f6565b5b61145a8a828b01611351565b93505060a088015167ffffffffffffffff81111561147b5761147a6108f6565b5b6114878a828b01611351565b92505060c088015167ffffffffffffffff8111156114a8576114a76108f6565b5b6114b48a828b01611351565b9150509295989194975092955056fea2646970667358221220a3dfedc43204ef23566a75c64440e0a4e4c429a64d80b1a61da1b040175c2c2364736f6c634300081a0033",
					"opcodes": "PUSH1 0x80 PUSH1 0x40 MSTORE CALLVALUE DUP1 ISZERO PUSH2 0xF JUMPI PUSH0 DUP1 REVERT JUMPDEST POP PUSH1 0x40 MLOAD PUSH2 0x1645 CODESIZE SUB DUP1 PUSH2 0x1645 DUP4 CODECOPY DUP2 DUP2 ADD PUSH1 0x40 MSTORE DUP2 ADD SWAP1 PUSH2 0x31 SWAP2 SWAP1 PUSH2 0x114 JUMP JUMPDEST CALLER PUSH0 DUP1 PUSH2 0x100 EXP DUP2 SLOAD DUP2 PUSH20 0xFFFFFFFFFFFFFFFFFFFFFFFFFFFFFFFFFFFFFFFF MUL NOT AND SWAP1 DUP4 PUSH20 0xFFFFFFFFFFFFFFFFFFFFFFFFFFFFFFFFFFFFFFFF AND MUL OR SWAP1 SSTORE POP DUP1 PUSH1 0x1 PUSH0 PUSH2 0x100 EXP DUP2 SLOAD DUP2 PUSH20 0xFFFFFFFFFFFFFFFFFFFFFFFFFFFFFFFFFFFFFFFF MUL NOT AND SWAP1 DUP4 PUSH20 0xFFFFFFFFFFFFFFFFFFFFFFFFFFFFFFFFFFFFFFFF AND MUL OR SWAP1 SSTORE POP POP PUSH2 0x13F JUMP JUMPDEST PUSH0 DUP1 REVERT JUMPDEST PUSH0 PUSH20 0xFFFFFFFFFFFFFFFFFFFFFFFFFFFFFFFFFFFFFFFF DUP3 AND SWAP1 POP SWAP2 SWAP1 POP JUMP JUMPDEST PUSH0 PUSH2 0xE3 DUP3 PUSH2 0xBA JUMP JUMPDEST SWAP1 POP SWAP2 SWAP1 POP JUMP JUMPDEST PUSH2 0xF3 DUP2 PUSH2 0xD9 JUMP JUMPDEST DUP2 EQ PUSH2 0xFD JUMPI PUSH0 DUP1 REVERT JUMPDEST POP JUMP JUMPDEST PUSH0 DUP2 MLOAD SWAP1 POP PUSH2 0x10E DUP2 PUSH2 0xEA JUMP JUMPDEST SWAP3 SWAP2 POP POP JUMP JUMPDEST PUSH0 PUSH1 0x20 DUP3 DUP5 SUB SLT ISZERO PUSH2 0x129 JUMPI PUSH2 0x128 PUSH2 0xB6 JUMP JUMPDEST JUMPDEST PUSH0 PUSH2 0x136 DUP5 DUP3 DUP6 ADD PUSH2 0x100 JUMP JUMPDEST SWAP2 POP POP SWAP3 SWAP2 POP POP JUMP JUMPDEST PUSH2 0x14F9 DUP1 PUSH2 0x14C PUSH0 CODECOPY PUSH0 RETURN INVALID PUSH1 0x80 PUSH1 0x40 MSTORE CALLVALUE DUP1 ISZERO PUSH2 0xF JUMPI PUSH0 DUP1 REVERT JUMPDEST POP PUSH1 0x4 CALLDATASIZE LT PUSH2 0x55 JUMPI PUSH0 CALLDATALOAD PUSH1 0xE0 SHR DUP1 PUSH4 0xAD3C939 EQ PUSH2 0x59 JUMPI DUP1 PUSH4 0xF6BC96B EQ PUSH2 0x89 JUMPI DUP1 PUSH4 0x8DA5CB5B EQ PUSH2 0xBD JUMPI DUP1 PUSH4 0x9C0B7D46 EQ PUSH2 0xDB JUMPI DUP1 PUSH4 0xBBBF3BAC EQ PUSH2 0xF9 JUMPI JUMPDEST PUSH0 DUP1 REVERT JUMPDEST PUSH2 0x73 PUSH1 0x4 DUP1 CALLDATASIZE SUB DUP2 ADD SWAP1 PUSH2 0x6E SWAP2 SWAP1 PUSH2 0x92D JUMP JUMPDEST PUSH2 0x115 JUMP JUMPDEST PUSH1 0x40 MLOAD PUSH2 0x80 SWAP2 SWAP1 PUSH2 0xA72 JUMP JUMPDEST PUSH1 0x40 MLOAD DUP1 SWAP2 SUB SWAP1 RETURN JUMPDEST PUSH2 0xA3 PUSH1 0x4 DUP1 CALLDATASIZE SUB DUP2 ADD SWAP1 PUSH2 0x9E SWAP2 SWAP1 PUSH2 0x92D JUMP JUMPDEST PUSH2 0x313 JUMP JUMPDEST PUSH1 0x40 MLOAD PUSH2 0xB4 SWAP6 SWAP5 SWAP4 SWAP3 SWAP2 SWAP1 PUSH2 0xAF8 JUMP JUMPDEST PUSH1 0x40 MLOAD DUP1 SWAP2 SUB SWAP1 RETURN JUMPDEST PUSH2 0xC5 PUSH2 0x4E3 JUMP JUMPDEST PUSH1 0x40 MLOAD PUSH2 0xD2 SWAP2 SWAP1 PUSH2 0xB9D JUMP JUMPDEST PUSH1 0x40 MLOAD DUP1 SWAP2 SUB SWAP1 RETURN JUMPDEST PUSH2 0xE3 PUSH2 0x506 JUMP JUMPDEST PUSH1 0x40 MLOAD PUSH2 0xF0 SWAP2 SWAP1 PUSH2 0xC11 JUMP JUMPDEST PUSH1 0x40 MLOAD DUP1 SWAP2 SUB SWAP1 RETURN JUMPDEST PUSH2 0x113 PUSH1 0x4 DUP1 CALLDATASIZE SUB DUP2 ADD SWAP1 PUSH2 0x10E SWAP2 SWAP1 PUSH2 0xD56 JUMP JUMPDEST PUSH2 0x52B JUMP JUMPDEST STOP JUMPDEST PUSH2 0x11D PUSH2 0x8BA JUMP JUMPDEST PUSH1 0x2 PUSH0 DUP4 DUP2 MSTORE PUSH1 0x20 ADD SWAP1 DUP2 MSTORE PUSH1 0x20 ADD PUSH0 KECCAK256 PUSH1 0x40 MLOAD DUP1 PUSH1 0xA0 ADD PUSH1 0x40 MSTORE SWAP1 DUP2 PUSH0 DUP3 ADD SLOAD DUP2 MSTORE PUSH1 0x20 ADD PUSH1 0x1 DUP3 ADD DUP1 SLOAD PUSH2 0x152 SWAP1 PUSH2 0xE3B JUMP JUMPDEST DUP1 PUSH1 0x1F ADD PUSH1 0x20 DUP1 SWAP2 DIV MUL PUSH1 0x20 ADD PUSH1 0x40 MLOAD SWAP1 DUP2 ADD PUSH1 0x40 MSTORE DUP1 SWAP3 SWAP2 SWAP1 DUP2 DUP2 MSTORE PUSH1 0x20 ADD DUP3 DUP1 SLOAD PUSH2 0x17E SWAP1 PUSH2 0xE3B JUMP JUMPDEST DUP1 ISZERO PUSH2 0x1C9 JUMPI DUP1 PUSH1 0x1F LT PUSH2 0x1A0 JUMPI PUSH2 0x100 DUP1 DUP4 SLOAD DIV MUL DUP4 MSTORE SWAP2 PUSH1 0x20 ADD SWAP2 PUSH2 0x1C9 JUMP JUMPDEST DUP3 ADD SWAP2 SWAP1 PUSH0 MSTORE PUSH1 0x20 PUSH0 KECCAK256 SWAP1 JUMPDEST DUP2 SLOAD DUP2 MSTORE SWAP1 PUSH1 0x1 ADD SWAP1 PUSH1 0x20 ADD DUP1 DUP4 GT PUSH2 0x1AC JUMPI DUP3 SWAP1 SUB PUSH1 0x1F AND DUP3 ADD SWAP2 JUMPDEST POP POP POP POP POP DUP2 MSTORE PUSH1 0x20 ADD PUSH1 0x2 DUP3 ADD DUP1 SLOAD PUSH2 0x1E2 SWAP1 PUSH2 0xE3B JUMP JUMPDEST DUP1 PUSH1 0x1F ADD PUSH1 0x20 DUP1 SWAP2 DIV MUL PUSH1 0x20 ADD PUSH1 0x40 MLOAD SWAP1 DUP2 ADD PUSH1 0x40 MSTORE DUP1 SWAP3 SWAP2 SWAP1 DUP2 DUP2 MSTORE PUSH1 0x20 ADD DUP3 DUP1 SLOAD PUSH2 0x20E SWAP1 PUSH2 0xE3B JUMP JUMPDEST DUP1 ISZERO PUSH2 0x259 JUMPI DUP1 PUSH1 0x1F LT PUSH2 0x230 JUMPI PUSH2 0x100 DUP1 DUP4 SLOAD DIV MUL DUP4 MSTORE SWAP2 PUSH1 0x20 ADD SWAP2 PUSH2 0x259 JUMP JUMPDEST DUP3 ADD SWAP2 SWAP1 PUSH0 MSTORE PUSH1 0x20 PUSH0 KECCAK256 SWAP1 JUMPDEST DUP2 SLOAD DUP2 MSTORE SWAP1 PUSH1 0x1 ADD SWAP1 PUSH1 0x20 ADD DUP1 DUP4 GT PUSH2 0x23C JUMPI DUP3 SWAP1 SUB PUSH1 0x1F AND DUP3 ADD SWAP2 JUMPDEST POP POP POP POP POP DUP2 MSTORE PUSH1 0x20 ADD PUSH1 0x3 DUP3 ADD DUP1 SLOAD PUSH2 0x272 SWAP1 PUSH2 0xE3B JUMP JUMPDEST DUP1 PUSH1 0x1F ADD PUSH1 0x20 DUP1 SWAP2 DIV MUL PUSH1 0x20 ADD PUSH1 0x40 MLOAD SWAP1 DUP2 ADD PUSH1 0x40 MSTORE DUP1 SWAP3 SWAP2 SWAP1 DUP2 DUP2 MSTORE PUSH1 0x20 ADD DUP3 DUP1 SLOAD PUSH2 0x29E SWAP1 PUSH2 0xE3B JUMP JUMPDEST DUP1 ISZERO PUSH2 0x2E9 JUMPI DUP1 PUSH1 0x1F LT PUSH2 0x2C0 JUMPI PUSH2 0x100 DUP1 DUP4 SLOAD DIV MUL DUP4 MSTORE SWAP2 PUSH1 0x20 ADD SWAP2 PUSH2 0x2E9 JUMP JUMPDEST DUP3 ADD SWAP2 SWAP1 PUSH0 MSTORE PUSH1 0x20 PUSH0 KECCAK256 SWAP1 JUMPDEST DUP2 SLOAD DUP2 MSTORE SWAP1 PUSH1 0x1 ADD SWAP1 PUSH1 0x20 ADD DUP1 DUP4 GT PUSH2 0x2CC JUMPI DUP3 SWAP1 SUB PUSH1 0x1F AND DUP3 ADD SWAP2 JUMPDEST POP POP POP POP POP DUP2 MSTORE PUSH1 0x20 ADD PUSH1 0x4 DUP3 ADD PUSH0 SWAP1 SLOAD SWAP1 PUSH2 0x100 EXP SWAP1 DIV PUSH1 0xFF AND ISZERO ISZERO ISZERO ISZERO DUP2 MSTORE POP POP SWAP1 POP SWAP2 SWAP1 POP JUMP JUMPDEST PUSH1 0x2 PUSH1 0x20 MSTORE DUP1 PUSH0 MSTORE PUSH1 0x40 PUSH0 KECCAK256 PUSH0 SWAP2 POP SWAP1 POP DUP1 PUSH0 ADD SLOAD SWAP1 DUP1 PUSH1 0x1 ADD DUP1 SLOAD PUSH2 0x338 SWAP1 PUSH2 0xE3B JUMP JUMPDEST DUP1 PUSH1 0x1F ADD PUSH1 0x20 DUP1 SWAP2 DIV MUL PUSH1 0x20 ADD PUSH1 0x40 MLOAD SWAP1 DUP2 ADD PUSH1 0x40 MSTORE DUP1 SWAP3 SWAP2 SWAP1 DUP2 DUP2 MSTORE PUSH1 0x20 ADD DUP3 DUP1 SLOAD PUSH2 0x364 SWAP1 PUSH2 0xE3B JUMP JUMPDEST DUP1 ISZERO PUSH2 0x3AF JUMPI DUP1 PUSH1 0x1F LT PUSH2 0x386 JUMPI PUSH2 0x100 DUP1 DUP4 SLOAD DIV MUL DUP4 MSTORE SWAP2 PUSH1 0x20 ADD SWAP2 PUSH2 0x3AF JUMP JUMPDEST DUP3 ADD SWAP2 SWAP1 PUSH0 MSTORE PUSH1 0x20 PUSH0 KECCAK256 SWAP1 JUMPDEST DUP2 SLOAD DUP2 MSTORE SWAP1 PUSH1 0x1 ADD SWAP1 PUSH1 0x20 ADD DUP1 DUP4 GT PUSH2 0x392 JUMPI DUP3 SWAP1 SUB PUSH1 0x1F AND DUP3 ADD SWAP2 JUMPDEST POP POP POP POP POP SWAP1 DUP1 PUSH1 0x2 ADD DUP1 SLOAD PUSH2 0x3C4 SWAP1 PUSH2 0xE3B JUMP JUMPDEST DUP1 PUSH1 0x1F ADD PUSH1 0x20 DUP1 SWAP2 DIV MUL PUSH1 0x20 ADD PUSH1 0x40 MLOAD SWAP1 DUP2 ADD PUSH1 0x40 MSTORE DUP1 SWAP3 SWAP2 SWAP1 DUP2 DUP2 MSTORE PUSH1 0x20 ADD DUP3 DUP1 SLOAD PUSH2 0x3F0 SWAP1 PUSH2 0xE3B JUMP JUMPDEST DUP1 ISZERO PUSH2 0x43B JUMPI DUP1 PUSH1 0x1F LT PUSH2 0x412 JUMPI PUSH2 0x100 DUP1 DUP4 SLOAD DIV MUL DUP4 MSTORE SWAP2 PUSH1 0x20 ADD SWAP2 PUSH2 0x43B JUMP JUMPDEST DUP3 ADD SWAP2 SWAP1 PUSH0 MSTORE PUSH1 0x20 PUSH0 KECCAK256 SWAP1 JUMPDEST DUP2 SLOAD DUP2 MSTORE SWAP1 PUSH1 0x1 ADD SWAP1 PUSH1 0x20 ADD DUP1 DUP4 GT PUSH2 0x41E JUMPI DUP3 SWAP1 SUB PUSH1 0x1F AND DUP3 ADD SWAP2 JUMPDEST POP POP POP POP POP SWAP1 DUP1 PUSH1 0x3 ADD DUP1 SLOAD PUSH2 0x450 SWAP1 PUSH2 0xE3B JUMP JUMPDEST DUP1 PUSH1 0x1F ADD PUSH1 0x20 DUP1 SWAP2 DIV MUL PUSH1 0x20 ADD PUSH1 0x40 MLOAD SWAP1 DUP2 ADD PUSH1 0x40 MSTORE DUP1 SWAP3 SWAP2 SWAP1 DUP2 DUP2 MSTORE PUSH1 0x20 ADD DUP3 DUP1 SLOAD PUSH2 0x47C SWAP1 PUSH2 0xE3B JUMP JUMPDEST DUP1 ISZERO PUSH2 0x4C7 JUMPI DUP1 PUSH1 0x1F LT PUSH2 0x49E JUMPI PUSH2 0x100 DUP1 DUP4 SLOAD DIV MUL DUP4 MSTORE SWAP2 PUSH1 0x20 ADD SWAP2 PUSH2 0x4C7 JUMP JUMPDEST DUP3 ADD SWAP2 SWAP1 PUSH0 MSTORE PUSH1 0x20 PUSH0 KECCAK256 SWAP1 JUMPDEST DUP2 SLOAD DUP2 MSTORE SWAP1 PUSH1 0x1 ADD SWAP1 PUSH1 0x20 ADD DUP1 DUP4 GT PUSH2 0x4AA JUMPI DUP3 SWAP1 SUB PUSH1 0x1F AND DUP3 ADD SWAP2 JUMPDEST POP POP POP POP POP SWAP1 DUP1 PUSH1 0x4 ADD PUSH0 SWAP1 SLOAD SWAP1 PUSH2 0x100 EXP SWAP1 DIV PUSH1 0xFF AND SWAP1 POP DUP6 JUMP JUMPDEST PUSH0 DUP1 SLOAD SWAP1 PUSH2 0x100 EXP SWAP1 DIV PUSH20 0xFFFFFFFFFFFFFFFFFFFFFFFFFFFFFFFFFFFFFFFF AND DUP2 JUMP JUMPDEST PUSH1 0x1 PUSH0 SWAP1 SLOAD SWAP1 PUSH2 0x100 EXP SWAP1 DIV PUSH20 0xFFFFFFFFFFFFFFFFFFFFFFFFFFFFFFFFFFFFFFFF AND DUP2 JUMP JUMPDEST PUSH0 DUP1 SLOAD SWAP1 PUSH2 0x100 EXP SWAP1 DIV PUSH20 0xFFFFFFFFFFFFFFFFFFFFFFFFFFFFFFFFFFFFFFFF AND PUSH20 0xFFFFFFFFFFFFFFFFFFFFFFFFFFFFFFFFFFFFFFFF AND CALLER PUSH20 0xFFFFFFFFFFFFFFFFFFFFFFFFFFFFFFFFFFFFFFFF AND EQ PUSH2 0x5B8 JUMPI PUSH1 0x40 MLOAD PUSH32 0x8C379A000000000000000000000000000000000000000000000000000000000 DUP2 MSTORE PUSH1 0x4 ADD PUSH2 0x5AF SWAP1 PUSH2 0xEDB JUMP JUMPDEST PUSH1 0x40 MLOAD DUP1 SWAP2 SUB SWAP1 REVERT JUMPDEST PUSH1 0x2 PUSH0 DUP6 DUP2 MSTORE PUSH1 0x20 ADD SWAP1 DUP2 MSTORE PUSH1 0x20 ADD PUSH0 KECCAK256 PUSH1 0x4 ADD PUSH0 SWAP1 SLOAD SWAP1 PUSH2 0x100 EXP SWAP1 DIV PUSH1 0xFF AND ISZERO PUSH2 0x619 JUMPI PUSH1 0x40 MLOAD PUSH32 0x8C379A000000000000000000000000000000000000000000000000000000000 DUP2 MSTORE PUSH1 0x4 ADD PUSH2 0x610 SWAP1 PUSH2 0xF43 JUMP JUMPDEST PUSH1 0x40 MLOAD DUP1 SWAP2 SUB SWAP1 REVERT JUMPDEST PUSH2 0x622 DUP5 PUSH2 0x74D JUMP JUMPDEST PUSH2 0x661 JUMPI PUSH1 0x40 MLOAD PUSH32 0x8C379A000000000000000000000000000000000000000000000000000000000 DUP2 MSTORE PUSH1 0x4 ADD PUSH2 0x658 SWAP1 PUSH2 0xFD1 JUMP JUMPDEST PUSH1 0x40 MLOAD DUP1 SWAP2 SUB SWAP1 REVERT JUMPDEST PUSH1 0x40 MLOAD DUP1 PUSH1 0xA0 ADD PUSH1 0x40 MSTORE DUP1 DUP6 DUP2 MSTORE PUSH1 0x20 ADD DUP5 DUP2 MSTORE PUSH1 0x20 ADD DUP4 DUP2 MSTORE PUSH1 0x20 ADD DUP3 DUP2 MSTORE PUSH1 0x20 ADD PUSH1 0x1 ISZERO ISZERO DUP2 MSTORE POP PUSH1 0x2 PUSH0 DUP7 DUP2 MSTORE PUSH1 0x20 ADD SWAP1 DUP2 MSTORE PUSH1 0x20 ADD PUSH0 KECCAK256 PUSH0 DUP3 ADD MLOAD DUP2 PUSH0 ADD SSTORE PUSH1 0x20 DUP3 ADD MLOAD DUP2 PUSH1 0x1 ADD SWAP1 DUP2 PUSH2 0x6B9 SWAP2 SWAP1 PUSH2 0x1183 JUMP JUMPDEST POP PUSH1 0x40 DUP3 ADD MLOAD DUP2 PUSH1 0x2 ADD SWAP1 DUP2 PUSH2 0x6CF SWAP2 SWAP1 PUSH2 0x1183 JUMP JUMPDEST POP PUSH1 0x60 DUP3 ADD MLOAD DUP2 PUSH1 0x3 ADD SWAP1 DUP2 PUSH2 0x6E5 SWAP2 SWAP1 PUSH2 0x1183 JUMP JUMPDEST POP PUSH1 0x80 DUP3 ADD MLOAD DUP2 PUSH1 0x4 ADD PUSH0 PUSH2 0x100 EXP DUP2 SLOAD DUP2 PUSH1 0xFF MUL NOT AND SWAP1 DUP4 ISZERO ISZERO MUL OR SWAP1 SSTORE POP SWAP1 POP POP PUSH32 0xA0B3C98BD0E328776668E753573FD7FDDB2D27D8278C9A794C19D87F85DEA04C DUP5 DUP5 DUP5 DUP5 CALLER PUSH1 0x40 MLOAD PUSH2 0x73F SWAP6 SWAP5 SWAP4 SWAP3 SWAP2 SWAP1 PUSH2 0x1252 JUMP JUMPDEST PUSH1 0x40 MLOAD DUP1 SWAP2 SUB SWAP1 LOG1 POP POP POP POP JUMP JUMPDEST PUSH0 DUP1 PUSH1 0x1 PUSH0 SWAP1 SLOAD SWAP1 PUSH2 0x100 EXP SWAP1 DIV PUSH20 0xFFFFFFFFFFFFFFFFFFFFFFFFFFFFFFFFFFFFFFFF AND PUSH20 0xFFFFFFFFFFFFFFFFFFFFFFFFFFFFFFFFFFFFFFFF AND PUSH4 0xA8FABFA5 PUSH1 0x40 MLOAD DUP2 PUSH4 0xFFFFFFFF AND PUSH1 0xE0 SHL DUP2 MSTORE PUSH1 0x4 ADD PUSH1 0x20 PUSH1 0x40 MLOAD DUP1 DUP4 SUB DUP2 DUP7 GAS STATICCALL ISZERO DUP1 ISZERO PUSH2 0x7B9 JUMPI RETURNDATASIZE PUSH0 DUP1 RETURNDATACOPY RETURNDATASIZE PUSH0 REVERT JUMPDEST POP POP POP POP PUSH1 0x40 MLOAD RETURNDATASIZE PUSH1 0x1F NOT PUSH1 0x1F DUP3 ADD AND DUP3 ADD DUP1 PUSH1 0x40 MSTORE POP DUP2 ADD SWAP1 PUSH2 0x7DD SWAP2 SWAP1 PUSH2 0x12CC JUMP JUMPDEST SWAP1 POP PUSH0 JUMPDEST DUP2 DUP2 LT ISZERO PUSH2 0x8AF JUMPI PUSH0 PUSH1 0x1 PUSH0 SWAP1 SLOAD SWAP1 PUSH2 0x100 EXP SWAP1 DIV PUSH20 0xFFFFFFFFFFFFFFFFFFFFFFFFFFFFFFFFFFFFFFFF AND PUSH20 0xFFFFFFFFFFFFFFFFFFFFFFFFFFFFFFFFFFFFFFFF AND PUSH4 0x5AC44282 DUP4 PUSH1 0x40 MLOAD DUP3 PUSH4 0xFFFFFFFF AND PUSH1 0xE0 SHL DUP2 MSTORE PUSH1 0x4 ADD PUSH2 0x844 SWAP2 SWAP1 PUSH2 0x12F7 JUMP JUMPDEST PUSH0 PUSH1 0x40 MLOAD DUP1 DUP4 SUB DUP2 DUP7 GAS STATICCALL ISZERO DUP1 ISZERO PUSH2 0x85E JUMPI RETURNDATASIZE PUSH0 DUP1 RETURNDATACOPY RETURNDATASIZE PUSH0 REVERT JUMPDEST POP POP POP POP PUSH1 0x40 MLOAD RETURNDATASIZE PUSH0 DUP3 RETURNDATACOPY RETURNDATASIZE PUSH1 0x1F NOT PUSH1 0x1F DUP3 ADD AND DUP3 ADD DUP1 PUSH1 0x40 MSTORE POP DUP2 ADD SWAP1 PUSH2 0x886 SWAP2 SWAP1 PUSH2 0x137E JUMP JUMPDEST POP POP POP POP POP POP SWAP1 POP DUP5 DUP2 SUB PUSH2 0x8A1 JUMPI PUSH1 0x1 SWAP4 POP POP POP POP PUSH2 0x8B5 JUMP JUMPDEST POP DUP1 DUP1 PUSH1 0x1 ADD SWAP2 POP POP PUSH2 0x7E1 JUMP JUMPDEST POP PUSH0 SWAP2 POP POP JUMPDEST SWAP2 SWAP1 POP JUMP JUMPDEST PUSH1 0x40 MLOAD DUP1 PUSH1 0xA0 ADD PUSH1 0x40 MSTORE DUP1 PUSH0 DUP2 MSTORE PUSH1 0x20 ADD PUSH1 0x60 DUP2 MSTORE PUSH1 0x20 ADD PUSH1 0x60 DUP2 MSTORE PUSH1 0x20 ADD PUSH1 0x60 DUP2 MSTORE PUSH1 0x20 ADD PUSH0 ISZERO ISZERO DUP2 MSTORE POP SWAP1 JUMP JUMPDEST PUSH0 PUSH1 0x40 MLOAD SWAP1 POP SWAP1 JUMP JUMPDEST PUSH0 DUP1 REVERT JUMPDEST PUSH0 DUP1 REVERT JUMPDEST PUSH0 DUP2 SWAP1 POP SWAP2 SWAP1 POP JUMP JUMPDEST PUSH2 0x90C DUP2 PUSH2 0x8FA JUMP JUMPDEST DUP2 EQ PUSH2 0x916 JUMPI PUSH0 DUP1 REVERT JUMPDEST POP JUMP JUMPDEST PUSH0 DUP2 CALLDATALOAD SWAP1 POP PUSH2 0x927 DUP2 PUSH2 0x903 JUMP JUMPDEST SWAP3 SWAP2 POP POP JUMP JUMPDEST PUSH0 PUSH1 0x20 DUP3 DUP5 SUB SLT ISZERO PUSH2 0x942 JUMPI PUSH2 0x941 PUSH2 0x8F2 JUMP JUMPDEST JUMPDEST PUSH0 PUSH2 0x94F DUP5 DUP3 DUP6 ADD PUSH2 0x919 JUMP JUMPDEST SWAP2 POP POP SWAP3 SWAP2 POP POP JUMP JUMPDEST PUSH2 0x961 DUP2 PUSH2 0x8FA JUMP JUMPDEST DUP3 MSTORE POP POP JUMP JUMPDEST PUSH0 DUP2 MLOAD SWAP1 POP SWAP2 SWAP1 POP JUMP JUMPDEST PUSH0 DUP3 DUP3 MSTORE PUSH1 0x20 DUP3 ADD SWAP1 POP SWAP3 SWAP2 POP POP JUMP JUMPDEST DUP3 DUP2 DUP4 MCOPY PUSH0 DUP4 DUP4 ADD MSTORE POP POP POP JUMP JUMPDEST PUSH0 PUSH1 0x1F NOT PUSH1 0x1F DUP4 ADD AND SWAP1 POP SWAP2 SWAP1 POP JUMP JUMPDEST PUSH0 PUSH2 0x9A9 DUP3 PUSH2 0x967 JUMP JUMPDEST PUSH2 0x9B3 DUP2 DUP6 PUSH2 0x971 JUMP JUMPDEST SWAP4 POP PUSH2 0x9C3 DUP2 DUP6 PUSH1 0x20 DUP7 ADD PUSH2 0x981 JUMP JUMPDEST PUSH2 0x9CC DUP2 PUSH2 0x98F JUMP JUMPDEST DUP5 ADD SWAP2 POP POP SWAP3 SWAP2 POP POP JUMP JUMPDEST PUSH0 DUP2 ISZERO ISZERO SWAP1 POP SWAP2 SWAP1 POP JUMP JUMPDEST PUSH2 0x9EB DUP2 PUSH2 0x9D7 JUMP JUMPDEST DUP3 MSTORE POP POP JUMP JUMPDEST PUSH0 PUSH1 0xA0 DUP4 ADD PUSH0 DUP4 ADD MLOAD PUSH2 0xA06 PUSH0 DUP7 ADD DUP3 PUSH2 0x958 JUMP JUMPDEST POP PUSH1 0x20 DUP4 ADD MLOAD DUP5 DUP3 SUB PUSH1 0x20 DUP7 ADD MSTORE PUSH2 0xA1E DUP3 DUP3 PUSH2 0x99F JUMP JUMPDEST SWAP2 POP POP PUSH1 0x40 DUP4 ADD MLOAD DUP5 DUP3 SUB PUSH1 0x40 DUP7 ADD MSTORE PUSH2 0xA38 DUP3 DUP3 PUSH2 0x99F JUMP JUMPDEST SWAP2 POP POP PUSH1 0x60 DUP4 ADD MLOAD DUP5 DUP3 SUB PUSH1 0x60 DUP7 ADD MSTORE PUSH2 0xA52 DUP3 DUP3 PUSH2 0x99F JUMP JUMPDEST SWAP2 POP POP PUSH1 0x80 DUP4 ADD MLOAD PUSH2 0xA67 PUSH1 0x80 DUP7 ADD DUP3 PUSH2 0x9E2 JUMP JUMPDEST POP DUP1 SWAP2 POP POP SWAP3 SWAP2 POP POP JUMP JUMPDEST PUSH0 PUSH1 0x20 DUP3 ADD SWAP1 POP DUP2 DUP2 SUB PUSH0 DUP4 ADD MSTORE PUSH2 0xA8A DUP2 DUP5 PUSH2 0x9F1 JUMP JUMPDEST SWAP1 POP SWAP3 SWAP2 POP POP JUMP JUMPDEST PUSH2 0xA9B DUP2 PUSH2 0x8FA JUMP JUMPDEST DUP3 MSTORE POP POP JUMP JUMPDEST PUSH0 DUP3 DUP3 MSTORE PUSH1 0x20 DUP3 ADD SWAP1 POP SWAP3 SWAP2 POP POP JUMP JUMPDEST PUSH0 PUSH2 0xABB DUP3 PUSH2 0x967 JUMP JUMPDEST PUSH2 0xAC5 DUP2 DUP6 PUSH2 0xAA1 JUMP JUMPDEST SWAP4 POP PUSH2 0xAD5 DUP2 DUP6 PUSH1 0x20 DUP7 ADD PUSH2 0x981 JUMP JUMPDEST PUSH2 0xADE DUP2 PUSH2 0x98F JUMP JUMPDEST DUP5 ADD SWAP2 POP POP SWAP3 SWAP2 POP POP JUMP JUMPDEST PUSH2 0xAF2 DUP2 PUSH2 0x9D7 JUMP JUMPDEST DUP3 MSTORE POP POP JUMP JUMPDEST PUSH0 PUSH1 0xA0 DUP3 ADD SWAP1 POP PUSH2 0xB0B PUSH0 DUP4 ADD DUP9 PUSH2 0xA92 JUMP JUMPDEST DUP2 DUP2 SUB PUSH1 0x20 DUP4 ADD MSTORE PUSH2 0xB1D DUP2 DUP8 PUSH2 0xAB1 JUMP JUMPDEST SWAP1 POP DUP2 DUP2 SUB PUSH1 0x40 DUP4 ADD MSTORE PUSH2 0xB31 DUP2 DUP7 PUSH2 0xAB1 JUMP JUMPDEST SWAP1 POP DUP2 DUP2 SUB PUSH1 0x60 DUP4 ADD MSTORE PUSH2 0xB45 DUP2 DUP6 PUSH2 0xAB1 JUMP JUMPDEST SWAP1 POP PUSH2 0xB54 PUSH1 0x80 DUP4 ADD DUP5 PUSH2 0xAE9 JUMP JUMPDEST SWAP7 SWAP6 POP POP POP POP POP POP JUMP JUMPDEST PUSH0 PUSH20 0xFFFFFFFFFFFFFFFFFFFFFFFFFFFFFFFFFFFFFFFF DUP3 AND SWAP1 POP SWAP2 SWAP1 POP JUMP JUMPDEST PUSH0 PUSH2 0xB87 DUP3 PUSH2 0xB5E JUMP JUMPDEST SWAP1 POP SWAP2 SWAP1 POP JUMP JUMPDEST PUSH2 0xB97 DUP2 PUSH2 0xB7D JUMP JUMPDEST DUP3 MSTORE POP POP JUMP JUMPDEST PUSH0 PUSH1 0x20 DUP3 ADD SWAP1 POP PUSH2 0xBB0 PUSH0 DUP4 ADD DUP5 PUSH2 0xB8E JUMP JUMPDEST SWAP3 SWAP2 POP POP JUMP JUMPDEST PUSH0 DUP2 SWAP1 POP SWAP2 SWAP1 POP JUMP JUMPDEST PUSH0 PUSH2 0xBD9 PUSH2 0xBD4 PUSH2 0xBCF DUP5 PUSH2 0xB5E JUMP JUMPDEST PUSH2 0xBB6 JUMP JUMPDEST PUSH2 0xB5E JUMP JUMPDEST SWAP1 POP SWAP2 SWAP1 POP JUMP JUMPDEST PUSH0 PUSH2 0xBEA DUP3 PUSH2 0xBBF JUMP JUMPDEST SWAP1 POP SWAP2 SWAP1 POP JUMP JUMPDEST PUSH0 PUSH2 0xBFB DUP3 PUSH2 0xBE0 JUMP JUMPDEST SWAP1 POP SWAP2 SWAP1 POP JUMP JUMPDEST PUSH2 0xC0B DUP2 PUSH2 0xBF1 JUMP JUMPDEST DUP3 MSTORE POP POP JUMP JUMPDEST PUSH0 PUSH1 0x20 DUP3 ADD SWAP1 POP PUSH2 0xC24 PUSH0 DUP4 ADD DUP5 PUSH2 0xC02 JUMP JUMPDEST SWAP3 SWAP2 POP POP JUMP JUMPDEST PUSH0 DUP1 REVERT JUMPDEST PUSH0 DUP1 REVERT JUMPDEST PUSH32 0x4E487B7100000000000000000000000000000000000000000000000000000000 PUSH0 MSTORE PUSH1 0x41 PUSH1 0x4 MSTORE PUSH1 0x24 PUSH0 REVERT JUMPDEST PUSH2 0xC68 DUP3 PUSH2 0x98F JUMP JUMPDEST DUP2 ADD DUP2 DUP2 LT PUSH8 0xFFFFFFFFFFFFFFFF DUP3 GT OR ISZERO PUSH2 0xC87 JUMPI PUSH2 0xC86 PUSH2 0xC32 JUMP JUMPDEST JUMPDEST DUP1 PUSH1 0x40 MSTORE POP POP POP JUMP JUMPDEST PUSH0 PUSH2 0xC99 PUSH2 0x8E9 JUMP JUMPDEST SWAP1 POP PUSH2 0xCA5 DUP3 DUP3 PUSH2 0xC5F JUMP JUMPDEST SWAP2 SWAP1 POP JUMP JUMPDEST PUSH0 PUSH8 0xFFFFFFFFFFFFFFFF DUP3 GT ISZERO PUSH2 0xCC4 JUMPI PUSH2 0xCC3 PUSH2 0xC32 JUMP JUMPDEST JUMPDEST PUSH2 0xCCD DUP3 PUSH2 0x98F JUMP JUMPDEST SWAP1 POP PUSH1 0x20 DUP2 ADD SWAP1 POP SWAP2 SWAP1 POP JUMP JUMPDEST DUP3 DUP2 DUP4 CALLDATACOPY PUSH0 DUP4 DUP4 ADD MSTORE POP POP POP JUMP JUMPDEST PUSH0 PUSH2 0xCFA PUSH2 0xCF5 DUP5 PUSH2 0xCAA JUMP JUMPDEST PUSH2 0xC90 JUMP JUMPDEST SWAP1 POP DUP3 DUP2 MSTORE PUSH1 0x20 DUP2 ADD DUP5 DUP5 DUP5 ADD GT ISZERO PUSH2 0xD16 JUMPI PUSH2 0xD15 PUSH2 0xC2E JUMP JUMPDEST JUMPDEST PUSH2 0xD21 DUP5 DUP3 DUP6 PUSH2 0xCDA JUMP JUMPDEST POP SWAP4 SWAP3 POP POP POP JUMP JUMPDEST PUSH0 DUP3 PUSH1 0x1F DUP4 ADD SLT PUSH2 0xD3D JUMPI PUSH2 0xD3C PUSH2 0xC2A JUMP JUMPDEST JUMPDEST DUP2 CALLDATALOAD PUSH2 0xD4D DUP5 DUP3 PUSH1 0x20 DUP7 ADD PUSH2 0xCE8 JUMP JUMPDEST SWAP2 POP POP SWAP3 SWAP2 POP POP JUMP JUMPDEST PUSH0 DUP1 PUSH0 DUP1 PUSH1 0x80 DUP6 DUP8 SUB SLT ISZERO PUSH2 0xD6E JUMPI PUSH2 0xD6D PUSH2 0x8F2 JUMP JUMPDEST JUMPDEST PUSH0 PUSH2 0xD7B DUP8 DUP3 DUP9 ADD PUSH2 0x919 JUMP JUMPDEST SWAP5 POP POP PUSH1 0x20 DUP6 ADD CALLDATALOAD PUSH8 0xFFFFFFFFFFFFFFFF DUP2 GT ISZERO PUSH2 0xD9C JUMPI PUSH2 0xD9B PUSH2 0x8F6 JUMP JUMPDEST JUMPDEST PUSH2 0xDA8 DUP8 DUP3 DUP9 ADD PUSH2 0xD29 JUMP JUMPDEST SWAP4 POP POP PUSH1 0x40 DUP6 ADD CALLDATALOAD PUSH8 0xFFFFFFFFFFFFFFFF DUP2 GT ISZERO PUSH2 0xDC9 JUMPI PUSH2 0xDC8 PUSH2 0x8F6 JUMP JUMPDEST JUMPDEST PUSH2 0xDD5 DUP8 DUP3 DUP9 ADD PUSH2 0xD29 JUMP JUMPDEST SWAP3 POP POP PUSH1 0x60 DUP6 ADD CALLDATALOAD PUSH8 0xFFFFFFFFFFFFFFFF DUP2 GT ISZERO PUSH2 0xDF6 JUMPI PUSH2 0xDF5 PUSH2 0x8F6 JUMP JUMPDEST JUMPDEST PUSH2 0xE02 DUP8 DUP3 DUP9 ADD PUSH2 0xD29 JUMP JUMPDEST SWAP2 POP POP SWAP3 SWAP6 SWAP2 SWAP5 POP SWAP3 POP JUMP JUMPDEST PUSH32 0x4E487B7100000000000000000000000000000000000000000000000000000000 PUSH0 MSTORE PUSH1 0x22 PUSH1 0x4 MSTORE PUSH1 0x24 PUSH0 REVERT JUMPDEST PUSH0 PUSH1 0x2 DUP3 DIV SWAP1 POP PUSH1 0x1 DUP3 AND DUP1 PUSH2 0xE52 JUMPI PUSH1 0x7F DUP3 AND SWAP2 POP JUMPDEST PUSH1 0x20 DUP3 LT DUP2 SUB PUSH2 0xE65 JUMPI PUSH2 0xE64 PUSH2 0xE0E JUMP JUMPDEST JUMPDEST POP SWAP2 SWAP1 POP JUMP JUMPDEST PUSH32 0x4F6E6C79207665726966696564206578706F727465722063616E206C6F672064 PUSH0 DUP3 ADD MSTORE PUSH32 0x6570617274757265000000000000000000000000000000000000000000000000 PUSH1 0x20 DUP3 ADD MSTORE POP JUMP JUMPDEST PUSH0 PUSH2 0xEC5 PUSH1 0x28 DUP4 PUSH2 0xAA1 JUMP JUMPDEST SWAP2 POP PUSH2 0xED0 DUP3 PUSH2 0xE6B JUMP JUMPDEST PUSH1 0x40 DUP3 ADD SWAP1 POP SWAP2 SWAP1 POP JUMP JUMPDEST PUSH0 PUSH1 0x20 DUP3 ADD SWAP1 POP DUP2 DUP2 SUB PUSH0 DUP4 ADD MSTORE PUSH2 0xEF2 DUP2 PUSH2 0xEB9 JUMP JUMPDEST SWAP1 POP SWAP2 SWAP1 POP JUMP JUMPDEST PUSH32 0x44657061727475726520616C7265616479206C6F676765640000000000000000 PUSH0 DUP3 ADD MSTORE POP JUMP JUMPDEST PUSH0 PUSH2 0xF2D PUSH1 0x18 DUP4 PUSH2 0xAA1 JUMP JUMPDEST SWAP2 POP PUSH2 0xF38 DUP3 PUSH2 0xEF9 JUMP JUMPDEST PUSH1 0x20 DUP3 ADD SWAP1 POP SWAP2 SWAP1 POP JUMP JUMPDEST PUSH0 PUSH1 0x20 DUP3 ADD SWAP1 POP DUP2 DUP2 SUB PUSH0 DUP4 ADD MSTORE PUSH2 0xF5A DUP2 PUSH2 0xF21 JUMP JUMPDEST SWAP1 POP SWAP2 SWAP1 POP JUMP JUMPDEST PUSH32 0x4261746368204944206E6F7420666F756E6420696E206661726D657220636F6E PUSH0 DUP3 ADD MSTORE PUSH32 0x7472616374000000000000000000000000000000000000000000000000000000 PUSH1 0x20 DUP3 ADD MSTORE POP JUMP JUMPDEST PUSH0 PUSH2 0xFBB PUSH1 0x25 DUP4 PUSH2 0xAA1 JUMP JUMPDEST SWAP2 POP PUSH2 0xFC6 DUP3 PUSH2 0xF61 JUMP JUMPDEST PUSH1 0x40 DUP3 ADD SWAP1 POP SWAP2 SWAP1 POP JUMP JUMPDEST PUSH0 PUSH1 0x20 DUP3 ADD SWAP1 POP DUP2 DUP2 SUB PUSH0 DUP4 ADD MSTORE PUSH2 0xFE8 DUP2 PUSH2 0xFAF JUMP JUMPDEST SWAP1 POP SWAP2 SWAP1 POP JUMP JUMPDEST PUSH0 DUP2 SWAP1 POP DUP2 PUSH0 MSTORE PUSH1 0x20 PUSH0 KECCAK256 SWAP1 POP SWAP2 SWAP1 POP JUMP JUMPDEST PUSH0 PUSH1 0x20 PUSH1 0x1F DUP4 ADD DIV SWAP1 POP SWAP2 SWAP1 POP JUMP JUMPDEST PUSH0 DUP3 DUP3 SHL SWAP1 POP SWAP3 SWAP2 POP POP JUMP JUMPDEST PUSH0 PUSH1 0x8 DUP4 MUL PUSH2 0x104B PUSH32 0xFFFFFFFFFFFFFFFFFFFFFFFFFFFFFFFFFFFFFFFFFFFFFFFFFFFFFFFFFFFFFFFF DUP3 PUSH2 0x1010 JUMP JUMPDEST PUSH2 0x1055 DUP7 DUP4 PUSH2 0x1010 JUMP JUMPDEST SWAP6 POP DUP1 NOT DUP5 AND SWAP4 POP DUP1 DUP7 AND DUP5 OR SWAP3 POP POP POP SWAP4 SWAP3 POP POP POP JUMP JUMPDEST PUSH0 PUSH2 0x1087 PUSH2 0x1082 PUSH2 0x107D DUP5 PUSH2 0x8FA JUMP JUMPDEST PUSH2 0xBB6 JUMP JUMPDEST PUSH2 0x8FA JUMP JUMPDEST SWAP1 POP SWAP2 SWAP1 POP JUMP JUMPDEST PUSH0 DUP2 SWAP1 POP SWAP2 SWAP1 POP JUMP JUMPDEST PUSH2 0x10A0 DUP4 PUSH2 0x106D JUMP JUMPDEST PUSH2 0x10B4 PUSH2 0x10AC DUP3 PUSH2 0x108E JUMP JUMPDEST DUP5 DUP5 SLOAD PUSH2 0x101C JUMP JUMPDEST DUP3 SSTORE POP POP POP POP JUMP JUMPDEST PUSH0 SWAP1 JUMP JUMPDEST PUSH2 0x10C8 PUSH2 0x10BC JUMP JUMPDEST PUSH2 0x10D3 DUP2 DUP5 DUP5 PUSH2 0x1097 JUMP JUMPDEST POP POP POP JUMP JUMPDEST JUMPDEST DUP2 DUP2 LT ISZERO PUSH2 0x10F6 JUMPI PUSH2 0x10EB PUSH0 DUP3 PUSH2 0x10C0 JUMP JUMPDEST PUSH1 0x1 DUP2 ADD SWAP1 POP PUSH2 0x10D9 JUMP JUMPDEST POP POP JUMP JUMPDEST PUSH1 0x1F DUP3 GT ISZERO PUSH2 0x113B JUMPI PUSH2 0x110C DUP2 PUSH2 0xFEF JUMP JUMPDEST PUSH2 0x1115 DUP5 PUSH2 0x1001 JUMP JUMPDEST DUP2 ADD PUSH1 0x20 DUP6 LT ISZERO PUSH2 0x1124 JUMPI DUP2 SWAP1 POP JUMPDEST PUSH2 0x1138 PUSH2 0x1130 DUP6 PUSH2 0x1001 JUMP JUMPDEST DUP4 ADD DUP3 PUSH2 0x10D8 JUMP JUMPDEST POP POP JUMPDEST POP POP POP JUMP JUMPDEST PUSH0 DUP3 DUP3 SHR SWAP1 POP SWAP3 SWAP2 POP POP JUMP JUMPDEST PUSH0 PUSH2 0x115B PUSH0 NOT DUP5 PUSH1 0x8 MUL PUSH2 0x1140 JUMP JUMPDEST NOT DUP1 DUP4 AND SWAP2 POP POP SWAP3 SWAP2 POP POP JUMP JUMPDEST PUSH0 PUSH2 0x1173 DUP4 DUP4 PUSH2 0x114C JUMP JUMPDEST SWAP2 POP DUP3 PUSH1 0x2 MUL DUP3 OR SWAP1 POP SWAP3 SWAP2 POP POP JUMP JUMPDEST PUSH2 0x118C DUP3 PUSH2 0x967 JUMP JUMPDEST PUSH8 0xFFFFFFFFFFFFFFFF DUP2 GT ISZERO PUSH2 0x11A5 JUMPI PUSH2 0x11A4 PUSH2 0xC32 JUMP JUMPDEST JUMPDEST PUSH2 0x11AF DUP3 SLOAD PUSH2 0xE3B JUMP JUMPDEST PUSH2 0x11BA DUP3 DUP3 DUP6 PUSH2 0x10FA JUMP JUMPDEST PUSH0 PUSH1 0x20 SWAP1 POP PUSH1 0x1F DUP4 GT PUSH1 0x1 DUP2 EQ PUSH2 0x11EB JUMPI PUSH0 DUP5 ISZERO PUSH2 0x11D9 JUMPI DUP3 DUP8 ADD MLOAD SWAP1 POP JUMPDEST PUSH2 0x11E3 DUP6 DUP3 PUSH2 0x1168 JUMP JUMPDEST DUP7 SSTORE POP PUSH2 0x124A JUMP JUMPDEST PUSH1 0x1F NOT DUP5 AND PUSH2 0x11F9 DUP7 PUSH2 0xFEF JUMP JUMPDEST PUSH0 JUMPDEST DUP3 DUP2 LT ISZERO PUSH2 0x1220 JUMPI DUP5 DUP10 ADD MLOAD DUP3 SSTORE PUSH1 0x1 DUP3 ADD SWAP2 POP PUSH1 0x20 DUP6 ADD SWAP5 POP PUSH1 0x20 DUP2 ADD SWAP1 POP PUSH2 0x11FB JUMP JUMPDEST DUP7 DUP4 LT ISZERO PUSH2 0x123D JUMPI DUP5 DUP10 ADD MLOAD PUSH2 0x1239 PUSH1 0x1F DUP10 AND DUP3 PUSH2 0x114C JUMP JUMPDEST DUP4 SSTORE POP JUMPDEST PUSH1 0x1 PUSH1 0x2 DUP9 MUL ADD DUP9 SSTORE POP POP POP JUMPDEST POP POP POP POP POP POP JUMP JUMPDEST PUSH0 PUSH1 0xA0 DUP3 ADD SWAP1 POP PUSH2 0x1265 PUSH0 DUP4 ADD DUP9 PUSH2 0xA92 JUMP JUMPDEST DUP2 DUP2 SUB PUSH1 0x20 DUP4 ADD MSTORE PUSH2 0x1277 DUP2 DUP8 PUSH2 0xAB1 JUMP JUMPDEST SWAP1 POP DUP2 DUP2 SUB PUSH1 0x40 DUP4 ADD MSTORE PUSH2 0x128B DUP2 DUP7 PUSH2 0xAB1 JUMP JUMPDEST SWAP1 POP DUP2 DUP2 SUB PUSH1 0x60 DUP4 ADD MSTORE PUSH2 0x129F DUP2 DUP6 PUSH2 0xAB1 JUMP JUMPDEST SWAP1 POP PUSH2 0x12AE PUSH1 0x80 DUP4 ADD DUP5 PUSH2 0xB8E JUMP JUMPDEST SWAP7 SWAP6 POP POP POP POP POP POP JUMP JUMPDEST PUSH0 DUP2 MLOAD SWAP1 POP PUSH2 0x12C6 DUP2 PUSH2 0x903 JUMP JUMPDEST SWAP3 SWAP2 POP POP JUMP JUMPDEST PUSH0 PUSH1 0x20 DUP3 DUP5 SUB SLT ISZERO PUSH2 0x12E1 JUMPI PUSH2 0x12E0 PUSH2 0x8F2 JUMP JUMPDEST JUMPDEST PUSH0 PUSH2 0x12EE DUP5 DUP3 DUP6 ADD PUSH2 0x12B8 JUMP JUMPDEST SWAP2 POP POP SWAP3 SWAP2 POP POP JUMP JUMPDEST PUSH0 PUSH1 0x20 DUP3 ADD SWAP1 POP PUSH2 0x130A PUSH0 DUP4 ADD DUP5 PUSH2 0xA92 JUMP JUMPDEST SWAP3 SWAP2 POP POP JUMP JUMPDEST PUSH0 PUSH2 0x1322 PUSH2 0x131D DUP5 PUSH2 0xCAA JUMP JUMPDEST PUSH2 0xC90 JUMP JUMPDEST SWAP1 POP DUP3 DUP2 MSTORE PUSH1 0x20 DUP2 ADD DUP5 DUP5 DUP5 ADD GT ISZERO PUSH2 0x133E JUMPI PUSH2 0x133D PUSH2 0xC2E JUMP JUMPDEST JUMPDEST PUSH2 0x1349 DUP5 DUP3 DUP6 PUSH2 0x981 JUMP JUMPDEST POP SWAP4 SWAP3 POP POP POP JUMP JUMPDEST PUSH0 DUP3 PUSH1 0x1F DUP4 ADD SLT PUSH2 0x1365 JUMPI PUSH2 0x1364 PUSH2 0xC2A JUMP JUMPDEST JUMPDEST DUP2 MLOAD PUSH2 0x1375 DUP5 DUP3 PUSH1 0x20 DUP7 ADD PUSH2 0x1310 JUMP JUMPDEST SWAP2 POP POP SWAP3 SWAP2 POP POP JUMP JUMPDEST PUSH0 DUP1 PUSH0 DUP1 PUSH0 DUP1 PUSH0 PUSH1 0xE0 DUP9 DUP11 SUB SLT ISZERO PUSH2 0x1399 JUMPI PUSH2 0x1398 PUSH2 0x8F2 JUMP JUMPDEST JUMPDEST PUSH0 PUSH2 0x13A6 DUP11 DUP3 DUP12 ADD PUSH2 0x12B8 JUMP JUMPDEST SWAP8 POP POP PUSH1 0x20 DUP9 ADD MLOAD PUSH8 0xFFFFFFFFFFFFFFFF DUP2 GT ISZERO PUSH2 0x13C7 JUMPI PUSH2 0x13C6 PUSH2 0x8F6 JUMP JUMPDEST JUMPDEST PUSH2 0x13D3 DUP11 DUP3 DUP12 ADD PUSH2 0x1351 JUMP JUMPDEST SWAP7 POP POP PUSH1 0x40 DUP9 ADD MLOAD PUSH8 0xFFFFFFFFFFFFFFFF DUP2 GT ISZERO PUSH2 0x13F4 JUMPI PUSH2 0x13F3 PUSH2 0x8F6 JUMP JUMPDEST JUMPDEST PUSH2 0x1400 DUP11 DUP3 DUP12 ADD PUSH2 0x1351 JUMP JUMPDEST SWAP6 POP POP PUSH1 0x60 DUP9 ADD MLOAD PUSH8 0xFFFFFFFFFFFFFFFF DUP2 GT ISZERO PUSH2 0x1421 JUMPI PUSH2 0x1420 PUSH2 0x8F6 JUMP JUMPDEST JUMPDEST PUSH2 0x142D DUP11 DUP3 DUP12 ADD PUSH2 0x1351 JUMP JUMPDEST SWAP5 POP POP PUSH1 0x80 DUP9 ADD MLOAD PUSH8 0xFFFFFFFFFFFFFFFF DUP2 GT ISZERO PUSH2 0x144E JUMPI PUSH2 0x144D PUSH2 0x8F6 JUMP JUMPDEST JUMPDEST PUSH2 0x145A DUP11 DUP3 DUP12 ADD PUSH2 0x1351 JUMP JUMPDEST SWAP4 POP POP PUSH1 0xA0 DUP9 ADD MLOAD PUSH8 0xFFFFFFFFFFFFFFFF DUP2 GT ISZERO PUSH2 0x147B JUMPI PUSH2 0x147A PUSH2 0x8F6 JUMP JUMPDEST JUMPDEST PUSH2 0x1487 DUP11 DUP3 DUP12 ADD PUSH2 0x1351 JUMP JUMPDEST SWAP3 POP POP PUSH1 0xC0 DUP9 ADD MLOAD PUSH8 0xFFFFFFFFFFFFFFFF DUP2 GT ISZERO PUSH2 0x14A8 JUMPI PUSH2 0x14A7 PUSH2 0x8F6 JUMP JUMPDEST JUMPDEST PUSH2 0x14B4 DUP11 DUP3 DUP12 ADD PUSH2 0x1351 JUMP JUMPDEST SWAP2 POP POP SWAP3 SWAP6 SWAP9 SWAP2 SWAP5 SWAP8 POP SWAP3 SWAP6 POP JUMP INVALID LOG2 PUSH5 0x6970667358 0x22 SLT KECCAK256 LOG3 0xDF 0xED 0xC4 ORIGIN DIV 0xEF 0x23 JUMP PUSH11 0x75C64440E0A4E4C429A64D DUP1 0xB1 0xA6 SAR LOG1 0xB0 BLOCKHASH OR TLOAD 0x2C 0x23 PUSH5 0x736F6C6343 STOP ADDMOD BYTE STOP CALLER "
				},
				"gasEstimates": {
					"creation": {
						"codeDepositCost": "1073800",
						"executionCost": "infinite",
						"totalCost": "infinite"
					},
					"external": {
						"departures(uint256)": "infinite",
						"farmerContract()": "infinite",
						"getDeparture(uint256)": "infinite",
						"logDeparture(uint256,string,string,string)": "infinite",
						"owner()": "2527"
					},
					"internal": {
						"_isValidBatchId(uint256)": "infinite"
					}
				},
				"methodIdentifiers": {
					"departures(uint256)": "0f6bc96b",
					"farmerContract()": "9c0b7d46",
					"getDeparture(uint256)": "0ad3c939",
					"logDeparture(uint256,string,string,string)": "bbbf3bac",
					"owner()": "8da5cb5b"
				}
			},
			"storageLayout": {
				"storage": [
					{
						"astId": 28,
						"contract": "ExportDepartureLogistics.sol:ExportDepartureLogistics",
						"label": "owner",
						"offset": 0,
						"slot": "0",
						"type": "t_address"
					},
					{
						"astId": 31,
						"contract": "ExportDepartureLogistics.sol:ExportDepartureLogistics",
						"label": "farmerContract",
						"offset": 0,
						"slot": "1",
						"type": "t_contract(IFarmersBatchRegistration)26"
					},
					{
						"astId": 76,
						"contract": "ExportDepartureLogistics.sol:ExportDepartureLogistics",
						"label": "departures",
						"offset": 0,
						"slot": "2",
						"type": "t_mapping(t_uint256,t_struct(Departure)71_storage)"
					}
				],
				"types": {
					"t_address": {
						"encoding": "inplace",
						"label": "address",
						"numberOfBytes": "20"
					},
					"t_bool": {
						"encoding": "inplace",
						"label": "bool",
						"numberOfBytes": "1"
					},
					"t_contract(IFarmersBatchRegistration)26": {
						"encoding": "inplace",
						"label": "contract IFarmersBatchRegistration",
						"numberOfBytes": "20"
					},
					"t_mapping(t_uint256,t_struct(Departure)71_storage)": {
						"encoding": "mapping",
						"key": "t_uint256",
						"label": "mapping(uint256 => struct ExportDepartureLogistics.Departure)",
						"numberOfBytes": "32",
						"value": "t_struct(Departure)71_storage"
					},
					"t_string_storage": {
						"encoding": "bytes",
						"label": "string",
						"numberOfBytes": "32"
					},
					"t_struct(Departure)71_storage": {
						"encoding": "inplace",
						"label": "struct ExportDepartureLogistics.Departure",
						"members": [
							{
								"astId": 62,
								"contract": "ExportDepartureLogistics.sol:ExportDepartureLogistics",
								"label": "batchId",
								"offset": 0,
								"slot": "0",
								"type": "t_uint256"
							},
							{
								"astId": 64,
								"contract": "ExportDepartureLogistics.sol:ExportDepartureLogistics",
								"label": "transportType",
								"offset": 0,
								"slot": "1",
								"type": "t_string_storage"
							},
							{
								"astId": 66,
								"contract": "ExportDepartureLogistics.sol:ExportDepartureLogistics",
								"label": "originPort",
								"offset": 0,
								"slot": "2",
								"type": "t_string_storage"
							},
							{
								"astId": 68,
								"contract": "ExportDepartureLogistics.sol:ExportDepartureLogistics",
								"label": "departureDate",
								"offset": 0,
								"slot": "3",
								"type": "t_string_storage"
							},
							{
								"astId": 70,
								"contract": "ExportDepartureLogistics.sol:ExportDepartureLogistics",
								"label": "logged",
								"offset": 0,
								"slot": "4",
								"type": "t_bool"
							}
						],
						"numberOfBytes": "160"
					},
					"t_uint256": {
						"encoding": "inplace",
						"label": "uint256",
						"numberOfBytes": "32"
					}
				}
			},
			"userdoc": {
				"kind": "user",
				"methods": {},
				"version": 1
			}
		}
	}
}